:400000000080002011000000810700008107000010B500F0ABFC00F0D3FB0000F8B572B680260024344DF6002C6032002100334802F0A8FD32002100314802F0A3FDEE2270
:40004000304B12061A60992306212F4A1B0413602E4A012713602E4A302613602D4A13780B431370D8222C4B12041A6002222B4B1F602B4B1A60C8222A4B92021E602A4B6E
:400080001A601222294B1A6002F072F8284802F043FA3800802702F077F8300001F036FF0221244A244B254E1A60FF05244A37601368FA200B431360224A234BC0001A60B3
:4000C0000822224B1C602B6893432B6001F0B0FF1F4801F011FF80221E4B12061A6080221D4B12031A6003231C4A376013601C4A13601C4B1C60F8BD6CF02E4000300F406B
:4001000000400F400000024000500F4020500F4030500F4000700F40080004400002044008020440000304400803044030001040001BB7000600008004010B400C020B400B
:4001400078002E406A2D00007C002E4064F02E40DC05000008010B4000010B403000304030003140000E3F4010B5064C2378002B07D1054B002B02D0044800E000BF0123F6
:40018000237010BD5027002000000000E8710100084B10B5002B03D00749084800E000BF07480368002B00D110BD064B002BFBD09847F9E70000000054270020E87101001B
:4001C000801C00200000000070B52B4C8389A5443C2B4DD1FE22018952004B1E9BB2934246D80022446804ABA05CD054013290B28142F9D803293BD9DA78101D814237D158
:40020000587884AE707098781978B07000203170F0701D292CD1194D2900824204D01B790635622B00D00D00280002F039FD04000200290085A802F09CFCE4B284ABDC7010
:400240006B4604341C816A463923019693810C4A01A9507813780002184311F0A1F8040003F0C6FD002C03D0064B1B78022BEED08223DB009D4470BDF0FBFFFF841C002038
:400280002C3B00202A3B002030B50C0085B027284FD020D8222840D015D803283BD003D8012800D17CE0B3E0042800D1ADE0212800D0ADE0E0788B784A780978009055486A
:4002C00002F068FCA4E024282CD028D325282BD026285AD09CE0412878D009D829284ED03ED32A284ED02C2800D091E04A488DE04C2877D006D8422800D089E00022474B9F
:400300001A7085E04E2866D04F2800D080E0002011F058F87CE0424878E0424876E00968414803E0414871E00978414802F032FC6EE03A4B3F48197802F02CFC6388062BEA
:4003400066D9062302A90B804B8000238B806433CB80394B18780DF0BBFE01003748E5E7374802F093FC002000F0EAFE011E02D0344802F00FFC0022334B1A6048E00978C9
:400380003248D3E709783248D0E7324B1A781C00042A3DD12C4A136801331360022B03DC002000F0CDFE33E072B601F021FF8020400001F089FF01F00DFF03F0DBFC03F012
:4003C00017FD0023237001F075FD21E00222134802F0CFFB1CE0204802F058FC2000FFF7F3FE15E08B893A2B12D1134D081D06332A00002112F0ABFA002809D168782B785D
:400400000002184311F020F802E0144802F03EFC05B030BD06720100B3720100E8390020EC7101004A72010087720100D9720100E9720100067301002C3B00202C730100FC
:4004400066730100897301006C270020AD730100D17301002A3B0020FD7301001C7401001FB50A4A01A8138892881B04134300936B46019304238380054B5B88038100232E
:400480001A00190012F063FA05B000BD7C7A0100187A0100F0B5002485B00722694902A802F067FB03F066FC674D2C7001F0A0FE8020400001F008FF032001F027FD032070
:4004C00001F0BAFC022001F001FD032001F01EFD802001F0D3FC5D4801F092FF082001F0D3FD62B69620400001F0F0FC72B6302001F0A2FC302001F009FD022001F0E6FC77
:40050000092001F0C1FD012001F0B8FC302001F0FDFC4F4B1C6000F095FC4E4C200002F0B5FB200002F0B2FB4B4802F0AFFB4B4802F0ACFB4A4802F0A9FB200002F0A6FBFB
:40054000200002F0A3FB62B6464800F09DFD02AA0721022001F0D6FA434B188812F092F9424B188812F08EF9414B188812F08AF9404B188812F086F903F022FE022804D104
:400580003D4BD968986805F0F7FE002302A91A0008000CF065FCFFF763FF00F0D3F8374B1C78374B24021A781443364A944214D16A46354907320F1D1E7816701678B4460F
:4005C0006046324E9E19B855314801338342F3D1063106222F4802F0CCFA220021002E4802F0D8FA2B4C2D48210002F0D3FAA11D2B4802F0CFFA03F0FBFB2B78023B012B23
:400600001DD8032003F0ECFB060001F08EFF0400032E0BD103F0D4FD042802D101F064FD0AE003F0CDFD062806D1F7E703F0C8FD022801D001F04AFD200001F07AFF00F02F
:40064000E5FBD8E7EB7401002A3B002001070000EC390020C1740100327401006C7401007D74010089020000387A0100687A0100FC740100607A0100F41C002001F7FF0F56
:4006800000F7FF0F5BA500006C270020000900F008F7FF0F841C0020AD740100C3740100D774010010B5144B1C79002C23D10B221A7101F09DFD8020400001F005FE01F035
:4006C00097FD0221200001F0B7FD0C49200001F01FFE200001F074FE0121200001F0C2FD0121080001F0BEFD012001F0D1FD01F071FD01F0F9FC10BD6C280020F0FF00001B
:4007000010B501F091FE01F0CFFBC046FFF7CAFF10BD70B50E0015000C00A31B9D4204DD207801F08DFE0134F7E7280070BD10B501F012FE8023DB00184202D0180001F060
:4007400015FE10BD10B501F053FD0C4800F098F80121080001F070FD0121080001F082FD2021012001F0D4FD012001F029FE8020400001F08DFD01F02DFD10BD2F070000C7
:4007800010B502F0BBF903680C2B00D1FEE7FEE7030010B580240849084A0868E400C3189A1AA24201DC0B6005E002F0A7F90C2303600120404210BD9C1C0020383B00208F
:4007C000F8B500250F49104B01394A1C14D000221F685C689E68A018B24203D0B858A0500432F8E70200DE68141AA64201D020C2FAE710330139E8E702F086F9FFF74AFEFC
:40080000FEE7C04601000000707B010001210F4A70B5136814008B43136000230C4D0D4E0D489A002900032B00D8B15801338150302BF6D1FFF7F2FB084B1A68002A00D198
:400840001A60012223681343236070BD00001040810700000000000000000020C000002010B5040001F061FEC021044AA40113688B431C43146001F05CFE10BD08E400E085
:4008800010B58024054B64001C60054B18660320FFF7E6FF034B1C6010BDC04680E100E00000002000E100E0004700234118002A05D0013A881800781B18DBB2F7E7180049
:4008C00070470000013810B50B2830D80902494201F08AFF06080A0C0E10141216191B20164B13E0164B16E0164B0AE0164B12E0164B0BE0164B09E0164B02E0164B00E0C3
:40090000164BC91814E0164B05E0164BC9180878C0B211E0144BC9180A7848788C780002230418430300C8781343000603E000210B7848780002184310BDC046C0FF030034
:40094000C1FF0300C5FF0300C9FF0300D0FF0300D1FF0300D6FF0300D2FF0300D4FF0300D8FF0300DCFF0300E0FF03000C4B10B51A68102313400B4A00D113601368802B7E
:400980000DD10024022021001460FFF79BFFA04205D021000220FFF795FFFFF785FF10BD00030B40C0000020F8B5010006000320FFF788FF040031000420FFF783FF01349B
:4009C00024022718002431000320FFF77BFF250001300002B84209D203785A1ED2B2FD2A00D80125E418E4B20130F3E731000120FFF768FF6442E4B20623844203D16A42EA
:400A000055416D422B401800F8BD0000F0B5BE4CA54401F027F962B6002601969621FF2302AA490008A801F069F90028F6D102AB1988062977D91A7E0423012A40D102AA87
:400A4000558BEA1D8A4270D8962149008A426CD808AA52199279172A32D1EB189BB2002B08D09EAAA949D21852181278013B801880B2F3E708AB5B195A7940421B79120290
:400A800080B21A43082382421AD150E0019B012B49D19F4B2B40032B45D102AA02AB977F5B7F3F021F43032D06D01F2102ABEA1EC91853A802F05DF80923012C00D88FE078
:400AC000002702A8012143763B0AC376002302AA02320176391D1780877689B2002909D09EA88A4C40180019007801391B189BB289B2F3E79EA98748C9195B4208189BB255
:400B0000037085481B0A08180370844B0737CB18172108A81970B9B2962301F0BBF87DE7019B012B50D00423CAE70323C8E702AB1C7F5B7E1800313814282ED9784A176875
:400B4000002F26D0019A012A25D105AC02AA1371D580002109AD0C222000049502F012F8A560210003A8B8472623A788FF339F4202D9A368AB4207D0A268002A01D1002F6A
:400B800004D12368DBB29CE70E2399E70E23170097E7052395E7052392E701F02FFEC1FF3500CFFF55008A00CFFF9000A4005500C900DC00CFFFCFFFCFFFCFFFCFFFCFFF79
:400BC000CFFFCFFFCFFF77FF002DACD12800FFF7EBFE4342434102AA1377019F2B0070E76402504BE41924029F4200D9C0E0621C53ABFF321B1B2178185D884200D0B9E061
:400C000001349442F7D16BE0019B012B8BD1012D89D1012C87D8444B1B681B685A0CD2B2944202D1DB03DB0D03E00023A2425B415B0202AA13771B0A5377FF239377FE3B03
:400C4000D377042700233CE7342B0FD1019B012B00D068E7032D00D065E7802280265200002153A801F08EFF760006E0019B012B00D058E7022D00D855E71F2153AB9819AE
:400C800002ABEA1EC91801F074FF0423AD19FF33ADB29D4270D102AB9D7F587F2D02214B05432E009D426DD9FF3BFF3B0193093306E7019B012B00D035E70026AEE6019B8B
:400CC000012B00D02FE72C33AF19FF339F4200DD2BE753AB98192A0009A901F04AFFBEB200231F00EDE6002D00D01CE705AB19000E4A2E0011CA11C109AA03CB03C2012309
:400D0000082701932B00DCE684FDFFFFA7FDFFFFFFFEFFFFACFDFFFFADFDFFFFAEFDFFFF74280020FF010000A01C0020F4740100019B012B00D0F6E6032D00D0F3E602AAF5
:400D400002AB977F5B7F3F021F432D4B9F4237D9F63BFF3BB4E60020FFF726FE002802D18022284B1A6000F07FFF01F0A3F8DAE60A23A5E60223A3E60123002601930233CE
:400D800037009EE6204B1B681A68130AD2B29BB2002A01D001339BB26002301880B2984204D20123002601930933E9E753A900F0D3FF0028F5D10123060001930300DFE7F5
:400DC00080226102C919090252000020FFF76DFD0500012C0ED10A4B9F420BD100210520FFF770FD00212D1A0620FFF76BFDEDB22D1AEDB202AB6D421D770127002360E671
:400E0000FF010000C0000020A01C002010B50020FFF7CAFD431E98410622094B4042024018681900402801D0002A03D000230B60FFF7ECFD80221A6001F03CF810BDC0468A
:400E4000C000002070477047014B18607047C046782800201FB50124002812D1002910D1A2420ED11A78642A0BD82A2201A8028101930A000B00848011F069FD441EA04140
:400E800084B2200004B010BD1FB5012400280ED100290CD1A2420AD12A2201A802810A008480019311F022FD441EA04184B2200004B010BD1FB504000120002C14D100290F
:400EC00012D1824210D801A8002A01D12C3200E02B22028100228380069B1100019311F005FD431E984180B204B010BD7FB51B4E05003468002C2ED0838900242C2B2AD16B
:400F0000CE23174A9B00D35806340193DB021DD5043040232A00002111F019FD041E15D12B8802AA1380130003909870D870686800F09EF9C30704D53220336802A9FF3052
:400F400003E09920336802A9400098470121054A13788B431370200004B070BD78280020187501002F3B002070B50C001E0086B001AD288011000A9B32002000FFF76AFF08
:400F800000281ED1104B1B78022B15D1DB230F4A9B00D358586800F06BF9C3070FD50C4BE4001C19638803A90B810A9B286803938E8010F0F5F904E00420FF3001E0802028
:400FC000400006B070BDC0462A3B002018750100FC74010070B51C4B002905D1DE7F190000231A001C0011E01A003F3216782033F5E7002C11D1CA5C002A23D00133DBB29F
:40100000CD5C083D012D04D9D318DBB2B342F0D301E00124FAE7002C14D0D2180133DBB2D4B21A0006E0D51A455D002D05D08D540132D2B2A242F6D304E08D540132D2B28B
:401040009442FAD870BDC046B41C002010B5FFF7FAFE00F089FD00F053FD00F0E1FA00F07BFC10BD0023054A10B51370044A1370044A1370FFF7EAFF10BDC0462F3B0020A5
:401080002B3B00202E3B002070B590B0040014221E490BA801F06DFD1D4D2B78002B03D1FFF7E0FF01232B700120002C2CD0FB22184B05AE1C6006AB1A805A8008ACF73A6B
:4010C0000893050020811A71099603F007FA1621082369442000337002F02EFD002813D105230290019000930B4A0BAB0B490C4802F096FD002807D180220A4B92003C219A
:4011000009481D7011F0A6FB10B070BD047501007C280020183B0020E8170000C8000020F51200002A3B00201875010010B502F021FE0022014B1A7010BDC0462A3B00206A
:40114000020010B50120022A2ED8184B1B78042B28D1174C2178194224D1164B002A09D11900093050310880C620596CC0000880203009E0012A08D1190096205031088023
:40118000C820596CC000088048800B49403318000A700EF051FF002806D1042223781343237001E00420FF3010BDC0462A3B00202F3B0020B41C00202E3B002010B50EF0D0
:4011C000EBFF0821024A13780B43137010BDC0462F3B00207047000010B504000120002C1CD014220E4B5B88013B53430D4AD3181A69187B00235168DAB2904205D9E25C2C
:40120000CA54002A01D00133F6E700212000FFF7E1FE20000121FFF7DDFE002010BDC0461E7A010018750100010010B50120002918D014220C4B5B88013B53430B4AD318C7
:401240001B6958681C780023DAB2A24204D30022DBB2CA54100005E0C25C002AF7D0CA540133F1E710BDC0461E7A010018750100037840780002184370470170090A4170BB
:401280007047000070B58389040000250B2B1AD1290004303533220011F059FB051E0DD16068FFF7E5FF094B21001B68820702D58220400001E00620FF3098470121044A5E
:4012C00013788B431370280070BDC046183B00202F3B0020002382799A4208D1821D0378002B03D101309042F9D100E00123180070470000F0B50127B14C85B0237806008E
:401300003B430D002370282800D19EE014D8062800D1A2E007D8B8422FD0052800D040E10A78A84B97E0262800D1C5E000D9C1E0212800D1A4E034E14C2800D1E6E012D8BB
:40134000422800D184E0432800D1D5E0412800D027E102229C4801F00CFC0022994B1A7000F0F0FA1DE14F2800D110E1502800D114E14E2800D014E1FCE00022072702ABA8
:4013800003A85A711F7102F089FD02AB03A81F715E7102F083FD8D4F3B6818000093FFF799FF0190002809D0009802F025FD00213868FFF70FFF310038682CE0FC22844B01
:4013C00012011878834B800110401A78F82112031300020049020B401A437F4BFE2118783F2303401A4310007C4B09041B787C4F5B040B401A00030013431A0A3B70380002
:401400001B0C7A70BB7002F0F7FC01993800FFF7E1FE31003800FFF7DDFE03200EF0B0FC00277F2302AA03A8137157710EF0C6FC6C4B02AA9380FB2103AA38000EF0E8FA5A
:4014400002AB9988FB200EF0D3FC0422664B02E000225D4B5A701A70A3E00B78002B00D09FE04B78002B08D11D22604BDA80E432FF329A805E4A4B601A60237801222AE05E
:4014800023789B0600D58CE05A490B78102B01D10B3BCB704C4B18780EF090FD03A90880002803D0544B36201B68984701222378134311E00222C9E74B4B19789C460229B6
:4014C0006FD022783A426CD004222078104205D00321197023789343237062E008202778074203D01A7023788343F5E7032958D104236246137054E04988404B994201D9ED
:401500008021890028880FF017FF4AE00800FFF7B9FE23783B4204D0002802D12800FFF7E5FC2378DB0702D5280000F01FFB2378DB0704D5002802D1280000F025F923784F
:40154000DB0704D5002802D1280000F06DFA2378DB0726D4002809D0122303A98B70AB89C87028680B800FF0DDFE1AE028680FF06BFF16E023783B4202D0080000F004F9B9
:401580002378DB070DD5280000F04EFA09E023783B4206D0080000F027FB02E0080000F03BFB112322781A4208D001222378290093432370104B30001B68984705B0F0BDCA
:4015C0002F3B00202B3B00202C3B0020081D00207DF2FF0F7BF2FF0F7CF2FF0F78F2FF0F0C1D0020480800002A3B002080280020B018002076230020183B0020FF01000029
:4016000010B5FFF735FE0121CB23044A5B000840181A13788B43137010BDC0462F3B002070470000014B18607047C046882800201FB5012400282ED108292CD806290CD8E0
:40164000080001F0D1F8140426240608220014210EE01A210CE01D210AE0062461430F480D3441182A390988002914D000E018210193002301A80181828019001A0011F0B3
:4016800066F9441EA04184B205E0132403E00E21EEE71621ECE7200004B010BD2C7A01001FB5012400282DD108292BD806290CD8080001F099F81404252306082100142149
:4016C0000EE01A210CE01D210AE0062461430F480D3441182A390988002913D000E0182101A88280002201811100019311F0FEF8441EA04184B205E0132403E00E21EFE76D
:401700001621EDE7200004B010BDC0462C7A01007FB50D000124002830D1022A2ED8033905292BD8052D29D0032D03D1022A25D1123423E02C1FE6B212490620022E03D819
:4017400060430918183102E068432A380918002A01D14A8803E00124A2420FD18A881324002A0BD001A8028100228380089B1100019311F0BBF8441EA04184B2200004B0CA
:4017800070BDC0462C7A0100F7B5424F06003B68002B01D100257AE06A460024038801941380947083893C4D182B15D1D4700189012901D000245BE043681A78002A06D03F
:4017C000012A55D12B78CC2493432B701CE02B7898248B432B7030E0162B17D16A46143BD37001890129E5D143681A78002A06D0012A3DD12B78CD2493432B7004E02B78E9
:401800009A248B432B7018E0640031E01A2B04D16A46163BD370C31809E01B2B01D1173B20E01D2B0BD1183B6A46D370331D01229C2401932B7893432B70FF3418E0002BED
:4018400001D10633F0E7102B01D1093BECE7112B01D10A3B06E01F2B01D1173BE4E7002B06D108336A467068D370FFF7C9FE04000123297819408DD1301D3F33320011F0B9
:4018800066F8051E03D13B686946200098472800FEBDC046882800202F3B002070B586B001AC20801D000A9E0120002941D1082A3FD8042A0AD0062A0BD0D31F834238D853
:4018C00006235A431C4C2A3AA41804E01A4C183401E0194C243423881320002B29D014226388013B5343154AD3181B695868FFF7BFFC0123010019400CD0114B1B78022BBC
:4019000015D1238803A901980B8103968D800FF047FD0EE0238803A803810A000B008580039611F014F8431E984180B201E00420FF3006B070BDC0462C7A01001875010016
:401940002A3B0020EE23034A5B00D35801225B681A7070471875010070470000014B18607047C0468C2800207FB50D001400012818D8002813D11000FFF77AFC0600A01C85
:40198000FFF776FC331F0F4A9BB293420AD8032808D9864206D32F23042D05D902E03123012901D901200BE001A8038100231A0019008580019410F0CAFF431E984180B26A
:4019C00004B070BDFC3F00001FB503000120834213D8002B03D12F33042903D90DE001290BD831230192002201A881801100038110F07CFF431E984180B205B000BD1FB54A
:401A00000400012084420CD100290AD1322401A882800A000193048110F068FF431E984180B204B010BD0000F7B51A4E050033681C1E2DD08389322B02D000242F2B27D1C6
:401A40006A462B882F1D1380002140232A00380010F07DFF041E16D1AB89322B0CD16B460127019068689F70FFF702FC07400A483368C01B694605E06B4669469870336868
:401A80000648019798470121054A13788B4313702000FEBD8C28002005020000060200002F3B002070B5012486B001AD28801E00A1421DD1A2421BD1F9230F4A9B00D358FC
:401AC0005868FFF7D5FB20420DD00C4B1B78022B0CD103A92F3328688C800B8103960FF05FFC040004E08024640001E00424FF34200006B070BDC046187501002A3B0020BC
:401B0000704770471FB503000120082B0FD8094C5B00E3185B8801A8038100238180019219001A0010F013FF431E984180B204B010BDC046687A01001FB503000120082B6D
:401B40000ED801920022074C5B00E31801A85B8881801100038110F0C9FE431E984180B204B010BD687A01007047000013B583890200362B10D11749174BCB5806210193F9
:401B8000DB0205D500210430402310F0E0FE0100124A0120137819E00021352B18D10B33043010F0D4FE842301000120094ADB00D3580B4A5B680B4C13609A78DB78A070AF
:401BC0001B021343054A07332380137883431370080016BD18750100140400002F3B0020303B00209028002010B543681B89352B0CD1007A012804D10FF0E4FB0022044BEC
:401C00001A800121034A13788B43137010BDC046902800202F3B002043681A89352A1AD1427A012A12D108211B680B4AFF3113609A78DB781B02134307339BB2074A8B4207
:401C400001D8138000E01180012393700121044A13788B4313707047303B0020902800202F3B00207047000010B5084B18780DF0E5FE002802D0FFF759FA10BD044B1B783F
:401C8000022BF8D102F0B4F8F8E7C0462C3B00202A3B0020F0B5164B164E85B0F358070058680C001500FFF7E3FA03000420DB071CD58423DB00F35822005E6839003000E2
:401CC00000F057FF35230C4A01A950780B811378000218438C8001960FF062FB002801D12C8003E0002301202B80404205B0F0BD34040000187501002C3B0020F7B50A2488
:401D0000070016005C430191002C1BD002F070F80F4DAB78012B10D100242A88019BAC709A4207D20B4B3800196800F022FF2B88338008E03480062405E0012000F0C6F815
:401D4000013CE1E7103402F053F82000FEBDC04690280020303B00200023F0B5C7B0029303932C4B050098424FD800294DD0802206A8520000F0FDFE274B9D4201D8274B43
:401D800000E0274BFF220493264C2749274B04AE726026600B60C046236801911B0F0F2B04D021680023090F0A2901D0236813400293029F002F2AD100F0B7FB0397029B16
:401DC000002B16D11A4A2D040492049A194915430495019D2660134A2960C0462168090F0F2903D01168090F0A2901D01368DBB20293039B002B05D10393039B002B01D0F8
:401E0000039B029300F095FB01E004230293029847B0F0BDFF030000FF010000B6D70000B6D70001080010400400104004000080B6D800000500008010B5040000F075FB8B
:401E4000102C04D803210C4A13688B430FE0202C05D80321084A13688B43023906E0302C06D80321044A13688B4301390B43136000F05FFB10BDC0463000104070B50400D9
:401E800000F053FBE104E024054DA4032B68054A21401A400B0013432B6000F04AFB70BD00010B40FFFFC7FF0222014B1A60704704000B40034A044913689BB20B431360F4
:401EC0007047C0460CED00E00400FA0570B5802504002D02064BAC4205D9586800F01CFB044BE418F6E79868604300F015FB70BD7C2300200080FFFF10B5034B1B7B5843EF
:401F000000F00AFB10BDC0467C230020F0B5050087B000F00AFBEB1E049003932D2B5BD8304B1B789D4204D82F4B1C782F4BE4B21EE02F4B1B789D4204D82E4B1C782E4B53
:401F4000E4B215E02D4B1B789D4204D82C4B1C782C4BE4B20CE02C4B1B789D4204D82B4B1C782B4BE4B203E02A4B1C782A4BE4B21B78EA1EDBB20193284B294F9A5C059305
:401F800002922F2A04D92A2D02D919263E6008E03F233E681E40029BB34205D2204B029A1A60052000F0B8FA1B4B1E4AED182B780520DBB213601C4B019A1C601B4B1A6050
:401FC000FFF79AFF029BB34206D9059B039A05209B5C3B6000F0A0FA049800F0AAFA07B0F0BDC04640F3FF0F41F3FF0F42F3FF0F43F3FF0F44F3FF0F45F3FF0F46F3FF0FED
:4020000047F3FF0F48F3FF0F49F3FF0F4AF3FF0F4BF3FF0F4CF3FF0F4DF3FF0F827A01002CFF0B4028FF0B401CFF0B4020FF0B40012370B5040080200E4900020A681D0009
:402040001A430A600C490D4A11600D490A6802430A60002C01D100200AE00120FFF74CFF084B1B682B42F6D1013C002CF5D1102070BDC04660F02E400220000078002E4039
:4020800010002E400C002E4070B502251E210C4C0C4A23684000AB432360136808408B4318431060FA2013681D390B4313608000FFF722FF044B1D6023681D43256070BDAB
:4020C00008000B4018000B4004000B4010B500F02CFA0421034A13688B43136030BF00F028FA10BD10ED00E037B500F01EFA04210D4A0E4D136804005B005B0813600C4B55
:402100000C4A1B8802209BB213600B4A13680B4313602B680193FFF7B1FE30BF019B20002B6000F006FA37BD00000B4000010B4052F2FF0F0C000B4010ED00E001200A4ABB
:40214000136883431360022311689943116007492E330A689A43203B1A430A6007220B68934303430B60704700F02E4000FF2E4010B5FFF7E3FF8021024A090613680B4397
:40218000136010BD00F02E400122104B70B51C681440002815D0904215D1022507261968A94319600A490A68B2432A430A600A682E35AA43103D2A430A601A681043186043
:4021C00001E0FFF7BBFF200070BDC04600F02E4000FF2E4010B500F0A8F9C021034A090213680B43136000F0A4F910BD00010B4010B5802400F099F90749084B0A68E401DA
:402200001A4022430A600A6813408022120213430B6000F08EF910BD00010B40FF3FFFFF0300044ADB0010680133D840012318407047C04610020B4070B505000C00FFF7BB
:40224000EFFF00280AD103210800ED00A8402140A940034A136883431943116070BDC0460C020B4070B504000D00FFF7D9FF00280BD10123E4000234A340044A116899436F
:402280000B002900A1401943116070BD0C020B400C4B1A6802431A60C20703D5022219681142FCD0C20504D58022920019681142FCD0C20304D58022920219681142FCD0D1
:4022C0007047C04610020B400F4B1A68C0231B021A4217D10D4B1A6882431A60C20703D5022219681142FCD1C20504D58022920019681142FCD1C20304D58022920219685B
:402300001142FCD17047C04600010B4010020B4070B50E4D06002B680C009B0FC920002B00D06C38FFF7E8FD0949300181408440084A432013688B431C4314602B689B0FCF
:4023400000D02438FFF7D8FD70BDC0460C020B40FFFF000008020B40024B1868024B18407047C04610020B400404040070B5050000F0DBF80E4B04001A68C0231B021340D0
:4023800011D10C480C49054028000E680B4A3240104308600A68012B01D1FFF71BFF200000F0C7F870BDFFF723FF0123E9E7C04600010B400404040010020B40FBFBFBFFFA
:4023C000044B054A196810400843186019681142FCD1704710020B400808080010B5040000F0A3F8044A054B1168A4050B401C43146000F09EF810BD0CE400E0FFFF3FFF4D
:4024000010B58024054BE4011C60054B98670320FFF7E4FF034B1C6010BDC04680E100E00000002000E100E08022024BD2011A607047C04680E200E000000000000000003D
:40244000FEB5494652465B460EB407462E4909688A462E4A12682E48022100F0D9F903002A480068C0182A4900F0D2F906001F3EB346234A126801219140C9430C00012576
:40248000002600F052F8814651460B6823400B605846043000F040F83800F040284090400B68234003430B60584600F035F80136072EF1D900200130012090400B682340F3
:4024C00003430B605846063000F026F8484600F030F8C046C046C0460EBC894692469B46FEBDC046C046C046C046C046C046C046C046C046C046C046C046C046C046C0462A
:40250000B01C0020AC1C0020A81C00208C23002000960000000000000230800803D00138FDD1C046C046C0467047EFF3108072B6704780F310887047F0B5204BC5B00092F7
:402540008A1803900F0001209A4234D8002005000E0A330204ACE41A009A954204D3012829D90120404226E00028F8D15A1CFF32019202909F420CD80099A94209D903994E
:402580001A78495DE154914201D001220292013501E01978E154019A01339A42EAD1029B002B03D004A93000FFF7D6FB013C0136FF3C019BD0E745B0F0BDC046FFFF030026
:4025C00001607047016070472B4B2C4A19782C4B09021B7819432B4B1B7812781B021343294A934204D1072909D1284B033906E0D4221201934202D1042900D1234B244A70
:402600001360244B244A1960244B1B7812781B021343234A134200D1224B234A23491360234A0B7812781B021343224A934204D0214A934201D0052B00D1204B204A13602A
:40264000204B214A1B681268AA2A14D11F2B12D90B780E2B0FD11D4B1D4A1B7812781B0213431C4A13601C4B1C4A1B7812781B0213431B4A1360704759F1FF0F5EF1FF0F24
:4026800058F1FF0F5FF1FF0F580B0000580D00006C002E4074002E405AF1FF0F5BF1FF0FFFDFFFFF0220000078002E405DF1FF0F5CF1FF0F0F0F000005050000050F000057
:4026C00080002E40EC0F00F0E00F00F06DF2FF0F6CF2FF0F84002E406FF2FF0F6EF2FF0F94002E4010B5FFF707FC10BD10B5FFF7EDFB10BD10B500F063F810BD10B500F0EB
:4027000067F810BD10B500F063F8034800F02EF8032000F031F810BDE127000010B5024800F03AF810BDC046E127000000487047020200002B2070472B2070472B207047D6
:402740002B2070472B2070472B2070472B2070472B2070472B2070472B2070472B207047704701207047012070470000014B18677047C0460000002010B50400FFF7D5FEA8
:40278000C021044AA40113688B431C431460FFF7D0FE10BD0CE400E010B58024054B64011C60054B18670320FFF7E6FF034B1C6010BDC04680E100E00000002000E100E0A2
:4027C0008022024B52011A607047C04600E100E08022024B52011A607047C04680E100E010B514F0EDFC10BD02B4714649084900095C49008E4402BC7047C04603B47146F6
:40280000490840004900095E49008E4403BC7047002243088B4274D303098B425FD3030A8B4244D3030B8B4228D3030C8B420DD3FF22090212BA030C8B4202D312120902DF
:4028400065D0030B8B4219D300E0090AC30B8B4201D3CB03C01A5241830B8B4201D38B03C01A5241430B8B4201D34B03C01A5241030B8B4201D30B03C01A5241C30A8B4227
:4028800001D3CB02C01A5241830A8B4201D38B02C01A5241430A8B4201D34B02C01A5241030A8B4201D30B02C01A5241CDD2C3098B4201D3CB01C01A524183098B4201D3A0
:4028C0008B01C01A524143098B4201D34B01C01A524103098B4201D30B01C01A5241C3088B4201D3CB00C01A524183088B4201D38B00C01A524143088B4201D34B00C01A3A
:402900005241411A00D20146524110467047FFE701B5002000F0F0F802BDC0460029F7D076E7704703460B437FD4002243088B4274D303098B425FD3030A8B4244D3030B1E
:402940008B4228D3030C8B420DD3FF22090212BA030C8B4202D31212090265D0030B8B4219D300E0090AC30B8B4201D3CB03C01A5241830B8B4201D38B03C01A5241430BEA
:402980008B4201D34B03C01A5241030B8B4201D30B03C01A5241C30A8B4201D3CB02C01A5241830A8B4201D38B02C01A5241430A8B4201D34B02C01A5241030A8B4201D36B
:4029C0000B02C01A5241CDD2C3098B4201D3CB01C01A524183098B4201D38B01C01A524143098B4201D34B01C01A524103098B4201D30B01C01A5241C3088B4201D3CB00EF
:402A0000C01A524183088B4201D38B00C01A524143088B4201D34B00C01A5241411A00D201465241104670475DE0CA0F00D04942031000D34042534000229C4603098B4204
:402A40002DD3030A8B4212D3FC22890112BA030A8B420CD3890192118B4208D3890192118B4204D389013AD0921100E08909C3098B4201D3CB01C01A524183098B4201D348
:402A80008B01C01A524143098B4201D34B01C01A524103098B4201D30B01C01A5241C3088B4201D3CB00C01A524183088B4201D38B00C01A5241D9D243088B4201D34B00A7
:402AC000C01A5241411A00D20146634652415B10104601D34042002B00D54942704763465B1000D3404201B5002000F005F802BD0029F8D016E770477047C046014B186847
:402B00007047C046482700200E4B70B500251E000D4CE41AA410A54204D0AB00F35898470135F8E715F012F8084B00251E00084CE41AA410A54204D0AB00F3589847013567
:402B4000F8E770BD587B0100587B0100587B0100607B010030B50024A24208D0035D651C0C5DA34201D0181B02E02C00F4E7002030BD002310B59A4203D0CC5CC4540133F8
:402B8000F9E710BD03008218934202D019700133FAE770470FB40B4B13B51C68002C05D0A369002B02D1200000F044FA05AB049AA1682000019300F009FC16BC08BC04B0C7
:402BC0001847C0464827002070B505000E00002804D08369002B01D100F02CFAAB69AC68002B02D1280000F025FA254B9C4201D16C6808E0234B9C4201D1AC6803E0224BF3
:402C00009C4200D1EC68A3891B0702D52369002B11D12100280000F0A3F800280BD0012040422BE0013B0136A360002B08DB23685A1C226019703178A3680029F2D10BE033
:402C4000A269934201DB0A29F1D12200280000F02FF8431CEFD1E2E7013BA360002B08DA22000A31280000F023F8431CD7D00A2004E00A2023685A1C2260187070BDC04602
:402C8000B87A0100D87A0100F87A010010B5034B01001868FFF798FF10BDC046482700200023C25C0133002AFBD1581E70470000F8B505000F001400002804D08369002B18
:402CC00001D100F0B7F9234B9C4201D16C6808E0214B9C4201D1AC6803E0204B9C4200D1EC68A369A360A3891B070AD52369002B07D023682269FEB2981A636998420FDB35
:402D000008E02100280000F02BF80028F1D0012040421DE02100280000F01EF90028F6D1A3680130013BA36023685A1C22601F706369984205D0A3893000DB0708D50A2E2C
:402D400006D12100280000F007F90028DFD13000F8BDC046B87A0100D87A0100F87A0100364B70B51D6806000C00002D05D0AB69002B02D1280000F05DF9314B9C4201D19C
:402D80006C6808E02F4B9C4201D1AC6803E02E4B9C4200D1EC680C22A35E9AB2110723D4D10607D409220120326037321343A381404242E0530713D5616B002908D02300E7
:402DC0004433994202D0300000F02CFA002363632422A3899343A38100236360236923600822A3891343A3812369002B0BD1A0238022A1899B0092000B40934203D02100EC
:402E0000300000F0D1F90123A289134005D00023A36063695B42A36103E0920700D46369A36000202369834207D10C22A35E1A0603D540221343A381013870BD482700203E
:402E4000B87A0100D87A0100F87A0100F7B58A8905000C0013075AD44B68002B02DC0B6C002B19DDE76A002F16D000232E682B6080235B011A4001D0606D14E00123216AA9
:402E80002800B847431C0ED12B68002B0BD01D2B01D0162B02D12E6000205AE04022A3891343A38155E0A3895B0706D56368C01A636B002B01D0236CC01A00230200216AD1
:402EC0002800E76AB847A389421C06D129681D293AD8204ACA40D20736D50022626022692260DB0405D5431C02D12B68002B00D16065616B2E600029CED0230044339942F2
:402F000002D0280000F08EF90020606321E00F69002FC1D00B680F60DB1B01930023920700D14B69A36003E0019B3F181B1A0193019B002BB0DD019B3A00216A2800A66AC8
:402F4000B0470028F0DCA389402201201343A3814042FEBD010040200B6970B505000C00002B01D100201CE0002804D08369002B01D100F05FF80B4B9C4201D16C6808E0EE
:402F8000094B9C4201D1AC6803E0084B9C4200D1EC680C22A35E002BE4D021002800FFF755FF70BDB87A0100D87A0100F87A010010B5024900F0B0F810BDC046592F0000F6
:402FC000002310B5040003604360836081814366C281036143618361190008225C30FFF7D1FD054B24626362044BA362044BE362044B236310BDC046493900007139000038
:40300000A9390000D539000070B568254B1E5D430E002900743100F051F9041E08D000212A00016046600C30A0606832FFF7AAFD200070BD836913B50400002B28D1836400
:40304000C3640365134B144A1B6882620193984201D101238361200000F020F86060200000F01CF8A060200000F018F80022E06004216068FFF7A4FF01220921A068FFF7F7
:403080009FFF02221221E068FFF79AFF0123A36113BDC046B47A0100B12F0000F8B51D4B06001D68AB69002B02D12800FFF7C2FF4835AC686B68013B05D40C22A75E002FCB
:4030C00010D06834F7E72B68002B01D02D68F0E704213000FFF798FF28600028F6D10C23336016E0012320005B42E3810233A38167662760A760676027616761A7615C30C6
:4031000008223900FFF73EFD20006763A763A764E764F8BDB47A0100F7B504000700002601914834002C16D06368A5680093009B013B00930DD4AB89012B08D90E22AB5EA0
:40314000013304D029003800019B984706436835EDE72468E6E73000FEBD000070B50E001D000E23C95E90B01400002906DA00232B60B3891B060FD540230FE001AA00F08C
:4031800055FC0028F3DBF023029A1B021340054A9B185A4253412B608023DB000020236010B070BD00E0FFFFF7B502268B8905000C00334210D101AB6A46FFF7CFFF0099F8
:4031C0000700280000F07AF800280CD10C22A35E9A0523D43343A3812300473323602361012363611AE080220D4BAB62A38920601343A381009B20616361019B002B0AD0A6
:403200000E23E15E280000F023FC002803D00122A3891343A381A3891F43A781F7BDC046B12F000070B50500002944D00C1F2368002B00DAE418280000F03BFC1E4A136883
:403240001100002B02D16360146031E0A3420DD92268A018834203D118685B688218226063600C6024E0A24203D813005A68002AF9D11E689819A0420BD1216871185818C0
:403280001960824214D110685268411819605A600EE0A04202D90C232B6009E021686018824203D1106852684118216062605C60280000F0FFFB70BDE4390020032370B5F6
:4032C000CD1C9D43083506000C2D01D20C2501E0002D01DBA94202D90C23336048E0300000F0E7FB234B1C681A002100002913D00B685B1B0DD40B2B02D90B60CC181EE088
:403300008C4202D1636813601AE04B6863600C0016E00C004968E9E7174C2368002B03D1300000F0FFFA20602900300000F0FAFA431C18D00323C41C9C43A0420DD125607B
:40334000300000F0B7FB200007220B30231D9043C31A0ED05A42E2500BE0211A300000F0E1FA431CEBD10C233000336000F0A2FB002070BDE4390020E0390020936810B51D
:40338000013B9360002B05DA9469A34208DBCBB20A2B05D01368581C10601970C8B201E0FFF786FC10BDF8B506000F001400D518AC4208D021783A003000FFF7DFFF01346B
:4033C000431CF5D100E00020F8BD0000F0B59FB006000F0002920593002804D08369002B01D1FFF727FE7F4B9F4201D1776808E07D4B9F4201D1B76803E07C4B9F4200D184
:40340000F768BB891B070AD53B69002B07D0002306AD6B6120336B761033AB763DE039003000FFF79DFC0028F1D001204042D6E0059A111D12680591002A00DA7FE00992D6
:40344000013423782E2B00D18DE021780322684800F024FB002807D0654B2A68C01A4023834013432B6001342178631C062261480293297600F012FB002800D19DE05E4BD8
:40348000002B00D090E00722059B07339343083305936B69039A9B186B61029C2378002B04D1029BE31A049312D003E0252BF8D00134F3E7049B029A39003000FFF773FFA3
:4034C000431C00D186E06A69049B944663446B612378002B7ED00122002352426A6002A95432521801342B60EB60AB601370AB6521780522414800F0D1FA002808D03F4BED
:403500002A68C01A0123834013432B600134EFE72B68DA0604D55322202102A8121811701A0704D553222B2102A81218117022782A2A00D17CE7099B00200A2105E052425B
:40354000EA60022213432B607AE72278303A092A04D84B4301349B180120F6E7002800D16FE709936DE763782A2B0AD1059B02341A1D1B680592002B01DA01235B42079342
:4035800063E700230A201A0001346B6021783039092904D84243013452180123F6E7002B00D152E7079250E705AB00933A00144B2900300000E000BF07E005AB00933A00E8
:4035C0000F4B2900300000F08BF80390039B013300D05EE7BB895B0600D526E70B981FB0F0BDC046B87A0100D87A0100F87A01001E7B0100227B010000000000187B0100BA
:40360000A7330000F7B5170001938A680B6900900C00934200DA130022003B6043321278002A01D001333B6023689B0602D53B6802333B60062523681D401ED023004333FF
:403640001B785A1E9341226892061CD53020E1184331087021005A1C45310978A2184332023311700FE022000123193201990098089EB047431C0ED00135E3683A689B1A4C
:403680009D42F0DBDAE72200019943320098089DA847431C02D10120404220E006232068E1683A6803400025042B03D18D1AEB43DB171D40A3682269934201DD9B1AED183F
:4036C0000027BD420AD0220001231A3201990098089EB047431CDED00137F2E70020FEBDF0B58BB006920A0043320793059004920A7E0C00109B6E2A00D1ABE011D8632A0B
:4037000022D009D8002A00D1B5E0582A00D0C5E045310A70814A4FE0642A1DD0692A1BD0BCE0732A00D1AAE009D86F2A29D0702A00D0B3E0202209680A43226037E0752A10
:403740001FD0782A33D0A9E00E001A684236111D196013683370A4E021681A68080606D4490604D5111D19600023D55E02E0111D19601568002D3BDA2D23049A6D4213705B
:4037800036E021681A68080606D4490604D51568111D1960ADB202E0111D196015685F4B227E039308276F2A1DD00A271BE022007821453211705A4A19680392081D226872
:4037C00018600D68100602D4500600D5ADB2D30702D520231A4322601027002D03D1202322689A4322602300002243331A7002E00A274A4B03936368A360002B09DB0422A9
:40380000216891432160002D05D1049E002B11D07BE0002D79D0049E28003900FFF77EF8039B013E5B5C280033703900FEF7F0FF051EF1D1082F09D12368DB0706D5636834
:403840002269934202DC3023013E3370049B9B1B23612BE009681A68080607D4490605D5111D19601368A28A1A8004E0111D1960136862691A600023049E236116E01A68F8
:40388000111D1960166800216268300000F006F9002801D0801B6060636803E0260042363270012323610023049A1370079B09AA00932100069B0598FFF7A4FE431C02D19A
:4038C0000120404227E02369320006990598079DA847431CF4D0236800259B070FD4099BE068984217DA180015E022000123193206990598079EB047431CE1D00135E3687B
:40390000099A9B1A9D42F0DBE9E72600039B42361B7833708EE70BB0F0BDC046297B01003A7B0100002370B5064C050008002360FCF72EFF431C03D12368002B00D02B6077
:4039400070BDC046343B002070B50C000E25495F00F0B2F8002803DB636D1B18636503E0A289024B1340A38170BDC046FFEFFFFFF8B51F008B8905000C001600DB0505D55C
:403980000E23C95E0022022300F074F8A289054B28001340A38132000E23E15E3B0000F01FF8F8BDFFEFFFFF70B50C000E25495F00F060F8A389421C03D1054A1340A381F5
:4039C00004E0802252011343A381606570BDC046FFEFFFFF10B50E23C95E00F015F810BD70B50500080011000022064C22601A00FCF78FFE431C03D12368002B00D02B6092
:403A000070BDC046343B0020002370B5064C05000800236000F064F8431C03D12368002B00D02B6070BDC046343B0020002370B5064C050008001100236000F059F8431C6D
:403A400003D12368002B00D02B6070BD343B0020002370B5064C05000800236000F050F8431C03D12368002B00D02B6070BDC046343B002070B50500080011000022064C86
:403A800022601A0000F044F8431C03D12368002B00D02B6070BDC046343B0020C9B28218904204D003788B4202D00130F8E70020704770477047000070B5050008001100CB
:403AC0000022064C22601A0000F02AF8431C03D12368002B00D02B6070BDC046343B002058220120014B40421A607047343B002058220120014B40421A607047343B00204C
:403B00005822024B00201A607047C046343B002058220120014B40421A607047343B002058220120014B40421A607047343B002000930100EC000000F8B5054636480F463B
:403B40000078002802D002242046F8BD002F60D000243249002D16D02A89D0070DD02868002808D003881B3BE12B04D24088FB2801D81B2801D2012409E0900707D568689C
:403B8000002804D1F7E70020088108604860002CDAD122482E8906811F481B21801D01804180042101711C490020891C0870F00705D019480622801D2968FEF7DAFF174986
:403BC000B00703D56A68144812788270124D0E46AD1D281F0D60486002F092FB284602F081FB308910F002F830890FF0C7F928880FF0CAF9308910F075F90346103300F018
:403C000041FC1F21C018890140183880A91F88809AE7012498E7000090230020A0280020FFB585B0002768460E9D07734F481C460078002802D0082009B0F0BD10990F98B9
:403C400001900095029105A807C800F069FC0028F2D16946264603AB84460873002C19D0002115E08A00B75A082F09D990198078002805D0083FB7521878401C187005E09B
:403C8000002914D00027B75290198770491CC9B2A942E7D360460028CED10F98002809D0109901F031FE002804D00120C4E701208446EFE702F090FA2D48002141608160A7
:403CC0000599016021888180022D07D3A1798171A17AC171A1890181218A418100211EE0481C19E082008B00A75AE65ABE46BE4211D26F463E80B4461E190296B678BE7057
:403D000001967646E6521719029EBB78B3706646A652019EBE70401CA842E3D3491CA942DED3134822460C3000906846037B0799069800F07DFC0028B8D168460B4C007BD1
:403D400060700B480C3002F077FA0028AED1084907480C3109F02EF80028A7D109F054F80028A3D10121217066E70000902300209428002010B509F03BF802F02DFA02F0B2
:403D800083FA084C2078002801D000F0E1FC00F0F5FCFF2001F066FCFF2001F073FC0020207010BD9023002010B509F021F802F013FA02F069FA00F0CBFC074908460C38EE
:403DC00008F0F8FF002806D109F01EF8002802D1024A0121117010BDA02800209023002010B502F0E3F910BD10B502F0F5F910BD10B500F0A3FC10BD10B507490446097881
:403E00000220002907D1204602F054FA002802D120460CF0B9F810BD3425002010B502F0E3F910BD1CB5FF206946087100200870FFF7DAFF6A4601A9062001F0CDFA69469F
:403E4000002008561CBD000038B504460120002C20D0617801291DD800290BD0FF25E535FFF7C2FF0C4828180088C0B22070072803D00EE0FF25CD35F2E700206946087032
:403E8000684601F0D3FB69460878012801D108202070002038BD000000102E40F8B504460120002C26D06178012902D92278092A20D8002905D0FF25E5352078092803D06B
:403EC00004E0FF25CD35F8E708202070FFF78CFF2078114F114E08280DD0002000F028FA70780128207810D00D4969180880FE2070700020F8BD012000F01AFA0720B881CA
:403F00000549203188800120F2E7B8810248217820308180EBE70000C0112E402C24002000102E400121002807D005494A8842804A784270097801700021084670470000E5
:403F4000C2230020F8B504460120002C52D0217808294FD2617804294CD26088102166283DD800283BD065882348662D45801BD801270026BF020A2D33D90A212846FEF755
:403F8000CDFCC0B2072800D907200A2141438D4204D9691ACEB21F2E00D31F264101314339431648FEF70CFB134D60786870217829701349496A8A0781001148920F114397
:403FC0002430FEF7FFFA687800280CD0401E022181401820FEF78CFDC000083804E06180C1E72946DCE7B82081B204482030FEF7E9FA0020F8BD0000C2230020B8102E4075
:4040000040F02E4070B505460124FFF7EDFE002D04D00821284610F047FE0024204670BDF7B582B069460BF081FD050041D1FFF7DBFE6846008804F023F8040038D004F0A7
:40404000DAFB002834D0FF278820493700593E46002805D01849097B890601D5878AC68A204602F085FC01280DD006F059FD50210A5B617903F018FA283081B233463A4608
:40408000204606F06DFA20464030C28A04998A4200D9C182C18AA07805F010FC0398012801D901200390A078039905F00DFD00E00625284605B0F0BD082D0020F8B50E46FC
:4040C00069460BF033FD050033D1FFF78DFE6846008803F0D5FF040019D004F08CFB002826D01548F121007B0840C00621D520464030418A008A491C41430804C00C0F49A7
:4041000086420CD326822079072802D011E006250FE001200870204603F0A4FB09E0002E07D100200870A078002104F075FF00E002252846F8BD0000082D00202C240020E3
:40414000F8B5012406460D46002925D013480078002808D0FFF748FE694630460BF0E6FC040003D018E000200880F8BD6846008803F086FF06000ED004F03DFB00280AD0B3
:404180000748F121007B0840C00602D5308A288002E0022400E006242046F8BD2C240020082D00200121002808D0FF218A31C18003210180062141808180002108467047F8
:4041C00010B501F011FA012801D101F013FA10BDF0B589B015460F4606460124FFF704FE002E20D0002F1ED0002D1CD0102239466846FEF7BEFC1022314604A8FEF7B9FCE0
:404200001021684610F074FF102104A810F070FF2B46102204A9684606F036FC1021284610F066FF0024204609B0F0BD38B5FEF77DFA02F071F803211948FEF7C3F90120BB
:40424000FEF750FA16483038406A04218007800F084381B2009012480C38FEF7B3F91148016802221143009189B2FEF7ABF9B8210D48FEF7A7F90C48032109021438FEF7E1
:40428000A1F9094C5321D83C2046FEF79BF907210648FEF797F954212046FEF793F938BD70F02E40001F2E40D8102E4098142E407CB5FF24069E079D00280BD0002909D0E0
:4042C000002A07D0002D05D0002E03D0002B01D01B2B01D9012406E00096019506F003FC042800D1002420467CBD7CB5FF24069E079D00280BD0002909D0002A07D0002EE2
:4043000005D0002D03D0002B01D01B2B01D901240BE00096019506F09FFB042802D0052802D002E0292400E0002420467CBD000010B50A4A141D012808D009491046FEF709
:4043400041F908492046FEF73DF910BD04491046891CFEF737F90349491DF3E788002E4031D000003AE3000010B5064A012805D01921C9021046FEF725F910BD1D21C902F0
:40438000F8E7000090002E4001460120002903D0024A002012880A80704700004825002070B5044601250DF0F3FF00281CD10F4914204968604340182038C1890C4881425E
:4043C00008D0C01E814205D0401C814202D0401C814209D1E008074B6407195C640F0122A240914319540025284670BDC025002003280000C0330020014610B50120272932
:4044000003D8084601F092FF002010BD10B50121002808D08278072A05D80278272A02D801F092FF0021084610BD0000014608B50120002909D0002003460090064A0748D3
:4044400000F0D8FA002801D0022008BD034A0121521E117008BD000095CE0000D124002010B5074C02202178012905D1607800F015FB002801D0022010BD0021217010BDEB
:40448000D0240020134A1088810703D08107890F401A001D11791030484381B25088820703D08207920F801A001D800040180A494030098980B2CA0701D0503080B2890721
:4044C00006D504495422091F09785143081880B27047000096230020A028002010B501F043FF0BF0D3FA10BD70B504460120002C12D02368002B0FD0616800290CD0074D35
:4045000006222889208118462968FEF732FB6968606809780170002070BD0000A0280020FFB58446384F1C460020BB883F78054602460646002F11D100290ED00299994242
:404540000BD36146002908D0002C06D00A99002906D02E4B0B99994202D2012004B0F0BD002144E0AB001F19BF78002F3BD0E35A002B38D07B43591889B22B0000F04AF8F3
:40458000050410161C253100A7782388BC46FF27233BEB37BB4222D26346032B1FD322E0A388002B1FD0302B19D31CE02389002B19D0282B13D316E0A289002A13D0134624
:4045C000134F233BBB420AD20DE0268A002A0AD033460F4F233BBB4201D2964203D901200EE0002001E000280AD16D1CEDB2099B9D42B7D31C2463435B1802998B42ACD83B
:404600009642AAD8AAE700009023002079020000BAFF000030B47446641E2578641CAB4200D21D46635D5B00E31830BC18470000FFB583B0002469460C801F4606468C80C5
:40464000002806D00598002803D004983043800701D0012466E0002FFBD03449049809888842F6D3FEF75AF8FEF748F800F06EFC002855D100F0D8FD002851D12C490846A5
:4046800001F076F905042D0C4AD12A480499066081800021C18007810C98007AC00704D0684601F0B2FD040007D10C98007A800703D501A801F0B2FD0446BF1DFEB2002C32
:4046C00020D13146059800F085F804001AD10FF017FC040016D16A461088928808368518144AF1B29088D288AEB29319984207D3401B801A80B201F02DFC050007D000E0EF
:40470000FF25012400F0BAFA002D04D008E0F8B200F044F9F6E700F0DDFA07490120087000F026FC204607B0F0BD000094230020C1480000AC2800209C23002010B50348A0
:404740000078012801D101F0A7FA10BD9C23002010B5FF2400F006FE00280AD100F00CFC002806D10448007A801DC0B200F02EF90024204610BD0000AC28002010B500F0C6
:404780000DFE01F027F90449002008608880C88008810249087010BDAC2800209C23002070B5084B0446DA889E8803205518B54206D8186880182060D8884018D880002055
:4047C00070BD0000AC2800200148008970470000AC280020F0B587B007460D4600208900009006916846FFF7DBFF844600285DD1304800990160002117E02E4B88001A6824
:404800000629115406D22C4C0419667882185670628805E0C419203CA67A8218567022891B68C018491C4280C9B2A942E5D300242DE0601CC2B2059025E01E4FA3003968FA
:404840009600581840887118039604904E88B04217D938466F46FE80B6464F786E4677710297049F4F800168039F5E18767879184E700168764659184E800068029F181886
:404880004770521CD2B2AA42D7D30598C4B2AC42CFD36046002809D168460699FFF780FF8446002802D1054900980860604607B0F0BD0000A0230020807B0100A4230020C9
:4048C0007047000010B5002809D005494A68002A05D0011F08788000105801F0E9FA10BDA023002010B50446FFF76EFFC0B2801DA0420CD307484068002808D0A1004058BE
:4049000001F048FA002801D00470001D10BD002010BD0000A0230020F8B516460D460446FFF752FFC0B2801DA04203D20020C0430090F8BDB2B2E9B2684601F051FA009980
:40494000481C03D0024AA000526811500098F8BDA0230020F8B50746FFF736FF801DC6B20A49002005460C680DE06178002907D06188B94202D32078FFF7B4FF002804D1A0
:40498000241D6D1CEDB2B542EFD3F8BDA023002010B5002801D0FFF795FF10BD70B506460948002504680BE06178002905D062882078121D0023FFF7AFFF241D6D1CEDB232
:4049C000B542F1D370BD0000A0230020F8B5084F064600243D6808E0287879688000085801F012FB2D1D641CE4B2B442F4D3F8BDA0230020FFB581B00A9F16000C4620D0F1
:404A000000F0F6F8054604281BD0002F0CD03846FFF7A0FF20492A0151184860002810D03A460499FEF7A5F81B4928010E504618778101980570200406D47D20C00044438B
:404A400004E0FF2005B0F0BD6404640C00F0BEF80746042807D000F06FFAA0420BD800F06BFA201A03E0204600F0CCFA0020F06035720020E6E700F05FFA009000F0D8FAB8
:404A800000980121001B009000F00CF902493A0151180098C860E6E7B8280020F8B5042801D3FF20F8BD060116483418217A042903D0E068002802D017E00020F8BD00F055
:404AC0003BFA054600F0B4FA00F0A0F804280CD001010C480F18F8680021451900F0E2F80020F860284600F08DFA6068054D002801D0FFF74DFF042020720020A851608180
:404B0000E060DAE7B8280020FEB500266A46304601232549050169180D7A042D02D0C96800291BD000211154401CC0B20428F0D300246846005D002830D01B48210108184E
:404B40004189476805680291002101604160042241810272C160002E02D015E01354E3E700F054F804280ED001010F4808180190C6680021304600F095F801980021C16089
:404B8000304600F03FFA0126002D07D038460299A847002F02D03846FFF7FAFE641CE4B2042CC6D3FEBD0000B82800200EB5002005216A460090118150810348694600680E
:404BC00010F051F80EBD0000A8230020074A0020010189180B7A042B02D0C968002903D0401CC0B20428F3D370470000B82800200549002002015218127A042A03D0401CB4
:404C0000C0B20428F6D37047B828002030B50A4B04200A4C00210A011219157A042D06D0D268002A03D09A4201D808461346491CC9B20429EFD330BDFFFF0000B828002068
:404C400070470000F8B500250B4F2E462801C419217A04290AD0042121723E506068002802D0FFF795FE66606681E6606D1CEDB2042DEBD3F8BD0000B828002030B50020E0
:404C8000074C05460423020111190B72A5504D60401C4D81C0B2CD600428F4D330BD0000B828002030B5094C00231A011219157A042D04D0D568002906D02D18D5605B1CD6
:404CC000DBB2042BF1D330BD2D1AF7E7B8280020002070471CB5002469460C70142001902346054A05480FF0C3FF04480068401C00D1FF2420461CBD514D0000A8230020D4
:404D00003EB5124A0146FF2000230124126800290DD0012914D0042908D104206946009308814B8110460FF09EFF80B23EBD6846009304814381694610460FF08FFFF4E711
:404D400068460093048143816946EBE7A823002070B545890468416800890300FFF75AFC08280509091E22282628002006F09EFC1EE0022908D0C8B22A4621460EF052F816
:404D80002046FFF705FE13E002202A4621460EF049F82946204600F00DF809E000200FF059FC05E02046FFF7AFFE01E0FDF7D8FC002070BD014B0022DB681847AC2300205F
:404DC00070B5448905680089022803D0032809D0FF2070BD2246094C0023A46829460120A04708E0FFF700F8241DA2B200232946022007F092FE002070BD0000AC23002039
:404E000070477047024800214160018041807047AC23002070B50C46002186B016460391012802D0022859D116E003A9012007F0C9FE01281BD1039D324621462846FDF78C
:404E400098FE0095287801900220694608814E816846FFF7B5FF41E0214D002B686809D0049004A9022007F0ADFE01281DD0022006B070BD002812D0298840182146FDF764
:404E800078FE28880024801980B228806988091D884206D12C801348FFF792FF03E00320E6E788421AD96C6018E004986860E278A378110219430B4A698000231060E35649
:404EC0005360032313815181A1788170E178C1706178417021780170042028800020C7E7AC230020F82800203EB515460C46022803D004280CD000203EBD0091019002207E
:404F00006946088107484A8100680FF0ACFE07E00DF088FF044B0022DB6829462046984701203EBDA8230020AC230020014AD16090607047AC230020034801688068081A75
:404F40000A214843000970470429002010B5FDF7D9FB4C2204490548FDF70BFE03490120C870002010BD00009C7B0100082D002010B5FDF7BFFB10BD0020704770B5134C42
:404F80002368002B08D0207B1149C20705D04008400020738868A08070BD88680B4AA18880B29268814203D90A4D691A091802E0814202D2411A5118A160A080A068984204
:404FC000EAD30FF06DFE00F013F870BD04290020C0102E40FFFF000010B508461946FFF7A5FF10BD704710B5FFF77EFF10BD000003480021016041608160C160704700001D
:4050000004290020024610B5FF20002A0CD0FFF7EFFF064C0321207B0843207310010A21FDF77CFC2060002010BD00000429002000B504480A21806848430209FFF7D8FF45
:40504000104600BD042900200248007B8007C00F704700000429002010B54B490868002802DA4A4B01221A70022290430860484800694549C00B4031096A0246C907C90F1D
:405080000A4259D0012000F0EDFA3F480E216C30FDF798FA3E4820218430FDF793FA3C4814219C30FDF78EFA3948FF21C131A430FDF788FA3648FF212F31B030FDF782FA83
:4050C00033483449BC30FDF77DFA31483249AC30FDF778FA30492E48491CB430FDF772FA2B482E49B830FDF76DFA29482C49CC30FDF768FA26482B490830FDF763FA244857
:405100002949A830FDF75EFA214828498830FDF759FA1F4826498C30FDF754FA1C481921C9029030FDF74EFAFDF74EFAFDF7FEFAC0B2022812D01FE000290BD000210142BA
:405140000AD0114801216030FDF73CFA0120FDF7CDFA97E70121F2E7FF2010BD15491648FDF730FA14481549001DFDF72BFA124800210830FDF726FA54200449C043891CE5
:405180000870002010BD000000F02E40BC23002000002E40320300002F3F00003102000010520000EC160000FA12000031D000003AE300009956000080012E40F80F000076
:4051C00070B50646581C80B245086D00002408E0304600F0C1F81055000A1119A41C4870A4B2AC42F4D3D80705D0D0182038D15CC47FD454C17770BD30B50A4C0021001931
:405200005B1E07E0541864782502545C2C430480891C89B29942F5DB994201D1515C018030BD000000102E4010B5FF2000F01AFA0F49FF2048700E481021801D418001210D
:40524000417001700A490020C91C4870FFF704FF04000AD100F02EF907210648FDF7B0F9044807211830FDF7ABF9204610BD0000BC230020CC112E4070B5002405465B1E1C
:405280000AE0284600F068F8010A161971702D1D1055A41CADB2A4B29C42F2DB9C4203D1284600F059F8105570BD000070B500210A4D5B1E0AE0541864782602545C3443D2
:4052C00046193480001D891C80B289B29942F2DB994202D1515C4019018070BD00102E40F0B50599091FCFB200217E1E0BE0541864782502545C2C43164D45192C80001D38
:40530000891C80B289B2B142F1DBFC0712D01C78515C24020F4A0C4381180C809C785D78001D210280B2294384182180001D80B2D9780CE059781A7809021143054A841846
:405340002180001DD9789B78090280B2194380180180F0BD00102E40014940180088704700102E4010B50B490020487000F0A2F80020FEF7DDFF0020FEF7F6FF07210648E3
:40538000FDF71EF9044807211830FDF719F9002010BD0000BF230020CC112E4010B50C48007801280FD100F067FF00F0DDF8002804D10848016A490849000162054802210C
:4053C0003030FDF7FFF802490020C91E087010BDBF23002040F02E4010B50B46062812D006DC01280CD0032801D1FFF7BBFF10BD0A28FCD00B28FAD105480078107010BD96
:40540000FFF712FF10BD1146184600F041F910BDC2230020F8B5244DAC6A0127A007234E002816DA307806280ED1286A384328621F480069F903084381B21D481030FDF72C
:40544000C1F8042000F00EF9174802212830FDF7B7F8E00718D000F0DDFF01280FD1002001F012F8062000F0FDF81049FF20C91E48707078002802D1686B384368630A48AC
:4054800001212830FDF79CF8E0050BD53078042802D1052000F0E6F80348FF2101312830FDF78EF8F8BD000040F02E40BF23002000002E4010B503212348FDF783F8012075
:4054C000FDF710F920483038406A204C80076178800F890001431C480C38FDF773F86078002808D0401E022181401820FDF700FBC000083800E0B82081B21548FDF762F82F
:405500001348032109021438FDF75CF810481149B830FDF757F8612189010F48FDF752F80D480321001FFDF74DF80C490C48FDF749F80B480B496038FDF744F8084801213F
:405540008838FDF73FF810BD70F02E40C2230020D8102E4090890000041E2E40FF0F000058122E40209000000449012009684907490F022900D000207047000000010B4066
:4055800000B5FFF7F1FF002805D009480168C908C900016000BD0748016A490849000162054801690122D2039143016100BD000000010B4040F02E4000002E400848017867
:4055C00006290BD140780749002803D1486B400840004863C86A01221043C86270470000BF23002040F02E400148007870470000BF23002002484078022800D0012070473F
:40560000BC23002000B50300FFF704F8080D050D0B070507090D012000BD032000BD042000BD022000BDFF2000BD0000074A9168D26889B2064B92B2994204D105498A42EE
:4056400001D1012100E000210170704780002E4033D000003FE300000149487070470000BF23002010B50446FDF748F8072C01D9FF2C01D102480470FDF73CF810BD00003F
:40568000BF2300200149487070470000BC23002070B50C460546FDF749F8C0B202280E49287804D0FF2810D04C280CD810E0FF2809D10A4AD0680004800F032801D00878E7
:4056C00007E09069000A553803E00878207070BD4F382070087070BDBE23002000002E40F0B50122002834D0002932D00424420600D00524792342065B06D21800D0641CE1
:40570000034600221EE00C2516466E43124D00277519AF72104F002ABB51696007D0661EB24209D10D4E86197606760E05E05E06760E8027BE1B00E080269B198919521C75
:405740002E81D2B2A242DED303480549006B002288611046F0BD0000902B002079020000C823002018B50020694608700A48006900280ED0132149014018047E684604709F
:405780004F21C900054800F05BF8A04201D0012018BD002018BD0000C823002014290020074900200C2242435218927A012A05D0401CC0B20628F5D300207047012070470E
:4057C000902B0020F8B50F000446164609D01A4D1A496868A04202D94018A04201D38E4201D90120F8BD39462046FDF7B3F9002820D0324639462046FDF7BBF90E49F0B213
:40580000012620318E7600210C220B4653430A4A9A1813895568EF18A74207D9641B1B1B9672834206DAC01A1469C0B2491CC9B20629E9D30020F8BD902B00207902000066
:40584000034610B50020024604E09C5C2018521CC0B292B28A42F8D310BD000070B500F063F8084C064A216907480D46FDF781F905492846FFF734FFFFF774FF207070BD5D
:4058800079020000C82300201429002010B500F04BF810BD002070470020054A002902D0012902D002E0906000E0D06000207047C823002070B5084C154608460549E26885
:4058C00089182A46FDF755F9E0684019E06028B270BD000014290020C82300203EB50A226946FFF7E7FF044606480A2200686946FDF730F9002802D00020C0433EBD2046E5
:405900003EBD0000CC230020002802D0044A914201D2FF20704703494A6108610020704779020000C8230020024800218160C16070470000C823002070B5074C154605488D
:40594000A26880182A46FFF73DFFA0684019A06028B270BD14290020C823002010B503490A220968FFF7E8FF10BD0000CC23002010B50F4A002313600E4A13600E4B18605C
:405980000E4801600E49012008600E490860000290600E490C4808600D4914300860FF381538506000F0BEF800F0CCF9002010BDFC230020E42300201024002014240020FC
:4059C00000240020F0230020D82C0020F42300200824002000207047014610B50020002910D0094B1A689C685118A14209D25868196080188A0704D08A07920F891A091D4B
:405A0000196010BD002010BDE4230020F8B50024164E671E321F3D463168136806E01422624310328A58521C1BD0641C9C42F6D36A1C14D02C461422544322460C328850DE
:405A40000C214843FFF7C8FF3168002808510AD031680020103408517068401C70602846F8BD2546E4E73846F8BD0000F4230020F3B50026F64381B000281BDB1E49096872
:405A8000884217D80299002914D01B4F142204463F1D54432546396810354859401C09D0FCF72CFE38682F1F4159C359994203DBFCF720FE3046FEBD2146083100914658F6
:405AC00001590C20704308180C220299FDF751F80948761C001D0068C159B14200D100260549009A091D865008684159491C4151FCF700FE0020FEBDF0230020002803DBF1
:405B000007490968884202D90020C043704704491422091D096850431030085870470000F0230020F0B500200D4A451E0346171F50600FE014260146714314680E1DA35181
:405B40000C461668083433511668083435511468401C635039688842ECD30020F0BD0000F4230020F3B50026F64381B0002841DB2349096888423DD8029900293AD0204F27
:405B8000142204463F1D54432546396810354859401C2FD0FCF7B2FD3868415900292BD0211D009146580C21005971430F46C1190C220298FCF7DDFF11480021001D0068B9
:405BC000761C00590C34C0190160416081600C48001D00680159B14200D100260849009A091D865008684159491E4151FCF782FD0020FEBD3046FEBDFCF77CFDFAE70000EC
:405C0000F0230020FEB504460D4600201E49089E0860471E009001900290002C11D0486885420ED2002A0CD0002E0AD0642E08D808460C3001681C2068430C18207A002890
:405C400001D03846FEBD0120226020721846FFF7DDFE6060401C13D06681A6810A4827610C3067610179A94200D205710021684601810A462846029B00F040F82846FEBD21
:405C800000202072DDE70000FC23002038B50124009400F039F838BDFEB50027164EFF433D4600240EE01C20316860430818017A002906D04068FFF721FF002801D025462A
:405CC00003E0641C3079A042EDDA681C12D01C2130684D434419FCF711FD69466068FFF741FF0546FCF706FD002DD9D1216868468847D5E7FEBD00000824002038B5002427
:405D0000009400F001F838BD1FB500220C49541E0A60002811DB496888420ED808491C220C31096850430818406801A9FFF7A0FE401C02D0002004B010BD2046FBE7000068
:405D4000FC230020F0B50021114A4D1E174611710C3F0B46BD6016E008461C2460431668041D355114680646235014680836A3551468361DA353044616680A3433531830EE
:405D80001468491C255078688142E5D30020F0BD0824002038B500210091002811DB0F49097888420DDA0D4D04010C3529680859002807D0201D0818694600F06FF90028BF
:405DC00001D0002038BDFCF799FC28680F34015D491E0155FCF78EFC009838BD18240020F7B582B0002502986E1E06602E48D21C024017462D4A2C4610460C3801781068DB
:405E000005E02301C358002B0FD0641CE4B28C42F7D3711C28D03401211D40180191039900F02AF900281FD101E02646F1E71F48016820460C300F521C4803990268204615
:405E40000E30115419480399026820460F3011540398784300F0A0F8144900280968085102D00024009011E001251AE00F48016801980818009900F02CF9002801D0012504
:405E800002E00098C0190090641CE4B203988442ECD3002D05D10298066004480179491C0171284605B0F0BDFCFF000024240020F8B50D4600216A468C461180002839DB86
:405EC00023490978884235DA214B04010C3319680A59002A2ED020460C300B5A801C0E5C184670438018954224D3854222D2002006E007465F43BF18AF4206D0401CC0B280
:405F0000B042F6D36046002814D0114E271DC8190C366A46294600F006F900280AD168460088012808D030682946C01900F0D1F8002803D00120F8BD0020F8BDFCF7DEFBDB
:405F400030680F34015D491C0155FCF7D3FBF3E718240020F8B50F46002400F031F8002817D10C4900220B460C334A600EE021011D680E466A501D680C36AA53B61C1D6878
:405F80000F31AA551D68641C6A54E4B2BC42EED31A71F8BD1824002000280BD0C01C074A81085068890053884118994203D893685160181870470020704700001824002044
:405FC000F8B5064600200F4D009029700C0121466846FEF7E5FB00280CD129460C3100980860301B001F84B221466846FEF7D8FB002801D0FF20F8BD6C800098A860002065
:40600000F8BD000018240020F8B5002827DB19490978884223DA174C05010C342168485900281CD028460C30085A009028460E300E5C401C0E5420682F1DC01900F064F87E
:4060400000280CD12068002445590EE0094829460C300068C01900F03CF8002801D00120F8BD00982D18641CE4B2B442EED30020F8BD00001824002030B50D4604000BD0C1
:40608000A800FFF789FF6060002805D000202570C0436080002030BD012030BD70B50D46040005D0002D03D00220205E002801DA012070BDFCF722FB0221615E60688900C5
:4060C000405828606088401E6080FCF713FB002070BD70B50D46040007D0002D05D002212078615E401E814201DB012070BDFCF705FB6088401C00B26080616880000D5083
:40610000FCF7F8FA002070BD10B5040009D0227800216068FCF736FD0020C0436080002010BD012010BDF0B500231D46002802D00224045F0AE00120F0BD46689F00F65902
:406140008E4201D1012503E05B1CDBB29C42F4DA15700020F0BD000001480078704700002C2400207CB505460024FDF73DFEA8796946087000A8062229460130FCF7F9FC1B
:406180000021684605F08EFD0C2806D0072806D01F2806D0122806D006E0022404E0042402E0272400E0012420467CBD10B502280BD0032802D0042809D102E000F03EFA94
:4061C00005E000F0E9FAFF2801D100F0F9FAFFF70BFAFFF717FA10BD10B500F021FBFFF703FAFFF70FFA10BD70B504460025FDF7FBFD002C06D0A079012803D8214602F0B4
:4062000099FF00E00125284670BD01460120002902D05020088000207047000001460120002905D0034854220078504308800020704700002E24002010B502460D49FE206F
:406240004870032410460FF031F8002810D10EF0D5FF00280CD106F011FD002808D100F0D5FC002804D105F0C3FF002800D10024204610BD2C240020024800210182802118
:406280000180704700102E4010B5FF240FF086F8002804D10EF0B2FF002800D1002403490020486002494872204610BD2C240020142E002070B50025044600280ED0A07929
:4062C00001280BD8FDF790FDA0790028204602D003F03CFB03E003F011FB00E00125284670BD0000014610B50120002904D006220248FCF73EFC002010BD000038240020B9
:4063000001460120002903D00878024908700020704700002E24002010B5002403F044FC002800D00124204610BD000010B50446FDF75AFD204603F0C7F8024902200876A4
:4063400010BD0000542D002010B50446FDF74CFD2278A178607803F0C9F802490120087610BD0000542D002010B505F017FC06F041FB04F01FFE10BDF0B5002493B00E468F
:40638000054627461094FDF72FFD00F0A9FE002836D0002D0CD0EA7F1F2A01D9012407E000A829460130FCF7E4FBE87F69460870002E0FD0002C29D1F27F1F2A01D9012467
:4063C00024E008A831460130FCF7D3FBF07F08A9087001E0002C19D10020002D05D011A9684600F0CDFE10900120002E05D011A908A800F069FF074601201099394301D0C2
:40640000022403E0002801D000F026FE204613B0F0BD00000148007A70470000142E002010B507480024807B002806D00448203002F02EFA012800D1FE24204610BD00005E
:40644000542D0020014A0021926810472C24002008B500226B461A7026280CD0094A342852680BD0352805D1900703D50021352006F0ECFC08BD19462620F9E7D007F9D0E6
:406480003420F5E72C2400200149087270470000142E002010B509480024807B00280BD0FFF7A2F8062801D0032800D12824FFF7B7FFFE2800D12824204610BD542D00208D
:4064C00070B50E46050001D0002400E00C4C002C11D0E28A500609D5D107C90F022003F0D3FAE08A40218843E08204E0D107C90F012003F0C9FA3146284602F077FF70BDD5
:40650000742D0020F8B50546002004460D4E009013E022466946284601F0CCF90098002801D00EF0A5FEA878214602F041FDA878214602F02FFD641CE4B2308AA042E8D81F
:40654000F8BD0000402E0020F7B58E462249086820308078002802D08446002338E0FF20FEBD1D48212100680D5CE9000A1856799779D47912794058B2420DD30EF078FE42
:406580001548006820304178491C8907890F41708178491E8170E2E78118B61A0098F6B20160BC4212D1A64204D290197146C0B20E7003E010197146C0B20C700299EA0086
:4065C0000D70054909685118087103E05B1CDBB26345C6D30020FEBD90240020F8B50D460446FCF78BF8144E3068034620339A78042A1CD0E178A77809020F431978521C50
:40660000491C8907890F19709A70CA00845010184771316800205118087130681018C571306810188571FCF765F80020F8BDFCF761F8FF20F8BD000090240020F8B54E4C15
:40664000FEF7D2FF012847D14C480078002843D002F054FE00283FD004F086FF00283BD0474E7078C00703D000F040FD012833D0307E00287DD17078002500285BD00007AA
:4066800006D540488089070B00F02EF9384370D13B484178684604F04DFA217A3A4CA2788918C9B2814262D802F028FE002860D0344860300789324E203602F069FC684629
:4066C000008802F093FC02F02FFD30490988884203D10120FEF7C6FF4BE02D49012008702748807B00281DD0002F1BD04036F07E002817D123486030008821494000C0310B
:40670000498981420AD26078002807D103F0EAF92049088A03221202104308822078002800D0257002F098FC0120FEF795FF00F049FC174C15E002F0E1FD002819D0102432
:4067400002F0F2FC214602F0DBFB02F04FFC104C0120207002F080FC0020FEF77DFF00F031FC20780128B4D1FEF70AFF25700020F8BDFF20F8BD0000482D0020BC2300208E
:40678000542D0020A0102E4052240020642400203E240020E0112E4010B50848FF244078002809D102F0AAFD012805D1FEF7F6FD0720FEF757FF0024204610BD542D00201F
:4067C00038B5FEF711FF012801D0002038BD02F095FD00280AD0114C6078C00703D000F085FC012802D0207E002801D0FF2038BD617800290FD0684604F09CF9022806D90B
:406800006846008802F0F2FB012002F02FFC0320FEF728FFD9E70020F7E70000542D002038B51E4CFEF7E0FE042813D0052811D0062812D003282AD007280AD10020694612
:40684000087002460120FEF7C7FDFEF7CDFE0128FBD138BD00F0D6FB38BD02F01FFC00F0D1FB02F09BFC8007800F0228F4D10C4841880029F0D05B21095D0029ECD10121D7
:406880000170A07D0140022003F0FEF838BD02F009FC0120FEF7E6FE38BD0000742D002052240020F8B50646002403F05BF90546304603F071F903460A480021068A0DE011
:4068C00001228A401046174628401F40002803D0002F01D1224394B2491CC9B28E42EFD82046F8BD402E002070B500252C460A4E03E0002C01D0002000E03046007900285F
:4069000003D02046FFF7CEFF0543641C2406240EEFD0284670BD0000742D00201CB50020694648706846FDF78FFA01AA69460A20FEF752FD6946042008561CBD70B50D464F
:4069400001F09EFB04000BD02079002808D0FDF74BFAE178A0782A4602F0FAFD002070BD022070BD0148007970470000482D00204030C07E002800D00120704700B500F045
:4069800001F800BD902148430749084A40186030417F491CC9B24177D289914201D300214177C8B270470000542D0020402E002013B501F065FB04000BD001F01CFF00289C
:4069C00007D0214601AA0A310620FEF705FD00201CBD02201CBD000010B50C4601F050FB00280AD001F007FF002806D0224604490A20FEF7F1FC002010BD022010BD00007B
:406A0000352D0020F3B581B0074601460026029803F0A0F80446002F01D0002500E0154D002D21D0284601F061FB032C04D13946029803F0EBF806463846029902F0AAFAA4
:406A4000032C06D0002C10D00121384601F054FC03E03146384603F0EFFA284602F088F90221284602F09EF9FEBD3846029902F091FAFEBD742D002010B5044600F04CFA63
:406A8000002804D103F0BAFF002801D00C2010BD2078611C02F062FEFF2801D01F2010BD02F0A8FEFF280AD02178621C02F0FAF9044821780068026B601C904710BD07203A
:406AC00010BD00007824002010B503F097FF002801D00C2010BD02F023FE03480068C06A8047002010BD00007824002070B50D46044610210EF0FCFA1021601806460EF093
:406B0000F7FA334610221946204603F0BDFF102130460EF0EDFA02202870204605F09EFA70BD0000FEB504464078217802028006870FE0781143A5780E050002360D054308
:406B4000304601F09DFAEAB23B4621460096019000F0FAF90006000E14D10B48224600680199436928469847C0B2FF280AD10198EAB24030817EFF23491C81762146019844
:406B800000F0E1F8FEBD0000942400200020704710B5044603F032FF002801D00C2010BD2078611C02F0DAFDFF2808D002F00EFD044821780068426B601C904710BD1F204A
:406BC00010BD00007824002010B500F06BF905F00FFB002010BD10B5044600786178E2780843A17811430843217908436179084305D003F0F5FE002803D00C2010BD12205F
:406C000010BD204602F0A2FE002010BD10B5FBF78DFD02F0C9FF044804F084F802F0E0FC012000F003F810BD1C2D0020F1B586B003A8009005A8019028489F22017B114088
:406C400001736846FDF750FC002845D169460989C90705D0224806990068C2686846904769460989890706D5002835D11D480068816A0698884700282ED11B4E00257570D5
:406C800075737571F575357675767575B570F570B5713746F5730120D03738731F20F880FF2130467972A0300176457600F028FB00242046069901F049FD002803D1641C8B
:406CC0002406240EF5D0FD720749BD72B573C0310D704D704D600D7207B0F0BD082D00209424002078240020542D002070B505460E46084602F036FF0446304602F04CFFE2
:406D00000121A9400A46224001400A4301D0012070BD002070BD10B50446084602F03CFF0121A140014201D0012010BD002010BD10B5FEF759FC032804D102F0B3F9012052
:406D4000FEF790FC10BDFEB51C4616460F46054602F00EF8A878FFF711FE02460190334639460094284600F00DF8002808D1A8780199FFF7A5FBFF2C02D138460EF078FA92
:406D8000FEBD0000FFB585B005460E980C46FF2810D02B49C00009680A5840180179C0795278814201D9012601E09006860F6846038108E06078A1788006860FE0780002B9
:406DC000014368460181284601F046FD070007D021462846079A00F001FD384609B0F0BD304600F0AFFD04AE0346039002AA29460096204600F019FC3C20405D002818D092
:406E0000284601F029FD012813D0684600890096C0B20190A878231DFF22079902F09AFA68460089039BC2B2A878079902F00AFED3E7684600890021C0B20091E9E7000062
:406E400090240020F8B5002600253046FFF72AFD07001DD090201149704340186030447F12E0601CFBF75AFDCCB23846E040C007C00F07D02146304602F082F821463046F1
:406E8000FFF7C0FD6D1CEDB20548018AA942E8D8761C3606360ED7D0F8BD0000542D0020402E002010B502F09BFB0020FFF7BEFE0EF074FA002010BDF8B5002400F010F995
:406EC0000123012800D10124104F00203E4620360425082203E0002801D0002100E031460979002907D001290BD002290BD0114681402143CCB2401C0006000EEBD07C70B1
:406F0000F8BD1C43F7E72C43F5E70000542D002010B5FFF7D1FF10BD10B5044605F0C5FA002802D1601C00F001F810BD1CB500240094062269460194FBF70CFE002800D141
:406F4000122420461CBD0000F8B5044600201E4617460D46002C12D0002D10D0022E0ED0032E0CD0002F0AD02179092907D0002905D013494A7F5A21095D8A4207D8208937
:406F8000002104F0A0FF28460EF072F9FF20E18F012905D1002F03D0012E06D0002E04D0374301D10121E187F8BD0021E187069A2A70069A120A6A70AF70E970F8BD00009D
:406FC000082D002070B50E4CFBF7AFFA0546FEF70BFB062802D02078012803D02846FBF7A8FA70BDFBF772F82846FBF7A2FAFEF7FBFA0628F5D020780028E5D170BD000041
:407000003E24002010B5FBF790FA0446FEF7ECFA012809D0FEF7E8FA022805D0FBF756F82046FBF786FAEEE72046FBF782FA10BD10B50B4681791943817103D08078114682
:4070400002F0CEFC10BD10B582798A43827102D1807802F0D9FC10BD30B50C4C0220A28A0B4B9978002901D0022906D11D785B78EB18282B01D9032002E0032900D10120FF
:407080005105490DC0020143A18230BDC0112E404824002000B500F029F8002807D0012805D0032801D0042801D0002000BD012000BD014600B50020C90701D000F010F817
:4070C00000BD014600B50020C90701D000F008F800BD000001480068704700004024002001480088000A704720102E400448008B410501D5042070474007800F70470000F2
:4071000000102E400148406870470000402400207CB50446002568460570200610D5FFF7E5FF01280CD101A801F0CCFF6846007900F058FB012001F083FE0220FFF7E8FE97
:40714000600712D50C48017901290ED10571684601F0B8FF6846007800F078FB0220FFF7D7FE00212620FFF773F9044800680169204688477CBD00004C2400207824002007
:4071800010B501460A4A007800241070FFF7A8FF0128084603D002F045FB204610BD00F0E7F80400F9D1034801210170F5E7000048240020142E002070B50446FFF790FFCE
:4071C000002801D00C2070BDA27B01211F48002A827801D00A4301E05208520082706279012A14D0C17849084900C170184D2868016820468847207901280CD06188208826
:4072000003F0AAF92080207904280FD015E0C2780A43C270EAE72868C168E01D8847E01D02F080FB0B48008D208006E02868C168E01D8847E01D02F075FB074920798870DB
:40724000204602F0FDFA002070BD0000542D002078240020082D00204824002008B50178FFF73EFF814201D10C2008BD002914D0072069460870FFF70DFF012807D10121C5
:40728000684600F0E5F8012801D0092008BDFFF7E3FE02F009FB012011E0FFF7FBFE012806D1684601F00EFF6846007800F0CEFA02F0F0FAFFF714FF0028FBD10220FFF722
:4072C00027FE002008BD000010B501460A4A007800245070FFF704FF0128084603D002F05FFB204610BD00F065F80400F9D1034801214170F5E7000048240020142E002003
:4073000038B568460DF04AFF002801D01F2038BD01210098C90201804180002505714571857107214173857302F08AFA009C202200212046FBF726FC25702A460021601CCC
:40734000FBF720FC204602F06DFA204602F028FB00980DF08DFF062200210448FBF712FC02480C388560002038BD00004C240020F8B5044600250D4800950078012806D07A
:4073800068460DF00BFF002803D007250CE00C250AE0074E009830602278611C401CFBF7E8FB3168207808702846F8BD142E002040240020F8B5044600250D4800954078B5
:4073C000012806D068460DF0E9FE002803D007250CE00C250AE0074E009870602278611C401CFBF7C6FB7168207808702846F8BD142E0020402400200346084800B58342E6
:4074000009D8184600F03CFE002804D00089984201D1012000BD002000BD0000FF0E0000074A9179491C8906890E917138220A4092014907090E114308430249084070477B
:40744000542D0020FF0E0000C006C00E70470000F8B507460E4600240D4803E0002C01D0002500E005462979002905D0641C2406240EF3D00020F8BD0021204601F066F931
:407480002E712046FFF7CCFF28813C700120F8BD742D002010B503F043FB0222002100F003F802F049F810BD10B5094B40074907000F090F185A595A40185043C0086421C0
:4074C000FBF72CFA002800D1012080B210BD0000E87B0100F7B53D20405C88B015460C46002802D02878042802D200200BB0F0BD6946087200262046FFF73AFA012800D073
:407500000126204603A938300191009023460327A17E34333246206A03F01EFC02A8089900900B46019120463A4603A9243003F073FA02466846007A2870204601F0F2F813
:407540001046D3E7FFB587B00C4605461078694608723D20005D1746002826D000262046FFF706FA012800D00126204603A93830019100902346A17E34333246206A03F06B
:40758000EBFB02A80090291D019120462B1D03A924300A9A03F040FA02006846007A388002D1204601F0BEF810460BB0F0BDF0B505463C20405C89B016460C4600280CD001
:4075C000307869460873002806D000272046FFF7CFF9012803D003E01F2009B0F0BD012703200890204604A93830019100902346E17E34333A46E06903F0AEFB6846007BAF
:4076000003A928180290009120462B46019504A92430089A03F04CFA02466846007B3070204601F089F81046D7E7FFB505463C20405C89B016460C46002810D0084601F0D0
:407640000BF901280BD0308869468883002809D000272046FFF78CF9012805D005E000200DB0F0BD0220FBE70127204603A93830019100902346E17E34333A46E06903F067
:407680006BFB291D2B1D07A8129A6D4607C5204603A924300C9A03F00BFA02466846808B3080204601F048F81046D9E770B50C460646FFF75DF9012824D0607922790002F8
:4076C0000243E079A37900020343607A921F0102207A0843E17A0D02A17A154C294335464035A24207D20A38221F904203D2FF20F43083420DD91E202873304600F0C8FBFC
:407700001E2070BD00222421304602F06BFE242070BDB07801F0D0FD012801D0002070BD28202873304600F0B3FB282070BD00007B0C0000002801D0002000E00348403061
:40774000C07F012800D0002070470000742D00200146002049070ED50021084B03E0002901D0002200E01A461279022A04D0491C0906090EF3D0704701207047742D0020C3
:407780000146002049070ED50021084B03E0002901D0002200E01A461279022A04D0491C0906090EF3D0704701207047742D002010B5044680346068002803D00DF06CFD67
:4077C0000020606010BD4030417070474030817070474030017070470171704792001018C166704770B53C2501F042FA040004D020460021433001F0FFFCFF22294620462C
:4078000000F0E8FB002C02D0A07801F0B3F970BD10B5002801D0002000E00348002802D0008904F097FB10BD742D002010B5002801D0002000E00448002804D00179072945
:4078400001D100F047F810BD742D002010B501F00FFA002802D0807801F08CF910BD00207047000070B50546008A00281ED01049F122097B1140C90618D5294640314A8AED
:40788000098A521C4A4392B2D10800D10121540801E0621A94B2A042FBD9FEF75DFC012804D1298AA878224601F0DCFD70BD0000082D002010B50023054C0B60248A94427A
:4078C00004D992001018C26E0A60C36610BD0000402E002038B5044600200090A079002814D14020015D052901D00E290ED168460DF064FC002809D12046009902F050FDA8
:4079000003481021428B2046FFF792FB38BD0000082D002010B50B4604460146184602F0B0F9002802D020460DF0ACFC10BD13B5044601AA11460620FDF74EFD6846818829
:4079400061811CBD002800D10220704770470000F8B504462346401D543300909A1EA078911E01F0CBFB25464035A88A298A8000FAF7D4FF401E81B2688A884203D969829C
:40798000A07802F0BBF8698A8C20015120460021433001F031FC27480088E88103F0C0F8E989891C8AB26179FFF77EFD01F0C4FD03F0B6F82A8A6179FFF776FD074601F0D0
:4079C000AFFD688A002806D01B49088A032212021043088202E0002002F084F81648803801886E8A002E0CD0304648431349FBF77FF80004000C01D0401C80B21049488078
:407A000002E00F4800214180288A704381B2A07801F0D4FFFF2228374932B9B21346204602F09EFDE98AA07801F048FFA07801F0D1FAF8BD80102E40E0112E4071020000E9
:407A4000522400207FB504468034616805460E46183108226846FBF78CF831462031082202A8FBF786F8102168460DF041FB6068102108300DF03CFB60682B4608302433EE
:407A80001022694603F000F87FBD10B504460821FFF7D9FA10212046FFF7D5FA207905281FD006281DD008281AD12189002004F0C9F9072020712046FEF75AFF01462046DD
:407AC0004030012913D00E21017000210176204601F062F82046FFF76BFE2046FFF7C2FE10BD20890122002104F090F9E1E70521EAE70000FFB581B01F4604460821FFF796
:407B0000A2FA10212046FFF79EFA2079082803D0092804D0042203E00422012501E009220025204600F05EFE264600204036307022712046FFF73CFE0398002D02D001281D
:407B400008D00BE001280AD120890022029904F05DF904E02189029804F074F9012700203076012F04D0204601F016F805B0F0BD02983073204602F061FC054605480121A0
:407B8000428B2046FFF754FA002DEFD109202071ECE70000082D002070B50C460546FEF7E7FE012809D108212846FFF74CFA0023012221462846FFF79DFF70BD10B5044624
:407BC00000F010FE2046FFF7F3FD00214034217010BD70B505461A24FEF7CAFE012809D108212846FFF72FFA0023012221462846FFF780FF70BD0000F8B5044600200090C0
:407C00000E4668460DF0DAFA002801D00D20F8BD8420005908212030009D00F02CFA20460421383000F027FA002E02D1204600F04DFE2946204602F03EFB0E480821428B7B
:407C40002046FFF7F5F9204601F017F825464035002808D0204600F023F8002801D0092028700020F8BD08202870204601F080F8F7E70000082D0020014610B540310A46E5
:407C80000978082906D0092907D00A2901D100F091F810BD0B20107010BD00F001F810BD70B50446007925464035052805D0062803D008280FD00C2070BD032206212046D5
:407CC00002F090FB0D480821428B2046FFF7B0F91120287010E006202873204602F0AEFB0646AA8A0A20424301212046FFF7A0F9002E01D109202071002070BD082D00209A
:407D000038B504460020009068460DF057FA002801D00D2038BD2046009D00F0C3F908202071204600F0D2FD2946204602F0FAFA00213D2001550F2040210855204601F0E5
:407D400017F8002038BD00B5024600F04BFD10214032117000BD10B50446FEF709FE012809D04020005D112805D100231A4606212046FFF7BFFE10BD10B5FFF786FE10BD54
:407D800038B504460021684600910DF017FA00280CD12046009902F046FB05480821428B2046FFF745F90D204034207038BD0000082D002038B504460021684600910DF0FB
:407DC000FDF9002801D00D2038BD2046009902F01FFB05480821428B2046FFF729F90C2040342070002038BD082D002000787047F8B5002569460D70002801D0002400E0E2
:407E00001F4C002C18D0204600F0F5FC002813D0207903280BD005280CD026464036B18AA07801F0D5FDB078012806D01DE0042020711DE006202071F8BD0021204601F017
:407E40003DFF274680373868002802D00DF024FA3D600020B0702079072802D12046FFF701FD0221204600F09DFF20790428E3D1207A694608703420FEF7EAFAF8BD0000EA
:407E8000742D002010B54C22115400F052F810BD10B50446FF21FFF7D6F809202071A07801F0BCFD10BD000038B5FF216A461180002801D0002400E00B4C002C12D011461F
:407EC0000620FDF789FA684601882046FFF72FFD204600F0C7FC002804D104480068C1692046884738BD0000742D00209424002010B504468079002809D022214C20015561
:407F0000FF212046FFF79FF8204600F012F810BD10B5037902464032002B03D01173092B02D003E0002100E02221117300F001F810BDFEB50446008900270090278120799F
:407F400026464036002817D0012815D002280AD112E002AA01A9204601F081FE002807D101980DF08FF9204601F0A1FE0028F0D02046FEF7C7FAB7762546803528680028C2
:407F800002D00DF089F92F606868002802D00DF083F96F60317B002919D0009800F064F8A078002101F038F82046FFF773FAA07801F06CF9A07800F0DDFDFF212046FFF73E
:407FC00042F80B20FEF7A4FF00F0BAFCFEBD1F213173E2E7F8B517460E46054602F09CFD04003CD020460C3001F0F6F82046062200211830FAF7C6FD204606220021123015
:40800000FAF7C0FD1648224600683946436A28469847074626702846FEF7AAFC012148406070002D10D02889608028464030C1782171002E0FD169796171018AE180418AC5
:408040002181808A608106E00648008BC005C00F2071002060803946204603F076FEF8BD7824002000102E400A4610B50146002003F088FF10BD10B50CF016FE10BD0000EF
:4080800000B50146FFF7E0F9002801D0002000E00348002802D002898A4200D0002000BD742D002038B5044680346068002806D168460DF093F8002801D1009860606068F0
:4080C00038BD000010B5014600F0C6FB0128887802D0FEF757FC10BD90214843024940186030007F10BD0000542D002070B5054604464035A87F012811D1A1789020084AE6
:40810000484380186030067F3046FEF7EFFD002805D10220A877A078314601F071F970BD542D002010B50C4CA07A002813D0FEF789FE0A48027F417F408B00F009FC01287F
:4081400009D10020A07200F0D3FF05498989090B01D000F03BFA10BD242E0020542D0020A0102E4070477047490510B5490F0B00FCF750FA060704080C0C0F073E21FFF70C
:4081800081FE10BD0821FFF7C3FE10BDFFF7D1FE10BDFFF7ADFE10BDF8B507460025002D01D0002600E0204E00F04CFF3046403044890021418100F069FF304600F01BFB90
:4081C00001282BD1A00702D52846FFF711FEE00602D52846FFF768FEA00601D5FEF732FE600601D500F066FB200602D5284600F01DF8600702D5284600F046FA380402D555
:408200002846FFF713FB780402D52846FFF700FBE00703D021463046FFF7A6FF6D1C2D062D0EBCD0F8BD0000742D0020F8B5002801D0002400E0284C002C4BD025464035AA
:40824000A878012846D1FF278820493700593E46002805D02149097B890601D5878AC68A2046FEF785FB012834D002F059FC2A8A6179FFF719F9009001F052F90098334600
:40828000283081B23A46204602F06AF9E98AA07801F014FB12480188688A124E002810D048431149FAF724FC0004000C01D0401C80B27080A07DC107C90F002001F0E4FB2E
:4082C00001E000207080288A698A484381B2A07801F074FBF8BD0000742D0020082D002060112E40522400207102000001490968096808479424002070B50D460026194AAB
:408300000146002801D0002401E014462034002C26D0204600F0A0FA01280AD19020484380186030007FFEF7E1FC002801D102F005F80D48006881692046884700280CD0B7
:4083400020464030817EA94202D3491B817600E086762089294603F0B6FD204600F008FD70BD0000542D00209424002070B503460088FFF785FE040013D000F03CFA0028CE
:408380000FD02079092819D02546997840352973204602F053F80646A878012803D0AA8A02E0022070BDEA880A20424301212046FEF73EFE002E01D109202071002070BD4D
:4083C0000EB5002217216B460292198100905A810120029B00990CF0FFFF0EBDF8B518480024807A002822D1164E0025B089000B22E0204600F01AFF1249A039401807885B
:408400002A462146384600F0A3FA012810D00E480122478305770A4944778A72002D01D0002000E02030002801D000F0A1FCF8BDB089000B641CE4B20028DAD1F8BD00001D
:40844000242E0020A0102E40542D002010B50088FFF716FE002809D0014640310C460978082905D00B2903D00C2010BD022010BDFFF716FC002801D009202070002010BD4C
:4084800070B503460088FFF7FBFD040008D0254640352878082805D00B2803D00C2070BD022070BD8420005910220830991CFAF760FB2046FFF7C6FA2878082804D020463B
:4084C000FFF778FC002801D00A202870204600F04FFC002070BD000010B50C46002121700088FFF7CDFD03000BD000F084F9002807D00948F121007B0840C00603D411201A
:4085000010BD022010BD022020701A8A1889002103F054FD002010BD082D0020F8B50F46002100910088FFF7ABFD040012D000F062F900280ED0E079410641D4617E022614
:408540004A07002A08DB8907402500291ADA2843E07135E00220F8BD02F0DEFA0021017021894180A1898180217E4170E189C1803E7005460178134803F0CAF9284603F012
:40858000C1FC1DE0204600F06DF9012806D068460CF014FE002803D00720F8BD2A20F8BDE07900992843E071204601F071FF607E0421304360760448428B2046FEF738FD4A
:4085C0000020F8BD1D040000082D00203EB500220F236C460292238100910190628169460EC900200CF0F8FE3EBD0000F8B50F46054600F03DFB04002AD000F007F90028DC
:408600002AD003202071254600264035EE76E6702046FFF79DF901F03DF90920FEF778FCA07800F021FE0121204600F0BBFB2E706E70AE703A4600212046FFF7CBFC0F4916
:40864000887B401C8873A078FFF750FE022012E0284601F0E3F9F8BD002001F0DFF90848008B4007800F012802D1064801F05AF901F01AF90120FEF74BFCF8BD542D002061
:4086800000102E408024002010B5002801D0002000E0094800280DD0014640310A464978022901D100215170807DC107C90F002001F0EAF910BD0000742D002070B503462F
:4086C0000D460088FFF7DCFC04000BD000F093F8002807D01248F121007B0840C00603D4112070BD022070BD20464030418A008A491C41430804C10C5888884201D2122063
:4087000070BD20822079072802D12046FFF7AAF8022028702089002103F078FC002070BD082D0020016A491C016204D1817E491C4906490E81767047C169491CC16104D1FE
:40874000C17E491C4906490EC1767047F0B5074687B003A8009005A800260D460190002F01D0002400E01B4C002C05D06846FBF7BBFE002803D00BE0022007B0F0BD6846C7
:408780000089C00704D1902200212046FAF7FAF9114829460068826820469047050016D1A77066762746267140373E70204600F019F8204601F077FA084820820848BE7772
:4087C000007BF121084000D001202075E682E8B2D3E70000742D002094240020B80B0000082D0020002101628176C161C17620300177417770470079002805D0012803D034
:40880000022801D001207047002070470F49008908820E49603108880D4A801F904210D28888121F0A3890420BD20889FF21F431884206D8074800890006C00E401F0C2812
:4088400001D300207047012070470000A0102E407B0C0000E0112E404030807F002800D00120704740300078002807D0012805D0052803D00E2801D0012070470020704797
:4088800010B5807801F088F9002800D0012010BD074A0146927B0020002A07D040314A78022A02D08978012900D1012070470000542D002010B500F01BFC03498989090BF9
:4088C00001D0FFF783FE10BDA0102E4070B5054604464035A87F002825D1FF206075A0789021154A484380186030417F9023491CC9B24177A0785843104B8018DB8960305D
:40890000994201D300214177A0789021484380186030467F0677A1783046FEF7E7F9002802D00120A87770BD0220A877A078314600F066FD70BD0000542D0020402E0020A7
:408940000020401C0006000EFBD0002070470000F0B516468207920F87B0000A02926A469080002E01D0002400E07F4C002C21D0084600F05BFC074668468088002810D07A
:408980000298032817D0002000906846808821890491214620310391497F0546012964D067E07248381801882046FEF7C0FF304600F022FBD6E00020029002A80CF0DEFB4B
:4089C000002807D03D20005D0128F3D12046FFF7A9FEC7E00298009068468388202B14D31F2300213846009AFCF7EAFB684680881F3885B2012305AA00213846FCF7E0FB3B
:408A00006D1E2D042D0CF5D104E000213846009AFCF7D6FB5548381801882046FEF787FF304600F0E9FA01AA21460098FEF752FD0028009805D00CF011FC3D204C21085547
:408A40005EE0C677009869460078898801F078FD00280099204602D001F096FA82E001F0A8FB00980CF0FAFB7CE0042820D3281F80B23F49097B890605D588210959498906
:408A8000814202D314E01B2812D9012305AA00213846FCF795FB6D1E2D042D0CF5D10398407F012800D07CE72046FFF73BFE78E768460CF053FB002802D0002007B0F0BD2C
:408AC0006846009D83882A1D00213846FCF778FB2648381801882046FEF729FF304600F08BFA2046FFF787FE002805D026464036307E00281DD107E028460CF0A5FB31E099
:408B00002046FFF7C5F92DE00298012809D0022807D00398407F0128EED12046FFF702FEEAE7034601AA21462846FEF70BFD002805D028460CF088FB3D203073E0E70298F1
:408B4000FEF704FF01460498287004980901000A0843687068468088A870000AE8702846FFF72EFC0120A9E7742D002000102E40082D002010B5074A917B002901D0491E29
:408B800091730021FFF7E2FD002801D0002010BD012010BD542D0020F8B5074606464037B87F00282DD0B078902100904843234945186035287F0099FEF7ADF801281ED0EA
:408BC000287F401CC4B21E48C089A04200D800240020B877FF276F772F77A87702460146009800F0A9FD717DFF2903D0304601F014F8777501F0A2FB0025114F19E003201B
:408C0000B877F8BD00200090224669463046FEF751FE0099002904D0FF231A463046FEF792F8641CF889E4B2A04200D800246D1CEDB2F889A842E5D8F8BD0000542D0020A7
:408C4000402E002010B502460021084B03E0002901D0002000E018460479944204D0491C0906090EF3D0002010BD0000742D002000B50120FFF7E6FF00BD10B5044601F019
:408C80004BFF2189018080346168416061682831816003F0F1F810BDF7B50646087982B00C46092807D0A078F0770846FFF7D4FD012806D010E030460CF0E4FA022005B0C6
:408CC000F0BDA1789020294A484380186030007FFEF70CF8012810D0A078FEF72BFD01280BD037780121304601F0D0FA25462035062F38D00B2F0FD107E06846027C21468B
:408D00003046FEF707FE0D20D9E72046FDF730FE012801D1002028772046FFF7D3F9054604AA21463046FEF742FC01205F2108556946097C002001910090A07833463A46DE
:408D4000294600F007FB69460A7CA0780323294600F078FEA0782946FDF7B2FB30460CF091FA0020ABE70120D5E70000542D002010B502464032937F0021002B03D1927E34
:408D8000002A00D00121064A927A002A00D000210279092A00D10121807800F095FE10BD242E002070B50C460546FDF7E1FD00280BD1012C06D92879092806D02846FFF715
:408DC0005FFD0446002C02D004E0012402E0A87DC007FAD1A87DC107C90F204600F054FE70BD0000012807D0082804D104480282034808300180704701488038FAE7000021
:408E0000A0102E40014908817047000000102E4010B50446FF20F130012C01D1FF20D530002200F083FE044A108A044980B2A0430880108210BD000000102E4056240020BE
:408E4000034B198A034A89B2814311801982704700102E405624002010B50446012802D0082C07D102E0FF20D53001E0FF20F13000F054FE0348018A034A89B221431180E8
:408E8000018210BD00102E4056240020034B198A034A89B2014311801982704700102E4056240020F8B505460120A84086B214460F46012231467C2000F038FE3A46314657
:408EC000782000F033FE6078267800020643E078A2780002024360792379000203430C2045430D2080010549281844182680001D44182280001D40180380F8BD00102E404A
:408F0000401880B270470000CB065B0E0343480901021943D00108430121C902084301490881704780142E404278037812021343084A1382C37880781B02184390824878DD
:408F40000B78000203431383C8788978000201439183704700142E40024A1080000C90801181704700142E40044A002180180288491C89B21029FAD37047000000102E408D
:408F8000024A10820148803081817047A0102E407047000010B5054A1082084600F0EAFD024A0021A03A8018018010BDA0102E4010B50B46044600F005F819462046FFF72E
:408FC000DFFF10BD024A10820148803001817047A0102E4010B504490882FF20002220211D3000F0A3FD10BDA0102E400149088070470000C0102E40000202494D30088099
:409000007047000000102E400249888A0422904388827047C0112E4010B5084B074C0202A03B0029208202D075321A8010BD04490020088088807632F7E70000A0102E400F
:40904000201A2E4000B5034908884880FFF7F8FE00BD00005624002010B50120FDF714FA01495020088010BD00102E4006490E220028888806D01043888003495120C03999
:40908000088070479043F7E7C0102E4000B502484088FFF7FBFE00BD5624002010B5FCF78DFA10BD014952200880704700102E40884201D8081A03E00022D243101A40188F
:4090C00080B2704700210170704700000748808806492039098B884201D8081A03E00022D243101A401880B27047000020112E400148008AC0B27047A0102E4070B5084C2F
:40910000049D2082074804890548603006880E8001891180808818806007400F287070BDA0102E40E0112E400148008970470000C0102E4000280FD00D4A108B0870000A22
:409140004870908B8870000AC8700948203000880871000A48717047064A10880870000A487090888870000AC8701089F0E7000040102E40C0112E4000B5024A00F004F8F8
:4091800000BD0000FF7F000000B51346FFF790FF984201D8022800D2002000BD0148008A70470000001A2E40024908820248008970470000A0102E40001A2E4001488088ED
:4091C0007047000020102E40024908820148803000887047A0102E40064B1A8999891B8A0270120A42708170090AC1700371190A4171704760102E40012904D00549098B01
:40920000C90B017070470349403109898907C90FF7E7000000102E40024908820248008970470000A0102E40201A2E400148408970470000402E002002490882024880897B
:4092400070470000A0102E40001A2E40044A10820448028980894843101880B270470000A0102E40402E00209021074B414300B5C918FF2260314A770A7700228A771146FE
:4092800000F05AFA00BD0000542D002090225043074A10B58018FF21603041770177002181770448C18EFF201D3000F037FC10BD542D0020082D002000B5044A1082034853
:4092C00080308088022200F003F800BDA0102E4010B50023884201D8081A03E00024E443201A4018044980B2884201D8824200D90123184610BD0000FF7F00000248808881
:409300000006C00F70470000C0102E4002488089C007C00F70470000201A2E4070B55478157824022543D47888232602947834435679127936023243002900D09823044965
:4093400008820348A038181805808480028170BDA0102E40FFB581B014460D4607460A9E0B9BFFF773FF002E0AD0009333460021049AFBF7B5FF05484019C45505B0F0BD8A
:409380000021049AFBF792FFF5E700005A24002070B502460448054D808808242C800B460021FBF783FF70BD402E0020A0142E4010B5212402466401044953200880102311
:4093C00000212046FBF772FF10BD000000102E40417802780902044B0A431A83C1788078090208439883704760142E40034A1082802001430148803001817047A0102E4073
:40940000054A1082044A6032908B0009000108439115084390837047A0102E4030B500210F4B0A46012809D0032802D005280AD107E04021198102210A2204E004210C2203
:4094400001E004210D221882054C20342088C0B205460D42FAD022800021198230BD000080142E4010B5044607480482074801808280032189030820FFF7EEFC20020249D2
:409480007530A039088010BDA0102E40201A2E40054A1082044A60321183000202494B30A039088070470000A0102E40054A491E1082044A60321183000202494C30A03962
:4094C00008807047A0102E4001B5002269460F20FBF782FF684603490078088202494720088008BD60112E4000102E4037B50D460446002202A90E20FBF76EFFA202E8011E
:4095000002436846007A044902430A82A00908830249462008803EBD60112E4000102E400349884200D908460249088070470000FF0F000060112E400349884200D90846EA
:409540000249888070470000FF0F000060112E408823002900D09823084908820748A038191808881070000A507088889070000AD07008891071000A50717047A0102E407C
:4095800010B51446024606480B46C0880021FBF773FE012C02D103495420088010BD0000402E002000102E40064A11880170090A417091888170090AC17003495420088004
:4095C0007047000080142E4000102E400121814010B589B200227C2000F0A8FA10BD0000FEB5FF210120FFF713FCFF210820FFF70FFC3020FFF724FC414880210180414858
:40960000414D00784007400F022873D001286FD100202880002211460320FBF7DDFE3B4E3B49308E88823A4F002420373448A0300482B08F38822046FFF728FE641C2406B7
:40964000240EF3D0314C3248403421882030018320462C3800F052F9B16970690191009069464879C021084369464871684600F06DF900F055F8224FE088A037388320899A
:40968000B8831F496089C03188802148F18E203001802048002404823920FFF7F7FB184E532030801C490720088354203080E020FFF75AFCE820FFF757FCF020FFF754FC62
:4096C0000020FDF7E7FE13488482282101838015B8810F48403084815B203080094800784007400F022807D0012801D10B482880FEBDFFE703208CE70848C01CF7E70000E7
:4097000000102E40402E0020001F2E40082D0020C0112E40001A2E4080142E40E0230000044800218183018302497420603908807047000060102E40074B1882064B603315
:40974000988B00090001084399158843002A01D11021484098837047A0102E40F3B50D2284B0920100924A780B78120213430393CA788B78120213434A790979FF201202B7
:4097800011431A4A8C46918B9E460291118B01911649742260390A80154900220F7921E00121124B9140009C603BE3181D8889B21C881B88039E6E407546654064462E43CA
:4097C0005C4026430CD1029B194209D00199D140CB070499DB0F8B4202D1104606B0F0BD521CD2B29742DBD8F8E7000060102E40482D002030B50949FF208C8B084A0021A9
:409800000125137905E02A468A40224204D0491CC9B28B42F7D830BD084630BD60102E40482D002010B50446E020FFF79DFB20782246401CC3B20021E020FBF7DDFC10BDE1
:4098400042790021012A02D901214171090342790A430179042914D049001143827B032A01D8D2001143427B52010A43817909021143012252031143054A118300889083CD
:40988000704711460122920211430222E5E7000000102E4000B50120FFF7D2FA01494120088000BD00102E4000B50120FFF7EEFA01494020088000BD00102E40024A10821C
:4098C0000148603081817047A0102E4010B5044C208204488180028183815143018210BDA0102E40A0132E40034B1882024820388180028070470000A0102E4041780278F5
:4099000009020A4306490A80C2788378120213438B804279007912021043088170470000C0112E404178027809020A4306490A81C2788378120213438B81427900791202DA
:40994000104308827047000060102E40417802780902084B0A431A83C178827809020A439A8341790079090208430249203108807047000040102E404178027809020A43A5
:4099800006498A80C2788378120213430B814279007912021043888170470000001F2E4010B50446E820FFF7DFFA20782246401CC3B20021E820FBF71FFC10BD024A1082A3
:4099C0000248818370470000A0102E40001A2E40024A10820148603081807047A0102E4010B5044688000521F8F798FF04490C8204498880200202497230A039088010BD7F
:409A0000A0102E40001A2E4003490882000202497330A03908807047A0102E4003490882000202497030A03908807047A0102E4003490882000202497130A03908807047AF
:409A4000A0102E40F8B505461C4617460E46084600F090F8054AB90021431582034AA03A80180180024880194455F8BDA0102E405F240020034A118B8905890D80020843E8
:409A800010837047A0102E4030B50E4C238A01251A46012804D0022804D000290BD00CE02A430AE0002908D12A4322825008400020821A4601E05A0852009A4200D02282F8
:409AC00030BD0000001A2E40054A1082044A6032908B4023984389010143918370470000A0102E40044A118A0223002801D0194300E0994311827047001A2E4000B5064A2A
:409B00001082054860300181002901D0012000E00020FFF7E7FF00BDA0102E40024A801802880A430280704700102E4070B5084BC5182C880023080003D104E040085B1C45
:409B40009BB2C607FAD08C439A4022432A8070BD00102E40024A1018405C8007800F70475F240020024908820148803080897047A0102E408000FF3041307047044B024604
:409B80001B8AFF208B4202D902484018805C7047402E00205A240020024908820148803000897047A0102E40174902460B680020002B08D10A605207520F012A04D0022A1E
:409BC00010D0086012207047112292018A80CA80032252020A810122D2024A8140228A8105220DE0092252028A80CA80012252030A810322D2024A81012252028A81042291
:409C0000CA810A8270470000402E00200A4600B501461046FFF7B2FF00BD38B50C4605460021684600910BF0C9FA002804D1009928464C7000F01EFC38BD10B582790A428F
:409C400001D0FDF700FA10BD10B5044680780021FFF734FE01212046FFF7A4F810BD436E002B0CD00B60014660318B781370826E4266CA788A700021816608467047FF20A0
:409C8000704710B50346446E6033002C04D0846E002C04D0FF2010BD41669A7001E08166DA70002010BD0021416681667047406E002801D000207047FF20704770B50446E3
:409CC000C0790D46810610D5DF210840E07100F023FF0570218941804034218A8180618AC180A18A018102F003F870BD10B50446FEF7B2FD01280AD1A1789020054A484374
:409D000080186030007FFCF7F1FF012801D000F015FB10BD542D0020F8B50E460446FCF727FE01282BD02079042801D0072825D1F079B77900020743A0783946FFF7BCFAC7
:409D400025464035012820D03A46711C204600F09EFA02212046FDF736FDA07DC107C90F0220FFF791FE688A002807D0E87E002804D1032109020820FFF76EF8F8BD0122FC
:409D80002421204600F02EFBF8BD282028732046FEF77EF8F8BD70B50D460646FDF786FC002852D120213046FDF74DF93446687840346073E87820220002E081A978084339
:409DC000E0816879010228790843218A814203D0F1791143F1712082E8790102A8790843618A814203D0F1791143F1716082687A0102287A0843A18AE180814203D0F1797E
:409E00001143F171A082A08A218A8000F8F786FD401E618A80B2814200D9608201213046FDF7D4FCE87AA97A000201430022304600F048FB608A002807D0E07E002804D154
:409E4000032109020820FFF707F870BDF8B50C4605460027FCF78CFD012847D0284E307BC00709D02846403000900078002806D0102803D01F212CE01A212AE00127284665
:409E8000FEF710F9002823D02E4680360822611C7068F8F76EFE7068617A20300172A17A417270682146183008220B31F8F761FE21462846042213313430F8F75AFE39469D
:409EC0002846FDF799FE002810D1002F0FD012E007210322284600F085FA728B08212846FDF7A6F811212846FDF773FCF8BD06212846FDF771FC009801210176F8BD00007C
:409F0000082D002010B5FDF7B7FE10BDF8B504460020009020790D46032803D0042801D0072825D12046FCF723FD012821D068460BF044F900281BD111486978007B009EFE
:409F40000840F12108402075F8F7F0FBC0B2022803D0207D4006400E2075607E0821084360763146204600F0C1F92046FDF777FCF8BD08222421204600F034FAF8BD0000C2
:409F8000082D002070470000F3B581B004460298FDF72CFF06462046FEF72DFC00282FD0162E04D32046029900F003F928E025464035287800270300FAF72CFB0E1B1B1B91
:409FC00008081B1B1B0808080808081B0298194A01780020135C8B4201D1012702E0401C0728F7D3E87E002801D1072901D0002F0AD01049B00008310A58204602999047CC
:40A0000002980BF02BF9FEBDA078FFF707FD002301223D212046FDF76DFD3D2028732046FFF712FE02980BF019F92046FDF781FFFEBD0000F87B010070B50D46002100285D
:40A0400001D0002400E00C4C002C14D020464030C177807F032802D12046FEF79DFD2046FFF744FE162D04D20449A800095820468847FEF765FC70BD742D0020847C01001C
:40A0800010B5014640310C4609780E2903D1FDF737FE0120207610BD10B54021095C0F2901D1FDF750FE10BD4021095C0F2902D1002120304177704738B5044600220E4894
:40A0C00000920D46007BF1210840C0060ED52046FEF7C8FB012809D068460BF06FF8002803D12046009900F067F938BD2946204600F05FF838BD0000082D002010B5102131
:40A10000FCF7A1FF10BD10B54022125C002A02D04978FDF741FD10BD10B5FDF71CFE10BD012120304177704710B54021095C0C2901D1FDF725FE10BD10B54021095C0D29B6
:40A1400001D1FDF719FE10BD70B5044600790D46052803D0062801D0082802D12046FDF72DFD68784C21085509212046FDF734FB2046FFF769FD2046FCF7FAFB0128A078C6
:40A1800005D0FFF74BFC2046FEF7F2FD70BDFFF74FFCF8E710B50446FF21FCF754FF16214C200155A078FFF739FC2046FEF7E0FD10BD70B50C460546FEF74EFB002802D046
:40A1C0002078687570BD21782846FFF726FD70BD70B5054648780C46032802D12846FDF7F8FC6078122803D110212846FCF72BFF03482146006842682846904770BD0000C2
:40A2000094240020704738B5044600200D46009004212046FCF717FF68782076E8780002A081A9780843A08168790002E08129790843E081607E04210843607680070CD41E
:40A2400068460AF0BBFF00281ED12046009900F01FF9607E022108436076E079410613D5BF210840E07100F057FC00210090017021894180A1898180217E4170E189C18045
:40A2800001F040FEFEF75CFB38BD7047704770B50446C07815460A4600280AD00020E070C1B2A078FFF73AF8A0782946FFF7F0F870BD0120F3E770B50546042008700C465E
:40A2C0008420415908222031601CF8F752FC29462046042238310930F8F74BFC0D2229462046FEF7D9FC002070BD000070B5054609200C46087008220021601CF8F742FCA7
:40A30000287D607006480922407BA0700020E070207129462046FEF7BFFC002070BD0000082D00200B4610B501460B20187001221846FEF7B1FC002010BD0000FEB5002445
:40A34000164F03E0002C01D0002500E03D462846FFF7ADFC00281BD15F20405D002817D16A4601A92846FFF77AFC002810D1019869460A7806782946FEF78EFC022E07D148
:40A38000A8780121FFF7A0FB09212846FDF724FA641C2406240ED5D0FEBD0000742D002010B50B46122119708178D977014601221846FEF771FC10BD10B50B46132119703E
:40A3C0008178D97706490989C90603D1C18A40221143C182014601221846FEF75DFC10BD20112E4038B50546002000900C4668460AF0E4FE002801D0072038BD00980D212B
:40A400000170447002222946FEF746FC002038BD0B4610B501460520187001221846FEF73BFC002010BD0B4610B501460620187001221846FEF730FC002010BD38B50546A2
:40A440000020009068460AF0B9FE002801D01F2038BD009C022020704C20405D6070A878E0772846FFF7F0FB022229462046FEF713FC38BD10B50B46072119708178D977B1
:40A48000014602221846FEF707FC002010BD000010B50B460A49044608880C221A704A795A709870000AD870C8881871000A5871062221461846FEF7EFFB002010BD0000A7
:40A4C000082D0020F8B50446403417460E460546E289617B8078FFF707FA002F0DD100F01FFBE2896979FCF7DFFFFFF725F8608A002800D00120FFF7F5FAE388A08A9842CB
:40A5000000D90346628A218AA878FFF7DFF9E089E188C0080A30081881B21920C001814200D90146A878FFF753FAA8783146FEF7BDFFA87DC107C90F0220FFF7A5FAF8BD94
:40A54000044A4000105A884201D101207047002070470000587C010000B500F017F800BD10B504468818C018FF302D300649F8F7D5F94034401C228A81B28A4200D211468F
:40A580005000401AE08210BD7102000040184008704770B505461446100702D5A8B2FDF7FBFDE00702D0280CFCF7B2FD70BD70B5044660C8FCF734F9FAF7E0FC2089C01F32
:40A5C0000300FAF727F80C07140C181B1E0C0C210C110D0C294630466289FFF7DAFF70BD284601F0FBF870BDFDF79CFD70BD2846FCF798FA70BDFCF725FC70BDFDF7B2FD4C
:40A6000070BDFDF7B0FD70BDE8B2FDF7E7FE70BDF3B589B00021069103910491009101910291D1490D8928400590680713D5CE484030048A0598400708D50694A00803D118
:40A64000FAF702FD012801D101200490214600220420FEF7C7FBC54E290730462030C036089000297EDAC048A0300189C048CA0704D0428907231B029A43428142890C46E0
:40A680000A43428100220820FEF7ACFB0598000768D508980790002002900394E00705D06005400F022801D1FAF7ECFFAF482206203001468031403001910090002A02DAFC
:40A6C000418A0198C160600637D50198C068002833D00098C17E00292FD14178022902D0807801280ED1A004400F062814D0012812D00798807DC107C90F0020FFF7C4F9A2
:40A70000012002909B4F387800280DD00120FFF7E9F9012078700AE00798807DC107C90F0220FFF7B1F9EDE70298012805D19249088A0322120290430882E0062BD50098EF
:40A740004178022902D08178012913D10199C96800290FD0C07E00280CD1FEF7B7FC022808D800E020E00798807DC107C90F0220FFF78AF90220FAF785FF3079C00704D0C2
:40A780007E480122C1681143C1607D480078002801D0012004901020844303D1FAF754FC012801D101200490E8077DD06E48203004880598C0070DD00399200408430390BE
:40A7C00002202146814303D1FAF73EFC012801D101200490600714D56A4F7988002910D03888401C80B2388088420AD3FEF70CFCFFF750F8002038807880012038710220A6
:40A800000443A0074CD50220FAF73CFF584F4037B87DC00710D0787E00280DD0387EF97D884209D2387E58498001096840181130FFF7A2F8002078763078012812D1E020C1
:40A84000FEF792FBFCF746FC4C4F02467860037800215B1CE020FAF7CFFC78680AF008FD002030707078012812D1E820FEF77CFBFCF748FC414F0246B860037800215B1C56
:40A88000E820FAF7B9FCB8680AF0F2FC002070703079800704D539480222C1681143C16000222146012000E001E0FEF79BFAE80605D50120FAF7D6FE1020FEF7A3FAA80683
:40A8C0002BD52D48E0380689808B089C8006C70FFEF72AFC294908800120FAF7C3FE2B4900200870002E15D0002F13D1214E70700120FFF7F7F8E08A01060BD5317800299F
:40A9000008D1C107C90F0120FFF7BEF8E08A80218843E0822020FEF775FA680602D54020FEF770FA0720694608810698009003980190059848810498002807D069460EC9B1
:40A940000A9800280CD000200AF022FD0B4CE068002803D0FBF776FD0020E0600BB0F0BD00200AF039FDF1E700102E40542D0020B42D002052240020E0112E40642400204C
:40A980008A2400204C2400207C2400203E240020F0B587B0054605A81E461746019100900C9C04AB06AA02A903A800F0F0F92846FEF7FEFC21463046FEF7EAFC6846017ACC
:40A9C0000398FEF7C9FA05A904A8FEF7ADFA6846027E21463846FEF797FA07B0F0BD000070B50548C4782046FCF763FB05462046FCF7AEFE284370BD542D002070B50548B1
:40AA000084782046FCF75DFB05462046FCF7B8FE284370BD542D0020F8B5069E1F463478042C17D3231FDDB23B460095FFF7B0FF3819001FFEF7CCFC0520FEF7EFFC044652
:40AA4000012229460798FEF79BFD3570E00701D00020F8BD1F20F8BDF8B51C46009301271346069E079D3A46FFF792FF2846FEF7AFFC0520FEF7D2FC05460122214630463F
:40AA8000FEF77EFD2846F8BD70B51C4615460E46FEF78EFC29463046FEF77AFC0320FEF7BDFC012229462046FEF76AFD1F2070BDF8B5069D089E2C780094FFF769FF0120C0
:40AAC000FEF7ACFC0746002221460798FEF758FD3046FEF769FD241D2C70F80701D00020F8BD1F20F8BDF8B51C46009301271346079E069D3A46FFF74BFF0120FEF78EFCE8
:40AB00000746002221462846FEF73AFD3046FEF74BFD3846F8BD000000487047542E002008B56A4600210B20FAF756FC6846007808BD0000F3B589B00646744D744CFEF794
:40AB4000F3FA21460290FEF7DBF930800A98C0070DD0FEF733FB074601460298FEF70CFBA04201D2044637800020FEF783FF69480894817BC0300590002974D063494181ED
:40AB8000002003900146082088400A9908426BD00398002801D0002501E05E4D2035FEF713FB01900790594800905B480789008804902846FBF7DCFE00280BD1002F09D0F8
:40ABC0000498791C4000484381B250480091814200D20090009A01990298FEF7D5FA0690A04202D20446019830802879032877D02846403001904078022803D0019880789F
:40AC0000012825D1002F23D0FEF760FAB8421FD20499069A490091421AD2381A401C48430799009A081A87B239460298FEF7ACFAA0420DD239493A4A09895288891889B2C3
:40AC4000884203D3E98A80221143E982044637800398FEF7F1FA074601988078012804D00198808A03E046E03AE02B48808839460005020C0298FEF787FAA04201D2044627
:40AC80003780A879002813D00398FEF78DFA0746224805214038408BC000F7F73FFE82B239460298FEF770FAA04201D204463780288A002814D02879072811D10398FEF72D
:40ACC00025FB00280CD00398FEF7A6FA054601460F4A0298FEF758FAA04201D2044635800398401C0006000E039000D14AE725460120FEF7BFFE0898854201D2204600E022
:40AD000002480599488120460BB0F0BDFF7F0000FFFF0000542D002000112E40482D00205224002010B50B4C094923460833A160002142189278002A00D05A54491CC9B2AD
:40AD40000429F6D3FF21A0689A314843A06010BD04030201542D002070B5059C049D2070060A6670060CA670000EE0704806D101400E0843207104221946601DF7F7F9FE53
:40AD80002046042229460930F7F7F3FE70BDF8B5079C0E46E178069D09020160A77839430902016067783943090201602778394301602079611D4006400E30702079C00950
:40ADC000107004221846F7F7D4FE2146042209312846F7F7CEFEF8BD10B5FEF7A5F9094A916848400849096848408108C3084409414063405940C30F59404008C907084349
:40AE0000906010BD542D002074240020704700207047FF20704710B50446400603D5FF210020FDF7E3FBE00603D500213520FBF70FFB10BD704770477047002070477047A9
:40AE4000002070470020704700207047002070470020704703460020002A05D0002B03D11B2901D3FB2901D912207047C90070311180704710B5002801D0002000E00C4875
:40AE8000002814D00A496031CA6B13880246803294682380CB6B94685B88A381CB6B926819881289914202D05A8800F06FFA10BD742D0020FEB50E462549FF25097B1446AF
:40AEC000890643D5882189590989814205D32148806820308078002838D01046FBF77EFBC5B2FF2D0FD000200290FF206946087030464030817E491C81760020FEF74CFE4F
:40AF00000007000F0AE03089002100F0DCFF20460AF0AEF9002519E0411E08400028FBD1012700246A4601A902A8FBF70DFB002808D10299002905D06846037802793046AE
:40AF4000FBF701FF641CE4B2BC42EBD32846FEBD082D00208824002070B50F4D0446A978002917D000F08CFAEF21002802D0607E08406076A87815280AD16878012807D132
:40AF8000607EC20601D508406076204600F01AF80020A87070BD0000882400207047FF20704770470120704770470020704700207047000002490148C8607047187D0100D4
:40AFC0008824002010B50446FFF7A6FD218901808034A1684989C180A168C98A0181A16809894180A168898A818001F041FCA06801490089888010BD88240020FEB50446E4
:40B0000000790D46001F042812D82F482F78007B800609D540212046FEF70FFE691C684600F006FA002804D039462046FEF7F5FDFEBD254680356846A9688088C8806846C6
:40B04000A968008888806846A968C08848826846A96840880882204600F04EFA1B4948702046FBF785FC2646403600280ED1FFF757FD328A6179FCF717FA0146A86828313D
:40B08000C38A828A89B22046FFF76AFAF18AA078FEF714FC142F12D00B49207D097B2022114008432075607EEF2108406076074840780128BCD12046FFF784FFFEBD0348E9
:40B0C00015218170FEBD0000082D002088240020014AD2681269104788240020014AD26812691047882400203EB50446FF20694608720020009008710F48007B800619D513
:40B100000E48806820308078002813D002AA01A96846FBF719FA00280CD16846037AFF2B08D00099002905D002792046FBF70BFE00203EBD01203EBD082D00208824002078
:40B1400070B504464878142801D0152825D1607EEF210840607640212046FEF76EFD2046FBF706FC2546403500280FD1FFF7D8FC2A8A6179FCF798F901468820005928316E
:40B18000C38A828A89B22046FFF7EAF9E98AA078FEF794FB2046FFF715FF70BD10B5044601F0A6FB01000CD10748C26B92882280C26BD2886280C26B1289A280C06BC08893
:40B1C000E080084610BD0000D42D002010B5044601F094FB002806D10349CA6B12882280C96B4988618010BDD42D002070B5054601F08AFB002812D12888FCF741FF0400BC
:40B200000ED0FDF7F8FA00280AD02079092809D0F8F7EAFDAA886988204600F0B7F870BD022070BD0C2070BD10B5044601F072FB002806D103492288CB6B1A80C96B628882
:40B240004A8010BDD42D0020F3B506461F480025007B81B0800636D534468034902200213046A768F7F78EFCA7600298012806D1304618218830F9F793FA050023D1144881
:40B28000A268C16B89881180C16BA26809895180A2681B219180A268D180A2681181A2685181C16BA268C9889181C06BA1684089C881FF20A16849300882A1684882A1680D
:40B2C0008882A168C8822846FEBD0000082D0020D42D0020F8B504461B26294800250F46868000290DD024210830F9F759FA050044D1002F05D00C212248F9F751FA05006E
:40B300003CD120491E4F3C39C86B0680FF20CA6B493050802068CA6B008890802068CA6B0088C0007030D0802068CA6B408810812068C96B40882022C000703048811249B5
:40B34000087B10430873B86820308678002408E0B968E0000858002801D009F089FF641CE4B2B442F4D324220021B868F7F70AFCB868FF2120300170002141702846F8BDE3
:40B3800088240020102E0020082D0020F8B50446FF23084649331B38E12804D2224DAA4201D89A4201D21220F8BD26468036B06803898B4206D1838A934203D11B4B1B7816
:40B3C000002B12D0637EDB062BD483891546AB4200D91D460180B06882812046FBF7C8FA27464037002802D00FE00020F8BDFFF797FB3A8A6179FCF757F8B1682830CB896A
:40B4000081B22A462046FFF7ABF8F98AA078FEF755FA607E102108436076044814218170E3E72320F8BD0000480800008824002030B54A78140284800A7814438480CA782B
:40B440001202C2808B781A43C2804B791B0203800D792B430380CD792D02458089790D4345801B2B07D3FF204930854203D31B2C01D3824201D2122030BD002030BD000075
:40B48000F8B50646002000900D46684609F096FE002801D00720F8BD009934460D708034A06880784870A0684088000A8870A068807BC870A068C089000A0871A068007823
:40B4C0004871A0680088000A8871A068007BC871A0688089000A0872142D05D105484021428B3046FBF7A4FD092231460098FDF7D3FBF8BD082D0020014610B500200029B9
:40B500002FD080318A68D3881488A34200D3234614899C4201D0138101208A68538A9489A34200D32346948A9C4201D0938201208A6893885488A34200D3234654899C427B
:40B5400001D05381012089680A8ACB899A4200D31A46CB8A934201D0CA820120014A0021117010BD882400200348C078002801D00020704701207047F42F002010B50122D9
:40B5800000F016F810BD000010B5054802780121002A017002D10120F9F7B2FB002010BD9824002010B5002200F002F810BD0000F8B515460C460646F7F7A0F8224A10785F
:40B5C000012806D01078022803D0F7F793F81120F8BD0C2046431D483018C1788378994203D3F7F787F81220F8BD46780C277E434168676871182668A4684F600E608C6077
:40B60000C178431C491CC1704178491CC9B219708078814201D1002018705068401C50601078012803D0F7F765F80020F8BD02201070F7F75FF8002D03D00020F9F760FBCB
:40B64000F3E70120FAE7000098240020F42F002010B51148002101704160C0220F48F7F791FA0E4890220021C030F7F78BFA182200210B48F7F786FA0948102181700C2184
:40B68000817306494160C03101610649816006494161F9F71DFB10BD98240020A42E0020F42F0020AFA50000C1CC0000F8B50025134C01262F462078002811D001280FD0F5
:40B6C000022802D0032816D114E000F01BF8F7F715F86068002800D12670F7F70BF80AE0F7F70CF82078002802D020780128F4D10125F2E72770002DDDD00020F8BD0000C9
:40B7000098240020FEB5204D204E0027FF24F6F7F5FF00200C2141438919C978002901D0044602E0401C0228F4D3FF2C28D00C204443A41921780C22606851430818014630
:40B740000EC9029301920091076047608760E078401EE0702078401CC0B22070A178884200D127706868002802D06868401E6860F6F7C0FFA1680029C8D068468847C5E79E
:40B78000F6F7B8FFFEBD000098240020F42F002010B5830A082B02D009F024FE10BD00F0D5F810BD10B50C460146207800F026FD0028204603D001F035FA002010BD00F0DB
:40B7C0007AFC1F2010BD10B5820A082A02D009F0A3FE10BD00F0C0F910BD0000F8B5044640782578000205430020694608702846FFF7E9FF012827D16946A0780978884239
:40B8000022D01C498D4208D0891D8D4205D0C91C8D4202D0C91C8D4204D11221284600F077F80CE00022022805D32079E178000201430A05120D12212846FFF7A9FF204696
:40B8400009F0E4FC1220F8BD0B4EA80A08282A4631460AD0E01C09F0A9FE204609F0D6FC3146284600F00AF8F8BDE01C00F084F9F3E700000D2000000C300020F8B50D46E7
:40B8800004460020694608701D4884420FD0801D84420CD0C01C844209D0C01C844206D017481830844202D0401C844201D101200870A00A08280A462946204609D009F01E
:40B8C000C7FE064668460078002805D0012815D110E000F085F9F4E70022002D05D068782978000201430A05120D31462046FFF74FFF03E03146204600F00AF83046F8BDB5
:40B900000D2000000148007B70470000242E0020F8B5054600200E4600906946082000F0C3FB002801D00720F8BD009C0F202070A670FFF7E7FFE0702571280A607104203D
:40B9400060702146FF20FFF72DFFF8BDF7B582B00646002001900420694608707749784B701A0C22F51806278E422BD008DC002D1FD0012D1FD0052D20D00D2D08D11DE0E5
:40B98000032818D005281FD006281DD0072812D06C4930460968884769460978401869460870694930460968884769460978401805E0781C03E06846027007E005206946EB
:40B9C000087003E00B20FAE7684607706846007801A9001D00F068FB002802D0072005B0F0BD019C31462046039A00F0EBF804206946087052481338301805D0052803D0C1
:40BA0000062801D00D2806D10499A17104996846090AE1710770039800281FD14749891F701A8E425DD007DC484F002D1ED0012D2FD0052D06D14DE0062859D0092866D0FD
:40BA40000D286CD0424B6A461B68214630469847404B6A461B682146304698476846007860702146FF20FFF79DFEB8E769460978387F6118887069460978000A6118C87070
:40BA800069460878801CC0B20870797F2018817023E06946087808222018801C0021F7F771F8387BF12108406946097861188870F6F73CFEC0B2022806D068460078201863
:40BAC00081784906490E817069460978787B6118C8702DE0FAF722FF05E069460878401C29E0FAF73FFF6946097861188870F4E7684600782118891C0498FAF71FFF0028C8
:40BB000001D06071AAE769460878401D13E06946087808212018801C09F0C6F808E0694608780A492018801C08222031F7F721F8694608780830087090E700001520000025
:40BB4000FEDFFFFFCC240020BC240020082D0020C8240020B8240020064AC0B21378834206D3401E1269C0B2105C08700120704700207047A024002030B4074BD2B21C7882
:40BB8000944206D39B689200D218403AD26B30BC104730BC70470000A024002007484F21017007494160FF313D318160FF313931C160FF313931016170470000A0240020E4
:40BBC000DC7D010070B504460E2016460D462070FFF798FEA070E570280A2071667170BDF8B50D4D16460F46C1B22A780120914210D88C00E868314620184038C26B384600
:40BC00009047002806D16868314620184038C26B38469047F8BD0000A02400201CB5009001916846F6F79FFDC0B21CBD1CB5009001916846F6F795FDC0B21CBD70B5154CB6
:40BC40000546442200212046F6F79CFF212212492046F6F78EFF114AF121107B0840C3060F48017802D53023194301E0CF2319400170107BC007207F02D00721084301E073
:40BC8000C008C0002077442221462846F6F771FF70BD0000542E002001830100082D0020742E002010B5FAF7E7FE10BD10B5FAF70BFF10BD002070470120704710B5FAF708
:40BCC00065FF10BD0020704710B5FAF761FF10BD044A0178D18040784007400D0143D18000207047242E002010B5FAF774FF10BD38B504460020009069460E2000F0D4F9A0
:40BD0000002801D0072038BD00993E200870032088702078C870A07808716088000A487120798871A088000AC871A0790872E088000A4872207A88722089000AC8720A20F1
:40BD400048700320FFF72EFD38BDF8B50546002000906946232000F0A7F9002801D00720F8BD009C3E2020700A2100F047FA01460120002946D001260A20A07007462878F8
:40BD8000E070A978217169880622090A61716878A0712879E0712046294608300C31F6F7E8FE0C20002E0ED0204629460E3006221231F6F7DEFE2046294614300622183179
:40BDC000F6F7D7FE1820AA7921188A70EA88801C120ACA702A7A21188A702A89801C120ACA70AA7A21188A706A89801C120ACA70221869799170401C607021463846FFF7B3
:40BE0000D1FCF8BD0026A0700127B8E7F8B5044600200E46009015466946082000F044F9002801D00020F8BD0099082008708E70CC70200A08714D7104204870FF20FFF796
:40BE4000B1FCF8BD38B50C460021054600916946072000F029F9002801D0002038BD0099302008708D70CC70200A087103204870FF20FFF797FC38BD38B505460020009091
:40BE80006946112000F010F9002801D0002038BD009C3E2020700520A0702878E07028880822000A2071601D6968F6F762FEA9680D200A7862734978A17360702146052016
:40BEC000FFF770FC38BD38B5054600200C4600906946092000F0E8F8002801D0002038BD00991320087001208870CD70280A08714C71200A8871052048700722042000F0BC
:40BF000045FEEBE738B504460020009069460C2000F0CAF8002801D0002038BD00990C20087020788870A078C8706088000A08716078487120798871A088000AC871A0793B
:40BF40000872E088000A487208204870FF20FFF729FC38BD38B50446002000906946062000F0A2F8002801D0072038BD0099572008708C70200AC87002204870FF20FFF7DC
:40BF800011FC38BDF8B5064600200C46009015466946082000F088F8002801D00020F8BD0099052008708E70CC70200A08714D7104204870FF20FFF7F5FBF8BDFEB50746AD
:40BFC0000020009010480E46019015466946082000F06AF8002801D00720FEBD009C324620460199FFF7EEFDA771380AE0710620002E03D1290A2572617208206070214631
:40C00000FF20FFF7CFFBFEBD7B0C0000F8B5054600200E4600900C4F6946062000F044F8002801D00720F8BD009C324639462046FFF7C8FDA571280AE07106206070214608
:40C04000FF20FFF7AFFBF8BD7C0C000010B5FCF7FDF910BD10B5FCF713FA10BDF8B505460020074600900D4E6946142000F01CF8002801D00720F8BD009C3A4631462046B2
:40C08000FFF7A0FD1022A01DA918F6F772FD142060702146FF20FFF785FBF8BD1720000010B5FAF723FD10BD0A4610B5C1B2104609F03CF810BD10B509F0B2F810BD000045
:40C0C000F8B50546C078AF78164C00020743A07D26468000203E8019103004222946F6F748FDA07DB38E800082191032291D042B16D03550A07D0023400080190784A57DD3
:40C10000204610302B54A07D401CC0B2A075042800D3A375B08E401CB086104600F073FDF8BD000070300020FEB5144C0025E17D204610300D54E07D26468000203E3058FC
:40C1400009F082F8E07D401CC0B2E075042800D3E575B08E401EB0860948807A00280CD00095019511206A4602951081558129460A460020029B09F02FF9FEBD7030002030
:40C18000242E002010B5184C207A002827D1F8F729FF164900208875C8752039888620726072A072A08210BDA07A00280DD0401EA0720D4A0006410D403A8818515C4068E5
:40C1C000022907D0042907D101E00920F0E709F027F801E0FFF7A8FFE07A401EE072E07A0128E1D810BD0000C83000207030002010B5FFF7C7FF002010BD00001B4B1028CA
:40C200005A7A2DD00CDC0C2823D004DC05281ED0082829D124E00E2824D00F2824D121E0302818D004DC13281CD01A281CD114E03E2802D0572817D111E0500614D5491EFE
:40C2400001208840D98880B201420BD10CE0012006E0802004E0202002E0022000E00420024201D00120704700207047242E002010B50B460178401C197001460622581CD7
:40C28000F6F777FC10BD034610B5084608221946F6F76FFC10BD704770477047427812020A8003781A430A8080788870704770B50D460446014610222846F6F75AFC21466E
:40C2C00010221031A818F6F754FC70BD034610B5084640221946F6F74CFC10BD427812020A80007802430A80704710B50B4641780A021A800178801C0A431A800146102242
:40C30000981CF6F736FC10BD427812020A80007802430A807047427812020A80007802430A80704770477047427812020A80007802430A807047427812020A8003781A43BD
:40C340000A80807888707047007808707047427812020A80007802430A80704710B50B460178401C197001460622581CF6F701FC10BD10B502780B460A701F2A03D8411CF6
:40C38000581CF6F7F6FB10BD00780870704770B5054640780C46000208802978062208432080E87800026080A978084360802879207168796071A879A071E91DE01DF6F76B
:40C3C000D8FB687B6073A87BA07370BD0022835C0B70521C491CD2B2082AF8D370477047034610B5084606221946F6F7C2FB10BD7047704710B502780B460A701F2A03D81D
:40C40000411C581CF6F7B5FB10BD70B5054640780C46000208802978082208432080A91C201DF6F7A6FBE87A102200026080A97A08436080294620460C310C30F6F799FBE4
:40C4400070BD02780A7042784A70807888707047427812020A8003781A430A80C27812024A80807802434A80704710B504460088FAF7C2FF00280AD0A078152811D008DC8B
:40C4800005280ED013280CD0142808D109E0022010BD1A2805D0292803D03B2801D0122010BD002010BD012070470078012801D91220704700207047002070470020704751
:40C4C0000020704710B50088FAF796FF002801D0002010BD022010BD10B50088FAF78CFF002801D0002010BD022010BD10B50088FAF782FF002801D0002010BD022010BD8B
:40C50000002070470078272801D912207047002070470078012801D9122070470020704710B501790388428804291BD801290ED0934217D80124A403A24213D8202B11D33E
:40C54000817B03290ED8012901D0042902D18179032907D84179032904D8407B410701D0C00800D0122010BD00781F2801D912207047002070470020704700207047002059
:40C58000704700207047002070470020704710B50446007827280AD8F6F7C8F8C0B2022802D06078252802D8A078072801D9122010BD002010BD10B50088FAF71DFF0028DE
:40C5C00001D0002010BD022010BD0120704710B50088FAF711FF002801D0002010BD022010BD10B504460088FAF706FF002804D0A078012803D9122010BD022010BD0020DF
:40C6000010BD0020704710B504460088FAF7F4FE002804D06088002803D0002010BD022010BD122010BD704700207047014A126852681047B4240020014A1268D26910476F
:40C64000B4240020014A1268926A1047B4240020014A1268D26C1047B4240020014A1268926D1047B4240020014AD26852681047B4240020014A126812681047B424002031
:40C68000014A126892691047B4240020014A1268D26B1047B4240020014A1268126B1047B4240020014A1268526A1047B4240020014A1268D2681047B4240020014A1268A6
:40C6C000926C1047B4240020014A1268526D1047B4240020014AD26812681047B4240020014A126892681047B4240020014A1268126A1047B4240020014A1268526C104754
:40C70000B4240020014A1268926B1047B4240020014A1268926E1047B4240020014A1268D26A1047B4240020014A126852691047B4240020014A1268126D1047B42400202A
:40C74000014A1268D26D1047B4240020014AD26892681047B424002070477047427812020A8003781A430A80C27812024A8083781A434A80427912028A80007902438A8095
:40C780007047427812020A8003781A430A80C27812024A80807802434A8070470749401805D0012805D00D2805D0002070470220704704207047082070470000DEDFFFFF88
:40C7C0000020704770470000FEB50D4627491646147840180022002802D00C2844D115E06B461A7101A96846FEF7F0FC6B461988281981701988A41C090AC170E0B25A8889
:40C8000029188A705A88120ACA702BE069460A7202A96846FEF7C2FC694689882819817069468988A41C090AC170E0B269462A18C98891706946C988801C090AD170C0B256
:40C8400069462A180988917069460988801C090AD170C0B2694649882A18917069464988090AD170801CC4B23470FEBDDDDFFFFF38B504460020009069460F20FFF714FC06
:40C88000002801D0072038BD00993E200870072088702078C8702088000A0871A07848716088000A88712079C871A088000A0872A0794872E088000A8872207AC8722089E4
:40C8C000000A08730B2048700720FEF76BFF38BD10B5FEF763FC10BD10B5FEF777FC10BD10B5FEF783FC10BD10B5FEF79DFC10BD014A1268926A1047C4240020014A12686A
:40C9000012691047C4240020014A126852681047C4240020014A1268D2691047C4240020002801D00020704712207047002801D0002070471220704710B504460088FAF7E6
:40C940005BFD002816D0618808461B38E1280FD2A0880A4A90420BD8FF224932904207D3074AD26B9388994202D8D188884203D9122010BD022010BD002010BD48080000DC
:40C98000D42D002010B50021002815D0028813461B3BE12B0FD24088084B98420BD8FF234933984207D3064BDB6B9C88A24202D8DA88904200D91221084610BD48080000EF
:40C9C000D42D0020014A1268526A1047C4240020014A1268D2681047C4240020014A126812681047C4240020014A126892691047C4240020044803490160044941600449E7
:40CA000081607047CC830100C4240020C9C700009DC70000014A1268D26A1047C4240020014A126852691047C4240020014A126892681047C4240020014A1268126A10471D
:40CA4000C424002010B50B48017A01290ED0C17A00290CD001210172407A064BC000403BC1184A884968185CF8F7BDFA10BD0021017210BDC830002070B503461448C47A34
:40CA8000092C0BD3022B05D0042B02D10846FFF712FB70BD0846FFF747FB70BD847AE5000B4C403C6355837ADB001B195960817AC90009194A80C17A491CC172817A491C18
:40CAC000C9B281720929E8D30021817270BD0000C830002010B50F4CE17A002918D0617A2246C900403A515C022904D0042904D1FFF7E1FA01E0FFF717FBE07A401EE072FE
:40CB0000607A401CC0B26072092801D30020607210BD0000C83000207047FEB5002406460D462046009401940294012E05D0022E1AD10846F9F7F6FF15E01220694608819C
:40CB400000954A81002B69460EC90ED0002008F01FFC040007D000F02FF8002803D02946304600F043F8E0B2FEBD002008F034FCEFE7000010B5FFF7ADFF034800210172E5
:40CB8000FFF760FF10BD0000C830002010B5FFF773FFFFF757FF10BDF8B5154607465C1B2046069EF5F7E5FFA81982B221463846FFF7ECFFF8BD00000148007B7047000064
:40CBC000142E002010B5012802D002280AD103E0084608F09BFA02E0084608F0DFFA0006000E01D0002010BD012010BD10B5012805D0022802D1084608F03AFB10BD084639
:40CC000008F004FB10BD08B50B46C17882780902891889B20091014604220220FFF7BCFF002008BD3EB54178002216236C46029223810090891C61810120029B009908F0FB
:40CC4000CBFB00203EBD10B500210846FEF760FE10BD0EB500210191029118216B461981009001205881002A69460EC902D008F08FFB0EBD012008F0AFFB0EBD10B50B4BF0
:40CC80000B4A0C490C48F8F7A7F90C480021017241728172C172017402468182403A116641828173C173084610BD000053CC000019CB00001BCB000047CC0000C83000205B
:40CCC00010B50189162907D017290BD0182902D10068FFF74FFF10BD428901680420FFF755FF10BD0068FFF7EBF910BD70B58AB0284801F067FF00280FD1274801F002FC1D
:40CD000000280AD1264925480860084600F0F6F8002802D1234806F0A9FB054602A802F0BDFE002402AE07E0E000001B8019401CF9F718FA641CE4B26846007AA042F3D846
:40CD4000002D24D10020694688716846F9F74CFA062269461448F5F70CFF684602F0FCFF0120694688716846F9F73EFA062269460E48F5F7FEFE0021012000F067F80C4887
:40CD80000078012803D10021FD2000F05FF828460AB070BD05DE000061E1000029040100D42400204D020100E4250020F0250020C823002070B504000ED0206800280BD06E
:40CDC0000A4DA8600420687000F0D4FD204601F0AFF8002802D006E0012070BD02F0A4FF204603F0CBFE0021297070BDD024002010B503F0E7FE01F0A5F900F059FD02F0D5
:40CE00000DFE02F013FE10BD10B5002422460A490A4800F06FFD0A49884200D108240949884205D00849884202D0491C884200D10324204610BD0000EDCC0000C1010100F7
:40CE4000111000000520000011110000002804D0024A9268002A00D010477047D024002070B50546012016460C46002D11D0002C0FD0002B03D1F9F70DFB002809D1B2B237
:40CE800021462846F5F758FB002802D0012800D02C2070BD08B50420694608700220FFF7D5FF08BD30B5054608480C000CD0002D0AD0284600F00EF8002805D16978044A39
:40CEC00009018918C988218030BD0000112F0000EC30002001464A780648002A09D1064A137ADB439B0704D409781278914200D100207047132F0000EC30002008490028DF
:40CF000009D00068002806D006490A68002A04D00348C01C704708467047086000207047112F0000DC240020F7B586B0069815460E4600280AD0152E05D01E2E09D9D22EFA
:40CF400007D0522E05D0F74809B0F0BDF548401EFAE7002000900698694640780490FF2008730698FFF7B6FF07002DD11B2E0CD01D2E0AD0F0070BD0012E06D00498010174
:40CF8000E9480818007BB0421CD1F00703D010E01E2EF3D0F9E71E2E17D004980101E2480818407B002804D0522E0ED0D22E09D10BE01D2E09D104980101DB480818407B67
:40CFC000002802D0D74FBF1CD0E0012E1CD004980101D5480818C088001DF7F7BBFC040014D0D0490120091D0F2E72D011DCCF4A3300F7F70FFB0F292BF947F855F771F640
:40D000007EF591F485F329000920E6E7C54F0D3FACE0182E73D009DC3246103A1300F7F7F9FA08E0B4FB2E1313E4E4131E2E26D006DC192E23D01B2E01D01D2E04D1EBE028
:40D04000522EFCD0D22E7DD0B64F8CE0E87804280DD00499AA780B01B3495918097B491E8A4204D0062802D0AE4FBF1C7BE0A87860712888A071000AE071E878F7E0694654
:40D08000488154E028881738904201D30F466AE003206946488128886071000AA07146E02879012816D0102702206B46588128796071EA885889BF1C231D7A43C018296839
:40D0C000F5F757FD6B46E88859897843081858812DE04FE00227E7E769464881A88829688200601DF5F745FD69464889A9888900F3E002206B465881A888801C5CE08EE170
:40D100002968002902D0A988002905D1012100916946488100200190012221462846049B00F040FB070023D0009800281BD0267100206A4690735673304600F00DFA6A46A0
:40D14000107300E037E106990B7813724978517201945189091D5181014601AA002002F07FFB070002D02046F7F712FC3846EBE6E88817E169464881AA88601D2968F5F78E
:40D18000F8FC69464889A988A7E0E888002800D17CE7A8880028FBD0049A1301624A9A18D288521E9042F3DA28680028F0D002206B465881A888001DA8806071AA88E888CF
:40D1C0005B894243201D18182968F5F7D2FCA888E9886B4648435989401878E7D9E0BEE0B5E0E1E046E034E021E02A89002ACFD06B4658812989221D81545B89090A671D69
:40D20000D9556B465889801C81B25981A88988545989000AC85552E0012221462846049B00F09CFA07009ED1E888C01C27E7288817389042ACD203206946488128886071E5
:40D24000000AA0710498298802013748101841806DE7288800289BD06A88002A98D0904296D86071000AA0716888E071000A2072052004E72B89002B8AD06A89002A87D0FA
:40D28000934285D86B4658812A89211D4254100A5B89621D98546B465F896889A31DF8546B465B89000AE71DD8556B465889001D87B25F81A88978545989000A88545889EE
:40D2C0002146801C82B25A812846049B00F06AFA0700A8D169464889E9884018CFE69A42BED86B4658812A88211D4254100A5B89621D98546B465F896888A31DF8546B460C
:40D300005B89000AE71DD8556B465889001D87B25F81287D01280BD078181022291DF5F728FC0AE0122F0000EC300020F9010000A88878545989000A885468464189287D03
:40D34000012801D0102000E00220081897E62888002891D06071000AA07103208FE62A88002A89D06A46508128886071000AA0715089801C81B251816888221D88546A46A0
:40D38000010A5289601D11546A465089801C5081CDE621462846049A00F0BEF9070098D1E8884000401C6AE62A88002AD1D06B88002B94D16AE62989002900D1D3E66946B2
:40D3C00048812989271DC1550A0A69464989601D0A5469464889801C48810498010117480818C0880F3880B2E880A988884200D9E9806B465889EA88C0192968F5F7B9FB72
:40D400006B465889E9880C22401880B25881C019A918F5F7AEFB6B4658890C3057E62A78002A01D0012AC5D1694648812978221D815469464889401C22E60000EC30002073
:40D4400010B50A4800210160094804224270012282601722C2804280828001734173054A1721042001F0EEFB10BD0000DC240020EC30002079D50000704770474079034A0E
:40D48000000180188068086000207047EC300020F8B5074640790E46010120480C18A568304609301FD0042805D00C210D280CD0112831D122E06078042803D0F7F7EEFA07
:40D4C000042060700020607316E06078042806D10091601C3B46124A1E21F7F78BFA787A401C607317E06078042803D0F7F7D6FA042060700020207335400DE0607804281E
:40D5000006D10091601C3B46054A1E21F7F772FA787A401C20733543A560F8BDEC300020E9D7000070B502010A481418A16001290FD160780425042802D0F7F7AFFA657073
:40D540000120A0601720E0806080A08000202073607370BDEC300020032809D9C10704D01B2804D01D2802D003E01E2801D0F1207047F22070470000F0B585B00546032951
:40D580004AD803D1002A47D0002B45D0444801248446FF206E4630717071B4722E78414827463F01103FC75D641EBE4209D127013F18BF68012F04D06E46747128783071CF
:40D5C00007E0002CECD16646002E02D0012923D124E0012920D0022945D01078142801D9162805D31E2850D9D2284ED052284CD0FF206946087248720092CB806846017A5A
:40D600006A46002002F02CF92549491E884203D10121062007F038FA05B0F0BD0A461201103A12189268491E012A02D00029F5D1E4E7CAB26B465A712C781C712B780901F8
:40D64000435402211046FFF76DFF81206B461872587203A9284600F0EBFA03A8009007206B46D880CAE7E0B20121FFF75BFF822069460872487203A9284600F0D9FA03A876
:40D68000009007206946C880B8E769464872FFF763FF6946521C08725B1E0092ADE70000132F0000EC300020F8B50546447A807A0E46012821D1287A81281ED082281CD0BA
:40D6C000002E0ED11E2C0CD0E00702D01D2C06D009E0522C05D0D22C03D01B2C01D0082108E0E00702D01B2C02D106E01E2C04D10421C9432846FFF7CBFE06480768002FC7
:40D7000006D0E888009032462146281D2B68B847F8BD0000DC240020F0B5838801240568002B15D00B4E12019719FA88A61CB24209D32A880C192271120A5B1EAD1C62716B
:40D74000B4B2002BF1D18188C91AC1800020F0BD0148F0BDEC300020162F0000F8B505899C468E46002D16D08188961C8F1919010B4B0A4CCB18DB889F420AD87146891857
:40D780000D712A0A4A71B2B26346714600F00AF804462046F8BD01480A38F8BD202F0000EC300020F8B50D4684880168002C01D0002909D01F010A4BA618FB18DB889E4219
:40D7C00004D99B1AC38002E00648F8BDC480C388A818001D1A46F5F7CCF90020F8BD0000EC300020112F000070B504464079002501010D480D4E08188068C0434107002926
:40D8000001DB691F03E000070DD40821C9432046FFF73EFE607A3146401C60722560E5802046FFF741FF70BDEC300020172F000070B50446C38804C8042101F0CFF90500CF
:40D840000FD1617AC8070ED01D2912D0522908D0D22906D01B2904D00821C9432046FFF717FE284670BD5229FBD0D229F9D01E29F2D00421F2E710B582798B799A4204D115
:40D880000622F5F767F9002801D0002010BD012010BD0000002804D003490978017000207047024870470000E02400201310000010B50E4C2078032803D0022801D00C48C3
:40D8C00010BD07F09FF907F0BEFF00F001FE05F0A5FB07F0B7FFF7F794FAF7F7B3F900F0E5F806F027FE0020207010BDE02400201210000070B5154D04462878012801D0BB
:40D90000134870BD02202870696007F0CFF806F003FE00F0ADF8F7F793F9F7F771FA07F098FF204605F088F8040003D105F03AFB040002D00120287005E000F087FD07F075
:40D9400089FF07F058F9204670BD0000E02400201110000010B506480178022905D1032101704068002800D08047002010BD0000E024002010B50D4C2078002814D16060E2
:40D9800007F056F907F098F806F03EFE00F09EF9F7F738FA07F064FF05F0BCFB00F0AAFD07F05FFF0120207010BD0000E0240020FEB504462B480E002AD0002C28D020462B
:40D9C00000F08EF9002821D0264FBF1CB84220D0B579022D01D0032D1BD1062231466846F5F7C7F8AD1E684685716946204600F077F900280AD0B8420BD002A9684605F012
:40DA000071FD002809D16846007A20701548401CFEBD1449C91C8842FAD120780E22124D5043B1794019817120783146504340190622F5F79EF80D480E22817920785043F5
:40DA4000401941732078094950434019C01D0622F5F78FF80549491E0878401C08700020FEBD000011140000FC300020E9240020F8B505240B4F0026641E0E206043C51942
:40DA8000062200212846F5F77DF8AE71E81D06220021F5F777F86E73002CEDDC02480670F8BD0000FC300020E82400207047000010B5062200210548F5F764F803480622F6
:40DAC0000021801FF5F75EF810BD00004831002010B50C46014606220648F5F74AF8002C05D0044806222146801FF5F742F8002010BD00004831002070B5040004D0207800
:40DB0000052804D3124870BD1148001F70BD0E214843104D062240190021F5F733F820780E2148430026401986712078062248434019C01D3146F5F725F820780E214843CA
:40DB40004019054946730878401E0870002070BD15140000FC300020E82400200B0010B50D4906D0002804D00278052A03D3081D10BD084610BD0E214A4308495218527B39
:40DB80009A7100780E2250434118C91D06221846F4F7EFFF002010BD11140000FC300020F0B50646002085B005460490029003901D480C46002906D0002E04D0307805284C
:40DBC00003D31948001D05B0F0BD184F0622B91D02A8F4F7BFFF002806D00622B91D2046F4F7C7FF01201BE021463046FFF7B6FF0490A079022814D302D0032803D005E08D
:40DC00006846857102E00120694688716846F8F7EBFA062269462046F4F7ABFF68468079A0710498CFE7000011140000423100200B0010B50D4906D0002804D00278052ADE
:40DC400003D3081D10BD084610BD0E214A430849521892799A7100780E225043411806221846F4F786FF002010BD000011140000FC3000207CB50026054612480C46009668
:40DC80000196002906D0002D04D02878052802D30C48001D7CBD06220B496846F4F75AFF002807D0062208492046F4F762FF0120A07104E021462846FFF7BAFF064630468D
:40DCC0007CBD0000111400004231002010B50021024A084606F02CFF10BD0000BDDD0000F3B583B0054604981749002818D0002D16D005248E1C2C70002069460090888010
:40DD00008871641E0E2021464143104809180F460498FFF7B0FD002805D000262C7010E0084605B0F0BD2878052808D139466846FFF7A1FD002802D0034E2C70F61C002C57
:40DD4000DFDC3046EDE7000011140000FC30002010B50C46002808D0014606220448F4F708FF03488471002010BD024810BD0000E92400201114000010B50E4A002907D0B6
:40DD8000002805D00278052A04D30A48001D10BD104610BD0E235A43074B8C79D218947100780E225043C0180622F4F7E2FE002010BD000011140000FC30002070B5104D8D
:40DDC000002A0FD0012A0CD100240E206043421900210E23084606F0A1FE641CE4B2052CF3D370BD00240E206043421900210E23084606F0F7FE641CE4B2052CF3D370BD3E
:40DE0000FC30002008B502290DD003290AD150786B460002188011780143198069467220FFF714F808BDD0789178000201436846018069467120F3E7024610B5FF20002A13
:40DE400014D02A4BD11A9A423ED01FDC2849541A8A423BD011DC274BD11A9A4236D007DC2549511840D00C2901D12DE0002010BD012939D00229FAD126E00A3C2300F6F747
:40DE8000C9FB0627252B04292F04F0E72F291BD00EDC052924D005DC012917D00429E6D1102010BD09291BD02E29FAD1062010BD4E290BD004DC4A2910D04C29F7D103E0F1
:40DEC0005C290FD05E29F2D1022010BD012010BD0D2010BD0E2010BD0F2010BD112010BD042010BD122010BD032010BD262300001623000012230000FBDCFFFF10B5094826
:40DF00000068002801D0F6F743FD07480068002801D0F6F73DFD05480068002801D0F6F737FD10BD2C2500200C25002008250020F8B56349074600240C701E20C870B879E4
:40DF40000326002800D101208870F879002800D1012048703A89002A02D0121F8A8000E08C807A89002A02D0121FCA8000E0CC801C214843F6F7EEFC5249002808607DD080
:40DF80004F4D142168784843F6F7E4FC4E490028086073D02846807824214843F6F7DAFC4A4D0028286078D0002600F0A1F8444B009432E0242041432868242244500099B7
:40DFC000514308184460009829685043401884600098296850434018C460009829685043401804610098242148432968401844610098242148432968401884610098242117
:40E00000484329684018848300982421484329684018C4830098401C0090987800998142C8D328482146009425E01C225143026889188C6000991C225143026889188C8186
:40E0400000991C22514302688918CC8100991C225143026889180C6100991C225143026889188C8200991C22514302688918CC820099491C00915A78914200E00DE0D4D30A
:40E080001D462046009405E0684600F03DFE0098401C009069788842F6D3384600F06EF8F6F758FC06490028886007D0002E03D000F01EF8FFF722FF3046F8BD0326F7E7B2
:40E0C000F02400202C2500200C2500200825002003B5012081B0002909D0C88800908B884A88098801A800F019FDFFF7A5FE0EBD10B51048104C0068002805D062781C2173
:40E100004A430021F4F73EFD0C480068002805D0627814214A430021F4F734FD08480068002805D0A27824214A430021F4F72AFD10BD00002C250020F02400200C250020E2
:40E140000825002010B5FFF7D3FFFFF7D7FE034CA068F6F71DFC0020A06010BDF024002013B5684604490078087069460520FEF76DFE00201CBD0000F024002080884528F3
:40E1800000D84520704700000B494028497810D30A46403290420CD2084B14221B684243D21805231B02D21A9278002A01D001464039C8B270470000F02400200C25002072
:40E1C000F3B581B06846007914210246484322494032096800240F5C41184D8900928878022806D0032806D0052804D0062805D103E0012402E0082400E0042401A800F0BC
:40E2000083FD164EE0070DD0182047431448242138183268001D6943891800234F681946029AB84760070DD50E490298884201D1002100E001462420326868438018C26842
:40E2400000989047200706D52420454330682818816800988847FEBD0C250020082500205031002038230000FEB50E460746082B04D00021304601F07BFAFEBD507915797A
:40E2800000020543D0799479000204432846FFF77BFF69460872FAB2294602A800F0ACFD002809D16846007A142148431349096840188088A04208D0002302223146384603
:40E2C0000095019401F084FAFEBD082307222946304601F0B5FA44200949704340188575290AC1750476210A4176304601F076F968460449007AFFF763FFFEBD0C250020C2
:40E300005832002038230000F8B50E46082B29D15079157900020543D0799779000207433846FFF731FF04460F480178A14219D00E4914200968604340188188A94211D10D
:40E34000807806280ED144200949704340184089B84207D10121304601F00AFA05492046FFF72EFFF8BD0000F12400200C2500205832002038230000F8B50746694600F0FF
:40E3800091F9002851D101220721009800F0F0F801220821009800F0EBF8244E0024E0003558002D04D004236A4602213846A847641C032CF3D300241D4E1E4D04E0E0B2C7
:40E3C0003146FFF7FDFE641C28788442F7D300240121204601F0CCF9641CF9D01648174C0088002808D000981821484300194188134802888918018012491B200880009816
:40E40000182148430019083007F094FD0098002201461823D243584322520019FF220271094A1720490050520020F8BD4032002037230000F12400200025002050310020E1
:40E4400030250020022500200425002010B500211C48C9430180FF2101711B4A17201080184A00201832142343439B18401C19740A28F8D314490A200839486100220A70D3
:40E480000320886107200A62C8610E488A704A70E0300260C2728280501E4862094B88621046F033C400401C1A510328FAD307480123827343600281042303704274CA6286
:40E4C00010BD000050310020042500205832002070B5074D0024142060434019007CFF2802D0204600F0AEF8641C0A2CF3D370BD68310020024800218180C18070470000B7
:40E50000FC240020002803D0024908620020704701487047FC2400201623000070B50024114A0146651E142060438018007CFF2808D0641C0A2CF6D30121084606F0A4FAC0
:40E54000284670BD2046142600237043135080188381C3814560017404490868401E086000F0B6F8204670BD6831002010250020F8B50F461F4916460C68601C38D01E4847
:40E58000006884421CD014201C4960434018406812E01421194A41438D18297CB94209D1142363439A1869685160002E03D000F049F800E004466868411CEAD10E480460C9
:40E5C0000C4A142110680D4B4143C9180B7CBB420ED10B4C0023E372A38049681160064A1368984200D11160002E01D000F02AF8F8BD0000202500202425002068310020B0
:40E600003032002010B50C4A0C4914680C4B641C0FD00A6814246243D218506008600868142100224843D243C018426000F05CFA10BD08601060F2E72025002024250020F2
:40E640006831002070B5054614200D4E4543AC19207C072801D0082804D17059002801D0F6F796F900207051A081E081FF20207404480168491C016000F02AF870BD0000E6
:40E680006831002010250020044A1288824202D1002008607047024870470000503100201123000010B5074A074C1388A34206D000781279904202D10020086010BD0348B1
:40E6C00010BD000050310020FFFF00001123000030B411480268002A01D0012300E000230E48104C01680E4805682078A94201D800280DD00C4D2D68A9420BD3012809D1B8
:40E7000000202070012B05D130BC89B2C0B210470120F6E730BC70471C2500201025002014250020FC24002018250020FEB541490020087040480568681C72D014203F499E
:40E74000684344183E48C17A808808180004000C02D1284600F080F83949284600F0BEF800285ED1207C009001280CD1A0684421344B41430022C9184A74097C012902D11E
:40E78000002100F0F5FF2C48019501688D4201D161680160207CA6686568082834D11C20374647432848A389016879180A8BD218121F92B20A83016879188B8A9A4223D131
:40E7C00004460869F6F7E4F8216800207918086121681E4A7918888221687918C8822168791808831421126871438918498924225143174A30464030126880B289180023F6
:40E800000C6A1A461946A0470198FFF71BFF681C07D00098082891D1F0B200F03FFD8DE7FFE705480068401C02D10A49401E0860FEBD0000FD24002020250020683100204F
:40E8400030320020583200202C2500200C2500200825002024250020142148431B4910B54018C289036800219C18194B1C608489A21A94B29C80027C012A04D0072A0FD090
:40E88000082A16D10EE080684421484311494018807B002801D005210BE00020988010BD017A06E08068142148430B49096840188188D87A001DC0B2D8720019001F1873A0
:40E8C000000A58739973080AD87310BD6831002030320020583200200C250020F0B50C46C97AA28885B089188EB2002103915249142309684F4A5943504BC91814235843E2
:40E900004E4B097CC018012904D007290ED0082912D115E08068442148434949401847681820394641434748405A02E08068070C0CE0009090420ED10020E072A08076E005
:40E94000806814214843404909680F5C18203D497843085AEDE73D48008800282ED064E03B480088002803D038480088002825D038480588AE4200D83546701B86B23648A8
:40E98000C07A00281DD0002002906A460098107100980123010A02980001014303988001014351719571280AD071042201A90220F6F730FA0298002805D010E0012005B0E6
:40E9C000F0BD0120E0E72146E27A00230C310220F6F720FAE07A281A85B20020E072A088002812D0A84200D8054600232A4602202168F6F70FFAA088A84201D3401B00E05D
:40EA00000020A0802068401920601820394641430C4808184188491C41800D480088002803D00A480188491E0180002E98D10020C5E70000FFFF000020250020683100207D
:40EA400058320020503100200C25002030250020002500200225002030320020074B084A18801180002801D0002902D1002010801880044910880880704700000225002002
:40EA8000002500203025002001490880704700000225002038B50C466946FFF7F5FD00281BD10098182148430C4940184188A14201D2002100E0091B418009480088002873
:40EAC00007D0084A1188091989B21180814200D91080002C01D000F007F838BD50310020002500203025002010B50948017800290DD108490988002909D007490968491C5E
:40EB000005D00121017000210846FFF70FFE10BDFD2400203025002020250020F0B585B00A9E1F4614460D4606290DD31921C9018C4209D8A54207D8FF22F432974203D8FC
:40EB40000A2E01D38E4202D91B4805B0F0BD03A9FFF7A8FD002802D017484230F5E703981821164A414389184979002920D004AB00220C210293019200911346122205218D
:40EB800000F0A4FD0028E0D1049844210C4A414389188D752A0ACA750C76220A4A768F763A0ACA760E77320A4A7700F017FDCCE701484330C9E70000122300005031002088
:40EBC00058320020002803D00249086000207047014870472825002012230000F8B51C0015460E4606D0002D04D0002802D0311F032901D31148F8BD6946FFF753FD002880
:40EC000002D00E484230F8BD0720FFF787FC411C10D000990A4B0A041421324341430E46C9188A609D518C810422CA81FFF7EAFC0020F8BD0148401CF8BD000012230000B3
:40EC400068310020002A02D0031F032B01D306487047C300054818180346203B998040380262002070470000122300004032002038B51446002801D0042901D0074838BDBD
:40EC80006946FFF70FFD002802D00448423038BD0098034940000C52002038BD122300000425002030B504460B480D4B01780B481A68491E14254D43AD18AD78002D02D0A0
:40ECC0000029F6D130BD217014241B68002001226143C9188A7030BDF12400202B2300000C25002030B40D46C100064808184038046A002C04D02846A44630BC032160470D
:40ED000030BC704740320020F8B5394F04463A68002A6AD0374E3168002966D02078142343439A1892880025402A1CD31C22504341188868002816D08989002913D0F5F7CB
:40ED400027FE20781C21484331684018856020781C21484331684018858120781C21484331684018C58120781C214843316840180069002813D0F5F70BFE20781C21484330
:40ED800031684018056120781C21484331684018858220781C21484331684018C582217814204143386801224254217814225143081885802078396850434018C5802078D9
:40EDC00039685043401805812078396850434018056120781421484339684018C5602078142148433968401885700020F8BD00000C2500202C250020F8B507461646094D78
:40EE0000094C0846FFF7C0F92978814207D0074A142112684143515CB14200D1002438702046F8BDF1240020702300000C250020F0B587B005460E460020694648810881B4
:40EE40001446888102AF0E2B02D00223009735E06079A279010220790843E17909020A43411E0692FF29F0D2617A6B460A02217A0A431A81E17A09025981A37A19436B46AF
:40EE80005981172A03D3172901D3914202D90B23009713E004A900F0C9FA0028D5D1607B694600028881217B08436946888101A8FFF7F8FE002808D0042300970022314699
:40EEC000284600F0CDFA07B0F0BD6A4611791420404C414320684554138A117914225143081843816A4611791422514322680698891888806A46118910791422504322681A
:40EF0000801801816A4610791422504322683249801801616A4610791422504322682F4980186A46C16011791C2041432C489389026889188B806A46538911791C22514371
:40EF4000026889184B806A46938911791C225143026889188B806A46127900211C235A430368D21891606A4612791C235A430368D21891816A4612791C235A4300680E23D1
:40EF80001018C1816A461779152240373946304600F056FC6A4610791421484321684018467010791422504322680321801881706A46118A242041430A480368C818828BEC
:40EFC0001820454308485C582818001D02AB3946A04778E70C25002021F1000099F200002C2500200825002050310020FFB587B00898442148434349002440184089009055
:40F000000E2B7CD15079167900020643D07991790002084369460882507A00024882117A084369464882D07A00028882917A084369468882507B157B000205430098FFF751
:40F04000A3F86946087130490978814257D014212E4F484339684018817802294FD1002D01D001242BE06946098A172903D36A46528A8A4201D9264DF3E7052181706946A4
:40F0800008791421484339684018868069460A8A08791421484339684018028169468A8A09791C2041431B480368C9188A8069464A8A09791C230068594308184280012106
:40F0C000089800F055FB002C02D001A8FFF71CFE07981821484310491422401869460979001D51433A6804AB89184989242251430A4A126889184C682A460099A0470BB0E1
:40F10000F0BD000058320020F12400200C250020812300002C2500205031002008250020FEB505780020164601902C461C20564A444310680F462118C88800282DD0401E04
:40F14000C880002002905048006821188A89002A26D08868C9898B1993426CD8081832463946F3F706FD484800682018C189891989B2C1814448006820188689B1426BD123
:40F18000012187680291404A0021816010682018818110682018C18133E03C480190D0E778783B4B020238781B68104314226A43D218D288824266D3B21E0092904202D171
:40F1C000BF1C96B21DE0904218DD2F4A888112680021A218D181F5F7BDFB0190002852D0B21EB91CF3F7C5FC274801990268A2189160006800992018C1812DE023482A38BD
:40F200000190002E13D0224914200968684340184089242148431F49334609683A464018006901998446284640306646B047029801280ED010E0144EF5F7AAFB31680020CB
:40F240006118886031686118888131686118C88102E03846F5F79CFB1420294641430C48006808184189242041430A48006808180549C28B09686118C9888A4203D3426942
:40F28000284640309047FEBD2C250020712300000C2500200825002070470000F1B584B000200290304B049D1C201A684543A8184188525B914200D31146019101690391D3
:40F2C000818AC08A081A039986B2002901D0002E39D1002005B0F0BD0820FFF71FF90090401CF7D001983446864200D90446201DF5F730FB070030D01B482246006828185A
:40F30000C18A03980918381DF3F733FC00991420164B4143C818049A82605F50211D81810421C1810098FFF76DF90F48006828188188491E8180301B86B20B48006828180E
:40F34000C18A0919C1820848006828188088002801D0002EC0D10298BCE70098FFF772F903480290F7E700002C2500206831002005230000F8B58C46082B47D150791379C3
:40F3800000020343D0799279000202432148224E007800240546376809E014216143C9198988994201D1254603E0641CE4B28442F3D3A8422AD01C202F4647431748184BD8
:40F3C0000068391888888018984201D9154C03E08880002A1BD000240121604600F0C8F92846FFF75BFF0D4831680068381882881420684340184089242148430A490968F8
:40F40000401883692846214640309847F8BD054C641CE1E7F12400200C2500202C250020FFFF0000732300000825002030B50A4A0A4B0446074812781B68521E24255543B9
:40F44000ED18AD8BA54202D10A80002030BD002AF3D130BD22230000F224002008250020FFB581B00298442148431249164644181F460E23152231460A9D029800F0E0F98B
:40F48000A675300AE075287820762888000A6076A878A0766888000AE07628792077A888000A6077A777380AE077029800F096F805B0F0BD58320020FEB50646981F1D4619
:40F4C00014460F4605282CD20121384600F050F944204743134838184089FEF755FE694608711149097881420AD0142148430F49096840188078022802D101A8FFF704FC9A
:40F500000B480768002F0CD0182046430948694630180079AD1E0870A21CABB203216846B847FEBD58320020F12400200C2500202825002050310020F8B5234E0179427901
:40F5400035780068012A01D0022A31D100282FD11E4A1F4B128800249A4229D06A4600F023F9002824D1009844211A4F4143C919497C012908D101221146FEF7F9FF009853
:40F5800044214843C0194474009844214843C019042101704489052C0BD02046FEF7F4FD31780546A94204D10021009800F0E0F8F8BD0021009800F0DBF8052CF8D0064900
:40F5C0002846FEF7FDFDF8BDF124002050310020FFFF0000583200201823000070B5064644201549704344180120FEF797FF0546401C03D0607C012806D00CE0002130467A
:40F6000000F0B6F80D4870BD012211463046FEF7AFFF002161741421094A694388182346123386605350A18981812846FEF7EAFF01206074002070BD58320020132300007C
:40F6400068310020FEB50E4C2468002C06D018250C4E4543AD196E79002E06D0002200921346019200F0B4F8FEBD28796E4630729B1EA971921C9BB2012102A8A047FEBD3C
:40F680002825002050310020F8B517460D4D0A4629681E46002914D0182148430A494418607901280DD10121104600F061F8207969460870B61EBA1C2C68B3B2022168463E
:40F6C000A047F8BD2825002050310020FEB59C460B460146214C08A8A1C8A67B002E01D01F48FEBD00263E60A274071F27753F1267756160E6736381A0816674002A01D0AE
:40F70000D00706D06046E0742574E07CA0730020FEBD144A01231078401CC0B21070002800D113701278E274002DEDD10E486F46007820817B723A72019108210091014650
:40F7400001AB0A4A2046F5F755F90028DCD0A6730420207002480938FEBD0000583200202F230000FE240020F324002039F50000F8B5442205460B4E55430027AC190129FA
:40F7800007D1617C012904D101221146FEF7F0FE6774A773705D042803D0F5F77FF904207055F8BD5832002010B5074CA37CDB0708D1A37B8B4205D16168814202D1002099
:40F7C000106010BD014810BD583200202E230000FFB581B050001E46801D0A9D144683B2012229460B9F029800F02AF80298442148430E4940181230210A04714171002C6E
:40F800000ED0012C02D0022C0AD103E08671310AC17105E08571290AC1710772390A41720298FFF7DBFE05B0F0BD0000583200201CB50022009213460192FFF7C9FF1CBD6F
:40F8400010B544246043054C001982741C1F0475221242758381418110BD000058320020F7B5002614225043234B0F46C41882B0354631468446227C12E00C20E3684843C2
:40F88000185CB8420AD108460C256843054608355D5B001D185AAEB285B203E0491C89B28A42EAD814488A4202D1144805B0F0BD614642586946049890470746009916E066
:40F8C000A068F200805808420FD0F000A168001D095800290DD00498884762680746002A07D001460498904703E0761CB6B2AE42E6D93846DAE7000054840100111300008B
:40F900007047000008B50120694608700549002088800146044803F09DF869460220FDF795FA08BD342500200A20000000B5FF210206120E11D02F4BC21A984251D028DC8B
:40F9400012284AD010DC07284FD008DC012848D0022844D003284BD13DE0002148E00C283FD0112844D13EE0234BC21A984238D007DC23283BD03B282FD0204A801837D169
:40F980002FE0FF3AFF3A013A2BD0FF3A013A2FD123E01B48131A824223D011DC194BD01A9A421AD007DC012A19D0022A15D0164810181DD119E001280FD0052818D10EE050
:40F9C000124818180300F4F725FE09080A130C130C13130C13002A210AE0012108E0072106E0022104E02B2102E0032100E02D21084600BD1314000012110000EFEEFFFFCA
:40FA0000070C0000FF0B00000EF4FFFF09F2FFFF10B5FBF71FFAFFF789FF10BD024901488860704701F900003425002002490148C860704701F900003425002010B5132110
:40FA400000F001F810BD13B584B00C4615290CD006DC052C09D0132C07D0142C04D104E01A2C02D03B2C00D01324694604A8FEF7DFF802A9684602F093FF68462146008945
:40FA800003F034F8FFF752FF06B010BD024901488860704711FC00003425002070B5002586B004462E4603950495002810D01D220021F3F767F8684606702078C100081AE5
:40FAC0000119491C6846FEF7B3F8002802D023E0012528E020780622C100081A0119491C03A8F3F737F8002816D02078C100081A0119491C05A8FEF7F3F800280CD101A9E4
:40FB000005A803F00DFC002806D168464079012802D12078401C207069460878401CC0B208700428C9D9284606B070BD13B5012082B00C4600290BD0694602A8FEF778F873
:40FB4000002803D12146684602F02AFFFFF7EEFE04B010BD7CB50C46411C80780A780002024388786B46254D1871C91C531BAA422ED009DC22495118224AD27F0DD00229EE
:40FB80000AD1002821D01DE0012B24D00E2B03D1241FA2B204F06BFF7CBD002812D119482038C17F002910D002461448401E02F065FFFFF7BBFE7CBD00F00CF97CBD00F08E
:40FBC000D9F97CBD01A9042015E0002AF7D0F3E70028F7D1F3E70028F4D10B488188002907D00020034600900748084A801CF4F701FF01A92620FDF729F97CBD09200000D0
:40FC0000FADFFFFFBC3200203425002005F900001CB5072823D1C8786A4600028C1C1080897808431080FEF72FFFE0786A4600025080A278A11C10436A46508060790002EC
:40FC40009080227910436A469080E0790002D08009790843D08069463020FDF7F7F81CBDFEB50678401C2F4D0F460446012E0CD0032E3CD00A460146AB6830469847EB6801
:40FC80003A46214630469847FEBDA888002804D0A878F4F703FF0020A8802078694608723C281FD00028EFD10121297069460870207B00024880E17A084369464880A07B51
:40FCC00000028880617B084369468880207C0002C880E17B08436946C880FDF7E9FE6946272001E002A92620FDF7B0F8FEBD207869460870207900024880E1780843694629
:40FD00004880A079000288806179084369468880207A0002C880E17908436946C8802A20E2E700003425002010B5094C0420A070202200210748F2F725FF06482022002132
:40FD40002030F2F71FFF00202070A08010BD0000342500209C32002010B5012100280CD08279002A06D0012A07D14279D2431206920F02D105F018FE0021084610BD00009C
:40FD800038B50024042801D9012412E00A490870684605F0BFFD002805D100982B3002F029FE002801D0032403E00098002120308172204638BD000080260020024610B5B4
:40FDC0000120002A04D000211046FBF781FF002010BD0000044810B5C17F0246034802F04DFEFFF7A3FD10BDBC3200200920000008B56A461080518000216846FCF71CFEA9
:40FE0000FFF794FD08BD0000FFB583B00E4600206946019008721C46154602A9039805F043FD070009D16846007A012804D0002E04D0012E34D077E04A4F7BE0201DF4F77B
:40FE400089FD494F0028B8617ED022462946F2F790FEB969386B0855BB69010A621C9954BB69010CA21C9954010EBA69E01C11543946386B20310871020A4A71020C8A71A0
:40FE8000000EC87101223949039805F0F1FC241D38461C300090A2B2344B0020B96940E020460C38C1B26818C27883781202134340781A0210430202685C2D4910430A6BA0
:40FEC000824202D9FF2001902EE0083CA4B208630F462046F4F73EFDB86100283DD022462946F2F746FE224829191C3008220546F2F73FFEB8698178090239814278C01C65
:40FF000011433981E11FB9801849386000221031039805F0ADFC154B0095103322460120B96903F0D3F9074611200002874211D0002F0FD0002E12D00D4CA069002805D09C
:40FF4000F4F726FD002000E007E0A0613846FFF7EDFC0190019807B0F0BD0427F6E7024CEBE70000162E000030330020DC320020FC32002010B50121024802F06BFDFFF7B4
:40FF8000D5FC10BD0A20000010B5012100280FD08279002A02D0012A04D009E001460622044802E0014606220348F2F7E2FD0021084610BDE4250020F025002033B50025E6
:40FFC0008BB00C46002911D0A078C01F0A280DD2E0780F280AD200F021FA002802D12078132803D06078012802D015E001251FE002A8FFF753FD6846007A042800D304251E
:020000040001F9
:4000000069460BA803F08CF9002803D168464078012801D0002D0BD1A07805F0D3FC0523224681210BA803F0DBF9FFF77FFC054628460DB030BD0000F0B50446012085B0E0
:4000400000250190002C58D06068002855D02178002904D1007901284FD003284DD8E06800280DD0C67F002E0AD0202200214648F2F788FD4448C677E168CA7FF2F779FD06
:40008000A268002A53D0D37F002B50D00020694608700126EC460CE0115C00290BD0401CC0B2175CB74202D16146087003E04018C0B29842F0D360460278A668B35C012B70
:4000C00007D060680079002817D0012815D0042813D02178022910D8012B10D1521CB05CFB221040814208D1012808D1208A002803D0B42801D8012901D0012541E0002DB5
:400100003FD12249208A88801F48202200212038F2F738FD1C49F07F2039C877A1681A48CA7F2038F2F725FD0198012829D160686E468179857B437BC21D2EC643790279D5
:400140004188008803F03CF8FFF7F0FB050018D160684079022802D0032803D011E000210B480CE00120694688716846F6F73CF8062269460748F2F7FCFC00210548FDF76B
:40018000A7FC284605B0F0BDBC32002034250020E4250020F025002010B5074CA088002804D0A078F4F77AFC0020A0800021034802F050FC10BD0000342500200A200000D8
:4001C0001CB50B46132831D0002B2FD0102827D008DC05280DD008281AD00E281BD00F2824D12AE0302821D03E2821D057281DD118E0187869460870002807D1124908705A
:40020000D8786946087101A928200DE004200BE0D91C292008E011461846FFF79BFC05E0032001E00021FB20FCF710FE00201CBD11461846FFF714FDF8E70878694608708F
:400240000028E3D1F2E7000034250020FFB59FB00025289A19951C461A951B951C95049520A805952E46102780880B00F4F7D2F910CD09363B3E5C438ECDCD9E94B3B8AE30
:40028000C7CD002801D021A96CE01DA91F98FDF7CFFC050079D169461F9803F041F80500F8D16846C67069462420FCF7CFFD684640780128EED11DA8F5F754FF0546F5F791
:4002C0006FFA002861D0002D05D020A8808800285BD1002C59D00021FA2094E0002C54D0214621208FE0002122208CE0002C4CD02146232087E0002C47D018A805F00AFB86
:40030000050042D1412207A81899F2F732FC6079102805D23A1A07A940180021F2F732FC412307AA84212CE0002C6ED0607A227A00020243214619AB1F9805F0FDFA05008F
:4003400063D104A91F9802F0EBFF00280CD000231A4683211F9803F043F8054606206946087606A925204EE06846807C102805D23A1A19A940180021F2F704FC102319AA12
:4003800083211F9803F02CF805463EE0002C3CD021682C20189136E0002805D1002C03D01146204601F024F8194C08E0002805D1002C03D01146204600F0D0FC154CA069A2
:4003C000002822D0F4F7E4FAA6611EE0002C1CD021462D2017E0002C17D021462E2012E00D4900284E7003D1002C01D0214604E06946087001960E7302962F2003E0002C0B
:4004000003D021463320FCF721FD284623B0F0BDFC320020303300203425002010B503F0DFFB0421084010BDFFB599B000200090229F032008A90877002669468E821A98C2
:4004400088750620C8751C46154601210820179604F01AFB1A98812842D0822840D0FF283ED010A91998FCF71DFD10A80088F94E401E874216DC1A98522817D0D22817D0F8
:40048000401EC0B21E280BD2F34A4100505CFF2806D08918497801290CD0B84200D80026002E1DD01A98C00707D016E01320EBE71420E9E7B842F2D0F2E71A9852280CD0BB
:4004C000D2280AD01E2808D004206946C87505AA01211998FCF728FD064630461DB0F0BDDE48854207D100F059FB0FA90220FCF7ADFC0020F2E7A11C1A981591791E169159
:40050000391F10287BD00BDC0300F4F783F810F62943617A9FA9F5F4F3F2F1F0EFEEEDF6BA1E92B21B286BD009DC11380300F4F771F809EBEAE9E4E4E8E7E6E5E4008128B7
:4005400015D006DC1D2879D01E2878D052280DD116E2822815D0D22872D0FF28F7D160E2002C03D02146199800F01AFCC3E2002DFCD119980121007805F0EEF94120199956
:4005800005E0002DF2D100F009FB42201999FCF75DFCB0E2B148401E854207D104206946C87500208882022088759EE219986A46017811714078507160780002D080217819
:4005C0000843A549D080891F088001A94320DEE7002CCBD019986A46017811714078507160780002D080217808439B49D080891F0A88904200D2088001A94420C7E7F7E099
:400600001DE2002DB2D1002CB0D060786A4600021083217808431083E17809025183A27811436A465183002832D0002930D088422ED806A9199800F0C7FFC9E014E228E2BF
:400640002CE26946088B71E1C8754EE2002C8DD01698237882B2611C199800F02FFC4AE2002D96D1002C94D060786A4600021083217808431083E17809025183A278114392
:400680006A465183002803D0002901D0884202D901201146D8E76079BF1F00021084217908431084B9B291860522D202904202D0521C904235D10EAD102903D002293CD0BA
:4006C0000D20A4E11022A11D11A8F2F752FA07A911A800F01BFA002817D011A80C9010206946888602201BE023E10BE102E1E9E0DBE0C5E072E031E028E0F3E18DE17EE186
:4007000075E154E122E124E1B0E069460C95888B08A90876000A487602206946888613E0009008AB0CAA06A9199800F0F9FE06464A481238864284D0DDE10C95E079A17914
:4007400000020843694608870120E9E7002C86D03A462146199800F04DFBCCE1002DEBD1002CE9D060786B4600021883227810431883E27812025A83A3781A436B465A8331
:40078000002803D0002A01D0904201D901204CE00420022902D0102906D046E0607921790002014399830DE0211D102211A8F2F7E0F907A911A800F0A9F9002802D002232D
:4007C00011AA01E0012307AA06A9199801F06AF82249064612398842ADD08CE1002CABD01698217883B2621C199800F081FC82E1002DA1D1002C9FD060786B46000218839D
:40080000227810431883E27812025A83A3781A436B465A830028B9D0002AB7D09042B5D80420022903D0102907D019460CE76079217900020143998312E0211D102211A8AA
:40084000F2F797F907A911A800F060F9002807D00A20DCE0FFFF00004E250020172F000007AA06A9199800F0B3FFB1E7002CB4D01698217883B2621C199800F0F1FB3AE1F4
:40088000002DAAD1002CA8D06078247800020443002221461A9B199801F00AF90646984886429AD169468C8241E0002C95D019986A4601781171407850710294978101A951
:4008C000492064E6002D1CD1002C1AD06078257800020543E078A2780002024329461A9B199801F0E5F886490646884209D169468D821CE0002C04D03A462146199800F0F9
:400900007FFBF8E0002D71D1002C6FD07A082146199801F053F87A490646884266D16078694600028882217808436946888211208AE6002C5AD019986A460178117140786A
:4009400050710294978101A94B2020E64D2019991DE6002D4AD1002C48D01998694603780B714078487160780002088221780843694608828A811598029001A94C2006E6AA
:40098000002D33D1002C31D01998694603780B714078487160780002088221780843694608828A811598029001A94E20EFE5002D1CD1002C1AD06078257800020543E07813
:4009C000A678000206438AB2684682864D48211D00680C90F2F7CDF80CAB32462946199800F084FE06464648864280D083E0002C04D03A462146199800F0B0FA7BE0002D47
:400A000079D12178002904D0012902D0042069461AE6199800F020FD6DE0199800F0DAF969E0002C67D02078400664D404206946C8750020888220788875062004E6002CBB
:400A400059D01998694603780B714078487160780002088221780843694608828A811598029001A9522092E5002C44D01998694603780B7140784871607800020882217822
:400A80000843694608828A811598029001A953207DE5002D2FD15420199978E5002D2AD1002C28D0781CF3F755FF050023D0199915480A78027149784171D22028703A46A2
:400AC0002146681CF2F755F80F487F1C001DBBB200782A460121FFF797F906462846F3F757FF08E01798002805D005AA01211998FCF71AFA06460021082003F0C5FFECE496
:400B0000052F0000B0250020482500207FB50D4604002BD0002D29D0FB206A461070342050709B2090705F20D07080211171002050719071D1711072102151729072D07279
:400B4000217B1173617B51739073D0730A4E102269462046F1F7FEFF002809D1607B00022880217B08432880002601E0024E0F3E304604B070BD000020C4000010B50446E7
:400B8000054817210180A188091F418000F064F8204600F0A9FB10BD4825002010B507491720088006490020C86108620865486500F09EF800F00EFC10BD000048250020B3
:400BC000FC32002010B500F0A3FB10BD70B5002416460D4600281BD0522D03D0D22D01D01B2D03D119490978012925D02946FCF79BF900280ED01649884209D0491E88420D
:400C000006D0091D884203D011490D3188420FD1012418E00F49032D02D0022D06D012E030880A8890420ED208800CE03088FBE70749491C884201D1022404E004490E3972
:400C4000884200D10324204670BD0000F0240020132F00004825002010B500F049F810BDF1B5214D214CE888E188012741188BB2E3802278214609890026042A05D0052AF3
:400C800003D0062A26D199420ED0994202D16770E680F8BDA988091AA980A9890918A98129680818286015E0E6806079401CC0B260712179884201D16770F8BD626903014A
:400CC00098188188218106892E818089A881D0582860A98060780028EFD1034A16216846FCF722F9F8BD0000B03300208C25002070B5164D0024A878012804D1AC700021C0
:400D00005620FCF7A3F8FF20287011486C70048010220021F1F736FF6C612C716C710C48EC802C814C300481046084800949818106480E30048041800548263004804480A2
:400D4000848004750448046370BD00008C25002064330020FFFF00003033002010B50E4C0A46216B491C2163014620462830F1F700FFE26AA16A606A62612161E06022462F
:400D8000D2210648FFF722FF2068002803D0F3F7FFFD0020206010BD303300204C2500207CB50C460546FFF7A3FF2878694608706878487020788870A078000288806178A1
:400DC000084369468880E07888714020FCF73EF87CBD000008B501786A4611704078507003486946C07890705120FCF72FF808BD8C250020F0B585B015460E4601786A46FA
:400E000011704078002450701472204604E0117A491C001D1172C0B2A842F8D3107A8000F3F798FD019000283AD000201AE03218019F5378A1007B52019F1B027B52375C68
:400E4000641C3B43019FE4B27B52019FD378891C7B52019F1B027B5292781343019A001D5352C0B2A842E2D369464820FBF7EEFFA0000199801E085A0E494A89904203D2BB
:400E80000D4A9278002A0DD0062069460873FFF72FFF03A95820FBF7D9FF0198F3F778FD05B0F0BD401C0881024A06216846FFF78DFEF2E7A03300208C250020FFB585B001
:400EC0000025059816460C460495027869460A70407848700B7301941F460E814720FBF7B5FF002E19D0012F02D0022F0BD014E0002005E021184978255C09020D43001DB1
:400F0000B042F7D309E0002005E021184978255C09020D431230B042F7D30F48807800280ED10D480A304188A94209D96D1C0580024604210598FBF7F7FF0498012808D11A
:400F4000042069460874FFF7D3FE04A95820FBF77DFF09B0F0BD00008C250020F0B50546487885B0040208786E4604433481C8788E78000230436E46121FB08192B2B2802F
:400F8000091D00911C49002309891C4E1F468C4213D119498C89A0420FD1C88882420CD108689A4207D00099C45CC95CA14204D15B1C9BB2F5E7002F05D00020F070F08068
:400FC0006946087410E0287869460870687848700098FFF745FE707801280AD100207070012069460874F07004AA18212846FFF7EDFD05B0F0BD0000B03300208C250020A3
:401000007FB51446054600786A461070687850700191148169464A20FBF718FF0E480088401E84420EDB0D48807801280AD00B490E3148880A46001948800C212846FBF7EA
:4010400073FF7FBD0C2069460873FFF751FE03A95820FBF7FBFE7FBD482500208C250020FFB585B0002716460D46039701786A4611704078507015810898508169464520E8
:401080000196FBF7E3FE18488078002820D1F01C04900024B61C29460898F1F73FFC07E0234604996B43595C9F5D09020F43641CA042F5D80D484188B94209D97F1C078098
:4010C000024610216846FFF781FD0398012808D1102069460873FFF70BFE03A95820FBF7B5FE09B0F0BD00008C25002074330020FFB589B0164601786A461170407850702D
:401100003948002700781C46032805D0012803D0002801D0FE2808D132460A99009800F069F831480078032847D0002520460A99F1F7F4FB01902DE00A9928464843711C36
:40114000415C375C09020F432749097802291FD184192648007D012802D002280AD017E0A079617900020143204826380088884208D00DE01D481022611D2638F1F7EAFC01
:40118000002805D10A9B22461946009800F032F801986D1CA842CFD8144A5088B84203D9114B997800290AD0082069460871FFF79FFD01A95820FBF749FE0DB0F0BD7F1CA2
:4011C000B9B211801A78022A05D0084A08216846FFF7FCFCF1E76A4611815081012010770348908102AAF1E78C2500208A330020032800001FB584B06C46208A2080019266
:401200002181638169464620FBF720FE08B010BD1CB504460020694608704C700620FBF715FE002C02D1019800F096F81CBD000010B50120FFF7ECFF0548002181700170AF
:4012400001614161C18001818180417010BD0000A425002010B5002200280DD00749C968002909D0884207D3054B1B88CC18844202D3401A181A82B2104610BDA4250020EE
:401280004A250020F8B5174D0446696906200091002923D02969002920D0A888A28886461018EA8890421AD82A896878824216D90201944650182246CCCACCC0009862461B
:4012C00070448850A2882168F1F753FC6878401C6870A088A9884018A8800020F8BD0920F8BD0000A425002010B5002400F072F805480088F3F72EFB04490028C86000D156
:401300000324204610BD00004A250020A425002010B50348C068002801D0F3F739FB10BDA425002013B50120002904D00A4601216846FFF74BFC1CBD13B506496A46098862
:4013400092880120914204D301AA03216846FFF73DFC1CBD4A25002010B500281CD0C288002A19D08188002916D00C4C8B07E18012D1228100686061401800212061A18011
:4013800061701201F1F7FEFBE28800216069F1F7F9FB0120A070207010BD0000A425002013B5012000290AD0054A8B881288D21E934204DC0A461B216846FFF707FC1CBD28
:4013C00048250020012801D10149087070470000A42500200449002088700870086148610249086370470000A4250020FC3200207FB5134C0A462346216B203319710D0AA4
:401400005D710D0C9D71090ED971014618460830F1F7AFFB206B6A46401C2063094801781170407850702089908120680190A088108169465520FBF709FD002020607FBD86
:40144000FC3200204C25002001B5002213216846FFF7BCFB08BD0000F3B52F480F4600248178006985B022462546002946D005996B460E781E7049785970274E0190707845
:4014800018725F721A7369465020FBF7DFFC012F1DD16846007B002802D06A4651890EE031692001401881894223059A00F07CFF002808D032692101891809896A461182E0
:4014C0000125114613E07078641C8442E8D3002219210598FBF728FD1049884208D131692001401800896946012508821120C874FFF79EFE012D06D007B0F0BD0E216A4646
:40150000D1740089108218206946887404AA01210598FBF709FDEFE7A4250020052F0000FFB587B00D46002069460881012405A90798FBF7B7FC002802D021480BB0F0BD98
:40154000204E0127009703A928460A9B099A00F0A1FF0E281DD000281BD16946C989491C29806946F268898911551219090A51706946C9899170090AD1706946241D898A2D
:40158000A4B28C4203D86B461A89521C1A818C42D8D369460989002905D0F06801AA401C0721019007E029886A46118206219174D07404AA01210798FBF7B6FCBEE70000FC
:4015C000132F0000A4250020F3B58FB00F460020694648840A90022401250BA90F98FBF761FC002802D03F4811B0F0BD08A80D9006A80C9038887988884201D101200A90BB
:401600000D990F9801910090002302AA38460C9901F038F806460E284AD0002E48D16846408C002808A807D00078A84244D1012D04D0022D19D02EE00578F8E72A48C06887
:401640000019FFF707FE042832D36946088B2649020AC9680855081942706946097A81706946497AC170241D14E01F48C0680019FFF7F0FD12281BD31B496846008BC9688B
:40168000020A085508194270801C102202A9F1F770FA1234A4B26846808D844203D86A46518C491C51840A99012901D08442A1D36846408C002808D008A805700A4807AAEA
:4016C000C068801C0521079008E0388869468884042008A98871CE7109AA01210F98FBF723FC81E7132F0000A4250020FFB51C460D4603CB8BB0089009916846334E05857C
:40170000B0780027002801D1FFF782FD69460D9888830D8303CC0490059104A8FFF7B2FD04002AD10B98694602780A704078487030690190707808724C724F20FBF786FBD1
:401740003078012801D006241BE06846447A002C13D1442308A80B9A0D9900F025FE040003D0072C01D00D2C0BD104AA17210B98FBF7DAFB0746002C24D0072C22D00D2CA6
:4017800020D069468D8116208873CC7303AA01210B98FBF7C9FB0746092C0ED0706900280BD06846818AB288914206D87078002806D0401E7070501AB0807078002801D164
:4017C000FFF736FD38460FB0F0BD0000A4250020F7B58AB0002668460D46C681022408A90A98FBF75FFB002802D02C480DB0F0BD3746102069462A4E8882F0680097001916
:40180000001D049004AA07A928460C9B00F042FE0E282BD0002829D16946C9896A460029918A2DD09289914224D16946C98B491C29806946F268898B1155090A1219517099
:401840006946C98B9170090AD170049906916946898A241D09198CB26946098C8C4203D86B46DA89521CDA818C42C6D36946C989002907D0F06802AA801C1121029009E0FA
:401880009181D2E729886A46918010219171D07101AA01210A98FBF747FBA7E7132F0000A4250020FFB506468BB000206946C8810546022405A93046FBF7F4FA002802D059
:4018C0003B480FB0F0BD08A83A4F0990F86806AB0019801C06900EA8019000960D9A09990C9800F0CFFE0E2847D0002845D16946098C14230A465A432F4B1B68D218403AF0
:40190000126BD243D20112D432786B461A7072785A705980187169465720FBF797FA41233246002106A800F03FFD002825D169468A8B898A091F8A4201D96A4691836946AB
:40194000C9890029694624D0898BA94219D16946FA68098C1155090A121951706946898BA41C09198CB26946898A8C4203D86B46DA89521CDA818C42A8D36946C9890029B7
:4019800009D068468581F86802AA801C0921029009E08D8BDBE76A46118C118208219174D07404AA01213046FBF7BEFA89E70000132F0000A4250020C4250020F7B58AB0A7
:4019C0000F4600240125264608A90A98FBF76AFA002802D033480DB0F0BD6100C81940786A4600029082795C08432F499082C9684919039100F0CCFC002827D16946898A2B
:401A000014228C465143294A126889184039096BC943C90110D40A996B460A781A71497859716146D980187201A95720FBF70EFA6B46187A002809D14123002103A80A9A2B
:401A400000F0B2FC0E2824D0002811D00E216B4699706200D119497809021980BA5C11431980D8706A4601210A98FBF75DFAB2E76946088A641C41198DB26946098C8D42ED
:401A800002D8801986B201E0491E8EB20C988442A3D368468683044806AAC068401C0F210690E1E7132F0000A4250020C4250020F0B589B00C4606460020694608831D46E1
:401AC0001746204600F064FC002845D1294A14211268614389184039096BC943C9010ED4327869460A7372784A73CC81087403A95720FBF7ABF96946087C00282CD105A984
:401B00003046FBF7CFF9002802D01B4809B0F0BD6946888A888019484123C06800900C8132463946684600F03FFC002814D106A9204600F043FA00280ED10C2D06D16946FA
:401B4000888A098B884201D90B2005E06A460A2D0CD00C2D0CD0042069468D778C83C87707AA01213046FBF7DFF9CFE70B21F9E70D21F7E7C4250020132F0000A4250020F9
:401B8000F7B5002684B0059935463746039600290ED0142148433449096840184038046B0698C10740070290002904D0E00605E00E2007B0F0BD800F01D0E004060F2B4897
:401BC000044204D0270FBF1D03F0C0FE03900698C00703D0E00708D1022543E00298800F40D0E00501D403253CE0002E3AD00020009001906946059801F092FBF10722D0CF
:401C0000002813D16846C07801F0BAFB012801D00F2527E0B00703D568460078022805D3300705D568460078032801D2052519E0062F08D068468078B84202D303998842E0
:401C400001D20C250EE00698C00701D0200704D40298800F06D0200504D505480078002800D108252846A4E7C425002002020000BC2500207FB50B46050008D0002269461B
:401C8000184600F015F80400286803D00AE00E2004B070BD002808D0AA88002A05D06946F0F758FF002800D00A242046F0E70000F7B582B000266846068014460F46029867
:401CC00000F066FB002802D0012005B0F0BD029800F008FB012802D00A252846F5E7029B142043433C4800681918084620384039096BC0890A0101D5102104E0490101D5AF
:401D0000042100E002210025002C06D0022914D0042914D0102912D02670304E821BB04226D014DC2E4E821BB04221D00ADC2D4A821A1DD0012A12D11AE0012200E002227F
:401D40002270EAE7012A13D0FE2A08D110E0012A0ED0022A0CD0032A0AD0042A08D0204A521C02290AD004290FD010290DD031E03880002CB1D001202070AEE71649096858
:401D800059184039498B3880A7E7134C206818184038408B904206D10298401E81B2384600F0E2FA99E7102914D36946029800F005F9206818184038C06B00288DD0406848
:401DC00000288AD069460988102241183846F0F7D0FE82E70E2580E7C4250020012900000228000000280000F8B50E2415460F460646002930D000F075FA01282CD114201E
:401E0000314641431C4800680818014620390246403A126BC989130101D5022201E05201D20F164B994208DA154BCC1A0BD0012C09D0022C07D0032C10D02B4639463046A8
:401E400000F040F905E0002D05D13946304600F0B5F9044600E007242046F8BD002DFAD14068010101D5022201E04001C20F3946304600F0D1F8ECE7C4250020012900000B
:401E800000280000FFB517460C4605460A22398000F07EFA002802D0012004B0F0BD142026464643184805230068DB0230182038C189994202D05B1C994220D18389AB42BA
:401EC0001DD2808AA84211D219E01421614308182038C1890D48814206D121462846039A00F080F802000CD0641CA4B20648006831182039898AA14201D3A542E5D21046F5
:401F0000CBE73C80FBE70000C425002003280000F0B507461420134A414310680A2608182038848A85893D8014E01420214641430C48006808182038C0890B49884202D09D
:401F4000491E884204D1204600F0CCF9012805D0641EA4B2AC42E8D83046F0BD3C800026FAE70000C425002003280000F0B50246012008800D460A23104600F009FA00281B
:401F800001D00120F0BD0521C9020B4C4E1C0DE0142027685043C0192038C089884201D0B04201D12A800023521E92B2002A01D00A2BEDD01846F0BDC42500201422504369
:401FC000074A126880184038C06B002804D04268002A01D0008800E00020088000207047C425002030B5142461430A4C0346246800200C19214620398D899D4202D8898A77
:40200000994201D20A2030BD403C218EC906C90E117030BDC4250020F8B507460E2015460C4600294BD02068FFF714F900260146A680022D27D0012D25D0052088423CD810
:402040003B46142043431E482168006818184038006B000C0870A088401C81B2A1802268781C5054A2882168000A89184870A088801C81B2A180022D07D0012D05D0002D39
:402080000BD00A261AE01320D8E720684018394600F06AF9A08810300DE009482268006818182038008B5054A2882168000A89184870A088801CA08000E00E263046F8BDEF
:4020C000C4250020FFB585B00C46002569460D818D810D7400958D802068FFF7BBF8064601A90598FFF76AFFA58002A90598FFF73DFF050045D105986946098907461422CB
:402100005743884210D02048204A006838182038C089904208D004AB03AA0598FFF7B2FE05002ED101200090694689880898174B081A80B26946888013495B1C0968791890
:4021400040394A8B9A4206D0009A012A03D0B04205D90E2515E0B04201D968468680C86B002809D04068002806D008996A46411892882068F0F7FDFC6946A0888988401809
:40218000A080284609B0F0BDC4250020022800001423594310B5084B1B68C9184039C96B002906D04968002903D0F0F7E2FC002010BD0E2010BD0000C4250020F7B50E20C0
:4021C00016460C4600296DD02068FFF743F800250146A580009814225043334A05271268FF0280182038C389BB4202D07F1CBB421BD1022E05D0012E03D0002E0AD00A252F
:402200004FE010294CD32068009900F0ADF8A088103008E0022903D32168008B087039E00E25A088801CA0803BE0204E1E4FB34237D1038B1426184670438218403A126BF7
:40224000160101D5022201E05201D20F062927D321680B70190AA68823689B195970A188891C8BB2A3803968266841182039898AF154A6882368090A9B195970A188891C34
:4022800089B2A180002A0CD13A68801820382268008B5054A2882168000A89184870C0E70E252846FEBD0000C42500200228000010B50C460146142044430948006820181A
:4022C0004038C06B002808D04068002805D080181A46F0F74EFC002010BD0E2010BD0000C4250020FEB50546C0081E4F6A070126385C520F31469140084209D00024002C01
:402300002BD069462846FFF731FE002802D024E00124F4E7684601888D421ED0C8084A07385C520F3346934018420AD00024002C13D002AB01AA2846FFF7A4FD002802D04E
:402340000BE00124F3E768468088C1084007795C400F8640314202D000242046FEBD0124FBE70000C03300201422514310B5074A126889184039C96B002905D0496800299F
:4023800002D01022F0F7F5FB10BD0000C4250020002803D003490988884201D90120704700207047C0250020F0B585B00E4604460020694608801D4617462089FFF7E8FF27
:4023C00000280FD1680606D520892A463946FFF7D7FB002806D1208901A9FFF7C7FD002802D00A2005B0F0BD6946278989888F4210D0264B14225B687A43D218203AD289B3
:40240000234B9A4206D003AB02AA3846FFF73AFD0028E7D1E90711D020896946FFF7CEFD68460088864201D9002805D1208932462146FFF7D9FCD5E70720D3E7A90701D462
:402440006907CFD5218914220B4653430F4A104F52687F1C9B18203BDA89BA42C2D0FF1EBA42BFD07F1CBA42BCD0A2881B8B97199F4207D8AB07B5D5134632462068FFF7DF
:4024800017FFAFE7B342D7D90D20ABE7C025002002280000FFB587B004460020694608800A980A250088A9021646884204D0491C884201D0102510E0278806E03846FFF725
:4024C00011FF01280CD07F1CBFB220886188884203D26B4909888842F0D928460BB0F0BD69463846FFF742FD054668460088FFF7F9FE002D7ED169460988B9427BD10128E1
:40250000F8D15F4A14205268484380180246403A126BD243120103D401A8FFF725FF06E02038017E6A461171008B000A50711098012802D0002808D076E0B28801A930685D
:40254000F0F708FB00280BD06EE00A980188142047434B48406838182038C089814263D1684600881421464F48437968401820388189089801806846018805A8FFF7C8FC2F
:402580006846808A14214843796840182038818A089841806846008814214843796840184038006BC043010101D540010ED41098012804D03068FEF74DFE102832D369462D
:4025C00009883068FFF7D0FE10201FE01098012804D03068FEF73EFE022823D36946098814207A684143891820393268097E1170694601E023E020E0098841437868081813
:402600002038008B3168000A48700220B0806846008814214843796840182038808A401C20805AE70E2558E7684600881421484313490A25496840180AE0012803D02843EF
:402640000BD00A2549E7142041430D48406808182038808A401C20800FE0684600881421484307494A6880182038808A401C80B220800988884200D90A2587B225E7000036
:40268000C0250020FFB587B00546002268460F46027329880A26002970D068880028FBD081426BD80A9800280AD01198007802280998009006D00220694688802C8850E05F
:4026C0000092FBE71020F7E704A92046FFF74EFC06466846008AFFF705FE002E35D16946098AA1422FD101282FD1584914204968604340182038C08969468882009800286B
:4027000006D0022205A9F0F725FA002800D00E2000284CD13C800A98002807D0142044434A48406820182038808A5BE014204443464869884068201820388089401C8142BF
:4027400079D3288077E0012819D03C80142044433E480A26406820182038808A401C84B22C806988A0B2884203D8384909888842AAD90A9800285CD0002E35D063E0142068
:40278000224642433148324B406810180246203AD2899A420CD0288803AB06AAFFF772FB06466846008BFFF79DFD002E09D032E04038008E6946C006C00E08732046FFF7F2
:4027C00091FD0A99002924D0012824D121466846FFF750FA06001ED16846007BC00715D03C802888401C28803888694608810A984123006800900A98808888800021684667
:40280000109AFFF7D1FD00280ED01BE002263C8019E0012803D03C800A2628889EE73C802888401C2880A4E7684681880A98818009E0002E07D13888119A0999FFF738FAB6
:40284000002800D0064630460BB0F0BDC02500200228000010B500240346002801D0002900D101240548436001804280402200210348F0F787F9204610BD0000C02500201D
:40288000C033002070B504460125FFF781FD002824D1204614214843114903224968D20240182038018B914217D0C1890D48814208D0C01E814205D0401C814202D0401CC2
:4028C00081420BD1E008084A6407115C640F0123A34019431154002500E00E25284670BDC025002003280000C0330020F8B515460F46040003D0002F03D1680601D50E202D
:40290000F8BD00206946088026893046FFF740FD0028F5D169463046FFF750FB6946A0880988884201D8002800D1A180680608D501202A46024339463046FFF721F900286C
:40294000DED1A28831462068FFF722FCF8BDF8B51C4616460F46050003D0002E03D1002C01D00E20F8BD2889FFF712FD0028F9D1022023460343324639462846FFF714FD57
:40298000F8BD0000054904484A79002A03D08978012900D10020704720200000EA25002038B50C461149002817D0002C15D010494979002905D001466846FBF791F900285B
:4029C0000DD00020002802D08178012909D00020C04320800548001D38BD084638BD0448F0E700882080002038BD000013200000EA25002010B5002805D006220349F0F7A0
:402A0000B8F8002010BD024810BD0000E42500201320000000B5030007D0FFF7B3FF002802D103490978197000BD024800BD0000F6250020132000000100044805D004485E
:402A40000268002A00D101600020704713200000E025002013B501AA012100F06FF81CBD10B51346002904D00A46194600F066F810BD014810BD00001320000070B588B011
:402A800013000C46054604D01F2C05D90D4808B070BD0C48401CFAE768460470224619466E46401CF0F765F81F20021B3019401C0021F0F767F86A462021284600F03EF874
:402AC000E5E7000012200000064A08B5914201D9054808BD6A461170090A5170022100F02DF808BDFF0E00001220000038B5044609480D46844201D9084838BD69462046F6
:402B000000F0BCFB002804D02946204600F008F838BD0248401D38BDFF0E00001220000008B56A461070000A507091700321024800F004F808BD000006040000F8B5064683
:402B400017460D46C81CF1F705FF040018D02670300A6070E01CA570002F03D02A463946F0F707F8ED1CABB222460649012001F005FD050002D02046F1F70AFF2846F8BDDF
:402B80000148F8BDED6001000520000010B500221146FFF7D3FF10BD10B50179C27809020A438178104601F0A3F810BDF8B5044680783A490128087002D90120087001E0F0
:402BC000002801D003F0CAFA2079E5780002054362D03348854203D10622A11D314851E0314885420FD1E079A6790002277A064339463046FBF732FF002E01D0002F43D12F
:402C00000C20607140E028491631481E8D4201D085420ED1854206D124490878A070FF2805D0401C0870204601F044F82CE00020F8E71F48854212D100F098F9012823D15B
:402C400000F08EF906001FD001466A460020FCF7DFFE684601883046FDF7CAF814E06079002811D11048001D854204D1114812490078087008E00C48C01C854204D1062236
:402C80000E490F48EFF775FF0E480078002803D16179284600F0E6F9F8BD0000CC25002009100000E425002002200000D2250020030C0000FE250020FD250020F72500201A
:402CC000F0250020D025002070B50446C07812490128087002D90120087001E0002801D003F03CFAA578607924790002044311D00A48201803D1002D01D003F045FA0848D5
:402D00000078002806D10748844203D12946204600F0A8F970BD0000CC250020F3DFFFFFD0250020630C00007CB501A8FAF7B2FD00281ED16846007903281AD10D4D0024EF
:402D4000687900280AD028880B49884206D0284600F0AAFA281D0321FBF70EFB0320694608700C20487001238C7003221846F2F751F87CBDEA250020FFFF000070B50024B4
:402D8000094D0A4E09E024216143705C89194A78891C00F047F8641CE4B228788442F2D30020287070BD0000C82500200034002070B5242A0FD8084C2378022B0BD024256E
:402DC0006B43064DE85458194270801CEFF7D1FE2078401C207070BDC82500200034002010B5C01C01F04CF801490020087010BDCF25002070B58578C41C0FE06078217815
:402E0000000201430A05E078A1780002120D01431046FBF73FFE6D1EEDB2241D002DEDD170BD0000F7B582B002980C46022802D004280FD10FE00498211D001F82B220460B
:402E400002F0D6FE3F49884279D12146049A0298FFF7AEFF73E02078009004986178801E019081426BD1384D01202870009A102A23D008DC052A0DD0082A12D00E2A14D06B
:402E80000F2A4BD115E0132A1AD0302A09D03E2A44D119E0204603F08BFA2878002835D039E02046FFF778FE35E02046FFF77EFE31E02046FFF708FF2DE0FFF735FF2AE0C0
:402EC0002046FFF797FF26E0A07800261F4F012808D00A2806D01E49052809880DD0032811D01BE0204603F08BF919480088B84211D018482E70067008E0B94205D12046E8
:402F0000FFF76EFF07E0B94208D02E702146049A0298FFF74DFF2878012808D10E480368002B04D00198A11CC2B2009898470B4C2078022803D1FAF70DFD01202070002099
:402F400005B0F0BD2C230000CF250020FFFF0000DC250020C8250020E0250020D02500200148408970470000CC2500200248007AC007C00F70470000CC2500200149088157
:402F800070470000CC2500200549002803D01B2802D2012070471B204881002070470000CC25002070B518480024046084800C300460154D84800120183D28706C70E870CC
:402FC00028461E3000F070F9AC81EC810F4AAC700020C100545089188C80401C8C710228F7D32C716C710020AC71C04328820848417F08480088FBF731FD022028710648B9
:40300000FFF7C4FD70BD0000E425002048340020082D00208C240020030C0000F8B500240E4D2646E70078198079012803D1E859F1F7AEFCEE51641C022CF3D3084A0020B5
:403040009681D6819670C1006E5049198E80401C8E710228F7D356611671F8BD48340020CC25002030B51FA30CCB87B0019300921EA30CCB039302921EA30CCB05931F4BC7
:403080000492C21A02241E4D984215D00DDC1D4A80181AD0022811D0622804D1082204A91948FFF7DDFC07B030BD042A14D0174810180ED00128F6D12C71F4E70029F2D19C
:4030C0001048082269464042EBE7082202A91048E7E70A48001D01E00B48401CFFF756FDE1E70000FFFFFFFFFFFFFF2F00008000000000003F000000000000000510000044
:40310000CC250020FFF3FFFF0120000004F0FFFF630C00000149002048617047CC25002010B50C46134988B000281DD0002C1BD0114B002A01D0197811701A78FF2A15D051
:40314000521C1A70014610226846EFF712FD1022214604A8EFF70DFD06486A462021001DFFF7ECFC08B010BD0846FBE700211970E8E7000013200000D125002000B585B06B
:40318000002905D00C4A904205D90C4805B000BD0A48401CFAE76A461070000A507000A810220230EFF7E5FC04486A4612210830FFF7C4FCEAE70000FF0E000012200000BC
:4031C000F0B585B004460B980A9D002832D027461A4E203F1A48B7422AD20F46203FB74226D2042A24D8032B22D8012D20D80C9E761E072E1CD20D9E032E19D8684604703F
:40320000240A44708170090AC1700271437185710622C01D0B99EFF7ACFC68460C9941730D99817306486A460F210C38FFF786FC05B0F0BD0248401CFAE70000E13F00008F
:403240001220000038B50B4C6279002A08D101466846FAF7ADFB0849884203D0002801D0002038BD68460078207101206071014838BD0000EA2500201214000010B5094B1B
:403280005A79002A0BD0002294001C5B844204D19000C0180860034810BD521CF4D00020086010BDEA25002010B5FF2101710021054B02248A00835212189470491CF9D027
:4032C0000021417110BD0000FFFF0000FFB5114881B01D4617460E0019D0002D17D00E4C217EFF2913D1204601F0C2FA0198002800D0012060746660278125600A98E060B4
:403300000820207405486061034801F009FA05B0F0BD0000112E0000A03700208535010070B50C4600281FD00178FF291CD0002C1AD00021104DC94300F0EAFE052818D089
:40334000A42148430D494518687A0107090FE170890701D4C0060AD5E87A214600F01AFA287BA070002504E00348401E70BD024D2D1D284670BD0000122E0000583400206E
:403380000007800F022801D00020704701207047F8B50C00054614D101466846FAF7A0FC002802D16846FAF7A7FB0A4EA42130784843094940180D302946FAF7DDFC052091
:4033C000307006480268002A02D02146284690470020F8BD052600205834002000260020FFB583B015460E4600281FD00178FF291CD00021C94300F08BFE05281AD0832E13
:403400001BD0174C002100F01FFE0746012824D0304600F03BFE694688720020C872009506980881384600F0B3FE15E00C48C01E07B0F0BD0A48801EFAE7A421484309492B
:4034400040184088002D03D02946FFF797FE03E001460548FFF738FB04462046E8E70000142E0000583400201B200000002803D00249086000207047014870470826002017
:40348000112E000070B50C46014606221048EFF770FB1048104D0460052028700F48104E0024A421614389194A7AD20608D58A7A920605D52831064800F042F8002804D0C8
:4034C000641CE4B2052CECD370BD2C7070BD00000C2600200026002005260020192E000058340020F3B5144E144D81B007460024A42060434119487AC0060ED5887A800639
:403500000BD53820BA79405C824206D1393106223846EFF71FFB002805D0641CE4B2052CE6D33046FEBDA42044436019417B029800260170F5E70000122E00005834002032
:4035400070B50A0007D0002805D00C4D2978FF2904D00B4870BD0A48801F70BDC11CA860104600F035FE0400F7D1032028700121092001F089FA204670BD00008C3700209A
:40358000172E000008B50848417C00290AD00B21027EFF230376037C0093C368052000F035FA08BD0A21F3E7A0370020A42148430249085CC006C017401C70475834002015
:4035C000F0B50146002085B02E4D074601902878FF26022802D0032843D107E028460C30082603220746EFF7C4FA3AE00322A868EFF7B0FA002801D023480190FF20AF6852
:40360000287022480478052C2AD00622394602A8EFF7AFFA012069468873019800281AD0641CE4B2052C14D2A4202146414318480918487AC006F3D5887A8006F0D5283138
:403640001448FFF77DFF0028EAD11048047005B0F0BD052C05D102A80199FFF799FE00E00926FF2028700021092001F00DFAFF2EEDD0062000903B4631460520019A00F043
:40368000C5F9E4E78C370020FFFF000005260020583400200C260020F3B583B00F460021039800F0D1FC060004D100F04FFA304600F0B0FC0398A42148431F4900254418B4
:4036C000607A03091B01002F17D19B1CF32003400833002E11D1002001900290E07A01A900F058F8207B69468871D80604D44879012801D11020034301AD6372039800F099
:4037000027FD002F09D1002D07D0607B002102F023F90320039902F0FDF90021092001F0B3F9052000902B463A460121039800F06DF905B0F0BD00005834002070B5064688
:403740003446A421114D00204C43C043611948804860285DF32210402855487A0009000148720021304600F06FFC012803D008493046FFF791FF285D8007800F022803D14F
:403780000121304600F092FC70BD000058340020182E000000220A718207920F012A00D000224A70020701D5032204E0420701D5022200E001220A70020709D5420701D588
:4037C00001220A71C00603D50879022210430871704730B54278012A00D000220378FB241D072D0F0423022D03D02240032D02D010E01A43FAE70C2500792A43C50701D040
:403800001A4300E02240800702D51020024301E0EF2002400A7030BD042807D8042905D88A008918024A8918085C7047002070479084010010B5084B04461B780020072B02
:4038400009D98C4200D22146994204D20349104600F0FAF8024810BD8226002006040000FFFF0000024610B500200B46120704D40249184600F0E8F8014810BD030400003E
:40388000FFFF00007CB50B46A42148430F4900264418657AA807800F022801D0E80612D5A07A0009C00702D1E07A00070BD5E07A6946FFF76FFF207B6946887019466846B7
:4038C00000F07CF9657230467CBD00005834002070B50646124800240578002D1DD0002A01D1012E05D008070BD5480707D508200CE0080701D5202008E0102006E0042036
:4039000004E0480701D5022000E00120054204D10449184600F098F8034C204670BD00008126002003040000FFFF000010B50078002807D104484168FF2903D00078034975
:40394000FFF7AAFE10BD0000E0370020152E000070B50C4C2278012A12D1014620460F3003220546EFF705F9607C40214006400E084360742946606800F02AFC022020700E
:4039800070BD00008C370020042807D8042905D88A008918024A8918085C704700207047A9840100FFB50646581D85B281B01F462846F0F7CFFF040016D0029820713A46B0
:4039C000601D0399EFF7D5F8A4200E49704340180D302B4622460621FBF700F9050006D02046F0F7D5FF0AE0074805B0F0BD0021304600F029FB002801D100F08DF828468E
:403A0000F3E7000058340020052E0000FEB50B4C089D2468002C0ED0FF266F463E71052805D2A4267043064E8019407B387101A80095A047FEBD0348FEBD000008260020F9
:403A400058340020112E000038B5054601200C4680028143009101236A4605212846FFF7A1FF21462846FFF717FE002038BD0000F7B50646087882B00D460090491C049858
:403A8000FFF7A7FE04982C4680786872287C019012346F7C012E09D1FF2007460190E41F04990098FFF7EEFE002831D1221D2146601C01F035FF04984078002800D12070B7
:403AC0000098A4214843134940180D30A11C01F0AFFF207841074006490F400F022E08D10A4601461046EA7B23799A4200D31A466A7226706A78E270019A384011406171E2
:403B0000A0710623621C31460098FFF74BFF002005B0F0BD5834002001B582B06846007A00F014F8012000906846007A90214843044902AB40185930034A1E21F0F75AFF88
:403B40000EBD0000E03700202D3901009021484310B5054944184034607E042803D0F0F79DFF0420607610BDE037002010B5827804794379012905D1D2066407D20E640FD1
:403B80005B075B0F0178042911D8417801290ED851090CD19107890F012908D8C078102805D8072803D3072C01D8072B01D9024810BD002010BD0000FFFF000002780B7807
:403BC00012071B07120F1B0F9A4203D380788978884201D20148704700207047FFFF0000014840887047000004260020014948807047000004260020F8B50424194E1A4F58
:403C000000252046A42148433554801900214780C9434160014603460E3180331961103159610A3199611031D961C91D1962083088220021EEF7A6FF641EE2D5002000F014
:403C4000E9F90A4C0A4A412106206560FAF7FAFF0849FF200870143108762146087005206070F8BD58340020FFFF000004260020653E01008C37002070B5074D0424A4206D
:403C80006043285C0007800F012802D1E0B2FFF755FD641EF3D570BD5834002010B5044A0021012000F044FF01F0DAFE10BD00002544010070B5027941781302C2780025F9
:403CC0001A430A4B4479D21808D0012A05D1091F8AB2811D204600F027FB70BD091F8BB2821D2146284600F0DFFA70BDE9DFFFFF13B5144984B00024A4226243521852882A
:403D0000824203D0641CE4B2052CF5D3052C11D00021204600F098F901280DD007216A4691720121D17205AA00926A461181694600F02EFA06B010BD6846017D2046FFF728
:403D4000ABFCF7E758340020FEB50F4604466946F9F76EFF204600F0CFF90646052821D0A42011497043441825782807800F012818D03868606002A8FEF74CFEEF200540F6
:403D80006846007A002800D010200543F32005402D1D2570A11C6846FEF702FE3146022001F0B8FEFEBD000058340020F7B584B00E460699022941D3002E3FD00021C943B1
:403DC00000F0A6F90390052838D03778012F02D00025294608E00125002100F035F9044601280ED10121039800F02EF90446012802D0012D05D008E0012D1FD18121C900FB
:403E00001FE00121092000F03FFE384600F03EF969468872FF2813D02046FFF77DFE6846807A092800D001276946CF720698761C0096401E0881204600F0AAF907B0F0BD11
:403E400002490398FFF700FEF8E700000704000010B50968002000F05BF9052801D0FFF76DFC10BD30B41546044A890089184039CC6B2946A44630BC1A466047C4840100BE
:403E80007FB5054640782A780002024314480024A421614309184988914203D0641CE4B2052CF5D3052C11D00021204600F0CCF80A2101280BD008226B469A730122DA737E
:403EC000AD1C0195998101A900F062F97FBD0091AB1C002205212046FFF798FD7FBD000058340020014610B50020490707D500F0ABFE0446F43400F086FA001980B210BDB4
:403F00003EB50024FFF76CFEFFF7ECFF002829D00020009001900290F4216846F0F740FC04001FD1104C0098F12200216060EEF729FE0E496068C86500F086FE014601A8B7
:403F4000F0F72EFC04000DD1019800F081FE00F05AFA014602A8F0F723FC040002D1029800F054FA20463EBD14260020E037002001480078704700001426002010B50F22A2
:403F80008B5C845C63408B54521EF9D510BD0000F8B500250746052069461D4E08702C46A4216143705C8007800F02D0022802D00BE025460DE088194068401C05D16846E0
:403FC0000078052801D168460470641CE4B2052CE6D3052C12D168460078052807D10021684601F051FD6846007805280FD068460178012001F08EFD68460578284600F05C
:40400000A7F8A42068433978801941732846F8BD58340020F8B5054690200A4F4543EC19204690220021E66DEEF7ACFDFF20E66578557F21606008550421592001550020F5
:404040002072F8BDE037002070B501290AD001460C4C0026227835468A4211D12070FF2902D00BE0FF21F3E7FFF7BAFD400702D505484068E065012060602572304670BD82
:40408000012070BDE037002014260020064A10214B00D35C834203D14800801840787047491EF5D5FF207047D084010070B505281FD20A46A4210F4D41434C190E46012AC6
:4040C00009D10146012001F025FD20460D30F9F713FDFF2060730020A855401E608060602046083088220021EEF74CFD002000F04BFD70BD5834002010B500210446C943B7
:4041000000F006F8052802D12046FFF741FF10BD30B505460D4C0020A4224243A35C9B070ED04B1C03D013195B688B420CD0002D06D02B78FF2B03D01219527B9A4203D099
:40414000401CC0B20528E7D330BD00005834002010B5A421074C48430119497A235C0222C90600D5012299088900114321548807800F10BD58340020406890220078504353
:40418000024A80184068086000207047E03700200EB56A461070C3B2902253430A4A9B18029390235843105C6A465070A4225043064A8018019068464860887A0A460146C6
:4041C0000120FBF74DFB0EBDE03700205834002010B588B0002400940194029403940A786B461A704A785A708978997004AA6946FEF796FF002801D101490C7008B010BDC0
:4042000004260020F0B515460A46044610468DB00D3004A90646F9F72DFD06A93046F9F7BFFC6946887D04AFC007C00F0870887F06AEC007C00F4870012D31D02546293571
:40424000214600A807220B310230EEF792FC214602A8072212310130EEF78BFC204680300021016041608160C16006223146EEF780FC2046062239468630EEF77AFC694603
:404280002846FFF77BFE204608AA69464930FEF747FF002802D101216034E1770DB0F0BD25463935CCE7000070B51D4CFF21E07F88B0FF2815D025460026603D01281CD013
:4042C00002282BD003280AD106206D46A872EE7200922B81E17730466946FFF759FF08B070BD104B1878FF28F9D00028F7D1197003211046FFF764F9F1E7294680310E46E5
:404300001046FFF73BFE284603AA31464930FEF707FF0028E3D10220E077E0E70420D4E74038002004260020FEB5254C0B46217824480026012903D14168FF290ED0267032
:40434000204C6034E17F042913D0052911D008290FD011461846FFF7FBFAFEBD184601F0C9FB02202070EEF7F5F90028F5D02670FEBD144D2935042903D005290CD0082983
:40438000F6D1082219462846EEF7F3FB0520E0770D48FEF7FBFBFEBD082219463130EEF7E8FBFF20E07703206A469072D67210210095118130466946FFF7EAFEFEBD00009A
:4043C00035250020E03700201820000070B51346054688B00E4604464935082219466846EEF7C7FB0822314602A8EEF7C2FB04AA69462846FEF794FE002802D103216034E7
:40440000E17708B070BDFF2009307047044988604130C8603530086141304861704700001C26002010B5002A04D0012A01D100F005F810BD00F03AF810BD0000F8B500202B
:4044400069460870012301466A46184600F066FB69460878002824D00024124F1DE0A42026464643F5192A46083288230021012000F054FB0C4A287A1178884200D910703D
:40448000B85DF32180088000401CB855687A084080088000641C6872E4B2684600788442DDD3F8BD583400208526002038B500206946184D0870A4214143695C8907890FA9
:4044C000012903D16A461178491C1170401CC0B20528F0D301236A460021184600F082FB68460078002813D000242046A4214843295C8907890F012906D142190832882328
:404500000021012000F06EFB641CE4B2052CECD338BD00005834002010B50548012102780170002A02D10420F0F7EAFB002010BD4426002070B50F4D0320297828700129AF
:4045400002D10420F0F7DCFB00246C60242221460948EEF717FB0848242200212430EEF711FB054848300470047244704472002070BD00004426002070380020F8B51F4ED3
:404580009C463378012B03D0022B01D01C48F8BDC3001C481B18581C9F785D785C680C235D436359002B06D00121042000F06CFA1348401CF8BD615103780C256B431B1906
:4045C00061461981002A04D001780C23594309194A600178491CC9B20170B94201D1002101707068401C70603078012804D1022030700420F0F784FB0020F8BD44260020EE
:4046000011110000B838002010B51048002404704460242221460E48EEF7B4FA0C48242200212430EEF7AEFA0948032184640465483081708172064941602431C1600470C1
:40464000047244704472002010BD00004426002070380020F8B500250C4C01262F462078002810D001280ED0022802D0032808D106E000F00DF86068002802D1267000E09A
:404680002770002DEBD00020F8BD000044260020F8B500262048F1000C18A0786568009021780C2041436A58002A31D04B19002019890746002901D0012758689047174896
:4046C0000078032827D0012F0CD120780C21484340194068F0F75CF921780C22002051434919486020780C2250430021401901812078504329502078401CC0B22070009A78
:40470000904200D1217005484168491E4160C7E7761C022EBED3F8BDB838002044260020F0B5044685B01F4801214460657C01706A461D49206800F09EF911263602074673
:40474000B04204D1207E14210843207605E0002F03D16946204600F099F8380001D0B0421AD1002D02D0012D03D006E0217E202201E0217E40221143217600280CD120465B
:4047800000F008F9002807D1002D07D0012D03D1217EBF221140217605B0F0BD217EDF22F8E700004C260020B886010030B5C37B0E215B00C373425C4318D4095D78520008
:4047C00025435D704254491EF5D530BD7FB527480D460178012913D14468FB21207EC206002A0EDAEF2210402076420701D5084020762946204600F049F8204600F0CAF801
:404800007FBD8207FCD54207FAD508402076628BA18B531E994204D12946204600F05EF87FBD914209D1FD21084020762946204600F0EEF8606980477FBD60680901401811
:404840006A46294600F00AF92A466946206800F012F9112109028842EED1A08B0421401CA083207E084320767FBD00004C260020002101604160C160416101810174418301
:4048800081834174012101760020704770B5044605461E340E462E3510222046EEF769F92046FFF783FFF07B000604D522461146094800F0D3F8102221462846EEF759F9FC
:4048C0002846FFF773FFE07B000604D52A461146014800F0C3F870BDC886010030B50D46418B89B00446002907D0207A0207120F39D00020012838D002E001206083227A4A
:40490000002000900190029003901020811A68460818014680232039CB776168002905D0638B1B01103BC918EEF723F921466A462E31104600F092F804AA2946684600F0F4
:404940008DF86A4604A9206800F095F8054611200002854215D1A08B0421401CA083207E0843207613E00120C4E7080162681038111810226846EEF7FCF821466A461E31B5
:40498000D7E7002D03D16946204600F041F8284609B030BD30B50446008989B0010900076183000F01D0491C618300210091019102910391217E022211431448217600253D
:4049C00017E060682901401804AA694600F046F86A4604A9206800F04EF8002807D0A18B0422491CA183217E1143217605E06D1CADB2618B491EA942E3DC217E490703D4DC
:404A000069462046FFF76AFF09B030BDFFFF000070B5002606760446027C1020801A4518607C002802D0012805D011E02946E068EEF79FF80CE02846E168EEF78BF800287D
:404A400006D0227C2946E068EEF793F8FF2020760148067070BD00004C26002030B50F23C45CCD5C6C40D4545B1EF9D530BD10B5FFF7ACFE10BD08B56A46FEF751FB0028F8
:404A800001D11120000208BD012909D80C2807D20122054B82401868012902D09043186070471043FBE7000054260020014900200860704754260020704700007CB505463C
:404AC00001AA694600F0A6F8134C00280CD101212846F0F7E1FE002806D12846F0F7FEFE401C01D000240CE020467CBD0099A0000B58002B03D001222946FF209847641C3E
:404B0000E4B2684600798442F0D301212846F0F7C1FE00207CBD000012A1000010B5144608461A462146F0F7C5FE80B210BD0000FEB5140008460DD001AA694600F06AF872
:404B40000100104808D169460B79FF2202AE0021009D0AE00B48401EFEBDFF2A03D18F00EF59002F0CD0491CC9B29942F5D38B42F2D06846007A009980000C500020FEBD82
:404B80003170F4E712A100007CB5054601AA694600F040F8124C002805D100212846F0F77BFE002801D020467CBD2846F0F7D6FE00240AE00099A0000B58002B03D00022F2
:404BC0002946FF209847641CE4B2684600798442F0D300212846F0F75DFE00207CBD000012A1000010B5144608461A462146F0F7A3FE80B210BD10B5F0F730FE0020FFF7FA
:404C00005DFF10BD10B50020FFF7BEFFF0F73EFE10BD0000002801D00348704704201070024808600020704711A10000C83800200020044902468300401CC0B2CA5004287D
:404C4000F9D37047C8380020FF2051307047000001490860704700005826002010B50EC9F1F714F810BD10B50EC9F1F747F810BD38B50024E443054600290AD0052000900B
:404C80004B68097804A0F0F7BDFF2860401C00D00024204638BD00007461736B0000000010B5EFF783FF10BDF8B50E460546F6F793F8002300906C46AB20E15C002900D16E
:404CC000E0545B1CDBB2042BF7D32A463146204600F002F8F8BD0000F7B58AB03A480890001D054606900898019038480F4601680698009102910390012600241835042217
:404D000033A10898EDF735FF0099069880310A7902704979417006980422801C0A99EDF728FF8E206946087530460899303048702819049001A800F04FF8002021186A5CAC
:404D4000002A01D130226A54401CC0B21428F5D31434761CF6B2E4B2032EE5D9281D029000200390019568460475174E0024082F1DD908273019049001A800F02DF8002067
:404D800030222118735C002B00D17254401CC0B21428F6D36946097D3120685469461434087DE4B2401CC0B2087500212954BC42E0D3002004E00C99325C0A54401CC0B2B3
:404DC000B842F8D30DB0F0BDD83800205C2600203030303000000000F0B5BD4E07463446C56885B04034BB482060BB486060B948C043A060B848C043E060B8482061387CE3
:404E0000362801D8402104E0762801D8802100E0C021019104280AD23968042208180021EDF7B0FE3A7C3968802088541CE088280DD2796804220818001F0021EDF7A2FEA0
:404E40003A7C796880208918203908770CE0B9680422081888380021EDF794FE3A7CB96880208918A039087600200090387C694640098870387CC000C870019880090390B4
:404E80000020D2E00020844602988001864660467146800009183A7CC9B28A421AD3042901D23A6806E0882902D2091F7A6801E0BA68883951180A78120232504B781A43EB
:404EC000120232508B781A4312023250C9780A43325016E0019A083A8A4201DB00210FE06A4611780902315052781143090231506A4692781143090231506A46D278114334
:404F000031506046401CC0B284461028BFD32068286060686860A068A860E068E86020692861002084460007000F86466046102817D37046C01E0007800E31587046083062
:404F40000007800E305841407046801C0007800E32587046800033585A4051401F22D14131506046142809D26968AA6808461040EA688A431043E06159481EE0282807D2A9
:404F8000A96868684840E9684840E061554814E03C280BD2A868EA680346696810430840194611400843E0614F4806E0A96868684840E9684840E0614C48A061E0692969D9
:404FC000A269411828681B23D8411018091870468000305808186061E8682861A868E86068680221C841A86028686860606928606046401CC0B28446502894D3206829686A
:40500000401820606068696840186060A068A9684018A060E068E9684018E06020692969401820610298401CC0B203990290884200D227E7F9682078C8702088F968000ACD
:4050400088702068F968000C48702068F968000E0870F9682079C871A088F968000A88716068F968000C48716068F968000E0871F968207AC8722089F968000A8872A06874
:40508000F968000C4872A068F968000E0872F968207BC873A089F968000A8873E068F968000C4873E068F968000E0873F968207CC874208AF968000A88742069F968000C30
:4050C00048742069F968000E087405B0F0BD0000343900200123456789ABCDEFF0E1D2C39979825AA1EBD96EDCBC1B8FD6C162CA30B500224B1E4C0805E0815CC55C855425
:40510000C154521C5B1E9442F7DC30BD10B5044605480069F0F73EFE2060002801D0002010BDFF2010BD00006026002070B50A4D0446302905D8A869F0F72CFE2060002837
:4051400005D16869F0F726FE2060002801D0002070BDFF2070BD00006026002010B5044605484068F0F716FE2060002801D0002010BDFF2010BD00006026002010B50446BF
:405180000548C068F0F706FE2060002801D0002010BDFF2010BD00006026002010B5044605480068F0F7F6FD2060002801D0002010BDFF2010BD00006026002010B50446F2
:4051C00005488068F0F7E6FD2060002801D0002010BDFF2010BD00006026002010B504460548C069F0F7D6FD2060002801D0002010BDFF2010BD00006026002010B5F6F7CF
:4052000027FAF6F7C1F9002010BD0000014610B502480069F0F74CFE10BD00006026002070B5084C05460146A069F0F741FE002806D029466069F0F73BFE002800D0FF20AF
:4052400070BD000060260020014610B502484068F0F72EFE10BD000060260020014610B50248C068F0F724FE10BD000060260020014610B502480068F0F71AFE10BD000053
:4052800060260020014610B502488068F0F710FE10BD000060260020014610B50248C069F0F706FE10BD00006026002070B5040068D02068344D0078287720688078E87765
:4052C000206800796877EDF731FAC0B2022806D1687F042803D120680079401E6877287F81070BD08107890F401A0C3082B2697F2648F0F775FD002844D101E00830F5E752
:40530000E87F81070CD08107890F401A0C3082B21E480421001DF0F763FD002832D101E00830F4E71948202204210830F0F758FD002827D11548202203210C30F0F750FD1B
:4053400000281FD11148502201211030F0F748FD002817D10D48482201211430F0F740FD00280FD10948302204211830F0F738FD002807D10548402202211C30F0F730FDFD
:40538000002800D0FF2070BD082D0020602600201FB501A9F6F7F2F804B010BD10B50D4C6069F0F731FEA069F0F72EFE2069F0F72BFE2068F0F728FE6068F0F725FEA068B7
:4053C000F0F722FEE068F0F71FFEE069F0F71CFE002010BD602600201FB501A9F6F7E2F804B010BDF7B5054682B000204649474A00900427681AAE188D4217D00ADC002E81
:4054000016D04E2E16D04F2E14D0F5208000301A11D109E0012807D0072803D03C49401809D105E00A2706E00C2704E0442702E0072700E006276946381DF6F735FE002879
:4054400002D0072005B0F0BD009C294667702046039AF6F7B7FB0398002850D12A4A049B521C2846A91A1F0ADDB2904227D008DC002E12D0F5208000301A2BD001283ED130
:405480003AE0062904D02248401C081837D10CE0A11D0020F3F74EFE31E0214608311846F1F79AFA06E0607129E0214608311846F1F77EFAA571E771002820D0F3E7251D96
:4054C000A01D08220021EDF75DFBA87960210843A87114E00F480179A1710189E171090A2172417961720188A172090AE172C0882073000A607302E0A01DF6F79FFB214635
:40550000FF20F6F74FF99DE702100000D3F3FFFFFDFBFFFF082D002030B51E4B0224C21A984235D015DC1C4B0325C21A984225D008DC1A4A801826D0172826D0184A801813
:405540001AD11DE02A2A1ED0602A19D0782A13D11BE0144BD01A9A4210D007DC124810180CD001280AD0022806D107E0042805D001229202801A08D0002030BD002000E0A5
:405580000820087002E00D7000E00C70012030BD0420F6E77C0C0000030C0000FAFBFFFF05F8FFFF890300007BFCFFFF10B5224C131BA2423CD016DC204C131BA24228D042
:4055C00008DC1F4BD2182DD0172A2ED01D4BD21808D121E02A2B22D0602B1DD0782B01D1F6F792FE10BD184C1A1BA34211D007DC164A9A180DD0012A0BD0022AF2D108E07F
:40560000042A06D001239B02D21AEBD1F6F78CFE10BDF6F742FE10BDF6F735FE10BDF6F78AFE10BDF6F73AFE10BDF6F790FE10BDF6F70EFF10BD00007C0C0000030C0000F8
:40564000FAFBFFFF05F8FFFF890300007BFCFFFF70B50C460146304D01204B1B0646A9424DD01ADC2D4D4B1BA94237D00CDC2C4BC91838D017293CD02A4BC91803D1114648
:40568000204600F051F870BD2A2B22D0602BFAD11146204600F070F870BD7125ED00591BAB4214D008DC012B2FD01D49803159180DD00129F0D10AE0062908D0184B1B1D8C
:4056C000C918E9D11146204600F085F870BD002070BD1146204600F082F870BD1146204600F085F870BD16701146204600F058F870BD16701146204600F075F870BD1670BD
:405700001146204600F058F870BD16701146204600F079F870BD00007B0C0000030C0000FAFBFFFF05F8FFFF10B5104B0422597A3024114059720E4A0168114001600D4A97
:40574000416811404160026850080843810A2140C00D422420400143587A120989242240104301435972002010BD0000242E00209088000200800020084AFB23517A1940B3
:40578000517201230168DB0519400160507A490D042319400843507200207047242E002070B50C460546F6F760FE002803D121462846F2F7DBFD70BD70B50C460021217014
:4057C00005462146F6F7F7FE002803D121462846F2F782FE70BD10B5F6F7F9FE10BD10B5F6F7FFFE10BD10B5F2F798FE10BD70B50C460546F6F705FF002803D12146284627
:40580000F1F7E2F970BD70B50C460021217005462146F6F7F8FE002803D121462846F2F74DFF70BD10B5F1F7ABFC10BD10B5F1F715FD10BD10B5F1F7BFFC10BD10B5F1F7F8
:4058400043FD10BD704710B5F7F716FEFEF714FA10BD704710B5FEF7CFF9F7F7F1FD10BD704710B5FEF71AFAF7F707FE10BD000037B50C4600211546C9436846FEF748FCF9
:405880000849012D08D0A422504341183F3110222046EDF76EF93EBDA422504341188031F5E700005834002073B500250C46002915D068460078FF2811D000202070411EBC
:4058C0006846FEF725FC05280ED0A421484308494018407A0007800F022802D006E005487CBD0120207001E0024D6D1C28467CBD58340020112E000004494A68026008784B
:40590000002801D0002070470148704788260020FFFF00000149016000207047A026002010B5044B1C780470D878087018791070002010BD8026002010B51846102202491B
:40594000EDF717F9002010BDA026002001480079704700008026002010B5114B0022A4245443E418647B844214D1A4204243985C8007800F012807D1012906D0D0184F303E
:4059800041220849EDF7F5F810BDD1184F3141220448F7E7521CD2B2052AE0D310BD000058340020A026002010B5054982798A720146034806220B30EDF7DBF810BD0000E9
:4059C000C0260020014908710020704780260020400701D5002A01D00020704700487047FFFF00007CB50C0009D06946F8F720F9002805D10B4DE879012802D007E00A489D
:405A00007CBD29466846F7F736FF012801D007487CBD2946093110222046EDF7AAF800207CBD000094390020112E0000FFFF00007CB50C46002121706946F8F7F9F8002835
:405A40000BD1064DE879012807D129466846F7F712FF012801D1287A20707CBD9439002010B5002406484B222146EDF78BF80548072144708170102101710830047010BD7E
:405A80009439002080260020F8B50525074600206B46154E1D7004462246A4235A43B35C9B079B0F012B0BD1921953685B1C07D1137A834204D91846527B6B4625461A7020
:405AC000641CE4B2052CE7D3052D08D0002902D06846F8F7ADF801212846FEF7E7FA684600783870F8BD00005834002010B5FDF7C9FC10BD10B5002806D0014610220348F7
:405B0000EDF737F8002010BD014810BD90260020112E0000F8B5254D254FA4224A436C79D219012807D0022801D003283DD1107A00281BD01DE0167A002E36D00020107250
:405B400088420CD0A4224243BB5C9B079B0F012B05D1D3191A7AB24201D9521E1A72401CC0B20528ECD3641E6C711BE0641C6C711472137A012B15D0012010720020884263
:405B80000CD0A4224243BC5CA407A40F012C05D1D219147A9C4201D2641C1472401CC0B20528ECD30020FEF7EFFFF8BD802600205834002010B50446407B217B0002014385
:405BC000E07B0202A07B10432268002A01D0206810BD042806D0062804D00846EEF7BAFE206010BD01480068FAE70000F8240020F7B5A5498AB0164609786A461173A34A22
:405C0000002815D00B99002912D0417803780C0223438C06A50FC47880781B0524021B0D89092043864203D1002901D1022D02D910460DB0F0BD05A91846F8F725FD00287D
:405C400001D09348F5E7059818214843914944180834E07A002802D0022D0BD001E0012D0BD0A07A0790E588002006900890019002906EE0204600F05DF976E0B54201D9D1
:405C8000374600E02F46E81B85B2E07A042809D3617B227B09020A430292E17BA27B09020A4301920799012902D0022949D118E021460C3140183A460B99ECF75AFFE07A1E
:405CC000C019E072002D3CD1607B257B000205430295E07BA17B000201430220019107902FE0A088002815D103A800903B4621460B9A059800F0D4F80028BBD10298B04235
:405D000002D8E07A042812D02046FFF753FF20600028AFD0A18820683A4640180B99ECF728FFA088C019A080002D08D009E00B9820600298A08001200690089001E00120D8
:405D400006900B98C0190B90F01B86B2069801280DD0002E92D10698012808D00798A072E58001210A20FEF78FFE002061E7019805281FD004287AD0062878D0059801993B
:405D8000C2B203A8F9F738F83F4801786846007B814209D0142358433F4BA2881B682168C018036903A8984708980128A5D1002020605FE7A08825684DE02F78687806905B
:405DC000E878AE78000206430C98001F8642EBDC06980028E8D0781E152841D8F80704AA1CD006990598F9F7DFFC002822D0012104A8002700970191029001220021069BC7
:405E00000598F9F763FC00281FD1009700231A46019704990598F9F7DBFC16E0012100206B4607C302460146069B0598F9F74EFC00280AD1301D83B21849B8004018403883
:405E4000C76B2A4604990598B8470C98AD192D1D801B001F80B20C900028AED1A4E706E0012004A90027009702910190C5E70598182148430749A38841182268091D019819
:405E8000F8F730FF90E70000F1240020FFFF00002C230000503100200C250020FC83010070B50346487B0D7B00020543C87B00240202887B049E1043621E0A812246402818
:405EC00010D2CC80052805D0042805D0062806D0124A21E017241BE05800114917E01148848A15E00146DAB23046F8F785FF020012D10D4B307814211B684143C9180969A5
:405F00000A4B994204D11C214843094909680C5AA54201D9014A493A104670BD7023000004250020403200200C25002021F100002C25002070B50446E17A0020042903D32A
:405F4000E07B0102A07B08430025E572A5802168002907D0042804D0062802D00846EEF717FD25600120A0720420E08000210A20FEF78AFD70BD0000F3B54F4983B0002029
:405F8000087091E04D484E490088C0004518A87901287DD1A88804902C68002660782778000207434748391A87421BD011DC4648391A874233D006DC444838182FD04449D4
:405FC000401852D12BE04348081845D001284CD148E0891F0B00EEF71DFB08223C22223C3C22223CE17B012906D03B48F7F7B0FEE079002802D038E03848F7E721460622C8
:4060000009316846ECF7B5FD207A694688716846FDF718F9002836D00621817025E020790102E078084302A9FDF728F9002803D002988078012801D0224E0A362348404280
:40604000874206D11F480A3086420ED0029907208870002E09D016E00622E11C2048ECF788FD02E01F49207A0870012321461846049AEEF7CFFE14484738874203D01A481F
:406080000178491E01702046EEF782FC002100E00FE0A9712960094AA9801088401C80B21080022800D111800F480078002800D068E705B0F0BD0000CE250020D8250020CD
:4060C000483400200D2000007C0C0000FAFBFFFF8BF7FFFF77ECFFFFE4250020F0250020F7250020FE250020CC250020F8B50D4600280ED0002D0CD0164E074630881649B6
:40610000C0004418A079002804D001210220FEF7BBFCF8BD2846EEF71DFC20600028F8D02A463946ECF725FD00F018F80027002804D02068EEF72CFC2760F8BDA58001207F
:40614000A0713088401C80B230800228F5D13780F8BD0000DA2500204834002010B5084C00202178002909D100231A4605491846FEF704FA002801D10121217010BD000090
:40618000CE250020795F010010B50E4806224079002815D00B4800218B001B189B78934206D18A0002231418A370DB1E835201E0491CF1D0012903D0002901D1FDF774F8DE
:4061C00010BD0000EA2500201CB5014606226846ECF7CFFC0120694688716846FDF732F8064C002803D113212088FCF799FC0020C0432080FCF7C2FD1CBD0000DC25002051
:40620000F0B589B00546C7788679C079694688712946062208316846ECF7ABFC5C484079002805D0694607A8F7F75AFD002803D00024002C02D076E0554CFAE76846847971
:40624000022C01D0032C27D10146062202A8ECF790FCA41E68468473002E0DD104A902A8FDF740F9002807D102A904A8F7F784FD6846017C4648017145484079002805D045
:4062800002A904A8F7F72CFD002803D00024002C02D048E03E4CFAE7002F33D1012E06D13C48017801290BD03B48F7F751FD68468079012806D0002826D0012807D02DE0F5
:4062C0003648F2E7684640798009012806D068464079C0430006800F16D01FE0694607A8F7F7FEFC002819D02D496846FFF7FEFB002813D168792A7900022A4902432A484E
:406300000A80067009B0F0BD07A96846FDF7EAF8002803D1694607A8F7F72EFD6846FCF791FF040010D0002F16D00021C94321800221A17005A9201DFCF7F2FF1B49884227
:406340001ED0002818D01EE068790102287908431321FCF7E5FBD5E7687932460002208029790843208001210F48A17006702188201D00F0EDFEC5E76846407D002802D133
:40638000201DF7F7B9FB2046FCF78EFFBAE70000EA250020FD250020E4250020F0250020C9610100DC250020F6250020122E00007CB5044681780079E57800020543002924
:4063C00016D169462846FCF759FF002810D001796A46117100998A78022A09D00B4A0C4B12889A4205D0954203D10A49002008707CBD02228A700B804179012901D1FCF7E2
:4064000053FF617901A8F7F7B7FF7CBDDC250020FFFF0000CF25002010B50446ECF790F92B2804D1606802494078FDF70DFB10BD0704000010B50446ECF780F92B2804D1A2
:40644000606802494078FDF7FFFA10BD0704000010B50446ECF776F92B2804D1606802494078FDF7F1FA10BD0704000010B50446ECF760F92B2804D1606802494078FDF74F
:40648000E3FA10BD0704000010B50446ECF754F92B2804D1606802494078FDF7D5FA10BD0704000000487047112E0000FEB5416802460E7848788C684B681168E27D6778D4
:4064C0001207150E227E09782A433D0703D5EF252A405208520000290AD1550702D001256D0306E055066D0F02D00125AD0300E00125DF72677A1F739A72A272902256432A
