:400000000080002011000000710700007107000010B500F04DFE00F0CDFBC04670B512221A4B1A6002F066FC194802F055FE012002F080FC302002F03DFB164A164B1A60EB
:40004000164C8025ED052560154A116802230B431360144A144B1A600022144B1A60144A136808218B431360FA20C00002F0D4FB104802F015FB802212060F4B1A608022AA
:4000800012030E4B1A60256070BDC04630001040001BB7000600008004010B400C020B4078002E406A2D00007C002E4064F02E406CF02E40DC05000008010B4000010B40AB
:4000C00010B572B60022264B1A6000240FE025486200131959000B00411889881A5AC31858880004104300F03DFB0134E4B2012CEDD9EE2212061C4B1A6099231B041B4A75
:4001000013601B4A13601B4A13601B4A13601B4A117806230B43DBB213701422184B1A60184A194B1A6080229200184B1A60E13AFF3A174B1A60C0239B0216490B60164912
:400140000A60164A1360C022154B1A60D8221204144B1A60FFF762FF00F0F4FA10BDC0466CF02E403C7C01000000024000500F4010500F4020500F4030500F4000700F4035
:40018000000004408021D800080004400C00044000010440080104400002044008020440000304400803044010B5064C2378002B07D1054B002B02D0044800E000BF012319
:4001C000237010BD38240020000000000C780100084B10B5002B03D00749084800E000BF07480368002B00D110BD064B002BFBD09847F9E7000000003C2400200C780100BB
:40020000681900200000000070B5134B1B78023BDBB2012B1ED8032004F0BEF9050002F064FD0400032D0CD104F0A6FB042803D004F0A2FB06280AD102F026FB00F04AFA6F
:4002400005E004F099FB022801D002F00FFB200002F04FFD70BDC0460E37002010B584B000281FD0FE23FF3399421DD800291DD001AB0190998039221A810E4A13785078E4
:400280000002184301A911F0C9FB040004F08CF9002C03D0084B1B78022BEED060426041C0B204E0002002E0002000E0012004B010BDC046143700200E37002010B5C17814
:4002C000043180239B00994202D8FFF7C7FF00E0002010BD30B5174CA544032921D9C378043399421FD1002303E0C25C6946CA540133032BF9DD00236A46D37003781D2BB7
:4003000013D10D4D280003F0A7F804000200290001A803F00AF86B46DC706846FFF7CEFF04E0002002E0002000E0002081239B009D4430BDFCFDFFFF6C19002011B5FFB066
:4003400083893C2B13D10189002910D0FE23FF3399420CD8002305E04268D25C6C46E25401339BB28B42F7D36846FFF7B3FF7FB011BDC04610B583893A2B0ED104300633C6
:40038000064A002112F021FE002806D1034A137850780002184311F095FB10BD1437002010B584B00C004F2800D9A0E08000514B1B589F46002001F0F9F898E04E4803F09A
:4003C00041F894E009786278A378E07800904B4802F0BCFF8BE04A4803F034F887E00968484802F0B3FF82E0474803F02BF87EE0464803F027F87AE00978454802F0A6FF86
:4004000075E0444B1978444802F0A0FF6388062B0FD902A906230B804B8000238B806433CB803E4B18780EF091F901003C4802F08DFF012000F00AFB59E03A4803F002F88A
:40044000002001F0B3F8002803D00100364802F07DFF0022354B1A6049E00978344802F075FF44E00978334802F070FF3FE0324B1B78042B3BD12D4A136801331360022B7F
:4004800003DC002001F092F831E072B602F0A0FA8020400002F01AFB02F08CFA00F084FA00F04AFA04F042F804F07EF80022224B1A7002F0D1F81AE00222164802F035FFEE
:4004C00015E00022134B1A7011E01C4802F0BAFF2000FFF733FF0AE0002011F0B1FA06E00800FFF747FF02E0154802F0ABFF04B010BDC04610780100507901006C7901003A
:40050000B0790100F07901001C7A0100447A0100547A0100CC350020747A0100143700209C7A0100D87A0100FC7A010054240020207B0100447B01000E370020707B010061
:40054000907B010000B585B00A4A13881B0492881343039303AB009304236A469380064B5B881381002300220021684612F02DFD05B000BDD4830100F481010010B582B007
:40058000314B1A6800929A8869468A809B798B7100222E4B1A6000F055FE2D4C200002F051FF200002F04EFF2A4802F04BFF2A4802F048FF294802F045FF200002F042FFDB
:4005C000200002F03FFF62B6012000F03FFA012000F000FA012000F04BF9214800F086FF6A460721022001F043FE1E4B188812F087FC1D4B188812F083FC1C4B188812F0BF
:400600007FFC1B4B188812F07BFC04F0B5F9022804D1184BD968986806F08AFA00230022694668460CF05AFFFFF78CFF00F034F803F0BAFFFFF7E8FD00F04CF80E4802F06A
:4006400085FE00F0E5FDF3E7347C0100D0350020407A0100A87B0100E47B0100F87B0100A103000084830100C0830100D87C0100B8830100DC190020287C010070B516004C
:40068000002405E04D1C087802F0BAFA01342900B442F7DB300070BD10B502F099F90C4800F03CF90121012002F0BCF90121012002F0D4F92021012002F02AFA012002F0E6
:4006C00081FA8020400002F0E3F902F073F910BD2D07000010B5124B1B78002B1BD1114A1368013B1360002B0DD1FA239B001360107901235840C0B2107100F0A7F9012004
:4007000001F0B6FF0AE00A33074A934206D8012000F09CF902E0012000F098F910BDC046CC3500207C190020E703000010B502F019FA430505D5FFF7CDFF8020C00002F02B
:400740001BFA10BD0323044A1360044A13600022034B1A607047C0463000304030003140000E3F4010B50A00002102F0E7FD10BD10B502F09FFD03680C2B00D1FEE7FEE757
:4007800010B50300094A1068C318094A9A1A8021C9008A4202DC054A136005E002F08AFD0C2303600120404210BDC046841900202037002070B50F4E0F4D13E029686B681F
:4007C000AC68002202E001C901C30432A242FAD1E868002202E0002102C304328242FAD11035013E002EE9D102F06AFDFFF7C6FEFEE7C04601000000C884010010B5114A97
:40080000136801218B43136000230AE0032B03D89A000D49505800E00C4899000C4A885001332F2BF2D9FFF74BFC0A4B1B68002B02D10022074B1A60024A116801230B43A0
:40084000136010BD00001040000000007107000000000020C0000020034A1168034B0B40C00318431060704708020440FF7FFCFF04490A68D2B220239A43400118401043B6
:400880000860704700020440024B1868400901231840704704020440024B1868400901231840704700020440034A136883430840184310607047C0460C020440034A10683C
:4008C0002023184010604009C0B2704710020440014B18667047C0460000002010B5040002F003FA044A1368C0218B43A4011C43146002F0FEF910BD08E400E08022520060
:40090000014B1A607047C04600E100E080225200014B1A607047C04680E100E010B50400FFF7F4FF2000FFF7D3FF0320FFF7D6FFFFF7E4FF10BDC0460122014B1A607047E7
:4009400080E200E0034A1168034B0B40000318431060704708000440FF8FFFFF04490A68D2B210239A430001184010430860704700000440024B186800090123184070470E
:4009800004000440024B1868000901231840704700000440034A136883430840184310607047C0460C000440034A10681023184010600009C0B2704710000440034A1168E8
:4009C000034B0B40400518431060704708030440FFFF1FFF04490A687F231A40C301D8B2104308607047C04600030440024B1868C00901231840704704030440024B186883
:400A0000C00901231840704700030440034A136883430840184310607047C0460C030440034B1868C0B27F2290431860C009704710030440034A1168034B0B408004184381
:400A40001060704708030440FFFFE3FF04490A68D2B240239A438001184010430860704700030440024B1868800901231840704704030440024B18688009012318407047AE
:400A800000030440034A136883430840184310607047C0460C030440034A10684023184010608009C0B2704710030440002306E04218013A12789B189BB2013989B200297F
:400AC000F6D1584280B2704730B5002307E01C182478E4B2CD5CAC4205D101339BB29342F5D3002000E0022030BDC0460047C04610B58022024B1A6001F0AEFD10BDC0464D
:400B0000C0000020F0B583B00D006B469E1DDA8001230B7048701400AA70130ACB70171DB9B22800FFF7C2FFE855631D000AE854A31D1722EA540734A1B2962332002800F4
:400B400001F068FC03B0F0BD70B505000E001400002802D0002001F07DFD002005E0013CAB19E3181B781818C0B2002CF7D170BD10B50C2863D88000404B1B589F460B06F0
:400B8000591A0B023E4A9446634401225CE00B06591A0B023B4A94466344042254E00B06591A0B02384A9446634402224CE00B06591A0B02354A94466344042244E00B068C
:400BC000591A0B02324A9446634401223CE00B06591A0B022F4A94466344012234E00B06591A0B022C4A9446634402222CE00B06591A0B02294A94466344022224E00B0601
:400C0000591A0B02264A9446634402221CE00B06591A0B02234A94466344042214E00B06591A0B02204A9446634401220CE00B06591A0B021D4A94466344042204E000205C
:400C400001F008FD02220023012A02D11878C0B200E00020022A03D11978587800020843042A09D11A785878000210439A7812041043DB781B06184310BDC046487C0100E8
:400C8000C0FF0300C1FF0300C5FF0300C9FF0300D0FF0300D1FF0300D6FF0300D2FF0300D4FF0300D8FF0300DCFF0300E0FF030010B50D4B1B68DB0602D400220B4B1A6013
:400CC0000A4B1B68802B0ED10022084B1A6000210220FFF74DFF002805D000210220FFF747FFFFF703FF10BD00030B40C000002070B5050001000320FFF73AFF441C2402AC
:400D000029000420FFF734FF241829000320FFF72FFF421C12020023002608E01078411EC9B2FD2900D801261B18DBB20132A242F4D35B42DCB229000120FFF719FF844280
:400D400003D1002E03D1062002E0062000E0002070BDC046F0B55F4656464D464446F0B4CC4CA544050001F03DFB62B600239A4698460A240027002D01D1FF2300E02B00EC
:400D8000C54A02A98C4662449621490052A801F077FB002D01D0013CE4B2002C01D00028E9D1002800D01FE2BB4B02AA944663441B88062B24D952AA1278012A22D152A958
:400DC000CA78120289780A431700110007329A421AD896235B009A4218D87A1D52AB9E5C3202381D1E5C164306315B5C172B0FD181B252A8FFF75AFE86420BD100260AE017
:400E0000042608E0042606E0032604E0032602E0042600E00826002E00D088E152AB1A7993465A781300313BD9B2142900D94EE18B009A49CB589F464346012B00D078E1FB
:400E4000002F00D078E10020FFF752FF4342434152AA13710122C0E14346012B00D06EE1032F04D00423FF339F4200D06AE152AA93791B02527913439946032F08D0FA1EF0
:400E80004821FF3102AB9C46614407A802F04DFA5B46012B00D958E1580248440002804B994500D90A26002E00D051E18022520007A9FFF709FE060000228EE14346012BE7
:400EC00000D047E1012F00D047E15B46012B00D946E1744B1B681B685A0CD2B2934503D11B0ADB05DB0D05E0934501D9002301E080239B0052AA13711B0A5371FF23937155
:400F0000FE3BD371042268E1342A0ED14346012B00D028E1032F00D028E1CC32002107A802F00CFA80235B009A464346012B00D01FE1022F00D81FE107A85044FA1E4821F9
:400F4000FF3102AB9C46614402F0EFF93B0053449BB20422FF32934200D010E152AA93791B02527913439A464D4B9A4500D90A26002E00D00AE15B46580280B2504480B2A5
:400F8000484B1B681A68130A9BB2FF21114201D001339BB2834200D9FCE007A901F0A6FA002800D1FDE000239A4680277F000A26002212E14346012B00D113E104260022A5
:400FC0000BE14346012B00D0F1E05346FB1896225200934200D9EDE007A850443A0053A902F0A3F95346FB189BB29A460022F4E0002F00D0E1E004AA2B4B03CB03C253AA34
:4010000004AB03CB03C200239A46013398460822E3E04346012B00D0D2E0032F00D0D2E052AA93791B025279134399465B465902494409021A4B994500D90A26002E00D07E
:40104000C4E0802252000020FFF77EFD030001905A46520292B24A4492B25946012913D112498A4210D100210520FFF781FDC0B2019B1B1ADBB2994600210620FFF778FDD9
:40108000C3B24A46D31ADBB25B4252AA13710122A3E0C04684FDFFFF6E0200007C7C0100FF01000088190020D07C0100FF0300000020FFF71DFE002802D18022524B1A600B
:4010C00001F092F901F0C8FA0426002285E04F4B1E68002E7CD04346012B7CD102AB1A705F8053AB03930C22002104A802F026F904AB9B4653AA0692190002A8B0475B463E
:401100009A882623FF339A4203D953AB0699994207D0069B002B01D1002A05D1049BDEB25BE00E26002258E00E26002255E0002253E00426002250E0042600224DE0042676
:4011400000224AE00426002247E00926002244E0002242E0042600223FE0042600223CE00426002239E00426002236E00426002233E00426002230E0042600222DE0002326
:401180009A4680277F000326002226E080277F00002222E000239A4680277F000A2600221BE000239A4680277F00002215E00426002212E0032600220FE0042600220CE028
:4011C0000426002209E00426002206E0002204E00526002201E00526002252A93000FFF791FC01E000239A46002D00D1C3E54346012B00D1BFE59F239B009D443CBC904699
:401200009946A246AB46F0BDC00000205824002010B50020FFF76CFD002801D0062200E00022074B1B68402B01D0002A05D00022034B1A600020FFF78DFDFFF759FC10BDB4
:40124000C00000207047C0467047C046014B18607047C0465C24002000B585B0002816D1002916D1012A16D11978642915D8C0000C490818418801A80181828001930023EB
:401280000022002111F0A1FE002808D108E0012006E0012004E0012002E0012000E0012005B000BDD87C010000B585B0002812D1002912D1012A12D1C0000B49081841885E
:4012C00001A80181828001930022002111F04CFE002806D106E0012004E0012002E0012000E0012005B000BDD87C010000B585B000281AD100291AD1012A1AD8002A03D19D
:401300002C3101AA118105E0C0000C4A1018818801AA118101A88380069B01930022002111F022FE002806D106E0012004E0012002E0012000E0012005B000BDD87C01008F
:4013400030B583B005001E4B1B68002B31D083892C2B30D1CE239B001A4AD358DB0221D5043040232A00002111F02FFE041E1AD12B886A46138000239370D3700193686806
:4013800000F0BCF9C30706D50D4B1B6869463220FF30984707E00A4B1B68694699204000984700E00624084A137801218B43137002E0002400E00024200003B030BDC04689
:4013C0005C240020F47C01001737002030B587B001AC20800C0011001D000A9B2A002000FFF73AFF00281ED1104B1B78022B15D1DB239B000E4AD358586800F07FF9C30787
:401400000FD5E4000B4B1C19638803A90B810A9B03938D80019810F001FB04E00420FF3001E08020400007B030BDC0460E370020F47C0100D87C010070B5002905D11B4904
:40144000CE7F00230024002511E018492031CE7FF7E7CC5C002C0ED00133DBB2CA5C083AD2B2012A02D9E318DBB200E00125B34201D2002DEDD0002D16D0E418E4B20133E7
:40148000DBB21A0002E08D540132D2B2A24209D2D51A455D002DF6D104E08B18002018700132D2B2A242F8D370BDC0469C19002010B5FFF7C9FE00F011FF00F0D5FE00F0F5
:4014C0000BFB00F0C1FD10BD10B50023044A1370044A1370044A1370FFF7EAFF10BDC04617370020103700201637002030B591B00400142220490BA801F017FF1F4B1B789C
:40150000002B04D1FFF7E0FF01221C4B1A70002C2FD01B4B1C6008AC05AD099506AB089301222281FA321A805A80F73A1A7103F0B1FB08232B7016216944200002F0D8FE12
:40154000002817D1002302930193053300930BAB0C4A0D490D4802F03FFF00280AD101220B4B1A70802292003C210A4811F0B0FC00E0012011B030BDE07C01006024002017
:40158000FC360020D0140000C8000020211800000E370020F47C010010B502F0C7FF0022014B1A7010BDC0460E37002010B5022832D81D4B1B78042B30D11C4B1B785B07D1
:4015C0002FD400280CD11A4B1A0040320A211182C622D200596C0A805B6C20325A800CE001280AD1124B1A00403296211182C822D200596C0A805B6C5A800E4B18700C4834
:4016000040300FF057F800280DD1084A117804230B43DBB2137006E0012004E00420FF3001E00420FF3010BD0E370020173700209C1900201637002010B50FF0EBF8034A3E
:40164000117808230B43DBB2137010BD173700207047C04670B5041E26D0144B5B88013B134D9A00D0188100691809694868D3189A00AA18117B002302E0C2540133DBB2F0
:401680008B4202D2E25C002AF7D18B4202D2C31800221A7000212000FFF7CEFE01212000FFF7CAFE002000E0012070BD40830100F47C010010B5002819D00E4B5B88013B5D
:4016C0009A00D3189A000C4B9A1813695C681978002302E0C2540133DBB28B4202D2E25C002AF7D1C31800221A70002000E0012010BDC04640830100F47C01000378407861
:40170000000218437047C0460170090A4170704770B5050083890B2B1FD1043035332A00002111F052FC041E11D16868FFF7E6FF830706D50A4B1B6829008220400098473B
:4017400005E0074B1B6829000620FF309847054A137801218B43137000E00024200070BDFC36002017370020024B00225A701A707047C0461437002010B500F05BFC10BD30
:4017800010B582B00400FFF7C3FF1B4B1B78DB0704D5002802D12000FFF7D2FD164B1B78DB0702D5200000F09BFD134B1B78DB0704D5002802D1200000F0DAFA0E4B1B7816
:4017C000DB0704D5002802D1200000F0D1FC0A4B1B78DB070ED4002809D001A912238B70A3890B80C870206810F0DAF802E0206810F068F902B010BD173700208379002BA7
:4018000007D000200BE0C25C002A07D10133DBB200E00023052BF6D9002000E001207047F0B583B005000C00914A117801230B43DBB21370502800D909E183008D4AD3587C
:401840009F4601AE0727377000237370300002F001FF377001237370300002F0FBFE864B1E683000FFF7CAFF00280CD0300002F09FFE814E00213068FFF7EAFE30680121E5
:40188000FFF7E6FE2AE07D4B1F787D4B18788001FC263601020032403F2139401143794B1B781B03F822520213401943764B1B785B04FE22120413400B43744E33701A0A6D
:4018C00072701B0CB370300002F072FE00213000FFF7BEFE01213000FFF7BAFE03200EF08DFD01AE7F2333700023737030000EF0A3FD674B33803200FB2100200EF0C6FB22
:401900003188FB200EF0B2FD0422624B1A709EE02278614B1A709AE02378002B00D096E06378002B08D15D4B1D22DA80E432FF329A805B4A1A6063604D4A137801218B4380
:40194000137084E04A4B1B789B0600D57FE0554B1B78102B02D10522524BDA70524B187850490EF069FE01AB1880002804D04F4B1B6801A9362098473D4A117801230B434B
:40198000DBB2137063E00222424B1A705FE00422404B1A705BE03F4B1B78022B57D0344A1278D20753D5324A1278520708D50322384B1A702E4A137804218B43137046E05D
:4019C0002B4A1278120708D50422324B1A70284A137808218B43137039E0032B37D104222C4B1A7033E0022221002F4801F09DFC0022294B1A70FFF7BFFE28E0FFF7B4FEFC
:401A000025E06188F62900D9F72120880FF0D2FF1DE02000FFF7B4FE19E0154B1B78DB0702D5200000F0A4F9114B1B78DB070ED5200000F09DFB0AE00D4B1B78DB0706D52B
:401A4000200000F08FFC02E0200000F0A3FC084B1A7811231A4209D0054A137801218B431370124B1B6821002800984703B0F0BD17370020FC810100F01900207CF2FF0FA6
:401A80007DF2FF0F7BF2FF0F78F2FF0FF4190020480800000E3700201037002064240020981500206020002014370020FC36002010B54868FFF722FEC30702D59620FF308A
:401AC00001E0CB204000034A137801218B43137010BDC046173700207047C046014B18607047C0466C24002070B584B000285BD108295BD8062934D88900304C61588F4681
:401B000081000818C1002E48411849883EE081000818C1002A484118C98B37E081000818C10027484118498C30E081000818C10023484118898C29E081000818C1002048D0
:401B40004118898922E081000818C1001C484118498A1BE081000818C10019484118098B14E0CE1F85002D18EC00154D2C192479A6420ADA84002018C4002C19A46848009B
:401B8000411848002A38215A00E0002100290FD001A801818280019300230022002111F014FA002806D106E0012004E0012002E0132000E0012004B070BDC0464C83010090
:401BC0008483010070B584B000285AD108295AD8062934D889002F4C61588F4681000818C1002D48411849883EE081000818C10029484118C98B37E081000818C10026487B
:401C00004118498C30E081000818C10022484118898C29E081000818C1001F484118898922E081000818C1001B484118498A1BE081000818C10018484118098B14E0CE1F71
:401C400085002D18EC00144D2C192479A6420ADA84002018C4002C19A4684800411848002A38215A00E0002100290ED001A80181828001930022002111F076F9002806D18D
:401C800006E0012004E0012002E0132000E0012004B070BD688301008483010030B585B0002839D1022A3AD808293BD802293CD905293DD0032909D1022A3CD182001018FB
:401CC000C2002A498A18128C002439E00C1FE4B2022C0CD804394C006418650084002018C100691808312148411804310AE084002018C4001D480419A468480041184800E6
:401D00002A382118002A02D14A88002418E0012A14D18A88002413E00022012410E0002201240DE0002201240AE00022012407E00022012404E00022012401E00022012480
:401D4000012C10D0002A0BD001A802818380089B01930022002111F007F9002802D102E0132400E00124200005B030BD84830100F0B583B004006D4B1B68002B00D1CFE002
:401D800003886A4613800023019393708389182B1CD10023D3700389012B00D0A7E043681B78002B02D0012B08D0A2E0604A137801218B4313709825FF359FE05C4A1378E0
:401DC00001218B431370CC256D0097E0162B1DD1143B6A46D3700389012B00D08BE043681B78002B02D0012B08D086E0504A137801218B4313709A25FF357FE04C4A137887
:401E000001218B431370CD256D0077E01A2B0CD1163B6A46D370031D0193454A137801218B4313709C25FF3568E01B2B08D1173B6A46D37001000020FFF73AFE05005DE0A0
:401E40001D2B0CD1183B6A46D370031D0193384A137801218B4313709C25FF354EE0002B0CD106336A46D370031D0193304A137801218B4313709C25FF353FE0002B2DD103
:401E800006336A46D37001000020FFF711FE050034E0A189720092195300264AD3181A8891420BD16A46D770221D0192204802780125AA43027001209C25FF355B8899426D
:401EC00007D16B46DF7021000020FFF7F1FD050001200137FFB20136F6B203E00020002507270026012E09D80028D2D006E0002504E0002502E0002500E000250C4B1B7897
:401F0000DB070FD4201D40232200002111F05DF8041E08D1054B1B6869462800984702E0002400E00024200003B0F0BD6C24002017370020AC83010070B588B001AC20809D
:401F40001D00002962D1082A62D8042A08D18B005918CE000836344B9E190436002426E0062A08D18B005918CE0014362E4B9E19043600241BE0D31FDBB2012B14D8D41FA3
:401F800088004018C3002848C3181B799C420DDA8B005918CB00C3189E6853009A1853002A3BF618002402E0012400E00124002C36D13388002B2DD07388013B9A00D31865
:401FC0009A001A4B9A1813695868FFF797FBC3070ED5174B1B78022B1ED1338805A90B810C9B05938D8001980FF018FD040017E0338802A8038185800C9B02930023002256
:40200000002110F0E2FF002809D109E0012407E0012405E0132403E00424FF3400E00124200008B070BDC04684830100F47C01000E370020EE235B00024AD3585B68012271
:402040001A707047F47C01007047C046014B18607047C04670240020F0B587B00D00160001281BD8002815D11000FFF747FB04000190B01CFFF742FB043CA4B2194B9C42DF
:402080000ED803280ED9019B83420DD3042D0DD9012410E001290CD901240CE001240AE0012408E0012406E0012404E02F27002401E031270024002C10D1002F0BD003A8D2
:4020C00007818580039600230022002110F07DFF002802D102E0132400E00124200007B0F0BDC046FC3F000010B584B0012809D8002803D1042907D901240AE0012906D9D6
:40210000012406E0012404E02F23002401E031230024002C0FD1002B0AD001A80381818001920022002110F01FFF002802D102E0132400E00124200004B010BD00B585B0E5
:4021400001280DD100290DD101A832310181828001930022002110F007FF002804D104E0012002E0012000E0012005B000BDC04630B583B00400204B1B68002B35D0838920
:40218000322B01D02F2B32D123886A461380201D40232200002110F018FF051E1FD1A389322B12D1313B6A469370002301936068FFF7A4FAC30702D58120800000E00F4802
:4021C0000D4B1B686946984709E000236A46937004340194084B1B68694609489847094A137801218B43137002E0002500E00025280003B030BDC04670240020050200004F
:40220000060200001737002030B587B001AC208014001D00012917D1012A17D1F9239B000F4AD3585868FFF769FAC30710D50D4B1B78022B0FD103A92F330B8103958C8030
:4022400001980FF0EBFB08E0012006E0012004E08020400001E00420FF3007B030BDC046F47C01000E3700207047C0467047C04600B585B008280FD840000A4B181843884D
:4022800001A803818180019200230022002110F09CFE002802D102E0012000E0012005B000BDC046C083010000B585B008280ED84000094B1818438801A803818180019252
:4022C0000022002110F050FE002802D102E0012000E0012005B000BDC08301007047C04610B58389362B13D1194B1A4AD358DB0207D5041D402302000021200010F065FEEF
:4023000000E00620144A137801218B4313701EE0352B1BD1041D0B3302000021200010F054FE8423DB000B4AD3585A680B4B1A60D3781B0292780A4C13430733238001214C
:40234000A170054A13788B43137000E0002010BD14040000F47C010017370020183700207424002010B543681B89352B0DD1037A012B05D101200FF063FB0022034B1A80DD
:40238000034A137801218B43137010BD742400201737002043681A89352A1BD1427A012A13D11A680C4B1A60D3781B029278134307339BB2094A13800822FF32934201D9E9
:4023C000064B1A800122054B9A70054A137801218B4313707047C0461837002074240020173700207047C04610B5084B18780DF063FE002802D005E002F0D6F8044B1B7892
:40240000022BF9D0FFF7C8F810BDC046143700200E370020F0B585B006000C001500154B154AD3585868FFF769F9C3071ED58423DB00114AD3585F6822003100380000F043
:4024400074FF01A98C80019735230B810B4A13785078000218430FF0E1FA002801D12C8005E000232B800120404200E0042005B0F0BDC04634040000F47C0100143700205C
:40248000F8B507000D0016009A00D3185C001DE002F08AF8114B9B78012B13D10F4B00229A701A88AA4209D20D4B1968380000F03CFF0A4B1B88338000240AE000233380BA
:4024C000062406E0012000F0D3F8013C002CDFD1103402F069F82000F8BDC0467424002018370020002070470020704730B5C5B004000023439342933D4B984272D800298F
:4025000070D08022520002A800F00FFF394B9C4201D9394B00E0394B0093FF230193384B6A461A603749384A1160C0461B681B0F1B07F0221206934204D1314B1B68FF2269
:4025400013400DE02E4B1B681B0F1B07A0221206934204D02A4B1B68FF22134000E000234393439B002B3FD100F0BFFB0500FFF7B9FF4290439B002B25D1244A0092009A2A
:402580002404144300941E4A6946116020481E490860C0461268120F1207F02109068A4204D1174B1B68FF2213400BE0144A1268120F1207A02109068A4203D0104B1B682B
:4025C000FF2213404393429B002B07D1FFF78CFF4290429B002B01D0429B4393280000F088FB01E004234393439845B030BDC046FF030000FF010000B6D70001B6D7000079
:40260000080010400400008004001040B6D800000500008010B5040000F067FBE304E022920313401900054C2368054A1A400B001343236000F05DFB10BDC04600010B4082
:40264000FFFFC7FF024B1B68012018407047C0460C002E4001BE7047034A13681B041B0C02490B43136070470CED00E00400FA0510B5040006E0084B586800F02DFB074BC7
:402680009C46644480231B029C42F4D8024B9868604300F021FB10BD682000200080FFFF10B5034B1B7B584300F016FB10BDC04668200020F0B557464E46C0B483B00400F6
:4026C00000F013FB0190E71E2D2F74D83F4B1B78DBB29C4208D83E4B1B78DBB29A463D4B1B78DBB2994631E03B4B1B78DBB29C4208D83A4B1B78DBB29A46394B1B78DBB288
:40270000994623E0374B1B78DBB29C4208D8364B1B78DBB29A46354B1B78DBB2994615E0334B1B78DBB29C4208D8324B1B78DBB29A46314B1B78DBB2994607E02F4B1B781A
:40274000DBB29A462E4B1B78DBB299462D4BDE5D2F2E09D92A2C07D919222B4B1A60052000F0BAFA192503E0274B1D683F231D40B54206D9234BDA5D234B1A60052000F009
:40278000ABFA1F4B9C4664442378DBB21F4A13601F4B52461A601F4B4A461A600520FFF77FFFB5420AD2174BDA5D174B1A60052000F092FA02E00020FFF74CFF019800F03E
:4027C00098FA03B00CBC91469A46F0BD40F3FF0F41F3FF0F42F3FF0F43F3FF0F44F3FF0F45F3FF0F46F3FF0F47F3FF0F48F3FF0F49F3FF0F4AF3FF0F4BF3FF0F4CF3FF0FCD
:402800004DF3FF0FDC8301002CFF0B4028FF0B401CFF0B4020FF0B4010B504000F4A116801230B4313600E4A0E4B1A600E4A1368802109020B431360002809D100200CE039
:402840000120FFF72DFFFFF7FDFE002804D1013C002CF5D1102000E0002010BD60F02E400220000078002E4010002E4010B500F03CFA044A136804218B43136030BF00F0BE
:4028800038FA10BD10ED00E030B583B000F02DFA04000E4A13685B005B0813600C4B1B889BB20C4A13600C4A116804230B4313600A4D2B6801930220FFF7ACFE30BF019B73
:4028C0002B60200000F015FA03B030BD00000B4052F2FF0F0C000B4010ED00E000010B40034B1868C0231B02184000D00120704700010B4010B50D4B1A6801218A431A604F
:402900001A68022082431A60094A10683024A043203C204310601068093CA043014311601A68802109060A431A6010BD00F02E4000FF2E4070B51D4B1B6801241C400028E4
:4029400002D0012816D02BE0184B19680122914319601968022081431960154B19682E3081432038014319601968093881430A431A6018E00D4B1A6802218A431A600C4A40
:4029800010680725A84301431160116830208143103801431160196801220A431A6002E00020FFF757FE200070BDC04600F02E4000FF2E4010B500F098F9044A1368C02183
:4029C00009020B43136000F094F910BD00010B4010B500F08AF908490A68084B1A408024E40122430A600A6813408022120213430B6000F07EF910BD00010B40FF3FFFFF7D
:402A000010B50400022802D90020FFF723FE044B1868E4000134E0400123184010BDC04610020B4070B504000D00022802D90020FFF710FE2000FFF7E3FF00280AD1064A33
:402A40001368E40003210800A04083430D40A5401D43156070BDC0460C020B4070B504000D00012802D90020FFF7F4FD2000FFF7C7FF002809D105490B68E4000234012275
:402A8000A2409343A5401D430D6070BD0C020B4010B504000C4A136803431360C30704D50020FFF7ADFF0028FAD0E30504D50120FFF7A6FF0028FAD0E30304D50220FFF736
:402AC0009FFF0028FAD010BD10020B4010B50400FFF706FF002818D10C4A1368A3431360E30704D50020FFF78BFF0028FAD1E30504D50120FFF784FF0028FAD1E30304D5BA
:402B00000220FFF77DFF0028FAD110BD10020B4070B505000C00012802D90020FFF79AFD0D4B1B689B0F01D1C92000E05D20FFF7B7FD0A490B682D01094AAA409343AC40C3
:402B40001C430C60044B1B689B0F01D1432000E01F20FFF7A5FD70BD0C020B4008020B40FFFF0000024B1868024B18407047C04610020B400404040070B5050000F0B5F8EA
:402B80000400FFF7ADFE002803D0FFF721FF012100E0002108482840084A1568084B2B40184310601368012901D1FFF703FF200000F09FF870BDC0460404040010020B407A
:402BC000FBFBFBFF054A1168054B184008431060024B1A68024B1A42FAD1704710020B4008080800000000000000000000000000000000000000000000000000000000004B
:402C0000FEB5494652465B460EB407462E4909688A462E4A12682E48022100F0D5F903002A480068C0182A4900F0CEF906001F3EB346234A126801219140C9430C000125B6
:402C4000002600F052F8814651460B6823400B605846043000F040F83800F040284090400B68234003430B60584600F035F80136072EF1D900200130012090400B6823402B
:402C800003430B605846063000F026F8484600F030F8C046C046C0460EBC894692469B46FEBDC046C046C046C046C046C046C046C046C046C046C046C046C046C046C04662
:402CC0009819002094190020901900207820002000960000000000000230800803D00138FDD1C046C046C0467047EFF3108072B6704780F310887047F0B557464E4645464E
:402D0000E0B4C0B080460E0017008A18204B9A422FD80B0A99461C0200239C46002522E0B4420CD3BD420AD24246515D6A46D1542278D2B28A4200D00120013502E022782E
:402D40006946CA540134013301E000200023FF2BE6D9002804D069464846FFF7C7FB844601239A46D144BD4205D26346002BECD001E001239C466346012B02D901235B427E
:402D80009C46604640B01CBC90469946A246F0BDFFFF03000160704701607047324B1A781202324B1B781A43314B1B781B02314909780B4330498B4201D1072A06D0D4212F
:402DC00009018B4206D1042A04D102E02B4B042200E02A4B2A490B602A4B1A602A4B1B781B022A4A1278134380229201934202D0002B02D002E0264B00E0254B254A1360AB
:402E0000254B1B781B02254A12781343244A934205D0244A934204D0052B05D103E0224B02E0214B00E0204B204A1360204B1B681B09204A1268AA2A15D1012B13D9164BFF
:402E40001B780E2B0FD11C4B1B781B021B4A127813431B4A13601B4B1B781B021A4A127813431A4A1360704759F1FF0F58F1FF0F5FF1FF0F5EF1FF0F580B0000580D000058
:402E80006C002E4074002E405BF1FF0F5AF1FF0F0220000078002E405DF1FF0F5CF1FF0F0F0F000005050000050F000080002E40EC0F00F0E00F00F06DF2FF0F6CF2FF0F17
:402EC00084002E406FF2FF0F6EF2FF0F94002E4010B5FFF7E5FB10BD10B5FFF7C9FB10BD10B500F04FF810BD10B500F053F810BD10B500F04FF8034800F02EF8032000F047
:402F000031F810BDC12F000010B5024800F04AF810BDC046C12F000000487047020200002B2070472B2070472B2070472B2070472B2070472B2070472B2070472B20704794
:402F40002B2070472B2070472B2070477047C0460120704701207047014B18677047C0460000002010B50400FFF7BFFE044A1368C0218B43A4011C431460FFF7BAFE10BD4F
:402F80000CE400E080225201014B1A607047C04600E100E080225201014B1A607047C04680E100E010B50400FFF7F4FF2000FFF7D3FF0320FFF7D6FFFFF7E4FF10BDC0461B
:402FC00010B514F00FFC10BD002243088B4274D303098B425FD3030A8B4244D3030B8B4228D3030C8B420DD3FF22090212BA030C8B4202D31212090265D0030B8B4219D34D
:4030000000E0090AC30B8B4201D3CB03C01A5241830B8B4201D38B03C01A5241430B8B4201D34B03C01A5241030B8B4201D30B03C01A5241C30A8B4201D3CB02C01A52414D
:40304000830A8B4201D38B02C01A5241430A8B4201D34B02C01A5241030A8B4201D30B02C01A5241CDD2C3098B4201D3CB01C01A524183098B4201D38B01C01A52414309A1
:403080008B4201D34B01C01A524103098B4201D30B01C01A5241C3088B4201D3CB00C01A524183088B4201D38B00C01A524143088B4201D34B00C01A5241411A00D20146B0
:4030C000524110467047FFE701B5002000F0F0F802BDC0460029F7D076E7704703460B437FD4002243088B4274D303098B425FD3030A8B4244D3030B8B4228D3030C8B42BA
:403100000DD3FF22090212BA030C8B4202D31212090265D0030B8B4219D300E0090AC30B8B4201D3CB03C01A5241830B8B4201D38B03C01A5241430B8B4201D34B03C01AFD
:403140005241030B8B4201D30B03C01A5241C30A8B4201D3CB02C01A5241830A8B4201D38B02C01A5241430A8B4201D34B02C01A5241030A8B4201D30B02C01A5241CDD253
:40318000C3098B4201D3CB01C01A524183098B4201D38B01C01A524143098B4201D34B01C01A524103098B4201D30B01C01A5241C3088B4201D3CB00C01A524183088B427B
:4031C00001D38B00C01A524143088B4201D34B00C01A5241411A00D201465241104670475DE0CA0F00D04942031000D34042534000229C4603098B422DD3030A8B4212D343
:40320000FC22890112BA030A8B420CD3890192118B4208D3890192118B4204D389013AD0921100E08909C3098B4201D3CB01C01A524183098B4201D38B01C01A52414309FA
:403240008B4201D34B01C01A524103098B4201D30B01C01A5241C3088B4201D3CB00C01A524183088B4201D38B00C01A5241D9D243088B4201D34B00C01A5241411A00D28A
:403280000146634652415B10104601D34042002B00D54942704763465B1000D3404201B5002000F005F802BD0029F8D016E770477047C046014B18687047C04634240020E4
:4032C0000E4B70B500251E000D4CE41AA410A54204D0AB00F35898470135F8E715F0E2F8084B00251E00084CE41AA410A54204D0AB00F35898470135F8E770BDB0840100DB
:40330000B0840100B0840100B884010030B50024A24208D0035D651C0C5DA34201D0181B02E02C00F4E7002030BD002310B59A4203D0CC5CC4540133F9E710BD03008218A3
:40334000934202D019700133FAE770470FB40B4B13B51C68002C05D0A369002B02D1200000F044FA05AB049AA1682000019300F009FC16BC08BC04B01847C046342400206C
:4033800070B505000E00002804D08369002B01D100F02CFAAB69AC68002B02D1280000F025FA254B9C4201D16C6808E0234B9C4201D1AC6803E0224B9C4200D1EC68A389F0
:4033C0001B0702D52369002B11D12100280000F0A3F800280BD0012040422BE0013B0136A360002B08DB23685A1C226019703178A3680029F2D10BE0A269934201DB0A29AC
:40340000F1D12200280000F02FF8431CEFD1E2E7013BA360002B08DA22000A31280000F023F8431CD7D00A2004E00A2023685A1C2260187070BDC0461084010030840100DF
:403440005084010010B5034B01001868FFF798FF10BDC046342400200023C25C0133002AFBD1581E70470000F8B505000F001400002804D08369002B01D100F0B7F9234BAB
:403480009C4201D16C6808E0214B9C4201D1AC6803E0204B9C4200D1EC68A369A360A3891B070AD52369002B07D023682269FEB2981A636998420FDB08E02100280000F02C
:4034C0002BF80028F1D0012040421DE02100280000F01EF90028F6D1A3680130013BA36023685A1C22601F706369984205D0A3893000DB0708D50A2E06D12100280000F076
:4035000007F90028DFD13000F8BDC046108401003084010050840100364B70B51D6806000C00002D05D0AB69002B02D1280000F05DF9314B9C4201D16C6808E02F4B9C42AA
:4035400001D1AC6803E02E4B9C4200D1EC680C22A35E9AB2110723D4D10607D409220120326037321343A381404242E0530713D5616B002908D023004433994202D03000DF
:4035800000F02CFA002363632422A3899343A38100236360236923600822A3891343A3812369002B0BD1A0238022A1899B0092000B40934203D02100300000F0D1F901236A
:4035C000A289134005D00023A36063695B42A36103E0920700D46369A36000202369834207D10C22A35E1A0603D540221343A381013870BD34240020108401003084010052
:4036000050840100F7B58A8905000C0013075AD44B68002B02DC0B6C002B19DDE76A002F16D000232E682B6080235B011A4001D0606D14E00123216A2800B847431C0ED1A0
:403640002B68002B0BD01D2B01D0162B02D12E6000205AE04022A3891343A38155E0A3895B0706D56368C01A636B002B01D0236CC01A00230200216A2800E76AB847A389CA
:40368000421C06D129681D293AD8204ACA40D20736D50022626022692260DB0405D5431C02D12B68002B00D16065616B2E600029CED023004433994202D0280000F08EF95D
:4036C0000020606321E00F69002FC1D00B680F60DB1B01930023920700D14B69A36003E0019B3F181B1A0193019B002BB0DD019B3A00216A2800A66AB0470028F0DCA3895B
:40370000402201201343A3814042FEBD010040200B6970B505000C00002B01D100201CE0002804D08369002B01D100F05FF80B4B9C4201D16C6808E0094B9C4201D1AC6825
:4037400003E0084B9C4200D1EC680C22A35E002BE4D021002800FFF755FF70BD10840100308401005084010010B5024900F0B0F810BDC04611370000002310B50400036011
:403780004360836081814366C281036143618361190008225C30FFF7D1FD054B24626362044BA362044BE362044B236310BDC0460141000029410000614100008D410000CF
:4037C00070B568254B1E5D430E002900743100F051F9041E08D000212A00016046600C30A0606832FFF7AAFD200070BD836913B50400002B28D18364C3640365134B144ADE
:403800001B6882620193984201D101238361200000F020F86060200000F01CF8A060200000F018F80022E06004216068FFF7A4FF01220921A068FFF79FFF02221221E0683D
:40384000FFF79AFF0123A36113BDC0460C84010069370000F8B51D4B06001D68AB69002B02D12800FFF7C2FF4835AC686B68013B05D40C22A75E002F10D06834F7E72B6831
:40388000002B01D02D68F0E704213000FFF798FF28600028F6D10C23336016E0012320005B42E3810233A38167662760A760676027616761A7615C3008223900FFF73EFD57
:4038C00020006763A763A764E764F8BD0C840100F7B504000700002601914834002C16D06368A5680093009B013B00930DD4AB89012B08D90E22AB5E013304D029003800A2
:40390000019B984706436835EDE72468E6E73000FEBD000070B50E001D000E23C95E90B01400002906DA00232B60B3891B060FD540230FE001AA00F055FC0028F3DBF023D3
:40394000029A1B021340054A9B185A4253412B608023DB000020236010B070BD00E0FFFFF7B502268B8905000C00334210D101AB6A46FFF7CFFF00990700280000F07AF8F9
:4039800000280CD10C22A35E9A0523D43343A3812300473323602361012363611AE080220D4BAB62A38920601343A381009B20616361019B002B0AD00E23E15E280000F0E7
:4039C00023FC002803D00122A3891343A381A3891F43A781F7BDC0466937000070B50500002944D00C1F2368002B00DAE418280000F03BFC1E4A13681100002B02D16360B2
:403A0000146031E0A3420DD92268A018834203D118685B688218226063600C6024E0A24203D813005A68002AF9D11E689819A0420BD12168711858181960824214D1106830
:403A40005268411819605A600EE0A04202D90C232B6009E021686018824203D1106852684118216062605C60280000F0FFFB70BDC8350020032370B5CD1C9D4308350600DC
:403A80000C2D01D20C2501E0002D01DBA94202D90C23336048E0300000F0E7FB234B1C681A002100002913D00B685B1B0DD40B2B02D90B60CC181EE08C4202D163681360ED
:403AC0001AE04B6863600C0016E00C004968E9E7174C2368002B03D1300000F0FFFA20602900300000F0FAFA431C18D00323C41C9C43A0420DD12560300000F0B7FB2000A1
:403B000007220B30231D9043C31A0ED05A42E2500BE0211A300000F0E1FA431CEBD10C233000336000F0A2FB002070BDC8350020C4350020936810B5013B9360002B05DA4E
:403B40009469A34208DBCBB20A2B05D01368581C10601970C8B201E0FFF786FC10BDF8B506000F001400D518AC4208D021783A003000FFF7DFFF0134431CF5D100E00020B7
:403B8000F8BD0000F0B59FB006000F0002920593002804D08369002B01D1FFF727FE7F4B9F4201D1776808E07D4B9F4201D1B76803E07C4B9F4200D1F768BB891B070AD53D
:403BC0003B69002B07D0002306AD6B6120336B761033AB763DE039003000FFF79DFC0028F1D001204042D6E0059A111D12680591002A00DA7FE00992013423782E2B00D1B9
:403C00008DE021780322684800F024FB002807D0654B2A68C01A4023834013432B6001342178631C062261480293297600F012FB002800D19DE05E4B002B00D090E0072276
:403C4000059B07339343083305936B69039A9B186B61029C2378002B04D1029BE31A049312D003E0252BF8D00134F3E7049B029A39003000FFF773FF431C00D186E06A6906
:403C8000049B944663446B612378002B7ED00122002352426A6002A95432521801342B60EB60AB601370AB6521780522414800F0D1FA002808D03F4B2A68C01A012383403B
:403CC00013432B600134EFE72B68DA0604D55322202102A8121811701A0704D553222B2102A81218117022782A2A00D17CE7099B00200A2105E05242EA60022213432B6098
:403D00007AE72278303A092A04D84B4301349B180120F6E7002800D16FE709936DE763782A2B0AD1059B02341A1D1B680592002B01DA01235B42079363E700230A201A0018
:403D400001346B6021783039092904D84243013452180123F6E7002B00D152E7079250E705AB00933A00144B2900300000E000BF07E005AB00933A000F4B2900300000F02E
:403D80008BF80390039B013300D05EE7BB895B0600D526E70B981FB0F0BDC046108401003084010050840100768401007A84010000000000708401005F3B0000F7B51700EF
:403DC00001938A680B6900900C00934200DA130022003B6043321278002A01D001333B6023689B0602D53B6802333B60062523681D401ED0230043331B785A1E934122686C
:403E000092061CD53020E1184331087021005A1C45310978A2184332023311700FE022000123193201990098089EB047431C0ED00135E3683A689B1A9D42F0DBDAE7220060
:403E4000019943320098089DA847431C02D10120404220E006232068E1683A6803400025042B03D18D1AEB43DB171D40A3682269934201DD9B1AED180027BD420AD02200E2
:403E800001231A3201990098089EB047431CDED00137F2E70020FEBDF0B58BB006920A0043320793059004920A7E0C00109B6E2A00D1ABE011D8632A22D009D8002A00D197
:403EC000B5E0582A00D0C5E045310A70814A4FE0642A1DD0692A1BD0BCE0732A00D1AAE009D86F2A29D0702A00D0B3E0202209680A43226037E0752A1FD0782A33D0A9E0FA
:403F00000E001A684236111D196013683370A4E021681A68080606D4490604D5111D19600023D55E02E0111D19601568002D3BDA2D23049A6D42137036E021681A68080681
:403F400006D4490604D51568111D1960ADB202E0111D196015685F4B227E039308276F2A1DD00A271BE022007821453211705A4A19680392081D226818600D68100602D400
:403F8000500600D5ADB2D30702D520231A4322601027002D03D1202322689A4322602300002243331A7002E00A274A4B03936368A360002B09DB0422216891432160002DAF
:403FC00005D1049E002B11D07BE0002D79D0049E28003900FFF77EF8039B013E5B5C280033703900FEF7F0FF051EF1D1082F09D12368DB0706D563682269934202DC3023E7
:40400000013E3370049B9B1B23612BE009681A68080607D4490605D5111D19601368A28A1A8004E0111D1960136862691A600023049E236116E01A68111D1960166800217B
:404040006268300000F006F9002801D0801B6060636803E0260042363270012323610023049A1370079B09AA00932100069B0598FFF7A4FE431C02D10120404227E02369E2
:40408000320006990598079DA847431CF4D0236800259B070FD4099BE068984217DA180015E022000123193206990598079EB047431CE1D00135E368099A9B1A9D42F0DBE7
:4040C000E9E72600039B42361B7833708EE70BB0F0BDC0468184010092840100002370B5064C050008002360FCF74AFB431C03D12368002B00D02B6070BDC0461C37002032
:4041000070B50C000E25495F00F0B2F8002803DB636D1B18636503E0A289024B1340A38170BDC046FFEFFFFFF8B51F008B8905000C001600DB0505D50E23C95E00220223B7
:4041400000F074F8A289054B28001340A38132000E23E15E3B0000F01FF8F8BDFFEFFFFF70B50C000E25495F00F060F8A389421C03D1054A1340A38104E08022520113439D
:40418000A381606570BDC046FFEFFFFF10B50E23C95E00F015F810BD70B50500080011000022064C22601A00FCF768FA431C03D12368002B00D02B6070BDC0461C3700207E
:4041C000002370B5064C05000800236000F064F8431C03D12368002B00D02B6070BDC0461C370020002370B5064C050008001100236000F059F8431C03D12368002B00D02A
:404200002B6070BD1C370020002370B5064C05000800236000F050F8431C03D12368002B00D02B6070BDC0461C37002070B50500080011000022064C22601A0000F044F888
:40424000431C03D12368002B00D02B6070BDC0461C370020C9B28218904204D003788B4202D00130F8E70020704770477047000070B50500080011000022064C22601A00D7
:4042800000F02AF8431C03D12368002B00D02B6070BDC0461C37002058220120014B40421A6070471C37002058220120014B40421A6070471C3700205822024B00201A6087
:4042C0007047C0461C37002058220120014B40421A6070471C37002058220120014B40421A6070471C370020009D0100E8000000F8B5054636480F460078002802D002248B
:404300002046F8BD002F60D000243249002D16D02A89D0070DD02868002808D003881B3BE12B04D24088FB2801D81B2801D2012409E0900707D56868002804D1F7E7002071
:40434000088108604860002CDAD122482E8906811F481B21801D01804180042101711C490020891C0870F00705D019480622801D2968FEF7DAFF1749B00703D56A681448FC
:4043800012788270124D0E46AD1D281F0D60486002F092FB284602F081FB30890FF064FF30890FF029F928880FF02CF9308910F0D7F80346103300F041FC1F21C0188901A1
:4043C00040183880A91F88809AE7012498E700007C20002084240020FFB585B0002768460E9D07734F481C460078002802D0082009B0F0BD10990F9801900095029105A8A2
:4044000007C800F069FC0028F2D16946264603AB84460873002C19D0002115E08A00B75A082F09D990198078002805D0083FB7521878401C187005E0002914D00027B752FC
:4044400090198770491CC9B2A942E7D360460028CED10F98002809D0109901F031FE002804D00120C4E701208446EFE702F090FA2D48002141608160059901602188818073
:40448000022D07D3A1798171A17AC171A1890181218A418100211EE0481C19E082008B00A75AE65ABE46BE4211D26F463E80B4461E190296B678BE7001967646E65217197D
:4044C000029EBB78B3706646A652019EBE70401CA842E3D3491CA942DED3134822460C3000906846037B0799069800F07DFC0028B8D168460B4C007B60700B480C3002F074
:4045000077FA0028AED1084907480C3108F090FF0028A7D108F0B6FF0028A3D10121217066E700007C2000207824002010B508F09DFF02F02DFA02F083FA084C20780028A9
:4045400001D000F0E1FC00F0F5FCFF2001F066FCFF2001F073FC0020207010BD7C20002010B508F083FF02F013FA02F069FA00F0CBFC074908460C3808F05AFF002806D116
:4045800008F080FF002802D1024A0121117010BD842400207C20002010B502F0E3F910BD10B502F0F5F910BD10B500F0A3FC10BD10B50749044609780220002907D12046ED
:4045C00002F054FA002802D120460CF01BF810BD2022002010B502F0E3F910BD1CB5FF206946087100200870FFF7DAFF6A4601A9062001F0CDFA6946002008561CBD0000BF
:4046000038B504460120002C20D0617801291DD800290BD0FF25E535FFF7C2FF0C4828180088C0B22070072803D00EE0FF25CD35F2E7002069460870684601F0D3FB6946A5
:404640000878012801D108202070002038BD000000102E40F8B504460120002C26D06178012902D92278092A20D8002905D0FF25E5352078092803D004E0FF25CD35F8E7D6
:4046800008202070FFF78CFF2078114F114E08280DD0002000F028FA70780128207810D00D4969180880FE2070700020F8BD012000F01AFA0720B881054920318880012023
:4046C000F2E7B8810248217820308180EBE70000C0112E401821002000102E400121002807D005494A8842804A784270097801700021084670470000AE200020F8B5044618
:404700000120002C52D0217808294FD2617804294CD26088102166283DD800283BD065882348662D45801BD801270026BF020A2D33D90A212846FEF7CDFCC0B2072800D946
:4047400007200A2141438D4204D9691ACEB21F2E00D31F264101314339431648FEF71AFB134D60786870217829701349496A8A0781001148920F11432430FEF70DFB6878D3
:4047800000280CD0401E022181401820FEF78CFDC000083804E06180C1E72946DCE7B82081B204482030FEF7F7FA0020F8BD0000AE200020B8102E4040F02E4070B50546CA
:4047C0000124FFF7EDFE002D04D00821284610F087FD0024204670BDF7B582B069460BF0E3FC050041D1FFF7DBFE6846008804F001F8040038D004F09EFB002834D0FF2785
:404800008820493700593E46002805D01849097B890601D5878AC68A204602F085FC01280DD006F0C7FC50210A5B617903F018FA283081B233463A46204606F0DBF9204664
:404840004030C28A04998A4200D9C182C18AA07805F07EFB0398012801D901200390A078039905F07BFC00E00625284605B0F0BDEC280020F8B50E4669460BF095FC050064
:4048800033D1FFF78DFE6846008803F0B3FF040019D004F050FB002826D01548F121007B0840C00621D520464030418A008A491C41430804C00C0F4986420CD32682207934
:4048C000072802D011E006250FE001200870204603F082FB09E0002E07D100200870A078002104F0E3FE00E002252846F8BD0000EC28002018210020F8B5012406460D4680
:40490000002925D013480078002808D0FFF748FE694630460BF048FC040003D018E000200880F8BD6846008803F064FF06000ED004F001FB00280AD00748F121007B084034
:40494000C00602D5308A288002E0022400E006242046F8BD18210020EC2800200121002808D0FF218231C1800321018006224280818000210846704710B501F011FA0128A8
:4049800001D101F013FA10BDF0B589B015460F4606460124FFF704FE002E20D0002F1ED0002D1CD0102239466846FEF7BEFC1022314604A8FEF7B9FC1021684610F0B4FE71
:4049C000102104A810F0B0FE2B46102204A9684606F0A4FB1021284610F0A6FE0024204609B0F0BD38B5FEF797FA02F071F803211948FEF7D1F90120FEF76AFA1648303814
:404A0000406A04218007800F084381B2009012480C38FEF7C1F91148016802221143009189B2FEF7B9F9B8210D48FEF7B5F90C48032109021438FEF7AFF9094C5321D83C6F
:404A40002046FEF7A9F907210648FEF7A5F954212046FEF7A1F938BD70F02E40001F2E40D8102E4098142E407CB5FF24069E079D00280BD0002909D0002A07D0002D05D062
:404A8000002E03D0002B01D01B2B01D9012406E00096019506F071FB042800D1002420467CBD7CB5FF24069E079D00280BD0002909D0002A07D0002E05D0002D03D0002BB0
:404AC00001D01B2B01D901240BE00096019506F00DFB042802D0052802D002E0292400E0002420467CBD000010B50A4A141D012808D009491046FEF74FF908492046FEF7E0
:404B00004BF910BD04491046891CFEF745F90349491DF3E788002E4031D000003AE3000010B5064A012805D01921C9021046FEF733F910BD1D21C902F8E7000090002E4007
:404B400001460120002903D0024A002012880A80704700003422002070B5044601250DF055FF00281CD10F4914204968604340182038C1890C48814208D0C01E814205D0DA
:404B8000401C814202D0401C814209D1E008074B6407195C640F0122A240914319540025284670BDAC22002003280000A42F0020014610B50120272903D8084601F092FF44
:404BC000002010BD10B50121002808D08278072A05D80278272A02D801F092FF0021084610BD0000014608B50120002909D0002003460090064A074800F0D8FA002801D0FC
:404C0000022008BD034A0121521E117008BD000011D50000BD21002010B5074C02202178012905D1607800F015FB002801D0022010BD0021217010BDBC210020134A108880
:404C4000810703D08107890F401A001D11791030484381B25088820703D08207920F801A001D800040180A494030098980B2CA0701D0503080B2890706D504495422091F9C
:404C800009785143081880B270470000822000208424002010B501F043FF0BF035FA10BD70B504460120002C12D02368002B0FD0616800290CD0074D062228892081184630
:404CC0002968FEF732FB6968606809780170002070BD000084240020FFB58446384F1C460020BB883F78054602460646002F11D100290ED0029999420BD36146002908D0ED
:404D0000002C06D00A99002906D02E4B0B99994202D2012004B0F0BD002144E0AB001F19BF78002F3BD0E35A002B38D07B43591889B22B0000F04AF8050410161C25310010
:404D4000A7782388BC46FF27233BEB37BB4222D26346032B1FD322E0A388002B1FD0302B19D31CE02389002B19D0282B13D316E0A289002A13D01346134F233BBB420AD264
:404D80000DE0268A002A0AD033460F4F233BBB4201D2964203D901200EE0002001E000280AD16D1CEDB2099B9D42B7D31C2463435B1802998B42ACD89642AAD8AAE7000021
:404DC0007C20002079020000BAFF000030B47446641E2578641CAB4200D21D46635D5B00E31830BC18470000FFB583B0002469460C801F4606468C80002806D0059800283D
:404E000003D004983043800701D0012466E0002FFBD03449049809888842F6D3FEF774F8FEF762F800F06EFC002855D100F0D8FD002851D12C49084601F076F905042D0CCA
:404E40004AD12A480499066081800021C18007810C98007AC00704D0684601F0B2FD040007D10C98007A800703D501A801F0B2FD0446BF1DFEB2002C20D13146059800F017
:404E800085F804001AD10FF079FB040016D16A461088928808368518144AF1B29088D288AEB29319984207D3401B801A80B201F02DFC050007D000E0FF25012400F0BAFACE
:404EC000002D04D008E0F8B200F044F9F6E700F0DDFA07490120087000F026FC204607B0F0BD00008020002079500000902400208820002010B503480078012801D101F0F0
:404F0000A7FA10BD8820002010B5FF2400F006FE00280AD100F00CFC002806D10448007A801DC0B200F02EF90024204610BD00009024002010B500F00DFE01F027F9044930
:404F4000002008608880C88008810249087010BD902400208820002070B5084B0446DA889E8803205518B54206D8186880182060D8884018D880002070BD0000902400202C
:404F8000014800897047000090240020F0B587B007460D4600208900009006916846FFF7DBFF844600285DD1304800990160002117E02E4B88001A680629115406D22C4CB9
:404FC0000419667882185670628805E0C419203CA67A8218567022891B68C018491C4280C9B2A942E5D300242DE0601CC2B2059025E01E4FA30039689600581840887118C0
:40500000039604904E88B04217D938466F46FE80B6464F786E4677710297049F4F800168039F5E18767879184E700168764659184E800068029F18184770521CD2B2AA4280
:40504000D7D30598C4B2AC42CFD36046002809D168460699FFF780FF8446002802D1054900980860604607B0F0BD00008C200020D8840100902000207047000010B50028BF
:4050800009D005494A68002A05D0011F08788000105801F0E9FA10BD8C20002010B50446FFF76EFFC0B2801DA0420CD307484068002808D0A100405801F048FA002801D085
:4050C0000470001D10BD002010BD00008C200020F8B516460D460446FFF752FFC0B2801DA04203D20020C0430090F8BDB2B2E9B2684601F051FA0099481C03D0024AA000D9
:40510000526811500098F8BD8C200020F8B50746FFF736FF801DC6B20A49002005460C680DE06178002907D06188B94202D32078FFF7B4FF002804D1241D6D1CEDB2B542B2
:40514000EFD3F8BD8C20002010B5002801D0FFF795FF10BD70B506460948002504680BE06178002905D062882078121D0023FFF7AFFF241D6D1CEDB2B542F1D370BD0000F9
:405180008C200020F8B5084F064600243D6808E0287879688000085801F012FB2D1D641CE4B2B442F4D3F8BD8C200020FFB581B00A9F16000C4620D000F0F6F805460428EA
:4051C0001BD0002F0CD03846FFF7A0FF20492A0151184860002810D03A460499FEF7A5F81B4928010E504618778101980570200406D47D20C000444304E0FF2005B0F0BDB4
:405200006404640C00F0BEF80746042807D000F06FFAA0420BD800F06BFA201A03E0204600F0CCFA0020F06035720020E6E700F05FFA009000F0D8FA00980121001B0090F0
:4052400000F00CF902493A0151180098C860E6E79C240020F8B5042801D3FF20F8BD060116483418217A042903D0E068002802D017E00020F8BD00F03BFA054600F0B4FAF4
:4052800000F0A0F804280CD001010C480F18F8680021451900F0E2F80020F860284600F08DFA6068054D002801D0FFF74DFF042020720020A8516081E060DAE79C240020F5
:4052C000FEB500266A46304601232549050169180D7A042D02D0C96800291BD000211154401CC0B20428F0D300246846005D002830D01B482101081841894768056802910F
:40530000002101604160042241810272C160002E02D015E01354E3E700F054F804280ED001010F4808180190C6680021304600F095F801980021C160304600F03FFA012674
:40534000002D07D038460299A847002F02D03846FFF7FAFE641CE4B2042CC6D3FEBD00009C2400200EB5002005216A460090118150810348694600680FF091FF0EBD0000D2
:4053800094200020074A0020010189180B7A042B02D0C968002903D0401CC0B20428F3D3704700009C2400200549002002015218127A042A03D0401CC0B20428F6D3704719
:4053C0009C24002030B50A4B04200A4C00210A011219157A042D06D0D268002A03D09A4201D808461346491CC9B20429EFD330BDFFFF00009C24002070470000F8B5002576
:405400000B4F2E462801C419217A04290AD0042121723E506068002802D0FFF795FE66606681E6606D1CEDB2042DEBD3F8BD00009C24002030B50020074C054604230201F9
:4054400011190B72A5504D60401C4D81C0B2CD600428F4D330BD00009C24002030B5094C00231A011219157A042D04D0D568002906D02D18D5605B1CDBB2042BF1D330BD89
:405480002D1AF7E79C240020002070471CB5002469460C70142001902346054A05480FF003FF04480068401C00D1FF2420461CBD09550000942000203EB5124A0146FF20FB
:4054C00000230124126800290DD0012914D0042908D104206946009308814B8110460FF0DEFE80B23EBD6846009304814381694610460FF0CFFEF4E76846009304814381F7
:405500006946EBE79420002070B545890468416800890300FFF75AFC08280509091E22282628002006F006FC1EE0022908D0C8B22A4621460DF0B4FF2046FFF705FE13E0CD
:4055400002202A4621460DF0ABFF2946204600F00DF809E000200FF099FB05E02046FFF7AFFE01E0FDF7F2FC002070BD014B0022DB6818479820002070B544890568008957
:40558000022803D0032809D0FF2070BD2246094C0023A46829460120A04708E0FFF700F8241DA2B200232946022007F0F4FD002070BD000098200020704770470248002136
:4055C00041600180418070479820002070B50C46002186B016460391012802D0022859D116E003A9012007F02BFE01281BD1039D324621462846FDF798FE009528780190F7
:405600000220694608814E816846FFF7B5FF41E0214D002B686809D0049004A9022007F00FFE01281DD0022006B070BD002812D0298840182146FDF778FE288800248019B3
:4056400080B228806988091D884206D12C801348FFF792FF03E00320E6E788421AD96C6018E004986860E278A378110219430B4A698000231060E356536003231381518125
:40568000A1788170E178C1706178417021780170042028800020C7E798200020DC2400203EB515460C46022803D004280CD000203EBD0091019002206946088107484A81DA
:4056C00000680FF0ECFD07E00DF0EAFE044B0022DB6829462046984701203EBD9420002098200020014AD1609060704798200020034801688068081A0A214843000970472F
:40570000E824002010B5FDF7F3FB4C2204490548FDF70BFE03490120C870002010BD0000F4840100EC28002010B5FDF7D9FB10BD0020704770B5134C2368002B08D0207B74
:405740001149C20705D04008400020738868A08070BD88680B4AA18880B29268814203D90A4D691A091802E0814202D2411A5118A160A080A0689842EAD30FF0ADFD00F00F
:4057800013F870BDE8240020C0102E40FFFF000010B508461946FFF7A5FF10BD704710B5FFF77EFF10BD000003480021016041608160C16070470000E8240020024610B554
:4057C000FF20002A0CD0FFF7EFFF064C0321207B0843207310010A21FDF77CFC2060002010BD0000E824002000B504480A21806848430209FFF7D8FF104600BDE8240020BA
:405800000248007B8007C00F70470000E824002010B54B490868002802DA4A4B01221A70022290430860484800694549C00B4031096A0246C907C90F0A4259D0012000F050
:40584000EDFA3F480E216C30FDF7A6FA3E4820218430FDF7A1FA3C4814219C30FDF79CFA3948FF21C131A430FDF796FA3648FF212F31B030FDF790FA33483449BC30FDF723
:405880008BFA31483249AC30FDF786FA30492E48491CB430FDF780FA2B482E49B830FDF77BFA29482C49CC30FDF776FA26482B490830FDF771FA24482949A830FDF76CFA6F
:4058C000214828498830FDF767FA1F4826498C30FDF762FA1C481921C9029030FDF75CFAFDF75CFAFDF718FBC0B2022812D01FE000290BD0002101420AD011480121603051
:40590000FDF74AFA0120FDF7E7FA97E70121F2E7FF2010BD15491648FDF73EFA14481549001DFDF739FA124800210830FDF734FA54200449C043891C0870002010BD00004B
:4059400000F02E40A820002000002E40320300002F3F00003102000010520000EC160000FA12000031D000003AE300009956000080012E40F80F000070B50646581C80B213
:4059800045086D00002408E0304600F0C1F81055000A1119A41C4870A4B2AC42F4D3D80705D0D0182038D15CC47FD454C17770BD30B50A4C002100195B1E07E054186478D8
:4059C0002502545C2C430480891C89B29942F5DB994201D1515C018030BD000000102E4010B5FF2000F01AFA0F49FF2048700E481021801D41800121417001700A49002059
:405A0000C91C4870FFF704FF04000AD100F02EF907210648FDF7BEF9044807211830FDF7B9F9204610BD0000A8200020CC112E4070B5002405465B1E0AE0284600F068F83C
:405A4000010A161971702D1D1055A41CADB2A4B29C42F2DB9C4203D1284600F059F8105570BD000070B500210A4D5B1E0AE0541864782602545C344346193480001D891CDD
:405A800080B289B29942F2DB994202D1515C4019018070BD00102E40F0B50599091FCFB200217E1E0BE0541864782502545C2C43164D45192C80001D891C80B289B2B14240
:405AC000F1DBFC0712D01C78515C24020F4A0C4381180C809C785D78001D210280B2294384182180001D80B2D9780CE059781A7809021143054A84182180001DD9789B7862
:405B0000090280B2194380180180F0BD00102E40014940180088704700102E4010B50B490020487000F0A2F80020FEF7DDFF0020FEF7F6FF07210648FDF72CF904480721B0
:405B40001830FDF727F9002010BD0000AB200020CC112E4010B50C48007801280FD100F067FF00F0DDF8002804D10848016A490849000162054802213030FDF70DF9024927
:405B80000020C91E087010BDAB20002040F02E4010B50B46062812D006DC01280CD0032801D1FFF7BBFF10BD0A28FCD00B28FAD105480078107010BDFFF712FF10BD114650
:405BC000184600F041F910BDAE200020F8B5244DAC6A0127A007234E002816DA307806280ED1286A384328621F480069F903084381B21D481030FDF7CFF8042000F00EF9C5
:405C0000174802212830FDF7C5F8E00718D000F0DDFF01280FD1002001F012F8062000F0FDF81049FF20C91E48707078002802D1686B384368630A4801212830FDF7AAF89A
:405C4000E0050BD53078042802D1052000F0E6F80348FF2101312830FDF79CF8F8BD000040F02E40AB20002000002E4010B503212348FDF791F80120FDF72AF920483038C3
:405C8000406A204C80076178800F890001431C480C38FDF781F86078002808D0401E022181401820FDF700FBC000083800E0B82081B21548FDF770F8134803210902143842
:405CC000FDF76AF810481149B830FDF765F8612189010F48FDF760F80D480321001FFDF75BF80C490C48FDF757F80B480B496038FDF752F8084801218838FDF74DF810BD34
:405D000070F02E40AE200020D8102E4090890000041E2E40FF0F000058122E40209000000449012009684907490F022900D000207047000000010B4000B5FFF7F1FF0028AA
:405D400005D009480168C908C900016000BD0748016A490849000162054801690122D2039143016100BD000000010B4040F02E4000002E400848017806290BD1407807494F
:405D8000002803D1486B400840004863C86A01221043C86270470000AB20002040F02E400148007870470000AB20002002484078022800D001207047A820002000B5030018
:405DC000FFF704F8080D050D0B070507090D012000BD032000BD042000BD022000BDFF2000BD0000074A9168D26889B2064B92B2994204D105498A4201D1012100E00021E9
:405E00000170704780002E4033D000003FE300000149487070470000AB20002010B50446FDF762F8072C01D9FF2C01D102480470FDF756F810BD0000AB2000200149487062
:405E400070470000A820002070B50C460546FDF763F8C0B202280E49287804D0FF2810D04C280CD810E0FF2809D10A4AD0680004800F032801D0087807E09069000A5538A9
:405E800003E00878207070BD4F382070087070BDAA20002000002E40F0B50122002834D0002932D00424420600D00524792342065B06D21800D0641C034600221EE00C250D
:405EC00016466E43124D00277519AF72104F002ABB51696007D0661EB24209D10D4E86197606760E05E05E06760E8027BE1B00E080269B198919521C2E81D2B2A242DED380
:405F000003480549006B002288611046F0BD00007427002079020000B420002018B50020694608700A48006900280ED0132149014018047E684604704F21C900054800F060
:405F40005BF8A04201D0012018BD002018BD0000B4200020F8240020074900200C2242435218927A012A05D0401CC0B20628F5D3002070470120704774270020F8B50F007D
:405F80000446164609D01A4D1A496868A04202D94018A04201D38E4201D90120F8BD39462046FDF7B3F9002820D0324639462046FDF7BBF90E49F0B2012620318E76002145
:405FC0000C220B4653430A4A9A1813895568EF18A74207D9641B1B1B9672834206DAC01A1469C0B2491CC9B20629E9D30020F8BD7427002079020000034610B500200246E6
:4060000004E09C5C2018521CC0B292B28A42F8D310BD000070B500F063F8084C064A216907480D46FDF781F905492846FFF734FFFFF774FF207070BD79020000B42000209C
:40604000F824002010B500F04BF810BD002070470020054A002902D0012902D002E0906000E0D06000207047B420002070B5084C154608460549E26889182A46FDF755F928
:40608000E0684019E06028B270BD0000F8240020B42000203EB50A226946FFF7E7FF044606480A2200686946FDF730F9002802D00020C0433EBD20463EBD0000B8200020B5
:4060C000002802D0044A914201D2FF20704703494A6108610020704779020000B4200020024800218160C16070470000B420002070B5074C15460548A26880182A46FFF7F6
:406100003DFFA0684019A06028B270BDF8240020B420002010B503490A220968FFF7E8FF10BD0000B820002010B50F4A002313600E4A13600E4B18600E4801600E490120BC
:4061400008600E490860000290600E490C4808600D4914300860FF381538506000F0BEF800F0CCF9002010BDE8200020D0200020FC20002000210020EC200020DC20002078
:40618000BC280020E0200020F420002000207047014610B50020002910D0094B1A689C685118A14209D25868196080188A0704D08A07920F891A091D196010BD002010BD16
:4061C000D0200020F8B50024164E671E321F3D463168136806E01422624310328A58521C1BD0641C9C42F6D36A1C14D02C461422544322460C3288500C214843FFF7C8FFEC
:406200003168002808510AD031680020103408517068401C70602846F8BD2546E4E73846F8BD0000E0200020F3B50026F64381B000281BDB1E490968884217D802990029B9
:4062400014D01B4F142204463F1D54432546396810354859401C09D0FCF746FE38682F1F4159C359994203DBFCF73AFE3046FEBD214608310091465801590C20704308181E
:406280000C220299FDF751F80948761C001D0068C159B14200D100260549009A091D865008684159491C4151FCF71AFE0020FEBDDC200020002803DB07490968884202D919
:4062C0000020C043704704491422091D096850431030085870470000DC200020F0B500200D4A451E0346171F50600FE014260146714314680E1DA3510C46166808343351A7
:406300001668083435511468401C635039688842ECD30020F0BD0000E0200020F3B50026F64381B0002841DB2349096888423DD8029900293AD0204F142204463F1D544393
:406340002546396810354859401C2FD0FCF7CCFD3868415900292BD0211D009146580C21005971430F46C1190C220298FCF7DDFF11480021001D0068761C00590C34C01946
:406380000160416081600C48001D00680159B14200D100260849009A091D865008684159491E4151FCF79CFD0020FEBD3046FEBDFCF796FDFAE70000DC200020FEB50446DB
:4063C0000D4600201E49089E0860471E009001900290002C11D0486885420ED2002A0CD0002E0AD0642E08D808460C3001681C2068430C18207A002801D03846FEBD0120CE
:40640000226020721846FFF7DDFE6060401C13D06681A6810A4827610C3067610179A94200D205710021684601810A462846029B00F040F82846FEBD00202072DDE700000E
:40644000E820002038B50124009400F039F838BDFEB50027164EFF433D4600240EE01C20316860430818017A002906D04068FFF721FF002801D0254603E0641C3079A04201
:40648000EDDA681C12D01C2130684D434419FCF72BFD69466068FFF741FF0546FCF720FD002DD9D1216868468847D5E7FEBD0000F420002038B50024009400F001F838BDBF
:4064C0001FB500220C49541E0A60002811DB496888420ED808491C220C31096850430818406801A9FFF7A0FE401C02D0002004B010BD2046FBE70000E8200020F0B5002125
:40650000114A4D1E174611710C3F0B46BD6016E008461C2460431668041D355114680646235014680836A3551468361DA353044616680A34335318301468491C25507868F5
:406540008142E5D30020F0BDF420002038B500210091002811DB0F49097888420DDA0D4D04010C3529680859002807D0201D0818694600F06FF9002801D0002038BDFCF76C
:40658000B3FC28680F34015D491E0155FCF7A8FC009838BD04210020F7B582B0002502986E1E06602E48D21C024017462D4A2C4610460C380178106805E02301C358002B80
:4065C0000FD0641CE4B28C42F7D3711C28D03401211D40180191039900F02AF900281FD101E02646F1E71F48016820460C300F521C480399026820460E30115419480399FD
:40660000026820460F3011540398784300F0A0F8144900280968085102D00024009011E001251AE00F48016801980818009900F02CF9002801D0012502E00098C0190090F9
:40664000641CE4B203988442ECD3002D05D10298066004480179491C0171284605B0F0BDFCFF000010210020F8B50D4600216A468C461180002839DB23490978884235DAF2
:40668000214B04010C3319680A59002A2ED020460C300B5A801C0E5C184670438018954224D3854222D2002006E007465F43BF18AF4206D0401CC0B2B042F6D360460028F5
:4066C00014D0114E271DC8190C366A46294600F006F900280AD168460088012808D030682946C01900F0D1F8002803D00120F8BD0020F8BDFCF7F8FB30680F34015D491CE5
:406700000155FCF7EDFBF3E704210020F8B50F46002400F031F8002817D10C4900220B460C334A600EE021011D680E466A501D680C36AA53B61C1D680F31AA551D68641C07
:406740006A54E4B2BC42EED31A71F8BD0421002000280BD0C01C074A81085068890053884118994203D8936851601818704700207047000004210020F8B5064600200F4D79
:40678000009029700C0121466846FEF7E5FB00280CD129460C3100980860301B001F84B221466846FEF7D8FB002801D0FF20F8BD6C800098A8600020F8BD00000421002018
:4067C000F8B5002827DB19490978884223DA174C05010C342168485900281CD028460C30085A009028460E300E5C401C0E5420682F1DC01900F064F800280CD12068002417
:4068000045590EE0094829460C300068C01900F03CF8002801D00120F8BD00982D18641CE4B2B442EED30020F8BD00000421002030B50D4604000BD0A800FFF789FF6060DB
:40684000002805D000202570C0436080002030BD012030BD70B50D46040005D0002D03D00220205E002801DA012070BDFCF73CFB0221615E60688900405828606088401E63
:406880006080FCF72DFB002070BD70B50D46040007D0002D05D002212078615E401E814201DB012070BDFCF71FFB6088401C00B26080616880000D50FCF712FB002070BDA0
:4068C00010B5040009D0227800216068FCF736FD0020C0436080002010BD012010BDF0B500231D46002802D00224045F0AE00120F0BD46689F00F6598E4201D1012503E0C2
:406900005B1CDBB29C42F4DA15700020F0BD00000148007870470000182100207CB505460024FDF73DFEA8796946087000A8062229460130FCF7F9FC0021684605F0F0FC65
:406940000C2806D0072806D01F2806D0122806D006E0022404E0042402E0272400E0012420467CBD10B502280BD0032802D0042809D102E000F03EFA05E000F0E9FAFF283C
:4069800001D100F0F9FAFFF70BFAFFF717FA10BD10B500F021FBFFF703FAFFF70FFA10BD70B504460025FDF7FBFD002C06D0A079012803D8214602F007FF00E00125284651
:4069C00070BD01460120002902D05020088000207047000001460120002905D0034854220078504308800020704700001A21002010B502460D49FE204870032410460EF098
:406A000071FF002810D10EF015FF00280CD106F073FC002808D100F0D5FC002804D105F025FF002800D10024204610BD1821002002480021018280210180704700102E409B
:406A400010B5FF240EF0C6FF002804D10EF0F2FE002800D1002403490020486002494872204610BD18210020F829002070B50025044600280ED0A07901280BD8FDF790FD3D
:406A8000A0790028204602D003F0AAFA03E003F07FFA00E00125284670BD0000014610B50120002904D006220248FCF73EFC002010BD00002421002001460120002903D057
:406AC0000878024908700020704700001A21002010B5002403F0B2FB002800D00124204610BD000010B50446FDF75AFD204603F035F802490220087610BD0000382900202F
:406B000010B50446FDF74CFD2278A178607803F037F802490120087610BD00003829002010B505F079FB06F0A3FA04F091FD10BDF0B5002493B00E46054627461094FDF764
:406B40002FFD00F0A9FE002836D0002D0CD0EA7F1F2A01D9012407E000A829460130FCF7E4FBE87F69460870002E0FD0002C29D1F27F1F2A01D9012424E008A83146013093
:406B8000FCF7D3FBF07F08A9087001E0002C19D10020002D05D011A9684600F0CDFE10900120002E05D011A908A800F069FF074601201099394301D0022403E0002801D054
:406BC00000F026FE204613B0F0BD00000148007A70470000F829002010B507480024807B002806D00448203002F0CCF9012800D1FE24204610BD000038290020014A002130
:406C0000926810471821002008B500226B461A7026280CD0094A342852680BD0352805D1900703D50021352006F04EFC08BD19462620F9E7D007F9D03420F5E71821002057
:406C40000149087270470000F829002010B509480024807B00280BD0FFF7A2F8062801D0032800D12824FFF7B7FFFE2800D12824204610BD3829002070B50E46050001D057
:406C8000002400E00C4C002C11D0E28A500609D5D107C90F022003F041FAE08A40218843E08204E0D107C90F012003F037FA3146284602F0E5FE70BD58290020F8B505467A
:406CC000002004460D4E009013E022466946284601F0AAF90098002801D00EF0E5FDA878214602F0AFFCA878214602F09DFC641CE4B2308AA042E8D8F8BD0000242A0020F7
:406D0000F7B58E462249086820308078002802D08446002338E0FF20FEBD1D48212100680D5CE9000A1856799779D47912794058B2420DD30EF0B8FD1548006820304178B0
:406D4000491C8907890F41708178491E8170E2E78118B61A0098F6B20160BC4212D1A64204D290197146C0B20E7003E010197146C0B20C700299EA000D70054909685118E7
:406D8000087103E05B1CDBB26345C6D30020FEBD7C210020F8B50D460446FCF7A5F8144E3068034620339A78042A1CD0E178A77809020F431978521C491C8907890F197014
:406DC0009A70CA00845010184771316800205118087130681018C571306810188571FCF77FF80020F8BDFCF77BF8FF20F8BD00007C210020F8B54E4CFEF7D2FF012847D140
:406E00004C480078002843D002F0C2FD00283FD004F0F8FE00283BD0474E7078C00703D000F040FD012833D0307E00287DD17078002500285BD0000706D540488089070B8D
:406E400000F02EF9384370D13B484178684604F0BBF9217A3A4CA2788918C9B2814262D802F096FD002860D0344860300789324E203602F0D7FB6846008802F001FC02F02F
:406E80009DFC30490988884203D10120FEF7C6FF4BE02D49012008702748807B00281DD0002F1BD04036F07E002817D123486030008821494000C031498981420AD2607888
:406EC000002807D103F058F92049088A03221202104308822078002800D0257002F006FC0120FEF795FF00F049FC174C15E002F04FFD002819D0102402F060FC214602F0C3
:406F000049FB02F0BDFB104C0120207002F0EEFB0020FEF77DFF00F031FC20780128B4D1FEF70AFF25700020F8BDFF20F8BD00002C290020A820002038290020A0102E404F
:406F40003E210020502100202A210020E0112E4010B50848FF244078002809D102F018FD012805D1FEF7F6FD0720FEF757FF0024204610BD3829002038B5FEF711FF0128F2
:406F800001D0002038BD02F003FD00280AD0114C6078C00703D000F085FC012802D0207E002801D0FF2038BD617800290FD0684604F00AF9022806D96846008802F060FBFF
:406FC000012002F09DFB0320FEF728FFD9E70020F7E700003829002038B51E4CFEF7E0FE042813D0052811D0062812D003282AD007280AD100206946087002460120FEF73D
:40700000C7FDFEF7CDFE0128FBD138BD00F0D6FB38BD02F08DFB00F0D1FB02F009FC8007800F0228F4D10C4841880029F0D05B21095D0029ECD101210170A07D0140022019
:4070400003F06CF838BD02F077FB0120FEF7E6FE38BD0000582900203E210020F8B50646002403F0C9F80546304603F0DFF803460A480021068A0DE001228A40104617461C
:4070800028401F40002803D0002F01D1224394B2491CC9B28E42EFD82046F8BD242A002070B500252C460A4E03E0002C01D0002000E030460079002803D02046FFF7CEFF5B
:4070C0000543641C2406240EEFD0284670BD0000582900201CB50020694648706846FDF78FFA01AA69460A20FEF752FD6946042008561CBD70B50D4601F07CFB04000BD05D
:407100002079002808D0FDF74BFAE178A0782A4602F068FD002070BD022070BD01480079704700002C2900204030C07E002800D00120704700B500F001F800BD90214843A6
:407140000749084A40186030417F491CC9B24177D289914201D300214177C8B27047000038290020242A002013B501F043FB04000BD001F0E0FE002807D0214601AA0A3141
:407180000620FEF705FD00201CBD02201CBD000010B50C4601F02EFB00280AD001F0CBFE002806D0224604490A20FEF7F1FC002010BD022010BD000019290020F3B581B0FB
:4071C000074601460026029803F00EF80446002F01D0002500E0154D002D21D0284601F03FFB032C04D13946029803F059F806463846029902F018FA032C06D0002C10D0FF
:407200000121384601F032FC03E03146384603F05DFA284602F0F6F80221284602F00CF9FEBD3846029902F0FFF9FEBD5829002010B5044600F04CFA002804D103F028FF21
:40724000002801D00C2010BD2078611C02F0D0FDFF2801D01F2010BD02F016FEFF280AD02178621C02F068F9044821780068026B601C904710BD072010BD00006421002060
:4072800010B503F005FF002801D00C2010BD02F091FD03480068C06A8047002010BD00006421002070B50D46044610210EF03CFA1021601806460EF037FA33461022194615
:4072C000204603F02BFF102130460EF02DFA02202870204605F000FA70BD0000FEB504464078217802028006870FE0781143A5780E050002360D0543304601F07BFAEAB2B4
:407300003B4621460096019000F0FAF90006000E14D10B48224600680199436928469847C0B2FF280AD10198EAB24030817EFF23491C81762146019800F0E1F8FEBD000092
:40734000802100200020704710B5044603F0A0FE002801D00C2010BD2078611C02F048FDFF2808D002F07CFC044821780068426B601C904710BD1F2010BD00006421002063
:4073800010B500F06BF905F071FA002010BD10B5044600786178E2780843A17811430843217908436179084305D003F063FE002803D00C2010BD122010BD204602F010FE1E
:4073C000002010BD10B5FBF7A7FD02F037FF044803F0F2FF02F04EFC012000F003F810BD00290020F1B586B003A8009005A8019028489F22017B114001736846FDF750FCDA
:40740000002845D169460989C90705D0224806990068C2686846904769460989890706D5002835D11D480068816A0698884700282ED11B4E0025757075737571F57535768C
:4074400075767575B570F570B5713746F5730120D03738731F20F880FF2130467972A0300176457600F028FB00242046069901F00DFD002803D1641C2406240EF5D0FD7252
:407480000749BD72B573C0310D704D704D600D7207B0F0BDEC28002080210020642100203829002070B505460E46084602F0A4FE0446304602F0BAFE0121A9400A46224082
:4074C00001400A4301D0012070BD002070BD10B50446084602F0AAFE0121A140014201D0012010BD002010BD10B5FEF759FC032804D102F021F90120FEF790FC10BDFEB56C
:407500001C4616460F46054601F07CFFA878FFF711FE02460190334639460094284600F00DF8002808D1A8780199FFF7A5FBFF2C02D138460EF0B8F9FEBD0000FFB585B074
:4075400005460E980C46FF2810D02B49C00009680A5840180179C0795278814201D9012601E09006860F6846038108E06078A1788006860FE07800020143684601812846B3
:4075800001F0E4FC070007D021462846079A00F0DFFC384609B0F0BD304600F08DFD04AE0346039002AA29460096204600F019FC3C20405D002818D0284601F0C7FC012809
:4075C00013D0684600890096C0B20190A878231DFF22079902F008FA68460089039BC2B2A878079902F078FDD3E7684600890021C0B20091E9E700007C210020F8B50026DE
:4076000000253046FFF72AFD07001DD090201149704340186030447F12E0601CFBF75AFDCCB23846E040C007C00F07D02146304601F0F0FF21463046FFF7C0FD6D1CEDB281
:407640000548018AA942E8D8761C3606360ED7D0F8BD000038290020242A002010B502F009FB0020FFF7BEFE0EF0B4F9002010BDF8B5002400F010F90123012800D10124F8
:40768000104F00203E4620360425082203E0002801D0002100E031460979002907D001290BD002290BD0114681402143CCB2401C0006000EEBD07C70F8BD1C43F7E72C43CB
:4076C000F5E700003829002010B5FFF7D1FF10BD10B5044605F027FA002802D1601C00F001F810BD1CB500240094062269460194FBF70CFE002800D1122420461CBD000024
:40770000F8B5044600201E4617460D46002C12D0002D10D0022E0ED0032E0CD0002F0AD02179092907D0002905D013494A7F5A21095D8A4207D82089002104F002FF284660
:407740000EF0B2F8FF20E18F012905D1002F03D0012E06D0002E04D0374301D10121E187F8BD0021E187069A2A70069A120A6A70AF70E970F8BD0000EC28002070B50E4C05
:40778000FBF7B3FA0546FEF70BFB062802D02078012803D02846FBF7ACFA70BDFBF766F82846FBF7A6FAFEF7FBFA0628F5D020780028E5D170BD00002A21002010B5FBF72B
:4077C00094FA0446FEF7ECFA012809D0FEF7E8FA022805D0FBF74AF82046FBF78AFAEEE72046FBF786FA10BD10B50B4681791943817103D08078114602F03CFC10BD10B538
:4078000082798A43827102D1807802F047FC10BD30B50C4C0220A28A0B4B9978002901D0022906D11D785B78EB18282B01D9032002E0032900D101205105490DC002014365
:40784000A18230BDC0112E403421002000B500F029F8002807D0012805D0032801D0042801D0002000BD012000BD014600B50020C90701D000F010F800BD014600B500203F
:40788000C90701D000F008F800BD000001480068704700002C21002001480088000A704720102E400448008B410501D5042070474007800F7047000000102E4001484068AB
:4078C000704700002C2100207CB50446002568460570200610D5FFF7E5FF01280CD101A801F03AFF6846007900F036FB012001F0F1FD0220FFF7E8FE600712D50C48017981
:4079000001290ED10571684601F026FF6846007800F056FB0220FFF7D7FE00212620FFF773F9044800680169204688477CBD0000382100206421002010B501460A4A007865
:4079400000241070FFF7A8FF0128084603D002F0B3FA204610BD00F0E7F80400F9D1034801210170F5E7000034210020F829002070B50446FFF790FF002801D00C2070BD57
:40798000A27B01211F48002A827801D00A4301E05208520082706279012A14D0C17849084900C170184D2868016820468847207901280CD06188208803F018F92080207973
:4079C00004280FD015E0C2780A43C270EAE72868C168E01D8847E01D02F0EEFA0B48008D208006E02868C168E01D8847E01D02F0E3FA074920798870204602F06BFA00202C
:407A000070BD00003829002064210020EC2800203421002008B50178FFF73EFF814201D10C2008BD002914D0072069460870FFF70DFF012807D10121684600F0E5F8012837
:407A400001D0092008BDFFF7E3FE02F077FA012011E0FFF7FBFE012806D1684601F07CFE6846007800F0ACFA02F05EFAFFF714FF0028FBD10220FFF727FE002008BD0000CE
:407A800010B501460A4A007800245070FFF704FF0128084603D002F0CDFA204610BD00F065F80400F9D1034801214170F5E7000034210020F829002038B568460DF08AFEF0
:407AC000002801D01F2038BD01210098C90201804180002505714571857107214173857302F0F8F9009C202200212046FBF726FC25702A460021601CFBF720FC204602F013
:407B0000DBF9204602F096FA00980DF0CDFE062200210448FBF712FC02480C388560002038BD000038210020F8B5044600250D4800950078012806D068460DF04BFE0028FA
:407B400003D007250CE00C250AE0074E009830602278611C401CFBF7E8FB3168207808702846F8BDF82900202C210020F8B5044600250D4800954078012806D068460DF058
:407B800029FE002803D007250CE00C250AE0074E009870602278611C401CFBF7C6FB7168207808702846F8BDF82900202C2100200346084800B5834209D8184600F01AFE79
:407BC000002804D00089984201D1012000BD002000BD0000FF0E0000074A9179491C8906890E917138220A4092014907090E1143084302490840704738290020FF0E00008F
:407C0000C006C00E70470000F8B507460E4600240D4803E0002C01D0002500E005462979002905D0641C2406240EF3D00020F8BD0021204601F02AF92E712046FFF7CCFF8D
:407C400028813C700120F8BD5829002010B503F0B1FA0222002100F003F801F0B7FF10BD10B5094B40074907000F090F185A595A40185043C0086421FBF72CFA002800D1EC
:407C8000012080B210BD000040850100F7B53D20405C88B015460C46002802D02878042802D200200BB0F0BD6946087200262046FFF73AFA012800D00126204603A93830B9
:407CC0000191009023460327A17E34333246206A03F08CFB02A8089900900B46019120463A4603A9243003F0E1F902466846007A2870204601F0B6F81046D3E7FFB587B054
:407D00000C4605461078694608723D20005D1746002826D000262046FFF706FA012800D00126204603A93830019100902346A17E34333246206A03F059FB02A80090291DCA
:407D4000019120462B1D03A924300A9A03F0AEF902006846007A388002D1204601F082F810460BB0F0BDF0B505463C20405C89B016460C4600280CD0307869460873002874
:407D800006D000272046FFF7CFF9012803D003E01F2009B0F0BD012703200890204604A93830019100902346E17E34333A46E06903F01CFB6846007B03A928180290009164
:407DC00020462B46019504A92430089A03F0BAF902466846007B3070204601F04DF81046D7E7FFB505463C20405C89B016460C46002810D0084601F0A9F801280BD030888A
:407E000069468883002809D000272046FFF78CF9012805D005E000200DB0F0BD0220FBE70127204603A93830019100902346E17E34333A46E06903F0D9FA291D2B1D07A84F
:407E4000129A6D4607C5204603A924300C9A03F079F902466846808B3080204601F00CF81046D9E770B50D460446FFF75DF901280AD0E87AA97A00020143A07801F066FDFC
:407E8000012808D0002070BD00222421204602F0F3FD242070BD28214C200155204600F0B1FB282070BD0000002801D0002000E003484030C07F012800D00020704700000F
:407EC000582900200146002049070ED50021084B03E0002901D0002200E01A461279022A04D0491C0906090EF3D0704701207047582900200146002049070ED50021084B7D
:407F000003E0002901D0002200E01A461279022A04D0491C0906090EF3D07047012070475829002010B5044680346068002803D00DF0CEFC0020606010BD40304170704727
:407F40004030817070474030017070470171704792001018C166704770B53C2501F0D2F9040004D020460021433001F08FFCFF222946204600F0E8FB002C02D0A07801F030
:407F800043F970BD10B5002801D0002000E00348002802D0008904F01BFB10BD5829002010B5002801D0002000E00448002804D00179072901D100F047F810BD5829002035
:407FC00010B501F09FF9002802D0807801F01CF910BD00207047000070B50546008A00281ED01049F122097B1140C90618D5294640314A8A098A521C4A4392B2D10800D15A
:408000000121540801E0621A94B2A042FBD9FEF77FFC012804D1298AA878224601F06CFD70BD0000EC28002010B50023054C0B60248A944204D992001018C26E0A60C36683
:4080400010BD0000242A002038B5044600200090A079002814D14020015D052901D00E290ED168460DF0C6FB002809D12046009902F0E0FC03481021428B2046FFF7B4FB56
:4080800038BD0000EC28002010B50B4604460146184602F040F9002802D020460DF00EFC10BD13B5044601AA11460620FDF770FD6846818861811CBD002800D10220704754
:4080C00070470000F8B504462346401D543300909A1EA078911E01F05BFB25464035A88A298A8000FAF7F6FF401E81B2688A884203D96982A07802F04BF8698A8C200151B2
:4081000020460021433001F0C1FB27480088E88103F050F8E989891C8AB26179FFF7A0FD01F054FD03F046F82A8A6179FFF798FD074601F03FFD688A002806D01B49088A51
:40814000032212021043088202E0002002F014F81648803801886E8A002E0CD0304648431349FBF7A1F80004000C01D0401C80B21049488002E00F4800214180288A704350
:4081800081B2A07801F064FFFF2228374932B9B21346204602F02EFDE98AA07801F0D8FEA07801F061FAF8BD80102E40E0112E40710200003E2100207FB504468034616829
:4081C00005460E46183108226846FBF7AEF831462031082202A8FBF7A8F8102168460DF0A3FA6068102108300DF09EFA60682B46083024331022694602F090FF7FBD10B58F
:4082000004460821FFF7FBFA10212046FFF7F7FA207905281FD006281DD008281AD12189002004F04DF9072020712046FEF77CFF014620464030012913D00E2101700021FA
:408240000176204600F0F2FF2046FFF76BFE2046FFF7C2FE10BD20890122002104F014F9E1E70521EAE70000FFB581B01F4604460821FFF7C4FA10212046FFF7C0FA207994
:40828000082803D0092804D0042203E00422012501E009220025204600F044FE264600204036307022712046FFF73CFE0398002D02D0012808D00BE001280AD12089002278
:4082C000029904F0E1F804E02189029804F0F8F8012700203076012F04D0204600F0A6FF05B0F0BD02983073204602F0F1FB054605480121428B2046FFF776FA002DEFD1FA
:4083000009202071ECE70000EC28002070B50C460546FEF709FF012809D108212846FFF76EFA0023012221462846FFF79DFF70BD10B5044600F0F6FD2046FFF7F3FD00218C
:408340004034217010BD70B505461A24FEF7ECFE012809D108212846FFF751FA0023012221462846FFF780FF70BD0000F8B50446002000900E4668460DF03CFA002801D031
:408380000D20F8BD8420005908212030009D00F02CFA20460421383000F027FA002E02D1204600F00DFE2946204602F0CEFA0E480821428B2046FFF717FA204600F0A7FF08
:4083C00025464035002808D0204600F023F8002801D0092028700020F8BD08202870204601F010F8F7E70000EC280020014610B540310A460978082906D0092907D00A29DB
:4084000001D100F091F810BD0B20107010BD00F001F810BD70B50446007925464035052805D0062803D008280FD00C2070BD03220621204602F020FB0D480821428B204653
:40844000FFF7D2F91120287010E006202873204602F03EFB0646AA8A0A20424301212046FFF7C2F9002E01D109202071002070BDEC28002038B504460020009068460DF0FB
:40848000B9F9002801D00D2038BD2046009D00F0C3F908202071204600F092FD2946204602F08AFA00213D2001550F2040210855204600F0A7FF002038BD00B5024600F098
:4084C00031FD10214032117000BD10B50446FEF72BFE012809D04020005D112805D100231A4606212046FFF7BFFE10BD10B5FFF786FE10BD38B504460021684600910DF042
:4085000079F900280CD12046009902F0D6FA05480821428B2046FFF767F90D204034207038BD0000EC28002038B504460021684600910DF05FF9002801D00D2038BD20463D
:40854000009902F0AFFA05480821428B2046FFF74BF90C2040342070002038BDEC28002000787047F8B5002569460D70002801D0002400E01F4C002C18D0204600F0DBFC95
:40858000002813D0207903280BD005280CD026464036B18AA07801F065FDB078012806D01DE0042020711DE006202071F8BD0021204601F0CDFE274680373868002802D03D
:4085C0000DF086F93D600020B0702079072802D12046FFF701FD0221204600F02DFF20790428E3D1207A694608703420FEF70CFBF8BD00005829002010B54C22115400F020
:4086000052F810BD10B50446FF21FFF7F8F809202071A07801F04CFD10BD000038B5FF216A461180002801D0002400E00B4C002C12D011460620FDF7ABFA684601882046D2
:40864000FFF72FFD204600F087FC002804D104480068C1692046884738BD0000582900208021002010B504468079002809D022214C200155FF212046FFF7C1F8204600F0FF
:4086800012F810BD10B5037902464032002B03D01173092B02D003E0002100E02221117300F001F810BDFEB504460089002700902781207926464036002817D0012815D082
:4086C00002280AD112E002AA01A9204601F011FE002807D101980DF0F1F8204601F031FE0028F0D02046FEF7E9FAB776254680352868002802D00DF0EBF82F60686800285E
:4087000002D00DF0E5F86F60317B002919D0009800F064F8A078002100F0C8FF2046FFF795FAA07801F0FCF8A07800F06DFDFF212046FFF764F80B20FEF7C6FF00F07AFCAF
:40874000FEBD1F213173E2E7F8B517460E46054602F02CFD04003CD020460C3001F086F82046062200211830FAF7E8FD2046062200211230FAF7E2FD164822460068394671
:40878000436A28469847074626702846FEF7CCFC012148406070002D10D02889608028464030C1782171002E0FD169796171018AE180418A2181808A608106E00648008B2B
:4087C000C005C00F2071002060803946204603F0FAFDF8BD6421002000102E400A4610B50146002003F00CFF10BD10B50CF078FD10BD000000B50146FFF702FA002801D07C
:40880000002000E00348002802D002898A4200D0002000BD5829002038B5044680346068002806D168460CF0F5FF002801D100986060606838BD000010B5014600F086FB72
:408840000128887802D0FEF779FC10BD90214843024940186030007F10BD00003829002070B5054604464035A87F012811D1A1789020084A484380186030067F3046FEF76B
:4088800011FE002805D10220A877A078314601F001F970BD3829002010B50C4CA07A002813D0FEF7ABFE0A48027F417F408B00F0C9FB012809D10020A07200F063FF05497B
:4088C0008989090B01D000F03BFA10BD082A002038290020A0102E4070477047490510B5490F0B00FCF772FA060704080C0C0F073E21FFF781FE10BD0821FFF7C3FE10BDC6
:40890000FFF7D1FE10BDFFF7ADFE10BDF8B507460025002D01D0002600E0204E00F0DCFE3046403044890021418100F0F9FE304600F001FB01282BD1A00702D52846FFF7F6
:4089400011FEE00602D52846FFF768FEA00601D5FEF754FE600601D500F026FB200602D5284600F01DF8600702D5284600F02CFA380402D52846FFF713FB780402D52846D9
:40898000FFF700FBE00703D021463046FFF7A6FF6D1C2D062D0EBCD0F8BD000058290020F8B5002801D0002400E0284C002C4BD025464035A878012846D1FF2788204937C8
:4089C00000593E46002805D02149097B890601D5878AC68A2046FEF7A7FB012834D002F0E9FB2A8A6179FFF73BF9009001F0E2F800983346283081B23A46204602F0FAF870
:408A0000E98AA07801F0A4FA12480188688A124E002810D048431149FAF746FC0004000C01D0401C80B27080A07DC107C90F002001F074FB01E000207080288A698A48430A
:408A400081B2A07801F004FBF8BD000058290020EC28002060112E403E2100207102000001490968096808478021002070B50D460026194A0146002801D0002401E0144684
:408A80002034002C26D0204600F060FA01280AD19020484380186030007FFEF703FD002801D101F095FF0D48006881692046884700280CD020464030817EA94202D3491B5D
:408AC000817600E086762089294603F03AFD204600F098FC70BD0000382900208021002070B503460088FFF785FE040013D000F022FA00280FD02079092819D02546997870
:408B000040352973204601F0E3FF0646A878012803D0AA8A02E0022070BDEA880A20424301212046FEF760FE002E01D109202071002070BD0EB5002217216B46029219811F
:408B400000905A810120029B00990CF061FF0EBDF8B518480024807A002822D1164E0025B089000B22E0204600F0AAFE1249A039401807882A462146384600F063FA012813
:408B800010D00E480122478305770A4944778A72002D01D0002000E02030002801D000F031FCF8BDB089000B641CE4B20028DAD1F8BD0000082A0020A0102E403829002020
:408BC00010B50088FFF716FE002809D0014640310C460978082905D00B2903D00C2010BD022010BDFFF716FC002801D009202070002010BD70B503460088FFF7FBFD04000E
:408C000008D0254640352878082805D00B2803D00C2070BD022070BD8420005910220830991CFAF782FB2046FFF7C6FA2878082804D02046FFF778FC002801D00A20287054
:408C4000204600F0DFFB002070BD000010B50C46002121700088FFF7CDFD03000BD000F06AF9002807D00948F121007B0840C00603D4112010BD022010BD022020701A8A30
:408C80001889002103F0D8FC002010BDEC280020F8B50F46002100910088FFF7ABFD040012D000F048F900280ED0E079410641D4617E02264A07002A08DB890740250029DB
:408CC0001ADA2843E07135E00220F8BD02F06EFA0021017021894180A1898180217E4170E189C1803E7005460178134803F04EF9284603F045FC1DE0204600F02DF9012810
:408D000006D068460CF076FD002803D00720F8BD2A20F8BDE07900992843E071204601F001FF607E0421304360760448428B2046FEF75AFD0020F8BD1D040000EC28002024
:408D40003EB500220F236C460292238100910190628169460EC900200CF05AFE3EBD0000F8B50F46054600F0CDFA040025D003202071254600264035EE76E6702046FFF7FB
:408D8000A1F901F0D1F80920FEF79EFCA07800F0B5FD0121204600F04FFB2E706E70AE703A4600212046FFF7CFFC0649887B401C8873A078FFF754FEF8BD284601F078F93B
:408DC000F8BD00003829002010B5002801D0002000E0094800280DD0014640310A464978022901D100215170807DC107C90F002001F094F910BD00005829002070B503466A
:408E00000D460088FFF7F6FC04000BD000F093F8002807D01248F121007B0840C00603D4112070BD022070BD20464030418A008A491C41430804C10C5888884201D2122001
:408E400070BD20822079072802D12046FFF7C4F8022028702089002103F016FC002070BDEC280020016A491C016204D1817E491C4906490E81767047C169491CC16104D120
:408E8000C17E491C4906490EC1767047F0B5074687B003A8009005A800260D460190002F01D0002400E01B4C002C05D06846FBF7F7FE002803D00BE0022007B0F0BD684644
:408EC0000089C00704D1902200212046FAF736FA114829460068826820469047050016D1A77066762746267140373E70204600F019F8204601F021FA084820820848BE7744
:408F0000007BF121084000D001202075E682E8B2D3E700005829002080210020B80B0000EC280020002101628176C161C17620300177417770470079002805D0012803D044
:408F4000022801D001207047002070474030807F002800D00120704740300078002807D0012805D0052803D00E2801D0012070470020704710B5807801F058F9002800D076
:408F8000012010BD074A0146927B0020002A07D040314A78022A02D08978012900D10120704700003829002010B500F0EBFB03498989090B01D0FFF7C3FE10BDA0102E40F7
:408FC00070B5054604464035A87F002825D1FF206075A0789021154A484380186030417F9023491CC9B24177A0785843104B8018DB896030994201D300214177A078902138
:40900000484380186030467F0677A1783046FEF749FA002802D00120A87770BD0220A877A078314600F036FD70BD000038290020242A00200020401C0006000EFBD0002083
:4090400070470000F0B58707164685B0000ABF0F6A469080002E01D0002400E0684C002C1FD0084600F02CFC03906846808800280DD0032F16D000200090208902906846A6
:409080000CF088FB002866D0002005B0F0BD5D490398401801882046FFF703F8304600F0F5FAAAE00020029002A80CF083FB002807D03D20005D0128F3D12046FFF7D2FE51
:4090C0009BE068468388029F202B14D31F233A4600210398FCF750FC684680881F3885B2012304AA00210398FCF746FC6D1E2D042D0CF5D104E03A4600210398FCF73CFC9F
:4091000040490398401801882046FEF7CAFF304600F0BCFA01AA21463846FEF7B7FD002806D038460CF0B6FB3D204C21085533E0FE7769463878898801F04CFD0028394688
:40914000204602D001F06AFA57E001F07CFB38460CF0A0FB51E06846009D83882A1D00210398FCF709FC27490398401801882046FEF797FF304600F089FA2046FFF7DBFE31
:40918000002805D026464036307E00281CD107E028460CF075FB30E02046FFF733FA2CE0012F09D0022F07D03D20005D0128EFD12046FFF757FEEBE73B4601AA214628466F
:4091C000FEF79CFD002805D028460CF059FB3D203073E1E73846FEF773FF01460298287002980901000A0843687068468088A870000AE8702846FFF79DFC012045E70000B5
:409200005829002000102E4010B5074A917B002901D0491E91730021FFF738FE002801D0002010BD012010BD38290020F8B5074606464037B87F00282DD0B0789021009064
:409240004843234945186035287F0099FEF73FF901281ED0287F401CC4B21E48C089A04200D800240020B877FF276F772F77A87702460146009800F0A9FD717DFF2903D0B5
:40928000304601F014F8777501F0A2FB0025114F19E00320B877F8BD00200090224669463046FEF7C1FE0099002904D0FF231A463046FEF724F9641CF889E4B2A04200D85A
:4092C00000246D1CEDB2F889A842E5D8F8BD000038290020242A002010B502460021084B03E0002901D0002000E018460479944204D0491C0906090EF3D0002010BD000038
:409300005829002000B50120FFF7E6FF00BD10B5044601F04BFF2189018080346168416061682831816003F0E5F810BDF7B50646087982B00C46092807D0A078F077084619
:40934000FFF704FE012806D010E030460CF0B6FA022005B0F0BDA1789020294A484380186030007FFEF79EF8012810D0A078FEF79BFD01280BD037780121304601F0D0FAB3
:4093800025462035062F38D00B2F0FD107E06846027C21463046FEF777FE0D20D9E72046FDF7C2FE012801D1002028772046FFF743FA054604AA21463046FEF7D4FC012026
:4093C0005F2108556946097C002001910090A07833463A46294600F007FB69460A7CA0780323294600F078FEA0782946FDF744FC30460CF063FA0020ABE70120D5E7000047
:409400003829002010B502464032937F0021002B03D1927E002A00D00121064A927A002A00D000210279092A00D10121807800F095FE10BD082A002070B50C460546FDF766
:4094400073FE00280BD1012C06D92879092806D02846FFF78FFD0446002C02D004E0012402E0A87DC007FAD1A87DC107C90F204600F054FE70BD0000012807D0082804D14A
:4094800004480282034808300180704701488038FAE70000A0102E40014908817047000000102E4010B50446FF20F130012C01D1FF20D530002200F083FE044A108A0449DF
:4094C00080B2A0430880108210BD000000102E4042210020034B198A034A89B2814311801982704700102E404221002010B50446012802D0082C07D102E0FF20D53001E051
:40950000FF20F13000F054FE0348018A034A89B221431180018210BD00102E4042210020034B198A034A89B2014311801982704700102E4042210020F8B505460120A84063
:4095400086B214460F46012231467C2000F038FE3A463146782000F033FE6078267800020643E078A2780002024360792379000203430C2045430D20800105492818441875
:409580002680001D44182280001D40180380F8BD00102E40401880B270470000CB065B0E0343480901021943D00108430121C902084301490881704780142E404278037839
:4095C00012021343084A1382C37880781B021843908248780B78000203431383C8788978000201439183704700142E40024A1080000C90801181704700142E40044A002136
:4096000080180288491C89B21029FAD37047000000102E40024A10820148803081817047A0102E407047000010B5054A1082084600F0EAFD024A0021A03A8018018010BDD0
:40964000A0102E4010B50B46044600F005F819462046FFF7DFFF10BD024A10820148803001817047A0102E4010B504490882FF20002220211D3000F0A3FD10BDA0102E4005
:409680000149088070470000C0102E40000202494D3008807047000000102E400249888A0422904388827047C0112E4010B5084B074C0202A03B0029208202D075321A80DE
:4096C00010BD04490020088088807632F7E70000A0102E40201A2E4000B5034908884880FFF7F8FE00BD00004221002010B50120FDF7A6FA01495020088010BD00102E40C8
:4097000006490E220028888806D01043888003495120C039088070479043F7E7C0102E4000B502484088FFF7FBFE00BD4221002010B5FCF71FFB10BD0149522008807047CD
:4097400000102E40884201D8081A03E00022D243101A401880B2704700210170704700000748808806492039098B884201D8081A03E00022D243101A401880B270470000FB
:4097800020112E400148008AC0B27047A0102E4070B5084C049D2082074804890548603006880E8001891180808818806007400F287070BDA0102E40E0112E4001480089DA
:4097C00070470000C0102E4000280FD00D4A108B0870000A4870908B8870000AC8700948203000880871000A48717047064A10880870000A487090888870000AC8701089C3
:40980000F0E7000040102E40C0112E4000B5024A00F004F800BD0000FF7F000000B51346FFF790FF984201D8022800D2002000BD0148008A70470000001A2E400249088226
:409840000248008970470000A0102E40001A2E40014880887047000020102E40024908820148803000887047A0102E40064B1A8999891B8A0270120A42708170090AC170B7
:409880000371190A4171704760102E40012904D00549098BC90B017070470349403109898907C90FF7E7000000102E40024908820248008970470000A0102E40201A2E40B6
:4098C0000148408970470000242A0020024908820248808970470000A0102E40001A2E40044A10820448028980894843101880B270470000A0102E40242A00209021074BC1
:40990000414300B5C918FF2260314A770A7700228A77114600F05AFA00BD00003829002090225043074A10B58018FF21603041770177002181770448C18EFF201D3000F03A
:4099400037FC10BD38290020EC28002000B5044A1082034880308088022200F003F800BDA0102E4010B50023884201D8081A03E00024E443201A4018044980B2884201D821
:40998000824200D90123184610BD0000FF7F0000024880880006C00F70470000C0102E4002488089C007C00F70470000201A2E4070B55478157824022543D47888232602AE
:4099C000947834435679127936023243002900D09823044908820348A038181805808480028170BDA0102E40FFB581B014460D4607460A9E0B9BFFF773FF002E0AD0009378
:409A000033460021049AFCF747F805484019C45505B0F0BD0021049AFCF724F8F5E700004621002070B502460448054D808808242C800B460021FCF715F870BD242A002072
:409A4000A0142E4010B5212402466401044953200880102300212046FCF704F810BD000000102E40417802780902044B0A431A83C1788078090208439883704760142E401F
:409A8000034A1082802001430148803001817047A0102E40054A1082044A6032908B0009000108439115084390837047A0102E4030B500210F4B0A46012809D0032802D0DA
:409AC00005280AD107E04021198102210A2204E004210C2201E004210D221882054C20342088C0B205460D42FAD022800021198230BD000080142E4010B5044607480482D3
:409B0000074801808280032189030820FFF7EEFC200202497530A039088010BDA0102E40201A2E40054A1082044A60321183000202494B30A039088070470000A0102E4042
:409B4000054A491E1082044A60321183000202494C30A03908807047A0102E4001B5002269460F20FCF714F8684603490078088202494720088008BD60112E4000102E401D
:409B800037B50D460446002202A90E20FCF700F8A202E80102436846007A044902430A82A00908830249462008803EBD60112E4000102E400349884200D908460249088049
:409BC00070470000FF0F000060112E400349884200D908460249888070470000FF0F000060112E408823002900D09823084908820748A038191808881070000A5070888811
:409C00009070000AD07008891071000A50717047A0102E4010B51446024606480B46C0880021FBF705FF012C02D103495420088010BD0000242A002000102E40064A1188D9
:409C40000170090A417091888170090AC1700349542008807047000080142E4000102E400121814010B589B200227C2000F0A8FA10BD0000FEB5FF210120FFF713FCFF21C9
:409C80000820FFF70FFC3020FFF724FC4148802101804148414D00784007400F022873D001286FD100202880002211460320FBF76FFF3B4E3B49308E88823A4F00242037D2
:409CC0003448A0300482B08F38822046FFF728FE641C2406240EF3D0314C3248403421882030018320462C3800F052F9B16970690191009069464879C02108436946487172
:409D0000684600F06DF900F055F8224FE088A03738832089B8831F496089C03188802148F18E203001802048002404823920FFF7F7FB184E532030801C4907200883542029
:409D40003080E020FFF75AFCE820FFF757FCF020FFF754FC0020FDF779FF13488482282101838015B8810F48403084815B203080094800784007400F022807D0012801D166
:409D80000B482880FEBDFFE703208CE70848C01CF7E7000000102E40242A0020001F2E40EC280020C0112E40001A2E4080142E40E02300000448002181830183024974201A
:409DC000603908807047000060102E40074B1882064B6033988B00090001084399158843002A01D11021484098837047A0102E40F3B50D2284B0920100924A780B781202BE
:409E000013430393CA788B78120213434A790979FF20120211431A4A8C46918B9E460291118B01911649742260390A80154900220F7921E00121124B9140009C603BE31821
:409E40001D8889B21C881B88039E6E407546654064462E435C4026430CD1029B194209D00199D140CB070499DB0F8B4202D1104606B0F0BD521CD2B29742DBD8F8E7000084
:409E800060102E402C29002030B50949FF208C8B084A00210125137905E02A468A40224204D0491CC9B28B42F7D830BD084630BD60102E402C29002010B50446E020FFF76A
:409EC0009DFB20782246401CC3B20021E020FBF76FFD10BD42790021012A02D901214171090342790A430179042914D049001143827B032A01D8D2001143427B52010A4335
:409F0000817909021143012252031143054A118300889083704711460122920211430222E5E7000000102E4000B50120FFF7D2FA01494120088000BD00102E4000B501201B
:409F4000FFF7EEFA01494020088000BD00102E40024A10820148603081817047A0102E4010B5044C208204488180028183815143018210BDA0102E40A0132E40034B188272
:409F8000024820388180028070470000A0102E404178027809020A4306490A80C2788378120213438B804279007912021043088170470000C0112E404178027809020A43F4
:409FC00006490A81C2788378120213438B81427900791202104308827047000060102E40417802780902084B0A431A83C178827809020A439A83417900790902084302492B
:40A00000203108807047000040102E404178027809020A4306498A80C2788378120213430B814279007912021043888170470000001F2E4010B50446E820FFF7DFFA20785D
:40A040002246401CC3B20021E820FBF7B1FC10BD024A10820248818370470000A0102E40001A2E40024A10820148603081807047A0102E4010B5044688000521F9F72AF82D
:40A0800004490C8204498880200202497230A039088010BDA0102E40001A2E4003490882000202497330A03908807047A0102E4003490882000202497030A03908807047B6
:40A0C000A0102E4003490882000202497130A03908807047A0102E40F8B505461C4617460E46084600F090F8054AB90021431582034AA03A80180180024880194455F8BD03
:40A10000A0102E404B210020034A118B8905890D8002084310837047A0102E4030B50E4C238A01251A46012804D0022804D000290BD00CE02A430AE0002908D12A4322826C
:40A140005008400020821A4601E05A0852009A4200D0228230BD0000001A2E40054A1082044A6032908B4023984389010143918370470000A0102E40044A118A02230028E4
:40A1800001D0194300E0994311827047001A2E4000B5064A1082054860300181002901D0012000E00020FFF7E7FF00BDA0102E40024A801802880A430280704700102E40AA
:40A1C00070B5084BC5182C880023080003D104E040085B1C9BB2C607FAD08C439A4022432A8070BD00102E40024A1018405C8007800F70474B210020024908820148803036
:40A2000080897047A0102E408000FF3041307047044B02461B8AFF208B4202D902484018805C7047242A002046210020024908820148803000897047A0102E401749024668
:40A240000B680020002B08D10A605207520F012A04D0022A10D0086012207047112292018A80CA80032252020A810122D2024A8140228A8105220DE0092252028A80CA8093
:40A28000012252030A810322D2024A81012252028A810422CA810A8270470000242A00200A4600B501461046FFF7B2FF00BD38B50C4605460021684600910BF09BFA00288B
:40A2C00004D1009928464C7000F01EFC38BD10B582790A4201D0FDF792FA10BD10B5044680780021FFF734FE01212046FFF7A4F810BD436E002B0CD00B60014660318B7868
:40A300001370826E4266CA788A700021816608467047FF20704710B50346446E6033002C04D0846E002C04D0FF2010BD41669A7001E08166DA70002010BD00214166816653
:40A340007047406E002801D000207047FF20704770B50446C0790D46810610D5DF210840E07100F023FF0570218941804034218A8180618AC180A18A018101F0F7FF70BDD3
:40A3800010B50446FEF7E2FD01280AD1A1789020054A484380186030007FFDF783F8012801D000F015FB10BD38290020F8B50E460446FCF7B9FE01282BD02079042801D006
:40A3C000072825D1F079B77900020743A0783946FFF7BCFA25464035012820D03A46711C204600F09EFA02212046FDF7A6FDA07DC107C90F0220FFF791FE688A002807D0A7
:40A40000E87E002804D1032109020820FFF76EF8F8BD01222421204600F02EFBF8BD282028732046FEF7EEF8F8BD70B50D460646FDF718FD002852D120213046FDF7DFF941
:40A440003446687840346073E87820220002E081A9780843E0816879010228790843218A814203D0F1791143F1712082E8790102A8790843618A814203D0F1791143F17125
:40A480006082687A0102287A0843A18AE180814203D0F1791143F171A082A08A218A8000F8F718FE401E618A80B2814200D9608201213046FDF744FDE87AA97A0002014399
:40A4C0000022304600F048FB608A002807D0E07E002804D1032109020820FFF707F870BDF8B50C4605460027FCF71EFE012847D0284E307BC00709D028464030009000786D
:40A50000002806D0102803D01F212CE01A212AE001272846FEF780F9002823D02E4680360822611C7068F8F700FF7068617A20300172A17A417270682146183008220B319A
:40A54000F8F7F3FE21462846042213313430F8F7ECFE39462846FDF709FF002810D1002F0FD012E007210322284600F085FA728B08212846FDF738F911212846FDF7E3FC37
:40A58000F8BD06212846FDF7E1FC009801210176F8BD0000EC28002010B5FDF727FF10BDF8B504460020009020790D46032803D0042801D0072825D12046FCF7B5FD0128D3
:40A5C00021D068460BF016F900281BD111486978007B009E0840F12108402075F8F79CFCC0B2022803D0207D4006400E2075607E0821084360763146204600F0C1F9204643
:40A60000FDF7E7FCF8BD08222421204600F034FAF8BD0000EC28002070470000F3B581B004460298FDF79CFF06462046FEF783FC00282FD0162E04D32046029900F003F95A
:40A6400028E025464035287800270300FAF7BEFB0E1B1B1B08081B1B1B0808080808081B0298194A01780020135C8B4201D1012702E0401C0728F7D3E87E002801D10729E0
:40A6800001D0002F0AD01049B00008310A5820460299904702980BF0FDF8FEBDA078FFF707FD002301223D212046FDF7DDFD3D2028732046FFF712FE02980BF0EBF82046D3
:40A6C000FDF7F1FFFEBD00005085010070B50D460021002801D0002400E00C4C002C14D020464030C177807F032802D12046FEF79DFD2046FFF744FE162D04D20449A8003B
:40A70000095820468847FEF795FC70BD58290020DC85010010B5014640310C4609780E2903D1FDF7A7FE0120207610BD10B54021095C0F2901D1FDF7C0FE10BD4021095C7B
:40A740000F2902D1002120304177704738B5044600220E4800920D46007BF1210840C0060ED52046FEF7F8FB012809D068460BF041F8002803D12046009900F067F938BD6A
:40A780002946204600F05FF838BD0000EC28002010B51021FDF733F810BD10B54022125C002A02D04978FDF7B1FD10BD10B5FDF78CFE10BD012120304177704710B540219A
:40A7C000095C0C2901D1FDF795FE10BD10B54021095C0D2901D1FDF789FE10BD70B5044600790D46052803D0062801D0082802D12046FDF79DFD68784C2108550921204653
:40A80000FDF7A4FB2046FFF769FD2046FCF78CFC0128A07805D0FFF74BFC2046FEF7F2FD70BDFFF74FFCF8E710B50446FF21FCF7E6FF16214C200155A078FFF739FC20464F
:40A84000FEF7E0FD10BD70B50C460546FEF77EFB002802D02078687570BD21782846FFF726FD70BD70B5054648780C46032802D12846FDF768FD6078122803D11021284654
:40A88000FCF7BDFF03482146006842682846904770BD000080210020704738B5044600200D46009004212046FCF7A9FF68782076E8780002A081A9780843A0816879000272
:40A8C000E08129790843E081607E04210843607680070CD468460AF08DFF00281ED12046009900F01FF9607E022108436076E079410613D5BF210840E07100F057FC002145
:40A900000090017021894180A1898180217E4170E189C18001F034FEFEF78CFB38BD7047704770B50446C07815460A4600280AD00020E070C1B2A078FFF73AF8A078294685
:40A94000FFF7F0F870BD0120F3E770B50546042008700C468420415908222031601CF8F7E4FC29462046042238310930F8F7DDFC0D2229462046FEF7D9FC002070BD0000EF
:40A9800070B5054609200C46087008220021601CF8F7D4FC287D607006480922407BA0700020E070207129462046FEF7BFFC002070BD0000EC2800200B4610B501460B2066
:40A9C000187001221846FEF7B1FC002010BD0000FEB50024164F03E0002C01D0002500E03D462846FFF7ADFC00281BD15F20405D002817D16A4601A92846FFF77AFC002872
:40AA000010D1019869460A7806782946FEF78EFC022E07D1A8780121FFF7A0FB09212846FDF794FA641C2406240ED5D0FEBD00005829002010B50B46122119708178D97712
:40AA4000014601221846FEF771FC10BD10B50B46132119708178D97706490989C90603D1C18A40221143C182014601221846FEF75DFC10BD20112E4038B505460020009091
:40AA80000C4668460AF0B6FE002801D0072038BD00980D210170447002222946FEF746FC002038BD0B4610B501460520187001221846FEF73BFC002010BD0B4610B5014608
:40AAC0000620187001221846FEF730FC002010BD38B505460020009068460AF08BFE002801D01F2038BD009C022020704C20405D6070A878E0772846FFF7F0FB0222294653
:40AB00002046FEF713FC38BD10B50B46072119708178D977014602221846FEF707FC002010BD000010B50B460A49044608880C221A704A795A709870000AD870C88818713D
:40AB4000000A5871062221461846FEF7EFFB002010BD0000EC280020F8B50446403417460E460546E289617B8078FFF707FA002F0DD100F01FFBE2896979FDF771F8FFF7C1
:40AB800025F8608A002800D00120FFF7F5FAE388A08A984200D90346628A218AA878FFF7DFF9E089E188C0080A30081881B21920C001814200D90146A878FFF753FAA878F3
:40ABC0003146FEF7BDFFA87DC107C90F0220FFF7A5FAF8BD044A4000105A884201D101207047002070470000B085010000B500F017F800BD10B504468818C018FF302D30FF
:40AC00000649F8F767FA4034401C228A81B28A4200D211465000401AE08210BD7102000040184008704770B505461446100702D5A8B2FDF76BFEE00702D0280CFCF744FE9D
:40AC400070BD70B5044660C8FCF7C6F9FAF772FD2089C01F0300FAF7B9F80C07140C181B1E0C0C210C110D0C294630466289FFF7DAFF70BD284601F0EFF870BDFDF70CFEA1
:40AC800070BD2846FCF72AFB70BDFCF7B7FC70BDFDF722FE70BDFDF720FE70BDE8B2FDF757FF70BDF3B589B00021069103910491009101910291D1490D89284005906807BC
:40ACC00013D5CE484030048A0598400708D50694A00803D1FAF794FD012801D101200490214600220420FEF7C7FBC54E290730462030C036089000297EDAC048A030018971
:40AD0000C048CA0704D0428907231B029A43428142890C460A43428100220820FEF7ACFB0598000768D508980790002002900394E00705D06005400F022801D1FBF77EF86C
:40AD4000AF482206203001468031403001910090002A02DA418A0198C160600637D50198C068002833D00098C17E00292FD14178022902D0807801280ED1A004400F06281A
:40AD800014D0012812D00798807DC107C90F0020FFF7C4F9012002909B4F387800280DD00120FFF7E9F9012078700AE00798807DC107C90F0220FFF7B1F9EDE702980128C2
:40ADC00005D19249088A0322120290430882E0062BD500984178022902D08178012913D10199C96800290FD0C07E00280CD1FEF7B7FC022808D800E020E00798807DC10733
:40AE0000C90F0220FFF78AF90220FBF717F83079C00704D07E480122C1681143C1607D480078002801D0012004901020844303D1FAF7E6FC012801D101200490E8077DD03C
:40AE40006E48203004880598C0070DD0039920040843039002202146814303D1FAF7D0FC012801D101200490600714D56A4F7988002910D03888401C80B2388088420AD313
:40AE8000FEF70CFCFFF750F80020388078800120387102200443A0074CD50220FAF7CEFF584F4037B87DC00710D0787E00280DD0387EF97D884209D2387E5849800109689D
:40AEC00040181130FFF7A2F8002078763078012812D1E020FEF792FBFCF7D8FC4C4F02467860037800215B1CE020FAF761FD78680AF0DAFC002030707078012812D1E82095
:40AF0000FEF77CFBFCF7DAFC414F0246B860037800215B1CE820FAF74BFDB8680AF0C4FC002070703079800704D539480222C1681143C16000222146012000E001E0FEF712
:40AF40009BFAE80605D50120FAF768FF1020FEF7A3FAA8062BD52D48E0380689808B089C8006C70FFEF72AFC294908800120FAF755FF2B4900200870002E15D0002F13D1B7
:40AF8000214E70700120FFF7F7F8E08A01060BD53178002908D1C107C90F0120FFF7BEF8E08A80218843E0822020FEF775FA680602D54020FEF770FA0720694608810698F6
:40AFC000009003980190059848810498002807D069460EC90A9800280CD000200AF0F4FC0B4CE068002803D0FBF708FE0020E0600BB0F0BD00200AF00BFDF1E700102E408C
:40B0000038290020982900203E210020E0112E40502100207621002038210020682100202A210020F0B587B0054605A81E461746019100900C9C04AB06AA02A903A800F0F7
:40B04000F0F92846FEF7FEFC21463046FEF7EAFC6846017A0398FEF7C9FA05A904A8FEF7ADFA6846027E21463846FEF797FA07B0F0BD000070B50548C4782046FCF7F5FB6C
:40B0800005462046FCF71EFF284370BD3829002070B5054884782046FCF7EFFB05462046FCF728FF284370BD38290020F8B5069E1F463478042C17D3231FDDB23B460095BE
:40B0C000FFF7B0FF3819001FFEF7CCFC0520FEF7EFFC0446012229460798FEF79BFD3570E00701D00020F8BD1F20F8BDF8B51C46009301271346069E079D3A46FFF792FFD9
:40B100002846FEF7AFFC0520FEF7D2FC0546012221463046FEF77EFD2846F8BD70B51C4615460E46FEF78EFC29463046FEF77AFC0320FEF7BDFC012229462046FEF76AFD11
:40B140001F2070BDF8B5069D089E2C780094FFF769FF0120FEF7ACFC0746002221460798FEF758FD3046FEF769FD241D2C70F80701D00020F8BD1F20F8BDF8B51C46009371
:40B1800001271346079E069D3A46FFF74BFF0120FEF78EFC0746002221462846FEF73AFD3046FEF74BFD3846F8BD000000487047382A002008B56A4600210B20FAF7E8FC01
:40B1C0006846007808BD0000F3B589B00646744D744CFEF7F3FA21460290FEF7DBF930800A98C0070DD0FEF733FB074601460298FEF70CFBA04201D2044637800020FEF704
:40B2000083FF69480894817BC0300590002974D063494181002003900146082088400A9908426BD00398002801D0002501E05E4D2035FEF713FB01900790594800905B4838
:40B240000789008804902846FBF76EFF00280BD1002F09D00498791C4000484381B250480091814200D20090009A01990298FEF7D5FA0690A04202D20446019830802879BA
:40B28000032877D02846403001904078022803D001988078012825D1002F23D0FEF760FAB8421FD20499069A490091421AD2381A401C48430799009A081A87B239460298C0
:40B2C000FEF7ACFAA0420DD239493A4A09895288891889B2884203D3E98A80221143E982044637800398FEF7F1FA074601988078012804D00198808A03E046E03AE02B48A0
:40B30000808839460005020C0298FEF787FAA04201D204463780A879002813D00398FEF78DFA0746224805214038408BC000F7F7D1FE82B239460298FEF770FAA04201D26C
:40B3400004463780288A002814D02879072811D10398FEF725FB00280CD00398FEF7A6FA054601460F4A0298FEF758FAA04201D2044635800398401C0006000E039000D189
:40B380004AE725460120FEF7BFFE0898854201D2204600E002480599488120460BB0F0BDFF7F0000FFFF00003829002000112E402C2900203E21002010B50B4C09492346D8
:40B3C0000833A160002142189278002A00D05A54491CC9B20429F6D3FF21A0689A314843A06010BD040302013829002070B5059C049D2070060A6670060CA670000EE070D5
:40B400004806D101400E0843207104221946601DF7F78BFF2046042229460930F7F785FF70BDF8B5079C0E46E178069D09020160A77839430902016067783943090201609B
:40B440002778394301602079611D4006400E30702079C009107004221846F7F766FF2146042209312846F7F760FFF8BD10B5FEF7A5F9094A91684840084909684840810816
:40B48000C3084409414063405940C30F59404008C9070843906010BD3829002060210020704700207047FF20704710B50446400606D5FF210020FDF753FC0220FCF704F9E1
:40B4C000E00603D500213520FBF79EFB10BD704770477047002070477047002070470020704700207047002070470020704703460020002A05D0002B03D11B2901D3FB2937
:40B5000001D912207047C900703111807047000010B5002801D0002000E00C48002814D00A496031CA6B13880246803294682380CB6B94685B88A381CB6B92681988128986
:40B54000914202D05A8800F06FFA10BD58290020FEB50E462549FF25097B1446890643D5882189590989814205D32148806820308078002838D01046FBF70CFCC5B2FF2DEB
:40B580000FD000200290FF206946087030464030817E491C81760020FEF748FE0007000F0AE03089002100F0CCFF20460AF07CF9002519E0411E08400028FBD101270024A9
:40B5C0006A4601A902A8FBF79BFB002808D10299002905D06846037802793046FBF78FFF641CE4B2BC42EBD32846FEBDEC2800207421002070B50F4D0446A978002917D0AB
:40B6000000F08CFAEF21002802D0607E08406076A87815280AD16878012807D1607EC20601D508406076204600F01AF80020A87070BD0000742100207047FF207047704715
:40B640000120704770470020704700207047000002490148C8607047708601007421002010B50446FFF7A2FD218901808034A1684989C180A168C98A0181A1680989418095
:40B68000A168898A818001F031FCA06801490089888010BD74210020FEB5044600790D46001F042812D82F482F78007B800609D540212046FEF70BFE691C684600F006FA07
:40B6C000002804D039462046FEF7F1FDFEBD254680356846A9688088C8806846A968008888806846A968C08848826846A96840880882204600F04EFA1B4948702046FBF759
:40B7000013FD2646403600280ED1FFF753FD328A6179FCF7A5FA0146A8682831C38A828A89B22046FFF766FAF18AA078FEF710FC142F12D00B49207D097B20221140084396
:40B740002075607EEF2108406076074840780128BCD12046FFF784FFFEBD034815218170FEBD0000EC28002074210020014AD2681269104774210020014AD2681269104758
:40B78000742100203EB50446FF20694608720020009008710F48007B800619D50E48806820308078002813D002AA01A96846FBF7A7FA00280CD16846037AFF2B08D00099ED
:40B7C000002905D002792046FBF799FE00203EBD01203EBDEC2800207421002070B504464878142801D0152825D1607EEF210840607640212046FEF76AFD2046FBF794FC3B
:40B800002546403500280FD1FFF7D4FC2A8A6179FCF726FA0146882000592831C38A828A89B22046FFF7E6F9E98AA078FEF790FB2046FFF715FF70BD10B5044601F096FB10
:40B8400001000CD10748C26B92882280C26BD2886280C26B1289A280C06BC088E080084610BD0000B829002010B5044601F084FB002806D10349CA6B12882280C96B498830
:40B88000618010BDB829002070B5054601F07AFB002812D12888FCF7ADFF04000ED0FDF74AFB00280AD02079092809D0F8F778FEAA886988204600F0B7F870BD022070BDE0
:40B8C0000C2070BD10B5044601F062FB002806D103492288CB6B1A80C96B62884A8010BDB8290020F3B506461F480025007B81B0800636D534468034902200213046A768D4
:40B90000F7F71CFDA7600298012806D1304618218830F9F721FB050023D11448A268C16B89881180C16BA26809895180A2681B219180A268D180A2681181A2685181C16BD0
:40B94000A268C9889181C06BA1684089C881FF20A16849300882A1684882A1688882A168C8822846FEBD0000EC280020B8290020F8B504461B26294800250F468680002900
:40B980000DD024210830F9F7E7FA050044D1002F05D00C212248F9F7DFFA05003CD120491E4F3C39C86B0680FF20CA6B493050802068CA6B008890802068CA6B0088C000D1
:40B9C0007030D0802068CA6B408810812068C96B40882022C000703048811249087B10430873B86820308678002408E0B968E0000858002801D009F057FF641CE4B2B44277
:40BA0000F4D324220021B868F7F798FCB868FF2120300170002141702846F8BD74210020F4290020EC280020F8B50446FF23084649331B38E12804D2224DAA4201D89A42F5
:40BA400001D21220F8BD26468036B06803898B4206D1838A934203D11B4B1B78002B12D0637EDB062BD483891546AB4200D91D460180B06882812046FBF756FB274640376C
:40BA8000002802D00FE00020F8BDFFF793FB3A8A6179FCF7E5F8B1682830CB8981B22A462046FFF7A7F8F98AA078FEF751FA607E102108436076044814218170E3E72320E9
:40BAC000F8BD0000480800007421002030B54A78140284800A7814438480CA781202C2808B781A43C2804B791B0203800D792B430380CD792D02458089790D4345801B2B42
:40BB000007D3FF204930854203D31B2C01D3824201D2122030BD002030BD0000F8B50646002000900D46684609F064FE002801D00720F8BD009934460D708034A0688078FA
:40BB40004870A0684088000A8870A068807BC870A068C089000A0871A06800784871A0680088000A8871A068007BC871A0688089000A0872142D05D105484021428B304607
:40BB8000FBF732FE092231460098FDF7CFFBF8BDEC280020014610B5002000292FD080318A68D3881488A34200D3234614899C4201D0138101208A68538A9489A34200D3CE
:40BBC0002346948A9C4201D0938201208A6893885488A34200D3234654899C4201D05381012089680A8ACB899A4200D31A46CB8A934201D0CA820120014A0021117010BD44
:40BC0000742100200348C078002801D00020704701207047D82B002010B5012200F016F810BD000010B5054802780121002A017002D10120F9F740FC002010BD8421002033
:40BC400010B5002200F002F810BD0000F8B5204D0F4629781646012904D02978022901D01120F8BD0C2148431A494418E078A178884201D31220F8BDF7F736F962780C23A6
:40BC800061685A4351188CCF8CC1E178601C491CE1706178491CC9B20170A278914201D1002101706868401C68602878012803D0F7F716F90020F8BD02202870F7F710F9F4
:40BCC000002E03D00020F9F7F7FBF3E70120FAE784210020D82B002010B51148002101704160C0220F48F7F729FB0E4890220021C030F7F723FB182200210B48F7F71EFB07
:40BD00000948102181700C21817306494160C03101610649816006494161F9F7B5FB10BD84210020882A0020D82B002043AC00003DD30000F8B50025114C01262F46207882
:40BD4000002811D001280FD0022802D0032813D111E000F017F8F7F7C7F86068002800D12670F7F7BDF807E02078002806D02078012803D000E02770002DE0D00020F8BDD6
:40BD800084210020FEB51F4D1F4E0027FF2400200C2141438919C978002901D0044602E0401C0228F4D3FF2C2AD0F7F79DF80C204443A41921780C2260685143081801461F
:40BDC0000EC9029301920091076047608760E078401EE0702078401CC0B22070A178884200D127706868002802D06868401E6860F7F776F8A1680029C8D068468847C5E768
:40BE0000FEBD000084210020D82B002010B5830A082B02D009F002FE10BD00F0D5F810BD10B50C460146207800F026FD0028204603D001F035FA002010BD00F07AFC1F209C
:40BE400010BD10B5820A082A02D009F081FE10BD00F0C0F910BD0000F8B5044640782578000205430020694608702846FFF7E9FF012827D16946A0780978884222D01C4932
:40BE80008D4208D0891D8D4205D0C91C8D4202D0C91C8D4204D11221284600F077F80CE00022022805D32079E178000201430A05120D12212846FFF7A9FF204609F0C2FCB0
:40BEC0001220F8BD0B4EA80A08282A4631460AD0E01C09F087FE204609F0B4FC3146284600F00AF8F8BDE01C00F084F9F3E700000D200000F02B0020F8B50D460446002035
:40BF0000694608701D4884420FD0801D84420CD0C01C844209D0C01C844206D017481830844202D0401C844201D101200870A00A08280A462946204609D009F0A5FE064612
:40BF400068460078002805D0012815D110E000F085F9F4E70022002D05D068782978000201430A05120D31462046FFF74FFF03E03146204600F00AF83046F8BD0D20000012
:40BF80000148007B70470000082A0020F8B5054600200E4600906946082000F0C3FB002801D00720F8BD009C0F202070A670FFF7E7FFE0702571280A6071042060702146CD
:40BFC000FF20FFF72DFFF8BDF7B582B00646002001900420694608707749784B701A0C22F51806278E422BD008DC002D1FD0012D1FD0052D20D00D2D08D11DE0032818D083
:40C0000005281FD006281DD0072812D06C4930460968884769460978401869460870694930460968884769460978401805E0781C03E06846027007E005206946087003E01C
:40C040000B20FAE7684607706846007801A9001D00F068FB002802D0072005B0F0BD019C31462046039A00F0EBF804206946087052481338301805D0052803D0062801D096
:40C080000D2806D10499A17104996846090AE1710770039800281FD14749891F701A8E425DD007DC484F002D1ED0012D2FD0052D06D14DE0062859D0092866D00D286CD005
:40C0C000424B6A461B68214630469847404B6A461B682146304698476846007860702146FF20FFF79DFEB8E769460978387F6118887069460978000A6118C870694608782C
:40C10000801CC0B20870797F2018817023E06946087808222018801C0021F7F70FF9387BF12108406946097861188870F6F7F4FEC0B2022806D0684600782018817849066C
:40C14000490E817069460978787B6118C8702DE0FAF7C0FF05E069460878401C29E0FAF7DDFF6946097861188870F4E7684600782118891C0498FAF7BDFF002801D060710D
:40C18000AAE769460878401D13E06946087808212018801C09F0A4F808E0694608780A492018801C08222031F7F7BFF8694608780830087090E7000015200000FEDFFFFFEA
:40C1C000B8210020A8210020EC280020B4210020A4210020064AC0B21378834206D3401E1269C0B2105C087001207047002070478C21002030B4074BD2B21C78944206D3BC
:40C200009B689200D218403AD26B30BC104730BC704700008C21002007484F21017007494160FF313D318160FF313931C160FF3139310161704700008C210020348701007E
:40C2400070B504460E2016460D462070FFF798FEA070E570280A2071667170BDF8B50D4D16460F46C1B22A780120914210D88C00E868314620184038C26B384690470028D4
:40C2800006D16868314620184038C26B38469047F8BD00008C2100201CB5009001916846F6F758FEC0B21CBD1CB5009001916846F6F74EFEC0B21CBD70B5154C0546442221
:40C2C00000212046F7F73AF8212212492046F7F72CF8114AF121107B0840C3060F48017802D53023194301E0CF2319400170107BC007207F02D00721084301E0C008C000E6
:40C300002077442221462846F7F70FF870BD0000382A0020598C0100EC280020582A002010B5FAF785FF10BD10B5FAF7A9FF10BD002070470120704710B5FBF703F810BD6B
:40C340000020704710B5FAF7FFFF10BD044A0178D18040784007400D0143D18000207047082A002010B5FBF712F810BD38B504460020009069460E2000F0D4F9002801D03B
:40C38000072038BD00993E200870032088702078C870A07808716088000A487120798871A088000AC871A0790872E088000A4872207A88722089000AC8720A204870032089
:40C3C000FFF72EFD38BDF8B50546002000906946232000F0A7F9002801D00720F8BD009C3E2020700A2100F047FA01460120002946D001260A20A07007462878E070A978DC
:40C40000217169880622090A61716878A0712879E0712046294608300C31F6F786FF0C20002E0ED0204629460E3006221231F6F77CFF20462946143006221831F6F775FFC4
:40C440001820AA7921188A70EA88801C120ACA702A7A21188A702A89801C120ACA70AA7A21188A706A89801C120ACA70221869799170401C607021463846FFF7D1FCF8BD6C
:40C480000026A0700127B8E7F8B5044600200E46009015466946082000F044F9002801D00020F8BD0099082008708E70CC70200A08714D7104204870FF20FFF7B1FCF8BD30
:40C4C00038B50C460021054600916946072000F029F9002801D0002038BD0099302008708D70CC70200A087103204870FF20FFF797FC38BD38B5054600200090694611208D
:40C5000000F010F9002801D0002038BD009C3E2020700520A0702878E07028880822000A2071601D6968F6F700FFA9680D200A7862734978A173607021460520FFF770FC6E
:40C5400038BD38B5054600200C4600906946092000F0E8F8002801D0002038BD00991320087001208870CD70280A08714C71200A8871052048700722042000F045FEEBE782
:40C5800038B504460020009069460C2000F0CAF8002801D0002038BD00990C20087020788870A078C8706088000A08716078487120798871A088000AC871A0790872E088E8
:40C5C000000A487208204870FF20FFF729FC38BD38B50446002000906946062000F0A2F8002801D0072038BD0099572008708C70200AC87002204870FF20FFF711FC38BD36
:40C60000F8B5064600200C46009015466946082000F088F8002801D00020F8BD0099052008708E70CC70200A08714D7104204870FF20FFF7F5FBF8BDFEB507460020009078
:40C6400010480E46019015466946082000F06AF8002801D00720FEBD009C324620460199FFF7EEFDA771380AE0710620002E03D1290A25726172082060702146FF20FFF745
:40C68000CFFBFEBD7B0C0000F8B5054600200E4600900C4F6946062000F044F8002801D00720F8BD009C324639462046FFF7C8FDA571280AE071062060702146FF20FFF782
:40C6C000AFFBF8BD7C0C000010B5FCF779FA10BD10B5FCF78FFA10BDF8B505460020074600900D4E6946142000F01CF8002801D00720F8BD009C3A4631462046FFF7A0FDB5
:40C700001022A01DA918F6F710FE142060702146FF20FFF785FBF8BD1720000010B5FAF7C1FD10BD0A4610B5C1B2104609F01AF810BD10B509F090F810BD0000F8B5054660
:40C74000C078AF78164C00020743A07D26468000203E8019103004222946F6F7E6FDA07DB38E800082191032291D042B16D03550A07D0023400080190784A57D2046103000
:40C780002B54A07D401CC0B2A075042800D3A375B08E401CB086104600F073FDF8BD0000542C0020FEB5144C0025E17D204610300D54E07D26468000203E305809F060F8EB
:40C7C000E07D401CC0B2E075042800D3E575B08E401EB0860948807A00280CD00095019511206A4602951081558129460A460020029B09F00DF9FEBD542C0020082A00200D
:40C8000010B5184C207A002827D1F8F7C7FF164900208875C8752039888620726072A072A08210BDA07A00280DD0401EA0720D4A0006410D403A8818515C4068022907D030
:40C84000042907D101E00920F0E709F005F801E0FFF7A8FFE07A401EE072E07A0128E1D810BD0000AC2C0020542C002010B5FFF7C7FF002010BD00001B4B10285A7A2DD0D6
:40C880000CDC0C2823D004DC05281ED0082829D124E00E2824D00F2824D121E0302818D004DC13281CD01A281CD114E03E2802D0572817D111E0500614D5491E0120884060
:40C8C000D98880B201420BD10CE0012006E0802004E0202002E0022000E00420024201D00120704700207047082A002010B50B460178401C197001460622581CF6F715FD5B
:40C9000010BD034610B5084608221946F6F70DFD10BD704770477047427812020A8003781A430A8080788870704770B50D460446014610222846F6F7F8FC21461022103197
:40C94000A818F6F7F2FC70BD034610B5084640221946F6F7EAFC10BD427812020A80007802430A80704710B50B4641780A021A800178801C0A431A8001461022981CF6F751
:40C98000D4FC10BD427812020A80007802430A807047427812020A80007802430A80704770477047427812020A80007802430A807047427812020A8003781A430A808078B8
:40C9C00088707047007808707047427812020A80007802430A80704710B50B460178401C197001460622581CF6F79FFC10BD10B502780B460A701F2A03D8411C581CF6F7F3
:40CA000094FC10BD00780870704770B5054640780C46000208802978062208432080E87800026080A978084360802879207168796071A879A071E91DE01DF6F776FC687B51
:40CA40006073A87BA07370BD0022835C0B70521C491CD2B2082AF8D370477047034610B5084606221946F6F760FC10BD7047704710B502780B460A701F2A03D8411C581CDC
:40CA8000F6F753FC10BD70B5054640780C46000208802978082208432080A91C201DF6F744FCE87A102200026080A97A08436080294620460C310C30F6F737FC70BD0278AB
:40CAC0000A7042784A70807888707047427812020A8003781A430A80C27812024A80807802434A80704710B504460088FBF760F800280AD0A078152811D008DC05280ED009
:40CB000013280CD0142808D109E0022010BD1A2805D0292803D03B2801D0122010BD002010BD012070470078012801D91220704700207047002070470020704700207047FE
:40CB400010B50088FBF734F8002801D0002010BD022010BD10B50088FBF72AF8002801D0002010BD022010BD10B50088FBF720F8002801D0002010BD022010BD002070473C
:40CB80000078272801D912207047002070470078012801D9122070470020704710B501790388428804291BD801290ED0934217D80124A403A24213D8202B11D3817B032967
:40CBC0000ED8012901D0042902D18179032907D84179032904D8407B410701D0C00800D0122010BD00781F2801D91220704700207047002070470020704700207047002024
:40CC00007047002070470020704710B50446007827280AD8F6F780F9C0B2022802D06078252802D8A078072801D9122010BD002010BD10B50088FAF7BBFF002801D00020E6
:40CC400010BD022010BD0120704710B50088FAF7AFFF002801D0002010BD022010BD10B504460088FAF7A4FF002804D0A078012803D9122010BD022010BD002010BD002020
:40CC8000704710B504460088FAF792FF002804D06088002803D0002010BD022010BD122010BD704700207047014A126852681047A0210020014A1268D2691047A02100206D
:40CCC000014A1268926A1047A0210020014A1268D26C1047A0210020014A1268926D1047A0210020014AD26852681047A0210020014A126812681047A0210020014A126851
:40CD000092691047A0210020014A1268D26B1047A0210020014A1268126B1047A0210020014A1268526A1047A0210020014A1268D2681047A0210020014A1268926C104702
:40CD4000A0210020014A1268526D1047A0210020014AD26812681047A0210020014A126892681047A0210020014A1268126A1047A0210020014A1268526C1047A0210020B4
:40CD8000014A1268926B1047A0210020014A1268926E1047A0210020014A1268D26A1047A0210020014A126852691047A0210020014A1268126D1047A0210020014A12684A
:40CDC000D26D1047A0210020014AD26892681047A021002070477047427812020A8003781A430A80C27812024A8083781A434A80427912028A80007902438A807047427891
:40CE000012020A8003781A430A80C27812024A80807802434A8070470749401805D0012805D00D2805D0002070470220704704207047082070470000DEDFFFFF002070479B
:40CE400070470000FEB50D4627491646147840180022002802D00C2844D115E06B461A7101A96846FEF700FD6B461988281981701988A41C090AC170E0B25A8829188A708D
:40CE80005A88120ACA702BE069460A7202A96846FEF7D2FC694689882819817069468988A41C090AC170E0B269462A18C98891706946C988801C090AD170C0B269462A180A
:40CEC0000988917069460988801C090AD170C0B2694649882A18917069464988090AD170801CC4B23470FEBDDDDFFFFF38B504460020009069460F20FFF714FC002801D078
:40CF0000072038BD00993E200870072088702078C8702088000A0871A07848716088000A88712079C871A088000A0872A0794872E088000A8872207AC8722089000A0873D1
:40CF40000B2048700720FEF76BFF38BD10B5FEF773FC10BD10B5FEF787FC10BD10B5FEF793FC10BD10B5FEF7ADFC10BD014A1268926A1047B0210020014A1268126910476D
:40CF8000B0210020014A126852681047B0210020014A1268D2691047B0210020002801D00020704712207047002801D0002070471220704710B504460088FAF7F9FD002859
:40CFC00016D0618808461B38E1280FD2A0880A4A90420BD8FF224932904207D3074AD26B9388994202D8D188884203D9122010BD022010BD002010BD48080000B8290020D5
:40D0000010B50021002815D0028813461B3BE12B0FD24088084B98420BD8FF234933984207D3064BDB6B9C88A24202D8DA88904200D91221084610BD48080000B829002088
:40D04000014A1268526A1047B0210020014A1268D2681047B0210020014A126812681047B0210020014A126892691047B02100200448034901600449416004498160704745
:40D08000248D0100B021002045CE000019CE0000014A1268D26A1047B0210020014A126852691047B0210020014A126892681047B0210020014A1268126A1047B021002032
:40D0C00010B50B48017A01290ED0C17A00290CD001210172407A064BC000403BC1184A884968185CF8F75BFB10BD0021017210BDAC2C002070B503461448C47A092C0BD324
:40D10000022B05D0042B02D10846FFF712FB70BD0846FFF747FB70BD847AE5000B4C403C6355837ADB001B195960817AC90009194A80C17A491CC172817A491CC9B2817236
:40D140000929E8D30021817270BD0000AC2C002010B50F4CE17A002918D0617A2246C900403A515C022904D0042904D1FFF7E1FA01E0FFF717FBE07A401EE072607A401CCF
:40D18000C0B26072092801D30020607210BD0000AC2C00207047FEB5002406460D462046009401940294012E05D0022E1AD10846FAF794F815E012206946088100954A8174
:40D1C000002B69460EC90ED0002008F0FDFB040007D000F02FF8002803D02946304600F043F8E0B2FEBD002008F012FCEFE7000010B5FFF7ADFF034800210172FFF760FFAF
:40D2000010BD0000AC2C002010B5FFF773FFFFF757FF10BDF8B5154607465C1B2046069EF6F783F8A81982B221463846FFF7ECFFF8BD00000148007B70470000F829002079
:40D2400010B5012802D002280AD103E0084608F079FA02E0084608F0BDFA0006000E01D0002010BD012010BD10B5012805D0022802D1084608F018FB10BD084608F0E2FAA6
:40D2800010BD08B50B46C17882780902891889B20091014604220220FFF7BCFF002008BD3EB54178002216236C46029223810090891C61810120029B009908F0A9FB0020A8
:40D2C0003EBD10B500210846FEF760FE10BD0EB500210191029118216B461981009001205881002A69460EC902D008F06DFB0EBD012008F08DFB0EBD10B50B4B0B4A0C49EA
:40D300000C48F8F745FA0C480021017241728172C172017402468182403A116641828173C173084610BD0000CFD2000095D1000097D10000C3D20000AC2C002010B50189A8
:40D34000162907D017290BD0182902D10068FFF74FFF10BD428901680420FFF755FF10BD0068FFF7EBF910BD70B58AB0284801F067FF00280FD1274801F002FC00280AD1E2
:40D38000264925480860084600F0F6F8002802D1234806F0A9FB054602A802F0BDFE002402AE07E0E000001B8019401CF9F7B6FA641CE4B26846007AA042F3D8002D24D103
:40D3C0000020694688716846F9F7EAFA062269461448F5F7AAFF684602F0FCFF0120694688716846F9F7DCFA062269460E48F5F79CFF0021012000F067F80C480078012809
:40D4000003D10021FD2000F05FF828460AB070BD81E40000DDE70000A50A0100C0210020C9080100D0220020DC220020B420002070B504000ED0206800280BD00A4DA8607D
:40D440000420687000F0D4FD204601F0AFF8002802D006E0012070BD02F0A4FF204603F0CBFE0021297070BDBC21002010B503F0E7FE01F0A5F900F059FD02F00DFE02F0C7
:40D4800013FE10BD10B5002422460A490A4800F06FFD0A49884200D108240949884205D00849884202D0491C884200D10324204610BD000069D300003D0801001110000047
:40D4C0000520000011110000002804D0024A9268002A00D010477047BC21002070B50546012016460C46002D11D0002C0FD0002B03D1F9F7ABFB002809D1B2B22146284676
:40D50000F5F7FAFB002802D0012800D02C2070BD08B50420694608700220FFF7D5FF08BD30B5054608480C000CD0002D0AD0284600F00EF8002805D16978044A090189183A
:40D54000C988218030BD0000112F0000D02C002001464A780648002A09D1064A137ADB439B0704D409781278914200D100207047132F0000D02C00200849002809D0006802
:40D58000002806D006490A68002A04D00348C01C704708467047086000207047112F0000C8210020F7B586B0069815460E4600280AD0152E05D01E2E09D9D22E07D0522E75
:40D5C00005D0F74809B0F0BDF548401EFAE7002000900698694640780490FF2008730698FFF7B6FF07002DD11B2E0CD01D2E0AD0F0070BD0012E06D004980101E9480818F4
:40D60000007BB0421CD1F00703D010E01E2EF3D0F9E71E2E17D004980101E2480818407B002804D0522E0ED0D22E09D10BE01D2E09D104980101DB480818407B002802D037
:40D64000D74FBF1CD0E0012E1CD004980101D5480818C088001DF7F759FD040014D0D0490120091D0F2E72D011DCCF4A3300F7F7ADFB0F292BF947F855F771F67EF591F47E
:40D6800085F329000920E6E7C54F0D3FACE0182E73D009DC3246103A1300F7F797FB08E0B4FB2E1313E4E4131E2E26D006DC192E23D01B2E01D01D2E04D1EBE0522EFCD0AF
:40D6C000D22E7DD0B64F8CE0E87804280DD00499AA780B01B3495918097B491E8A4204D0062802D0AE4FBF1C7BE0A87860712888A071000AE071E878F7E06946488154E01D
:40D7000028881738904201D30F466AE003206946488128886071000AA07146E02879012816D0102702206B46588128796071EA885889BF1C231D7A43C0182968F5F7F5FDD1
:40D740006B46E88859897843081858812DE04FE00227E7E769464881A88829688200601DF5F7E3FD69464889A9888900F3E002206B465881A888801C5CE08EE129680029D1
:40D7800002D0A988002905D1012100916946488100200190012221462846049B00F040FB070023D0009800281BD0267100206A4690735673304600F00DFA6A46107300E071
:40D7C00037E106990B7813724978517201945189091D5181014601AA002002F07FFB070002D02046F7F7B0FC3846EBE6E88817E169464881AA88601D2968F5F796FD69468B
:40D800004889A988A7E0E888002800D17CE7A8880028FBD0049A1301624A9A18D288521E9042F3DA28680028F0D002206B465881A888001DA8806071AA88E8885B89424382
:40D84000201D18182968F5F770FDA888E9886B4648435989401878E7D9E0BEE0B5E0E1E046E034E021E02A89002ACFD06B4658812989221D81545B89090A671DD9556B46CD
:40D880005889801C81B25981A88988545989000AC85552E0012221462846049B00F09CFA07009ED1E888C01C27E7288817389042ACD203206946488128886071000AA07123
:40D8C0000498298802013748101841806DE7288800289BD06A88002A98D0904296D86071000AA0716888E071000A2072052004E72B89002B8AD06A89002A87D0934285D85D
:40D900006B4658812A89211D4254100A5B89621D98546B465F896889A31DF8546B465B89000AE71DD8556B465889001D87B25F81A88978545989000A885458892146801C96
:40D9400082B25A812846049B00F06AFA0700A8D169464889E9884018CFE69A42BED86B4658812A88211D4254100A5B89621D98546B465F896888A31DF8546B465B89000A9A
:40D98000E71DD8556B465889001D87B25F81287D01280BD078181022291DF5F7C6FC0AE0122F0000D02C0020F9010000A88878545989000A885468464189287D012801D0F3
:40D9C000102000E00220081897E62888002891D06071000AA07103208FE62A88002A89D06A46508128886071000AA0715089801C81B251816888221D88546A46010A52892E
:40DA0000601D11546A465089801C5081CDE621462846049A00F0BEF9070098D1E8884000401C6AE62A88002AD1D06B88002B94D16AE62989002900D1D3E669464881298996
:40DA4000271DC1550A0A69464989601D0A5469464889801C48810498010117480818C0880F3880B2E880A988884200D9E9806B465889EA88C0192968F5F757FC6B46588935
:40DA8000E9880C22401880B25881C019A918F5F74CFC6B4658890C3057E62A78002A01D0012AC5D1694648812978221D815469464889401C22E60000D02C002010B50A48E9
:40DAC00000210160094804224270012282601722C2804280828001734173054A1721042001F0EEFB10BD0000C8210020D02C0020F5DB0000704770474079034A00018018BB
:40DB00008068086000207047D02C0020F8B5074640790E46010120480C18A568304609301FD0042805D00C210D280CD0112831D122E06078042803D0F7F78CFB04206070A6
:40DB40000020607316E06078042806D10091601C3B46124A1E21F7F729FB787A401C607317E06078042803D0F7F774FB042060700020207335400DE06078042806D10091E5
:40DB8000601C3B46054A1E21F7F710FB787A401C20733543A560F8BDD02C002065DE000070B502010A481418A16001290FD160780425042802D0F7F74DFB65700120A06093
:40DBC0001720E0806080A08000202073607370BDD02C0020032809D9C10704D01B2804D01D2802D003E01E2801D0F1207047F22070470000F0B585B0054603294AD803D116
:40DC0000002A47D0002B45D0444801248446FF206E4630717071B4722E78414827463F01103FC75D641EBE4209D127013F18BF68012F04D06E4674712878307107E0002C2B
:40DC4000ECD16646002E02D0012923D124E0012920D0022945D01078142801D9162805D31E2850D9D2284ED052284CD0FF206946087248720092CB806846017A6A46002016
:40DC800002F02CF92549491E884203D10121062007F016FA05B0F0BD0A461201103A12189268491E012A02D00029F5D1E4E7CAB26B465A712C781C712B78090143540221AA
:40DCC0001046FFF76DFF81206B461872587203A9284600F0EBFA03A8009007206B46D880CAE7E0B20121FFF75BFF822069460872487203A9284600F0D9FA03A800900720F3
:40DD00006946C880B8E769464872FFF763FF6946521C08725B1E0092ADE70000132F0000D02C0020F8B50546447A807A0E46012821D1287A81281ED082281CD0002E0ED1FD
:40DD40001E2C0CD0E00702D01D2C06D009E0522C05D0D22C03D01B2C01D0082108E0E00702D01B2C02D106E01E2C04D10421C9432846FFF7CBFE06480768002F06D0E88807
:40DD8000009032462146281D2B68B847F8BD0000C8210020F0B5838801240568002B15D00B4E12019719FA88A61CB24209D32A880C192271120A5B1EAD1C6271B4B2002BB1
:40DDC000F1D18188C91AC1800020F0BD0148F0BDD02C0020162F0000F8B505899C468E46002D16D08188961C8F1919010B4B0A4CCB18DB889F420AD8714689180D712A0AD0
:40DE00004A71B2B26346714600F00AF804462046F8BD01480A38F8BD202F0000D02C0020F8B50D4684880168002C01D0002909D01F010A4BA618FB18DB889E4204D99B1AD2
:40DE4000C38002E00648F8BDC480C388A818001D1A46F5F76AFA0020F8BD0000D02C0020112F000070B504464079002501010D480D4E08188068C0434107002901DB691F4E
:40DE800003E000070DD40821C9432046FFF73EFE607A3146401C60722560E5802046FFF741FF70BDD02C0020172F000070B50446C38804C8042101F0CFF905000FD1617A12
:40DEC000C8070ED01D2912D0522908D0D22906D01B2904D00821C9432046FFF717FE284670BD5229FBD0D229F9D01E29F2D00421F2E710B582798B799A4204D10622F5F736
:40DF000005FA002801D0002010BD012010BD0000002804D003490978017000207047024870470000CC2100201310000010B50E4C2078032803D0022801D00C4810BD07F004
:40DF40007DF907F09CFF00F001FE05F0A5FB07F095FFF7F732FBF7F751FA00F0E5F806F005FE0020207010BDCC2100201210000070B5154D04462878012801D0134870BDD1
:40DF800002202870696007F0ADF806F0E1FD00F0ADF8F7F731FAF7F70FFB07F076FF204605F088F8040003D105F03AFB040002D00120287005E000F087FD07F067FF07F043
:40DFC00036F9204670BD0000CC2100201110000010B506480178022905D1032101704068002800D08047002010BD0000CC21002010B50D4C2078002814D1606007F034F907
:40E0000007F076F806F01CFE00F09EF9F7F7D6FA07F042FF05F0BCFB00F0AAFD07F03DFF0120207010BD0000CC210020FEB504462B480E002AD0002C28D0204600F08EF974
:40E04000002821D0264FBF1CB84220D0B579022D01D0032D1BD1062231466846F5F765F9AD1E684685716946204600F077F900280AD0B8420BD002A9684605F071FD0028CD
:40E0800009D16846007A20701548401CFEBD1449C91C8842FAD120780E22124D5043B1794019817120783146504340190622F5F73CF90D480E228179207850434019417359
:40E0C0002078094950434019C01D0622F5F72DF90549491E0878401C08700020FEBD000011140000E02C0020D5210020F8B505240B4F0026641E0E206043C5190622002118
:40E100002846F5F71BF9AE71E81D06220021F5F715F96E73002CEDDC02480670F8BD0000E02C0020D42100207047000010B5062200210548F5F702F9034806220021801F52
:40E14000F5F7FCF810BD00002C2D002010B50C46014606220648F5F7E8F8002C05D0044806222146801FF5F7E0F8002010BD00002C2D002070B5040004D02078052804D39B
:40E18000124870BD1148001F70BD0E214843104D062240190021F5F7D1F820780E2148430026401986712078062248434019C01D3146F5F7C3F820780E2148434019054965
:40E1C00046730878401E0870002070BD15140000E02C0020D42100200B0010B50D4906D0002804D00278052A03D3081D10BD084610BD0E214A4308495218527B9A7100780E
:40E200000E2250434118C91D06221846F5F78DF8002010BD11140000E02C0020F0B50646002085B005460490029003901D480C46002906D0002E04D03078052803D3194899
:40E24000001D05B0F0BD184F0622B91D02A8F5F75DF8002806D00622B91D2046F5F765F801201BE021463046FFF7B6FF0490A079022814D302D0032803D005E06846857169
:40E2800002E00120694688716846F8F789FB062269462046F5F749F868468079A0710498CFE7000011140000262D00200B0010B50D4906D0002804D00278052A03D3081DEA
:40E2C00010BD084610BD0E214A430849521892799A7100780E225043411806221846F5F724F8002010BD000011140000E02C00207CB50026054612480C46009601960029A5
:40E3000006D0002D04D02878052802D30C48001D7CBD06220B496846F4F7F8FF002807D0062208492046F5F700F80120A07104E021462846FFF7BAFF064630467CBD000057
:40E3400011140000262D002010B50021024A084606F00AFF10BD000039E40000F3B583B0054604981749002818D0002D16D005248E1C2C7000206946009088808871641E06
:40E380000E2021464143104809180F460498FFF7B0FD002805D000262C7010E0084605B0F0BD2878052808D139466846FFF7A1FD002802D0034E2C70F61C002CDFDC30461B
:40E3C000EDE7000011140000E02C002010B50C46002808D0014606220448F4F7A6FF03488471002010BD024810BD0000D52100201114000010B50E4A002907D0002805D0FD
:40E400000278052A04D30A48001D10BD104610BD0E235A43074B8C79D218947100780E225043C0180622F4F780FF002010BD000011140000E02C002070B5104D002A0FD07B
:40E44000012A0CD100240E206043421900210E23084606F07FFE641CE4B2052CF3D370BD00240E206043421900210E23084606F0D5FE641CE4B2052CF3D370BDE02C0020D8
:40E4800008B502290DD003290AD150786B460002188011780143198069467220FFF714F808BDD0789178000201436846018069467120F3E7024610B5FF20002A14D02A4B80
:40E4C000D11A9A423ED01FDC2849541A8A423BD011DC274BD11A9A4236D007DC2549511840D00C2901D12DE0002010BD012939D00229FAD126E00A3C2300F6F767FC06278A
:40E50000252B04292F04F0E72F291BD00EDC052924D005DC012917D00429E6D1102010BD09291BD02E29FAD1062010BD4E290BD004DC4A2910D04C29F7D103E05C290FD0F7
:40E540005E29F2D1022010BD012010BD0D2010BD0E2010BD0F2010BD112010BD042010BD122010BD032010BD262300001623000012230000FBDCFFFF10B509480068002873
:40E5800001D0F6F7E1FD07480068002801D0F6F7DBFD05480068002801D0F6F7D5FD10BD18220020F8210020F4210020F8B56349074600240C701E20C870B879032600280A
:40E5C00000D101208870F879002800D1012048703A89002A02D0121F8A8000E08C807A89002A02D0121FCA8000E0CC801C214843F6F78CFD5249002808607DD04F4D1421DB
:40E6000068784843F6F782FD4E490028086073D02846807824214843F6F778FD4A4D0028286078D0002600F0A1F8444B009432E0242041432868242244500099514308180F
:40E640004460009829685043401884600098296850434018C46000982968504340180461009824214843296840184461009824214843296840188461009824214843296828
:40E680004018848300982421484329684018C4830098401C0090987800998142C8D328482146009425E01C225143026889188C6000991C225143026889188C8100991C2245
:40E6C000514302688918CC8100991C225143026889180C6100991C225143026889188C8200991C22514302688918CC820099491C00915A78914200E00DE0D4D31D46204692
:40E70000009405E0684600F03DFE0098401C009069788842F6D3384600F06EF8F6F7F6FC06490028886007D0002E03D000F01EF8FFF722FF3046F8BD0326F7E7DC21002039
:40E7400018220020F8210020F421002003B5012081B0002909D0C88800908B884A88098801A800F019FDFFF7A5FE0EBD10B51048104C0068002805D062781C214A430021B9
:40E78000F4F7DCFD0C480068002805D0627814214A430021F4F7D2FD08480068002805D0A27824214A430021F4F7C8FD10BD000018220020DC210020F8210020F421002041
:40E7C00010B5FFF7D3FFFFF7D7FE034CA068F6F7BBFC0020A06010BDDC21002013B5684604490078087069460520FEF76DFE00201CBD0000DC2100208088452800D845200D
:40E80000704700000B494028497810D30A46403290420CD2084B14221B684243D21805231B02D21A9278002A01D001464039C8B270470000DC210020F8210020F3B581B07E
:40E840006846007914210246484322494032096800240F5C41184D8900928878022806D0032806D0052804D0062805D103E0012402E0082400E0042401A800F083FD164E2A
:40E88000E0070DD0182047431448242138183268001D6943891800234F681946029AB84760070DD50E490298884201D1002100E001462420326868438018C2680098904731
:40E8C000200706D52420454330682818816800988847FEBDF8210020F4210020342D002038230000FEB50E460746082B04D00021304601F07BFAFEBD507915790002054369
:40E90000D0799479000204432846FFF77BFF69460872FAB2294602A800F0ACFD002809D16846007A142148431349096840188088A04208D00023022231463846009501949C
:40E9400001F084FAFEBD082307222946304601F0B5FA44200949704340188575290AC1750476210A4176304601F076F968460449007AFFF763FFFEBDF82100203C2E0020F3
:40E9800038230000F8B50E46082B29D15079157900020543D0799779000207433846FFF731FF04460F480178A14219D00E4914200968604340188188A94211D1807806280B
:40E9C0000ED144200949704340184089B84207D10121304601F00AFA05492046FFF72EFFF8BD0000DD210020F82100203C2E002038230000F8B50746694600F091F900283C
:40EA000051D101220721009800F0F0F801220821009800F0EBF8244E0024E0003558002D04D004236A4602213846A847641C032CF3D300241D4E1E4D04E0E0B23146FFF785
:40EA4000FDFE641C28788442F7D300240121204601F0CCF9641CF9D01648174C0088002808D000981821484300194188134802888918018012491B20088000981821484338
:40EA80000019083007F072FD0098002201461823D243584322520019FF220271094A1720490050520020F8BD242E002037230000DD210020EC210020342D00201C22002052
:40EAC000EE210020F021002010B500211C48C9430180FF2101711B4A17201080184A00201832142343439B18401C19740A28F8D314490A200839486100220A7003208861E6
:40EB000007200A62C8610E488A704A70E0300260C2728280501E4862094B88621046F033C400401C1A510328FAD307480123827343600281042303704274CA6210BD00003E
:40EB4000342D0020F02100203C2E002070B5074D0024142060434019007CFF2802D0204600F0AEF8641C0A2CF3D370BD4C2D0020024800218180C18070470000E82100204C
:40EB8000002803D0024908620020704701487047E82100201623000070B50024114A0146651E142060438018007CFF2808D0641C0A2CF6D30121084606F082FA284670BD18
:40EBC0002046142600237043135080188381C3814560017404490868401E086000F0B6F8204670BD4C2D0020FC210020F8B50F461F4916460C68601C38D01E480068844266
:40EC00001CD014201C4960434018406812E01421194A41438D18297CB94209D1142363439A1869685160002E03D000F049F800E004466868411CEAD10E4804600C4A1421E5
:40EC400010680D4B4143C9180B7CBB420ED10B4C0023E372A38049681160064A1368984200D11160002E01D000F02AF8F8BD00000C220020102200204C2D0020142E0020A0
:40EC800010B50C4A0C4914680C4B641C0FD00A6814246243D218506008600868142100224843D243C018426000F05CFA10BD08601060F2E70C220020102200204C2D002083
:40ECC00070B5054614200D4E4543AC19207C072801D0082804D17059002801D0F6F734FA00207051A081E081FF20207404480168491C016000F02AF870BD00004C2D0020E1
:40ED0000FC210020044A1288824202D1002008607047024870470000342D00201123000010B5074A074C1388A34206D000781279904202D10020086010BD034810BD00004E
:40ED4000342D0020FFFF00001123000030B411480268002A01D0012300E000230E48104C01680E4805682078A94201D800280DD00C4D2D68A9420BD3012809D1002020706E
:40ED8000012B05D130BC89B2C0B210470120F6E730BC704708220020FC21002000220020E821002004220020FEB541490020087040480568681C72D014203F496843441835
:40EDC0003E48C17A808808180004000C02D1284600F080F83949284600F0BEF800285ED1207C009001280CD1A0684421344B41430022C9184A74097C012902D1002100F08E
:40EE0000F5FF2C48019501688D4201D161680160207CA6686568082834D11C20374647432848A389016879180A8BD218121F92B20A83016879188B8A9A4223D10446086900
:40EE4000F6F782F9216800207918086121681E4A7918888221687918C8822168791808831421126871438918498924225143174A30464030126880B2891800230C6A1A46B5
:40EE80001946A0470198FFF71BFF681C07D00098082891D1F0B200F03FFD8DE7FFE705480068401C02D10A49401E0860FEBD0000E92100200C2200204C2D0020142E00208B
:40EEC0003C2E002018220020F8210020F421002010220020142148431B4910B54018C289036800219C18194B1C608489A21A94B29C80027C012A04D0072A0FD0082A16D1F1
:40EF00000EE080684421484311494018807B002801D005210BE00020988010BD017A06E08068142148430B49096840188188D87A001DC0B2D8720019001F1873000A58735D
:40EF40009973080AD87310BD4C2D0020142E00203C2E0020F8210020F0B50C46C97AA28885B089188EB2002103915249142309684F4A5943504BC918142358434E4B097C8A
:40EF8000C018012904D007290ED0082912D115E08068442148434949401847681820394641434748405A02E08068070C0CE0009090420ED10020E072A08076E08068142180
:40EFC0004843404909680F5C18203D497843085AEDE73D48008800282ED064E03B480088002803D038480088002825D038480588AE4200D83546701B86B23648C07A0028DD
:40F000001DD0002002906A460098107100980123010A02980001014303988001014351719571280AD071042201A90220F6F7CEFA0298002805D010E0012005B0F0BD012055
:40F04000E0E72146E27A00230C310220F6F7BEFAE07A281A85B20020E072A088002812D0A84200D8054600232A4602202168F6F7ADFAA088A84201D3401B00E00020A08028
:40F080002068401920601820394641430C4808184188491C41800D480088002803D00A480188491E0180002E98D10020C5E70000FFFF00000C2200204C2D00203C2E0020E4
:40F0C000342D0020F82100201C220020EC210020EE210020142E0020074B084A18801180002801D0002902D100201080188004491088088070470000EE210020EC210020B0
:40F100001C2200200149088070470000EE21002038B50C466946FFF7F5FD00281BD10098182148430C4940184188A14201D2002100E0091B418009480088002807D0084A37
:40F140001188091989B21180814200D91080002C01D000F007F838BD342D0020EC2100201C22002010B50948017800290DD108490988002909D007490968491C05D0012158
:40F18000017000210846FFF70FFE10BDE92100201C2200200C220020F0B585B00A9E1F4614460D4606290DD31921C9018C4209D8A54207D8FF22F432974203D80A2E01D3A6
:40F1C0008E4202D91B4805B0F0BD03A9FFF7A8FD002802D017484230F5E703981821164A414389184979002920D004AB00220C2102930192009113461222052100F0A4FD82
:40F200000028E0D1049844210C4A414389188D752A0ACA750C76220A4A768F763A0ACA760E77320A4A7700F017FDCCE701484330C9E7000012230000342D00203C2E002028
:40F24000002803D00249086000207047014870471422002012230000F8B51C0015460E4606D0002D04D0002802D0311F032901D31148F8BD6946FFF753FD002802D00E4892
:40F280004230F8BD0720FFF787FC411C10D000990A4B0A041421324341430E46C9188A609D518C810422CA81FFF7EAFC0020F8BD0148401CF8BD0000122300004C2D0020BC
:40F2C000002A02D0031F032B01D306487047C300054818180346203B99804038026200207047000012230000242E002038B51446002801D0042901D0074838BD6946FFF76B
:40F300000FFD002802D00448423038BD0098034940000C52002038BD12230000F021002030B504460B480D4B01780B481A68491E14254D43AD18AD78002D02D00029F6D1E6
:40F3400030BD217014241B68002001226143C9188A7030BDDD2100202B230000F821002030B40D46C100064808184038046A002C04D02846A44630BC0321604730BC704702
:40F38000242E0020F8B5394F04463A68002A6AD0374E3168002966D02078142343439A1892880025402A1CD31C22504341188868002816D08989002913D0F5F7C5FE2078AD
:40F3C0001C21484331684018856020781C21484331684018858120781C21484331684018C58120781C214843316840180069002813D0F5F7A9FE20781C21484331684018D8
:40F40000056120781C21484331684018858220781C21484331684018C582217814204143386801224254217814225143081885802078396850434018C5802078396850430F
:40F44000401805812078396850434018056120781421484339684018C5602078142148433968401885700020F8BD0000F821002018220020F8B507461646094D094C0846B1
:40F48000FFF7C0F92978814207D0074A142112684143515CB14200D1002438702046F8BDDD21002070230000F8210020F0B587B005460E460020694648810881144688819D
:40F4C00002AF0E2B02D00223009735E06079A279010220790843E17909020A43411E0692FF29F0D2617A6B460A02217A0A431A81E17A09025981A37A19436B465981172A71
:40F5000003D3172901D3914202D90B23009713E004A900F0C9FA0028D5D1607B694600028881217B08436946888101A8FFF7F8FE002808D00423009700223146284600F0CF
:40F54000CDFA07B0F0BD6A4611791420404C414320684554138A117914225143081843816A4611791422514322680698891888806A461189107914225043226880180181D7
:40F580006A4610791422504322683249801801616A4610791422504322682F4980186A46C16011791C2041432C489389026889188B806A46538911791C22514302688918FA
:40F5C0004B806A46938911791C225143026889188B806A46127900211C235A430368D21891606A4612791C235A430368D21891816A4612791C235A4300680E231018C181EC
:40F600006A461779152240373946304600F056FC6A4610791421484321684018467010791422504322680321801881706A46118A242041430A480368C818828B182045430F
:40F6400008485C582818001D02AB3946A04778E7F82100209DF7000015F9000018220020F4210020342D0020FFB587B0089844214843434900244018408900900E2B7CD16A
:40F680005079167900020643D07991790002084369460882507A00024882117A084369464882D07A00028882917A084369468882507B157B000205430098FFF7A3F8694607
:40F6C000087130490978814257D014212E4F484339684018817802294FD1002D01D001242BE06946098A172903D36A46528A8A4201D9264DF3E705218170694608791421B2
:40F70000484339684018868069460A8A08791421484339684018028169468A8A09791C2041431B480368C9188A8069464A8A09791C2300685943081842800121089800F0A5
:40F7400055FB002C02D001A8FFF71CFE07981821484310491422401869460979001D51433A6804AB89184989242251430A4A126889184C682A460099A0470BB0F0BD00003D
:40F780003C2E0020DD210020F82100208123000018220020342D0020F4210020FEB505780020164601902C461C20564A444310680F462118C88800282DD0401EC880002061
:40F7C00002905048006821188A89002A26D08868C9898B1993426CD8081832463946F3F7A4FD484800682018C189891989B2C1814448006820188689B1426BD10121876856
:40F800000291404A0021816010682018818110682018C18133E03C480190D0E778783B4B020238781B68104314226A43D218D288824266D3B21E0092904202D1BF1C96B2D8
:40F840001DE0904218DD2F4A888112680021A218D181F5F75BFC0190002852D0B21EB91CF3F763FD274801990268A2189160006800992018C1812DE023482A380190002E5C
:40F8800013D0224914200968684340184089242148431F49334609683A464018006901998446284640306646B047029801280ED010E0144EF5F748FC316800206118886004
:40F8C00031686118888131686118C88102E03846F5F73AFC1420294641430C48006808184189242041430A48006808180549C28B09686118C9888A4203D3426928464030A0
:40F900009047FEBD1822002071230000F8210020F421002070470000F1B584B000200290304B049D1C201A684543A8184188525B914200D31146019101690391818AC08A1C
:40F94000081A039986B2002901D0002E39D1002005B0F0BD0820FFF71FF90090401CF7D001983446864200D90446201DF5F7CEFB070030D01B48224600682818C18A0398A4
:40F980000918381DF3F7D1FC00991420164B4143C818049A82605F50211D81810421C1810098FFF76DF90F48006828188188491E8180301B86B20B4800682818C18A091963
:40F9C000C1820848006828188088002801D0002EC0D10298BCE70098FFF772F903480290F7E70000182200204C2D002005230000F8B58C46082B47D1507913790002034399
:40FA0000D0799279000202432148224E007800240546376809E014216143C9198988994201D1254603E0641CE4B28442F3D3A8422AD01C202F4647431748184B00683918E0
:40FA400088888018984201D9154C03E08880002A1BD000240121604600F0C8F92846FFF75BFF0D4831680068381882881420684340184089242148430A49096840188369E6
:40FA80002846214640309847F8BD054C641CE1E7DD210020F821002018220020FFFF000073230000F421002030B50A4A0A4B0446074812781B68521E24255543ED18AD8B98
:40FAC000A54202D10A80002030BD002AF3D130BD22230000DE210020F4210020FFB581B00298442148431249164644181F460E23152231460A9D029800F0E0F9A675300A1C
:40FB0000E075287820762888000A6076A878A0766888000AE07628792077A888000A6077A777380AE077029800F096F805B0F0BD3C2E0020FEB50646981F1D4614460F4658
:40FB400005282CD20121384600F050F944204743134838184089FEF755FE694608711149097881420AD0142148430F49096840188078022802D101A8FFF704FC0B48076800
:40FB8000002F0CD0182046430948694630180079AD1E0870A21CABB203216846B847FEBD3C2E0020DD210020F821002014220020342D0020F8B5234E0179427935780068AE
:40FBC000012A01D0022A31D100282FD11E4A1F4B128800249A4229D06A4600F023F9002824D1009844211A4F4143C919497C012908D101221146FEF7F9FF009844214843F2
:40FC0000C0194474009844214843C019042101704489052C0BD02046FEF7F4FD31780546A94204D10021009800F0E0F8F8BD0021009800F0DBF8052CF8D006492846FEF706
:40FC4000FDFDF8BDDD210020342D0020FFFF00003C2E00201823000070B5064644201549704344180120FEF797FF0546401C03D0607C012806D00CE00021304600F0B6F80F
:40FC80000D4870BD012211463046FEF7AFFF002161741421094A694388182346123386605350A18981812846FEF7EAFF01206074002070BD3C2E0020132300004C2D00201B
:40FCC000FEB50E4C2468002C06D018250C4E4543AD196E79002E06D0002200921346019200F0B4F8FEBD28796E4630729B1EA971921C9BB2012102A8A047FEBD1422002019
:40FD0000342D0020F8B517460D4D0A4629681E46002914D0182148430A494418607901280DD10121104600F061F8207969460870B61EBA1C2C68B3B202216846A047F8BDA8
:40FD400014220020342D0020FEB59C460B460146214C08A8A1C8A67B002E01D01F48FEBD00263E60A274071F27753F1267756160E6736381A0816674002A01D0D00706D04D
:40FD80006046E0742574E07CA0730020FEBD144A01231078401CC0B21070002800D113701278E274002DEDD10E486F46007820817B723A72019108210091014601AB0A4A77
:40FDC0002046F5F7F3F90028DCD0A6730420207002480938FEBD00003C2E00202F230000EA210020DF210020B5FB0000F8B5442205460B4E55430027AC19012907D1617CED
:40FE0000012904D101221146FEF7F0FE6774A773705D042803D0F5F71DFA04207055F8BD3C2E002010B5074CA37CDB0708D1A37B8B4205D16168814202D10020106010BD0B
:40FE4000014810BD3C2E00202E230000FFB581B050001E46801D0A9D144683B2012229460B9F029800F02AF80298442148430E4940181230210A04714171002C0ED0012C39
:40FE800002D0022C0AD103E08671310AC17105E08571290AC1710772390A41720298FFF7DBFE05B0F0BD00003C2E00201CB50022009213460192FFF7C9FF1CBD10B54424E7
:40FEC0006043054C001982741C1F0475221242758381418110BD00003C2E0020F7B5002614225043234B0F46C41882B0354631468446227C12E00C20E3684843185CB8421B
:40FF00000AD108460C256843054608355D5B001D185AAEB285B203E0491C89B28A42EAD814488A4202D1144805B0F0BD614642586946049890470746009916E0A068F20053
:40FF4000805808420FD0F000A168001D095800290DD00498884762680746002A07D001460498904703E0761CB6B2AE42E6D93846DAE70000AC8D01001113000070470000E6
:40FF800008B50120694608700549002088800146044803F09DF869460220FDF795FA08BD202200200A20000000B5FF210206120E11D02F4BC21A984251D028DC12284AD07F
:40FFC00010DC07284FD008DC012848D0022844D003284BD13DE0002148E00C283FD0112844D13EE0234BC21A984238D007DC23283BD03B282FD0204A801837D12FE0FF3AEF
:020000040001F9
:40000000FF3A013A2BD0FF3A013A2FD123E01B48131A824223D011DC194BD01A9A421AD007DC012A19D0022A15D0164810181DD119E001280FD0052818D10EE01248181887
:400040000300F4F7C3FE09080A130C130C13130C13002A210AE0012108E0072106E0022104E02B2102E0032100E02D21084600BD1314000012110000EFEEFFFF070C00001C
:40008000FF0B00000EF4FFFF09F2FFFF10B5FBF72EFAFFF789FF10BD02490148886070477DFF00002022002002490148C86070477DFF00002022002010B5132100F001F8CF
:4000C00010BD13B584B00C4615290CD006DC052C09D0132C07D0142C04D104E01A2C02D03B2C00D01324694604A8FEF7DFF802A9684602F093FF68462146008903F034F889
:40010000FFF752FF06B010BD02490148886070478D0201002022002070B5002586B004462E4603950495002810D01D220021F3F705F9684606702078C100081A0119491CF3
:400140006846FEF7B3F8002802D023E0012528E020780622C100081A0119491C03A8F3F7D5F8002816D02078C100081A0119491C05A8FEF7F3F800280CD101A905A803F09E
:400180000DFC002806D168464079012802D12078401C207069460878401CC0B208700428C9D9284606B070BD13B5012082B00C4600290BD0694602A8FEF778F8002803D191
:4001C0002146684602F02AFFFFF7EEFE04B010BD7CB50C46411C80780A780002024388786B46254D1871C91C531BAA422ED009DC22495118224AD27F0DD002290AD1002861
:4002000021D01DE0012B24D00E2B03D1241FA2B204F049FF7CBD002812D119482038C17F002910D002461448401E02F065FFFFF7BBFE7CBD00F00CF97CBD00F0D9F97CBD21
:4002400001A9042015E0002AF7D0F3E70028F7D1F3E70028F4D10B488188002907D00020034600900748084A801CF4F79FFF01A92620FDF729F97CBD09200000FADFFFFFDF
:40028000A02E00202022002081FF00001CB5072823D1C8786A4600028C1C1080897808431080FEF72FFFE0786A4600025080A278A11C10436A465080607900029080227947
:4002C00010436A469080E0790002D08009790843D08069463020FDF7F7F81CBDFEB50678401C2F4D0F460446012E0CD0032E3CD00A460146AB6830469847EB683A4621463F
:4003000030469847FEBDA888002804D0A878F4F7A1FF0020A8802078694608723C281FD00028EFD10121297069460870207B00024880E17A084369464880A07B0002888009
:40034000617B084369468880207C0002C880E17B08436946C880FDF7E9FE6946272001E002A92620FDF7B0F8FEBD207869460870207900024880E178084369464880A079CB
:40038000000288806179084369468880207A0002C880E17908436946C8802A20E2E700002022002010B5094C0420A070202200210748F2F7C3FF0648202200212030F2F7CD
:4003C000BDFF00202070A08010BD000020220020802E002010B5012100280CD08279002A06D0012A07D14279D2431206920F02D105F0F6FD0021084610BD000038B50024FA
:40040000042801D9012412E00A490870684605F09DFD002805D100982B3002F029FE002801D0032403E00098002120308172204638BD00006C230020024610B50120002A2C
:4004400004D000211046FBF781FF002010BD0000044810B5C17F0246034802F04DFEFFF7A3FD10BDA02E00200920000008B56A461080518000216846FCF71CFEFFF794FD06
:4004800008BD0000FFB583B00E4600206946019008721C46154602A9039805F021FD070009D16846007A012804D0002E04D0012E34D077E04A4F7BE0201DF4F727FE494FE1
:4004C0000028B8617ED022462946F2F72EFFB969386B0855BB69010A621C9954BB69010CA21C9954010EBA69E01C11543946386B20310871020A4A71020C8A71000EC87152
:4005000001223949039805F0CFFC241D38461C300090A2B2344B0020B96940E020460C38C1B26818C27883781202134340781A0210430202685C2D4910430A6B824202D9E3
:40054000FF2001902EE0083CA4B208630F462046F4F7DCFDB86100283DD022462946F2F7E4FE224829191C3008220546F2F7DDFEB8698178090239814278C01C1143398195
:40058000E11FB9801849386000221031039805F08BFC154B0095103322460120B96903F0D3F9074611200002874211D0002F0FD0002E12D00D4CA069002805D0F4F7C4FD9A
:4005C000002000E007E0A0613846FFF7EDFC0190019807B0F0BD0427F6E7024CEBE70000162E0000142F0020C02E0020E02E002010B50121024802F06BFDFFF7D5FC10BDFE
:400600000A20000010B5012100280FD08279002A02D0012A04D009E001460622044802E0014606220348F2F780FE0021084610BDD0220020DC22002033B500258BB00C46FF
:40064000002911D0A078C01F0A280DD2E0780F280AD200F021FA002802D12078132803D06078012802D015E001251FE002A8FFF753FD6846007A042800D3042569460BA8C2
:4006800003F08CF9002803D168464078012801D0002D0BD1A07805F0B1FC0523224681210BA803F0DBF9FFF77FFC054628460DB030BD0000F0B50446012085B00025019028
:4006C000002C58D06068002855D02178002904D1007901284FD003284DD8E06800280DD0C67F002E0AD0202200214648F2F726FE4448C677E168CA7FF2F717FEA268002AC4
:4007000053D0D37F002B50D00020694608700126EC460CE0115C00290BD0401CC0B2175CB74202D16146087003E04018C0B29842F0D360460278A668B35C012B07D060687E
:400740000079002817D0012815D0042813D02178022910D8012B10D1521CB05CFB221040814208D1012808D1208A002803D0B42801D8012901D0012541E0002D3FD1224952
:40078000208A88801F48202200212038F2F7D6FD1C49F07F2039C877A1681A48CA7F2038F2F7C3FD0198012829D160686E468179857B437BC21D2EC643790279418800883D
:4007C00003F03CF8FFF7F0FB050018D160684079022802D0032803D011E000210B480CE00120694688716846F6F7DAF8062269460748F2F79AFD00210548FDF7A7FC2846E8
:4008000005B0F0BDA02E002020220020D0220020DC22002010B5074CA088002804D0A078F4F718FD0020A0800021034802F050FC10BD0000202200200A2000001CB50B461D
:40084000132831D0002B2FD0102827D008DC05280DD008281AD00E281BD00F2824D12AE0302821D03E2821D057281DD118E0187869460870002807D112490870D8786946F6
:40088000087101A928200DE004200BE0D91C292008E011461846FFF79BFC05E0032001E00021FB20FCF710FE00201CBD11461846FFF714FDF8E70878694608700028E3D12C
:4008C000F2E7000020220020FFB59FB00025289A19951C461A951B951C95049520A805952E46102780880B00F4F770FA10CD09363B3E5C438ECDCD9E94B3B8AEC7CD002842
:4009000001D021A96CE01DA91F98FDF7CFFC050079D169461F9803F041F80500F8D16846C67069462420FCF7CFFD684640780128EED11DA8F5F7F2FF0546F5F70DFB0028F8
:4009400061D0002D05D020A8808800285BD1002C59D00021FA2094E0002C54D0214621208FE0002122208CE0002C4CD02146232087E0002C47D018A805F0E8FA050042D19B
:40098000412207A81899F2F7D0FC6079102805D23A1A07A940180021F2F7D0FC412307AA84212CE0002C6ED0607A227A00020243214619AB1F9805F0DBFA050063D104A926
:4009C0001F9802F0EBFF00280CD000231A4683211F9803F043F8054606206946087606A925204EE06846807C102805D23A1A19A940180021F2F7A2FC102319AA83211F9874
:400A000003F02CF805463EE0002C3CD021682C20189136E0002805D1002C03D01146204601F024F8194C08E0002805D1002C03D01146204600F0D0FC154CA069002822D05C
:400A4000F4F782FBA6611EE0002C1CD021462D2017E0002C17D021462E2012E00D4900284E7003D1002C01D0214604E06946087001960E7302962F2003E0002C03D02146C5
:400A80003320FCF721FD284623B0F0BDE02E0020142F00202022002010B503F0DFFB0421084010BDFFB599B000200090229F032008A90877002669468E821A9888750620AA
:400AC000C8751C46154601210820179604F0F8FA1A98812842D0822840D0FF283ED010A91998FCF71DFD10A80088F94E401E874216DC1A98522817D0D22817D0401EC0B2E8
:400B00001E280BD2F34A4100505CFF2806D08918497801290CD0B84200D80026002E1DD01A98C00707D016E01320EBE71420E9E7B842F2D0F2E71A9852280CD0D2280AD030
:400B40001E2808D004206946C87505AA01211998FCF728FD064630461DB0F0BDDE48854207D100F059FB0FA90220FCF7ADFC0020F2E7A11C1A981591791E1691391F102816
:400B80007BD00BDC0300F4F721F910F62943617A9FA9F5F4F3F2F1F0EFEEEDF6BA1E92B21B286BD009DC11380300F4F70FF909EBEAE9E4E4E8E7E6E5E400812815D006DCBC
:400BC0001D2879D01E2878D052280DD116E2822815D0D22872D0FF28F7D160E2002C03D02146199800F01AFCC3E2002DFCD119980121007805F0CCF94120199905E0002DA7
:400C0000F2D100F009FB42201999FCF75DFCB0E2B148401E854207D104206946C87500208882022088759EE219986A46017811714078507160780002D08021780843A5496B
:400C4000D080891F088001A94320DEE7002CCBD019986A46017811714078507160780002D080217808439B49D080891F0A88904200D2088001A94420C7E7F7E01DE2002D1F
:400C8000B2D1002CB0D060786A4600021083217808431083E17809025183A27811436A465183002832D0002930D088422ED806A9199800F0C7FFC9E014E228E22CE26946A8
:400CC000088B71E1C8754EE2002C8DD01698237882B2611C199800F02FFC4AE2002D96D1002C94D060786A4600021083217808431083E17809025183A27811436A46518345
:400D0000002803D0002901D0884202D901201146D8E76079BF1F00021084217908431084B9B291860522D202904202D0521C904235D10EAD102903D002293CD00D20A4E105
:400D40001022A11D11A8F2F7F0FA07A911A800F01BFA002817D011A80C9010206946888602201BE023E10BE102E1E9E0DBE0C5E072E031E028E0F3E18DE17EE175E154E188
:400D800022E124E1B0E069460C95888B08A90876000A487602206946888613E0009008AB0CAA06A9199800F0F9FE06464A481238864284D0DDE10C95E079A17900020843CC
:400DC000694608870120E9E7002C86D03A462146199800F04DFBCCE1002DEBD1002CE9D060786B4600021883227810431883E27812025A83A3781A436B465A83002803D0FD
:400E0000002A01D0904201D901204CE00420022902D0102906D046E0607921790002014399830DE0211D102211A8F2F77EFA07A911A800F0A9F9002802D0022311AA01E066
:400E4000012307AA06A9199801F06AF82249064612398842ADD08CE1002CABD01698217883B2621C199800F081FC82E1002DA1D1002C9FD060786B460002188322781043C5
:400E80001883E27812025A83A3781A436B465A830028B9D0002AB7D09042B5D80420022903D0102907D019460CE76079217900020143998312E0211D102211A8F2F735FAF9
:400EC00007A911A800F060F9002807D00A20DCE0FFFF00003A220020172F000007AA06A9199800F0B3FFB1E7002CB4D01698217883B2621C199800F0F1FB3AE1002DAAD156
:400F0000002CA8D06078247800020443002221461A9B199801F00AF90646984886429AD169468C8241E0002C95D019986A4601781171407850710294978101A9492064E6BF
:400F4000002D1CD1002C1AD06078257800020543E078A2780002024329461A9B199801F0E5F886490646884209D169468D821CE0002C04D03A462146199800F07FFBF8E0D3
:400F8000002D71D1002C6FD07A082146199801F053F87A490646884266D16078694600028882217808436946888211208AE6002C5AD019986A4601781171407850710294DF
:400FC000978101A94B2020E64D2019991DE6002D4AD1002C48D01998694603780B714078487160780002088221780843694608828A811598029001A94C2006E6002D33D14A
:40100000002C31D01998694603780B714078487160780002088221780843694608828A811598029001A94E20EFE5002D1CD1002C1AD06078257800020543E078A67800029D
:4010400006438AB2684682864D48211D00680C90F2F76BF90CAB32462946199800F084FE06464648864280D083E0002C04D03A462146199800F0B0FA7BE0002D79D121785E
:40108000002904D0012902D0042069461AE6199800F020FD6DE0199800F0DAF969E0002C67D02078400664D404206946C8750020888220788875062004E6002C59D019983E
:4010C000694603780B714078487160780002088221780843694608828A811598029001A9522092E5002C44D01998694603780B71407848716078000208822178084369467C
:4011000008828A811598029001A953207DE5002D2FD15420199978E5002D2AD1002C28D0781CF3F7F3FF050023D0199915480A78027149784171D22028703A462146681C8C
:40114000F2F7F3F80F487F1C001DBBB200782A460121FFF797F906462846F3F7F5FF08E01798002805D005AA01211998FCF71AFA06460021082003F0A3FFECE4052F0000AC
:401180009C220020342200207FB50D4604002BD0002D29D0FB206A461070342050709B2090705F20D07080211171002050719071D1711072102151729072D072217B117335
:4011C000617B51739073D0730A4E102269462046F2F79CF8002809D1607B00022880217B08432880002601E0024E0F3E304604B070BD000020C4000010B504460548172164
:401200000180A188091F418000F064F8204600F0A9FB10BD3422002010B507491720088006490020C86108620865486500F09EF800F00EFC10BD000034220020E02E0020B1
:4012400010B500F0A3FB10BD70B5002416460D4600281BD0522D03D0D22D01D01B2D03D119490978012925D02946FCF79BF900280ED01649884209D0491E884206D0091DD8
:40128000884203D011490D3188420FD1012418E00F49032D02D0022D06D012E030880A8890420ED208800CE03088FBE70749491C884201D1022404E004490E39884200D14D
:4012C0000324204670BD0000DC210020132F00003422002010B500F049F810BDF1B5214D214CE888E188012741188BB2E3802278214609890026042A05D0052A03D0062A33
:4013000026D199420ED0994202D16770E680F8BDA988091AA980A9890918A98129680818286015E0E6806079401CC0B260712179884201D16770F8BD62690301981881880D
:40134000218106892E818089A881D0582860A98060780028EFD1034A16216846FCF722F9F8BD0000942F00207822002070B5164D0024A878012804D1AC7000215620FCF7C0
:40138000A3F8FF20287011486C70048010220021F1F7D4FF6C612C716C710C48EC802C814C300481046084800949818106480E30048041800548263004804480848004756A
:4013C0000448046370BD000078220020482F0020FFFF0000142F002010B50E4C0A46216B491C2163014620462830F1F79EFFE26AA16A606A62612161E0602246D22106489E
:40140000FFF722FF2068002803D0F3F79DFE0020206010BD142F0020382200207CB50C460546FFF7A3FF2878694608706878487020788870A07800028880617808436946F9
:401440008880E07888714020FCF73EF87CBD000008B501786A4611704078507003486946C07890705120FCF72FF808BD78220020F0B585B015460E4601786A46117040784B
:40148000002450701472204604E0117A491C001D1172C0B2A842F8D3107A8000F3F736FE019000283AD000201AE03218019F5378A1007B52019F1B027B52375C641C3B437E
:4014C000019FE4B27B52019FD378891C7B52019F1B027B5292781343019A001D5352C0B2A842E2D369464820FBF7EEFFA0000199801E085A0E494A89904203D20D4A9278D2
:40150000002A0DD0062069460873FFF72FFF03A95820FBF7D9FF0198F3F716FE05B0F0BD401C0881024A06216846FFF78DFEF2E7842F002078220020FFB585B000250598B1
:4015400016460C460495027869460A70407848700B7301941F460E814720FBF7B5FF002E19D0012F02D0022F0BD014E0002005E021184978255C09020D43001DB042F7D330
:4015800009E0002005E021184978255C09020D431230B042F7D30F48807800280ED10D480A304188A94209D96D1C0580024604210598FBF7F7FF0498012808D1042069467D
:4015C0000874FFF7D3FE04A95820FBF77DFF09B0F0BD000078220020F0B50546487885B0040208786E4604433481C8788E78000230436E46121FB08192B2B280091D0091DC
:401600001C49002309891C4E1F468C4213D119498C89A0420FD1C88882420CD108689A4207D00099C45CC95CA14204D15B1C9BB2F5E7002F05D00020F070F080694608746D
:4016400010E0287869460870687848700098FFF745FE707801280AD100207070012069460874F07004AA18212846FFF7EDFD05B0F0BD0000942F0020782200207FB51446F0
:40168000054600786A461070687850700191148169464A20FBF718FF0E480088401E84420EDB0D48807801280AD00B490E3148880A46001948800C212846FBF773FF7FBD44
:4016C0000C2069460873FFF751FE03A95820FBF7FBFE7FBD3422002078220020FFB585B0002716460D46039701786A46117040785070158108985081694645200196FBF7B5
:40170000E3FE18488078002820D1F01C04900024B61C29460898F1F7DDFC07E0234604996B43595C9F5D09020F43641CA042F5D80D484188B94209D97F1C07800246102183
:401740006846FFF781FD0398012808D1102069460873FFF70BFE03A95820FBF7B5FE09B0F0BD000078220020582F0020FFB589B0164601786A4611704078507039480027AE
:4017800000781C46032805D0012803D0002801D0FE2808D132460A99009800F069F831480078032847D0002520460A99F1F792FC01902DE00A9928464843711C415C375C89
:4017C00009020F432749097802291FD184192648007D012802D002280AD017E0A079617900020143204826380088884208D00DE01D481022611D2638F1F788FD002805D10E
:401800000A9B22461946009800F032F801986D1CA842CFD8144A5088B84203D9114B997800290AD0082069460871FFF79FFD01A95820FBF749FE0DB0F0BD7F1CB9B211801D
:401840001A78022A05D0084A08216846FFF7FCFCF1E76A4611815081012010770348908102AAF1E7782200206E2F0020032800001FB584B06C46208A20800192218163818C
:4018800069464620FBF720FE08B010BD1CB504460020694608704C700620FBF715FE002C02D1019800F096F81CBD000010B50120FFF7ECFF054800218170017001614161AB
:4018C000C18001818180417010BD00009022002010B5002200280DD00749C968002909D0884207D3054B1B88CC18844202D3401A181A82B2104610BD902200203622002022
:40190000F8B5174D0446696906200091002923D02969002920D0A888A28886461018EA8890421AD82A896878824216D90201944650182246CCCACCC0009862467044885097
:40194000A2882168F1F7F1FC6878401C6870A088A9884018A8800020F8BD0920F8BD00009022002010B5002400F072F805480088F3F7CCFB04490028C86000D103242046A9
:4019800010BD0000362200209022002010B50348C068002801D0F3F7D7FB10BD9022002013B50120002904D00A4601216846FFF74BFC1CBD13B506496A46098892880120D5
:4019C000914204D301AA03216846FFF73DFC1CBD3622002010B500281CD0C288002A19D08188002916D00C4C8B07E18012D1228100686061401800212061A18061701201F9
:401A0000F1F79CFCE28800216069F1F797FC0120A070207010BD00009022002013B5012000290AD0054A8B881288D21E934204DC0A461B216846FFF707FC1CBD34220020E8
:401A4000012801D1014908707047000090220020044900208870087008614861024908637047000090220020E02E00207FB5134C0A462346216B203319710D0A5D710D0C11
:401A80009D71090ED971014618460830F1F74DFC206B6A46401C2063094801781170407850702089908120680190A088108169465520FBF709FD002020607FBDE02E00201A
:401AC0003822002001B5002213216846FFF7BCFB08BD0000F3B52F480F4600248178006985B022462546002946D005996B460E781E7049785970274E0190707818725F72C9
:401B00001A7369465020FBF7DFFC012F1DD16846007B002802D06A4651890EE031692001401881894223059A00F07CFF002808D032692101891809896A4611820125114637
:401B400013E07078641C8442E8D3002219210598FBF728FD1049884208D131692001401800896946012508821120C874FFF79EFE012D06D007B0F0BD0E216A46D17400896E
:401B8000108218206946887404AA01210598FBF709FDEFE790220020052F0000FFB587B00D46002069460881012405A90798FBF7B7FC002802D021480BB0F0BD204E012761
:401BC000009703A928460A9B099A00F0A1FF0E281DD000281BD16946C989491C29806946F268898911551219090A51706946C9899170090AD1706946241D898AA4B28C4219
:401C000003D86B461A89521C1A818C42D8D369460989002905D0F06801AA401C0721019007E029886A46118206219174D07404AA01210798FBF7B6FCBEE70000132F000057
:401C400090220020F3B58FB00F460020694648840A90022401250BA90F98FBF761FC002802D03F4811B0F0BD08A80D9006A80C9038887988884201D101200A900D990F9840
:401C800001910090002302AA38460C9901F038F806460E284AD0002E48D16846408C002808A807D00078A84244D1012D04D0022D19D02EE00578F8E72A48C0680019FFF73F
:401CC00007FE042832D36946088B2649020AC9680855081942706946097A81706946497AC170241D14E01F48C0680019FFF7F0FD12281BD31B496846008BC968020A0855AB
:401D000008194270801C102202A9F1F70EFB1234A4B26846808D844203D86A46518C491C51840A99012901D08442A1D36846408C002808D008A805700A4807AAC068801C69
:401D40000521079008E0388869468884042008A98871CE7109AA01210F98FBF723FC81E7132F000090220020FFB51C460D4603CB8BB0089009916846334E0585B078002781
:401D8000002801D1FFF782FD69460D9888830D8303CC0490059104A8FFF7B2FD04002AD10B98694602780A704078487030690190707808724C724F20FBF786FB30780128C9
:401DC00001D006241BE06846447A002C13D1442308A80B9A0D9900F025FE040003D0072C01D00D2C0BD104AA17210B98FBF7DAFB0746002C24D0072C22D00D2C20D0694652
:401E00008D8116208873CC7303AA01210B98FBF7C9FB0746092C0ED0706900280BD06846818AB288914206D87078002806D0401E7070501AB0807078002801D1FFF736FD53
:401E400038460FB0F0BD000090220020F7B58AB0002668460D46C681022408A90A98FBF75FFB002802D02C480DB0F0BD3746102069462A4E8882F06800970019001D04901E
:401E800004AA07A928460C9B00F042FE0E282BD0002829D16946C9896A460029918A2DD09289914224D16946C98B491C29806946F268898B1155090A121951706946C98BC1
:401EC0009170090AD170049906916946898A241D09198CB26946098C8C4203D86B46DA89521CDA818C42C6D36946C989002907D0F06802AA801C1121029009E09181D2E7AC
:401F000029886A46918010219171D07101AA01210A98FBF747FBA7E7132F000090220020FFB506468BB000206946C8810546022405A93046FBF7F4FA002802D03B480FB072
:401F4000F0BD08A83A4F0990F86806AB0019801C06900EA8019000960D9A09990C9800F0CFFE0E2847D0002845D16946098C14230A465A432F4B1B68D218403A126BD24319
:401F8000D20112D432786B461A7072785A705980187169465720FBF797FA41233246002106A800F03FFD002825D169468A8B898A091F8A4201D96A4691836946C98900293C
:401FC000694624D0898BA94219D16946FA68098C1155090A121951706946898BA41C09198CB26946898A8C4203D86B46DA89521CDA818C42A8D36946C989002909D0684625
:402000008581F86802AA801C0921029009E08D8BDBE76A46118C118208219174D07404AA01213046FBF7BEFA89E70000132F000090220020B0220020F7B58AB00F4600245C
:402040000125264608A90A98FBF76AFA002802D033480DB0F0BD6100C81940786A4600029082795C08432F499082C9684919039100F0CCFC002827D16946898A14228C4615
:402080005143294A126889184039096BC943C90110D40A996B460A781A71497859716146D980187201A95720FBF70EFA6B46187A002809D14123002103A80A9A00F0B2FC0F
:4020C0000E2824D0002811D00E216B4699706200D119497809021980BA5C11431980D8706A4601210A98FBF75DFAB2E76946088A641C41198DB26946098C8D4202D8801992
:4021000086B201E0491E8EB20C988442A3D368468683044806AAC068401C0F210690E1E7132F000090220020B0220020F0B589B00C4606460020694608831D461746204638
:4021400000F064FC002845D1294A14211268614389184039096BC943C9010ED4327869460A7372784A73CC81087403A95720FBF7ABF96946087C00282CD105A93046FBF758
:40218000CFF9002802D01B4809B0F0BD6946888A888019484123C06800900C8132463946684600F03FFC002814D106A9204600F043FA00280ED10C2D06D16946888A098B36
:4021C000884201D90B2005E06A460A2D0CD00C2D0CD0042069468D778C83C87707AA01213046FBF7DFF9CFE70B21F9E70D21F7E7B0220020132F000090220020F7B5002675
:4022000084B0059935463746039600290ED0142148433449096840184038046B0698C10740070290002904D0E00605E00E2007B0F0BD800F01D0E004060F2B48044204D0C8
:40224000270FBF1D03F09EFE03900698C00703D0E00708D1022543E00298800F40D0E00501D403253CE0002E3AD00020009001906946059801F092FBF10722D0002813D178
:402280006846C07801F0BAFB012801D00F2527E0B00703D568460078022805D3300705D568460078032801D2052519E0062F08D068468078B84202D30399884201D20C2562
:4022C0000EE00698C00701D0200704D40298800F06D0200504D505480078002800D108252846A4E7B022002002020000A82200207FB50B46050008D000226946184600F079
:4023000015F80400286803D00AE00E2004B070BD002808D0AA88002A05D06946F0F7F6FF002800D00A242046F0E70000F7B582B000266846068014460F46029800F066FB3F
:40234000002802D0012005B0F0BD029800F008FB012802D00A252846F5E7029B142043433C4800681918084620384039096BC0890A0101D5102104E0490101D5042100E074
:4023800002210025002C06D0022914D0042914D0102912D02670304E821BB04226D014DC2E4E821BB04221D00ADC2D4A821A1DD0012A12D11AE0012200E002222270EAE79B
:4023C000012A13D0FE2A08D110E0012A0ED0022A0CD0032A0AD0042A08D0204A521C02290AD004290FD010290DD031E03880002CB1D001202070AEE716490968591840394B
:40240000498B3880A7E7134C206818184038408B904206D10298401E81B2384600F0E2FA99E7102914D36946029800F005F9206818184038C06B00288DD0406800288AD029
:4024400069460988102241183846F0F76EFF82E70E2580E7B0220020012900000228000000280000F8B50E2415460F460646002930D000F075FA01282CD114203146414396
:402480001C4800680818014620390246403A126BC989130101D5022201E05201D20F164B994208DA154BCC1A0BD0012C09D0022C07D0032C10D02B463946304600F040F9F4
:4024C00005E0002D05D13946304600F0B5F9044600E007242046F8BD002DFAD14068010101D5022201E04001C20F3946304600F0D1F8ECE7B022002001290000002800009D
:40250000FFB517460C4605460A22398000F07EFA002802D0012004B0F0BD142026464643184805230068DB0230182038C189994202D05B1C994220D18389AB421DD2808A62
:40254000A84211D219E01421614308182038C1890D48814206D121462846039A00F080F802000CD0641CA4B20648006831182039898AA14201D3A542E5D21046CBE73C80F9
:40258000FBE70000B022002003280000F0B507461420134A414310680A2608182038848A85893D8014E01420214641430C48006808182038C0890B49884202D0491E88426B
:4025C00004D1204600F0CCF9012805D0641EA4B2AC42E8D83046F0BD3C800026FAE70000B022002003280000F0B50246012008800D460A23104600F009FA002801D00120EB
:40260000F0BD0521C9020B4C4E1C0DE0142027685043C0192038C089884201D0B04201D12A800023521E92B2002A01D00A2BEDD01846F0BDB022002014225043074A126820
:4026400080184038C06B002804D04268002A01D0008800E00020088000207047B022002030B5142461430A4C0346246800200C19214620398D899D4202D8898A994201D224
:402680000A2030BD403C218EC906C90E117030BDB0220020F8B507460E2015460C4600294BD02068FFF714F900260146A680022D27D0012D25D0052088423CD83B4614209A
:4026C00043431E482168006818184038006B000C0870A088401C81B2A1802268781C5054A2882168000A89184870A088801C81B2A180022D07D0012D05D0002D0BD00A265D
:402700001AE01320D8E720684018394600F06AF9A08810300DE009482268006818182038008B5054A2882168000A89184870A088801CA08000E00E263046F8BDB022002081
:40274000FFB585B00C46002569460D818D810D7400958D802068FFF7BBF8064601A90598FFF76AFFA58002A90598FFF73DFF050045D10598694609890746142257438842E9
:4027800010D02048204A006838182038C089904208D004AB03AA0598FFF7B2FE05002ED101200090694689880898174B081A80B26946888013495B1C0968791840394A8B20
:4027C0009A4206D0009A012A03D0B04205D90E2515E0B04201D968468680C86B002809D04068002806D008996A46411892882068F0F79BFD6946A08889884018A0802846A4
:4028000009B0F0BDB0220020022800001423594310B5084B1B68C9184039C96B002906D04968002903D0F0F780FD002010BD0E2010BD0000B0220020F7B50E2016460C46A8
:4028400000296DD02068FFF743F800250146A580009814225043334A05271268FF0280182038C389BB4202D07F1CBB421BD1022E05D0012E03D0002E0AD00A254FE01029EE
:402880004CD32068009900F0ADF8A088103008E0022903D32168008B087039E00E25A088801CA0803BE0204E1E4FB34237D1038B1426184670438218403A126B160101D5EC
:4028C000022201E05201D20F062927D321680B70190AA68823689B195970A188891C8BB2A3803968266841182039898AF154A6882368090A9B195970A188891C89B2A1803F
:40290000002A0CD13A68801820382268008B5054A2882168000A89184870C0E70E252846FEBD0000B02200200228000010B50C460146142044430948006820184038C06B63
:40294000002808D04068002805D080181A46F0F7ECFC002010BD0E2010BD0000B0220020FEB50546C0081E4F6A070126385C520F31469140084209D00024002C2BD06946EC
:402980002846FFF731FE002802D024E00124F4E7684601888D421ED0C8084A07385C520F3346934018420AD00024002C13D002AB01AA2846FFF7A4FD002802D00BE0012462
:4029C000F3E768468088C1084007795C400F8640314202D000242046FEBD0124FBE70000A42F00201422514310B5074A126889184039C96B002905D04968002902D0102245
:402A0000F0F793FC10BD0000B0220020002803D003490988884201D90120704700207047AC220020F0B585B00E4604460020694608801D4617462089FFF7E8FF00280FD12B
:402A4000680606D520892A463946FFF7D7FB002806D1208901A9FFF7C7FD002802D00A2005B0F0BD6946278989888F4210D0264B14225B687A43D218203AD289234B9A42EA
:402A800006D003AB02AA3846FFF73AFD0028E7D1E90711D020896946FFF7CEFD68460088864201D9002805D1208932462146FFF7D9FCD5E70720D3E7A90701D46907CFD512
:402AC000218914220B4653430F4A104F52687F1C9B18203BDA89BA42C2D0FF1EBA42BFD07F1CBA42BCD0A2881B8B97199F4207D8AB07B5D5134632462068FFF717FFAFE7C1
:402B0000B342D7D90D20ABE7AC22002002280000FFB587B004460020694608800A980A250088A9021646884204D0491C884201D0102510E0278806E03846FFF711FF012828
:402B40000CD07F1CBFB220886188884203D26B4909888842F0D928460BB0F0BD69463846FFF742FD054668460088FFF7F9FE002D7ED169460988B9427BD10128F8D15F4A21
:402B800014205268484380180246403A126BD243120103D401A8FFF725FF06E02038017E6A461171008B000A50711098012802D0002808D076E0B28801A93068F0F7A6FBC1
:402BC00000280BD06EE00A980188142047434B48406838182038C089814263D1684600881421464F48437968401820388189089801806846018805A8FFF7C8FC6846808ADB
:402C000014214843796840182038818A089841806846008814214843796840184038006BC043010101D540010ED41098012804D03068FEF74DFE102832D369460988306835
:402C4000FFF7D0FE10201FE01098012804D03068FEF73EFE022823D36946098814207A684143891820393268097E1170694601E023E020E009884143786808182038008BD2
:402C80003168000A48700220B0806846008814214843796840182038808A401C20805AE70E2558E7684600881421484313490A25496840180AE0012803D028430BD00A2542
:402CC00049E7142041430D48406808182038808A401C20800FE0684600881421484307494A6880182038808A401C80B220800988884200D90A2587B225E70000AC220020CC
:402D0000FFB587B00546002268460F46027329880A26002970D068880028FBD081426BD80A9800280AD01198007802280998009006D00220694688802C8850E00092FBE769
:402D40001020F7E704A92046FFF74EFC06466846008AFFF705FE002E35D16946098AA1422FD101282FD1584914204968604340182038C089694688820098002806D002225E
:402D800005A9F0F7C3FA002800D00E2000284CD13C800A98002807D0142044434A48406820182038808A5BE014204443464869884068201820388089401C814279D32880A1
:402DC00077E0012819D03C80142044433E480A26406820182038808A401C84B22C806988A0B2884203D8384909888842AAD90A9800285CD0002E35D063E0142022464243E9
:402E00003148324B406810180246203AD2899A420CD0288803AB06AAFFF772FB06466846008BFFF79DFD002E09D032E04038008E6946C006C00E08732046FFF791FD0A9927
:402E4000002924D0012824D121466846FFF750FA06001ED16846007BC00715D03C802888401C28803888694608810A984123006800900A988088888000216846109AFFF771
:402E8000D1FD00280ED01BE002263C8019E0012803D03C800A2628889EE73C802888401C2880A4E7684681880A98818009E0002E07D13888119A0999FFF738FA002800D0D8
:402EC000064630460BB0F0BDAC2200200228000010B500240346002801D0002900D101240548436001804280402200210348F0F725FA204610BD0000AC220020A42F00202B
:402F000070B504460125FFF781FD002824D1204614214843114903224968D20240182038018B914217D0C1890D48814208D0C01E814205D0401C814202D0401C81420BD1AF
:402F4000E008084A6407115C640F0123A34019431154002500E00E25284670BDAC22002003280000A42F0020F8B515460F46040003D0002F03D1680601D50E20F8BD0020A7
:402F80006946088026893046FFF740FD0028F5D169463046FFF750FB6946A0880988884201D8002800D1A180680608D501202A46024339463046FFF721F90028DED1A288E2
:402FC00031462068FFF722FCF8BDF8B51C4616460F46050003D0002E03D1002C01D00E20F8BD2889FFF712FD0028F9D1022023460343324639462846FFF714FDF8BD0000F5
:40300000054904484A79002A03D08978012900D10020704720200000D622002038B50C461149002817D0002C15D010494979002905D001466846FBF791F900280DD00020A3
:40304000002802D08178012909D00020C04320800548001D38BD084638BD0448F0E700882080002038BD000013200000D622002010B5002805D006220349F0F756F90020BE
:4030800010BD024810BD0000D02200201320000000B5030007D0FFF7B3FF002802D103490978197000BD024800BD0000E2220020132000000100044805D004480268002A42
:4030C00000D101600020704713200000CC22002013B501AA012100F06FF81CBD10B51346002904D00A46194600F066F810BD014810BD00001320000070B588B013000C46D1
:40310000054604D01F2C05D90D4808B070BD0C48401CFAE768460470224619466E46401CF0F703F91F20021B3019401C0021F0F705F96A462021284600F03EF8E5E7000048
:4031400012200000064A08B5914201D9054808BD6A461170090A5170022100F02DF808BDFF0E00001220000038B5044609480D46844201D9084838BD6946204600F0BCFB94
:40318000002804D02946204600F008F838BD0248401D38BDFF0E00001220000008B56A461070000A507091700321024800F004F808BD000006040000F8B5064617460D46F4
:4031C000C81CF1F7A3FF040018D02670300A6070E01CA570002F03D02A463946F0F7A5F8ED1CABB222460649012001F0E3FC050002D02046F1F7A8FF2846F8BD0148F8BD54
:40320000256701000520000010B500221146FFF7D3FF10BD10B50179C27809020A438178104601F0A3F810BDF8B5044680783A490128087002D90120087001E0002801D02F
:4032400003F0A8FA2079E5780002054362D03348854203D10622A11D314851E0314885420FD1E079A6790002277A064339463046FBF732FF002E01D0002F43D10C206071C6
:4032800040E028491631481E8D4201D085420ED1854206D124490878A070FF2805D0401C0870204601F044F82CE00020F8E71F48854212D100F098F9012823D100F08EF95B
:4032C00006001FD001466A460020FCF7DFFE684601883046FDF7CAF814E06079002811D11048001D854204D1114812490078087008E00C48C01C854204D106220E490F4879
:40330000F0F713F80E480078002803D16179284600F0E6F9F8BD0000B822002009100000D022002002200000BE220020030C0000EA220020E9220020E3220020DC22002015
:40334000BC22002070B50446C07812490128087002D90120087001E0002801D003F01AFAA578607924790002044311D00A48201803D1002D01D003F023FA0848007800283E
:4033800006D10748844203D12946204600F0A8F970BD0000B8220020F3DFFFFFBC220020630C00007CB501A8FAF7B2FD00281ED16846007903281AD10D4D0024687900282E
:4033C0000AD028880B49884206D0284600F0AAFA281D0321FBF70EFB0320694608700C20487001238C7003221846F2F7EFF87CBDD6220020FFFF000070B50024094D0A4E02
:4034000009E024216143705C89194A78891C00F047F8641CE4B228788442F2D30020287070BD0000B4220020E42F002070B5242A0FD8084C2378022B0BD024256B43064DCC
:40344000E85458194270801CEFF76FFF2078401C207070BDB4220020E42F002010B5C01C01F04CF801490020087010BDBB22002070B58578C41C0FE06078217800020143F9
:403480000A05E078A1780002120D01431046FBF73FFE6D1EEDB2241D002DEDD170BD0000F7B582B002980C46022802D004280FD10FE00498211D001F82B2204602F0B4FE27
:4034C0003F49884279D12146049A0298FFF7AEFF73E02078009004986178801E019081426BD1384D01202870009A102A23D008DC052A0DD0082A12D00E2A14D00F2A4BD156
:4035000015E0132A1AD0302A09D03E2A44D119E0204603F069FA2878002835D039E02046FFF778FE35E02046FFF77EFE31E02046FFF708FF2DE0FFF735FF2AE02046FFF754
:4035400097FF26E0A07800261F4F012808D00A2806D01E49052809880DD0032811D01BE0204603F069F919480088B84211D018482E70067008E0B94205D12046FFF76EFF7C
:4035800007E0B94208D02E702146049A0298FFF74DFF2878012808D10E480368002B04D00198A11CC2B2009898470B4C2078022803D1FAF70DFD01202070002005B0F0BD14
:4035C0002C230000BB220020FFFF0000C8220020B4220020CC220020BC2200200148408970470000B82200200248007AC007C00F70470000B822002001490881704700001D
:40360000B82200200549002803D01B2802D2012070471B204881002070470000B822002070B518480024046084800C300460154D84800120183D28706C70E87028461E306E
:4036400000F070F9AC81EC810F4AAC700020C100545089188C80401C8C710228F7D32C716C710020AC71C04328820848417F08480088FBF731FD022028710648FFF7C4FD37
:4036800070BD0000D02200202C300020EC28002078210020030C0000F8B500240E4D2646E70078198079012803D1E859F1F74CFDEE51641C022CF3D3084A00209681D68148
:4036C0009670C1006E5049198E80401C8E710228F7D356611671F8BD2C300020B822002030B51FA30CCB87B0019300921EA30CCB039302921EA30CCB05931F4B0492C21A74
:4037000002241E4D984215D00DDC1D4A80181AD0022811D0622804D1082204A91948FFF7DDFC07B030BD042A14D0174810180ED00128F6D12C71F4E70029F2D11048082205
:4037400069464042EBE7082202A91048E7E70A48001D01E00B48401CFFF756FDE1E70000FFFFFFFFFFFFFF2F00008000000000003F0000000000000005100000B822002045
:40378000FFF3FFFF0120000004F0FFFF630C00000149002048617047B822002010B50C46134988B000281DD0002C1BD0114B002A01D0197811701A78FF2A15D0521C1A70FB
:4037C000014610226846EFF7B0FD1022214604A8EFF7ABFD06486A462021001DFFF7ECFC08B010BD0846FBE700211970E8E7000013200000BD22002000B585B0002905D0BA
:403800000C4A904205D90C4805B000BD0A48401CFAE76A461070000A507000A810220230EFF783FD04486A4612210830FFF7C4FCEAE70000FF0E000012200000F0B585B0BA
:4038400004460B980A9D002832D027461A4E203F1A48B7422AD20F46203FB74226D2042A24D8032B22D8012D20D80C9E761E072E1CD20D9E032E19D868460470240A4470B0
:403880008170090AC1700271437185710622C01D0B99EFF74AFD68460C9941730D99817306486A460F210C38FFF786FC05B0F0BD0248401CFAE70000E13F0000122000001A
:4038C00038B50B4C6279002A08D101466846FAF7ADFB0849884203D0002801D0002038BD68460078207101206071014838BD0000D62200201214000010B5094B5A79002AE1
:403900000BD0002294001C5B844204D19000C0180860034810BD521CF4D00020086010BDD622002010B5FF2101710021054B02248A00835212189470491CF9D000214171E1
:4039400010BD0000FFFF0000FFB5114881B01D4617460E0019D0002D17D00E4C217EFF2913D1204601F0A0FA0198002800D0012060746660278125600A98E0600820207466
:4039800005486061034801F0E7F905B0F0BD0000112E000084330020013C010070B50C4600281FD00178FF291CD0002C1AD00021104DC94300F0E6FE052818D0A421484333
:4039C0000D494518687A0107090FE170890701D4C0060AD5E87A214600F01AFA287BA070002504E00348401E70BD024D2D1D284670BD0000122E00003C3000200007800FC2
:403A0000022801D00020704701207047F8B50C00054614D101466846FAF7A0FC002802D16846FAF7A7FB0A4EA42130784843094940180D302946FAF7DDFC052030700648B2
:403A40000268002A02D02146284690470020F8BDF12200203C300020EC220020FFB583B015460E4600281FD00178FF291CD00021C94300F087FE05281AD0832E1BD0174C80
:403A8000002100F01DFE0746012824D0304600F037FE694688720020C872009506980881384600F0AFFE15E00C48C01E07B0F0BD0A48801EFAE7A4214843094940184088DD
:403AC000002D03D02946FFF797FE03E001460548FFF738FB04462046E8E70000142E00003C3000201B200000002803D0024908600020704701487047F4220020112E0000AA
:403B000070B50C46014606221048EFF70EFC1048104D0460052028700F48104E0024A421614389194A7AD20608D58A7A920605D52831064800F042F8002804D0641CE4B2CB
:403B4000052CECD370BD2C7070BD0000F8220020EC220020F1220020192E00003C300020F3B5144E144D81B007460024A42060434119487AC0060ED5887A80060BD53820F8
:403B8000BA79405C824206D1393106223846EFF7BDFB002805D0641CE4B2052CE6D33046FEBDA42044436019417B029800260170F5E70000122E00003C30002070B50A0037
:403BC00007D0002805D00C4D2978FF2904D00B4870BD0A48801F70BDC11CA860104600F031FE0400F7D1032028700121092001F067FA204670BD000070330020172E000044
:403C000008B50848417C00290AD00B21027EFF230376037C0093C368052000F035FA08BD0A21F3E784330020A42148430249085CC006C017401C70473C300020F0B5014627
:403C4000002085B02E4D074601902878FF26022802D0032843D107E028460C30082603220746EFF762FB3AE00322A868EFF74EFB002801D023480190FF20AF682870224877
:403C80000478052C2AD00622394602A8EFF74DFB012069468873019800281AD0641CE4B2052C14D2A4202146414318480918487AC006F3D5887A8006F0D528311448FFF7C3
:403CC0007DFF0028EAD11048047005B0F0BD052C05D102A80199FFF799FE00E00926FF2028700021092001F0EBF9FF2EEDD0062000903B4631460520019A00F0C5F9E4E7A9
:403D000070330020FFFF0000F12200203C300020F8220020F3B583B00F460021039800F0CFFC060004D100F04FFA304600F0B0FC0398A42148431F4900254418607A030942
:403D40001B01002F17D19B1CF32003400833002E11D1002001900290E07A01A900F058F8207B69468871D80604D44879012801D11020034301AD6372039800F023FD002FA9
:403D800009D1002D07D0607B002102F001F90320039902F0DBF90021092001F091F9052000902B463A460121039800F06DF905B0F0BD00003C30002070B506463446A4219C
:403DC000114D00204C43C043611948804860285DF32210402855487A0009000148720021304600F06DFC012803D008493046FFF791FF285D8007800F022803D10121304672
:403E000000F08EFC70BD00003C300020182E000000220A718207920F012A00D000224A70020701D5032204E0420701D5022200E001220A70020709D5420701D501220A711F
:403E4000C00603D50879022210430871704730B54278012A00D000220378FB241D072D0F0423022D03D02240032D02D010E01A43FAE70C2500792A43C50701D01A4300E01A
:403E80002240800702D51020024301E0EF2002400A7030BD042807D8042905D88A008918024A8918085C704700207047E88D010010B5084B04461B780020072B09D98C42A8
:403EC00000D22146994204D20349104600F0FAF8024810BD6E23002006040000FFFF0000024610B500200B46120704D40249184600F0E8F8014810BD03040000FFFF000081
:403F00007CB50B46A42148430F4900264418657AA807800F022801D0E80612D5A07A0009C00702D1E07A00070BD5E07A6946FFF76FFF207B694688701946684600F07CF9C9
:403F4000657230467CBD00003C30002070B50646124800240578002D1DD0002A01D1012E05D008070BD5480707D508200CE0080701D5202008E0102006E0042004E0480701
:403F800001D5022000E00120054204D10449184600F098F8034C204670BD00006D23002003040000FFFF000010B50078002807D104484168FF2903D000780349FFF7AAFE9B
:403FC00010BD0000C4330020152E000070B50C4C2278012A12D1014620460F3003220546EFF7A3F9607C40214006400E084360742946606800F026FC0220207070BD00007F
:4040000070330020042807D8042905D88A008918024A8918085C704700207047018E0100FFB50646581D85B281B01F462846F1F76DF8040016D0029820713A46601D039963
:40404000EFF773F9A4200E49704340180D302B4622460621FBF700F9050006D02046F1F773F80AE0074805B0F0BD0021304600F027FB002801D100F08DF82846F3E7000011
:404080003C300020052E0000FEB50B4C089D2468002C0ED0FF266F463E71052805D2A4267043064E8019407B387101A80095A047FEBD0348FEBD0000F42200203C300020F9
:4040C000112E000038B5054601200C4680028143009101236A4605212846FFF7A1FF21462846FFF717FE002038BD0000F7B50646087882B00D460090491C0498FFF7A7FEE3
:4041000004982C4680782872E87B019011342F7C012E09D1FF2007460190E41F04990098FFF7EEFE002831D1221D2146601C01F013FF04984078002800D120700098A42152
:404140004843134940180D30A11C01F08DFF207841074006490F400F022E08D10A4601461046AA7B23799A4200D31A462A7226706A78E270019A384011406171A071062320
:40418000621C31460098FFF74BFF002005B0F0BD3C30002001B582B06846007A00F014F8012000906846007A90214843044902AB40185830034A1E21F0F7F8FF0EBD0000F4
:4041C000C4330020A93F01009021484310B5054944184034207E042803D0F1F73BF80420207610BDC433002010B5827804794379012905D1D2066407D20E640F5B075B0FF0
:404200000178042911D8417801290ED851090CD19107890F012908D8C078102805D8072803D3072C01D8072B01D9024810BD002010BD0000FFFF000002780B7812071B0711
:40424000120F1B0F9A4203D380788978884201D20148704700207047FFFF00000148408870470000F02200200149488070470000F0220020F8B50424194E1A4F00252046B1
:40428000A42148433554801900214780C9434160014603460E3180331961103159610A3199611031D961C91D1962083088220021EFF744F8641EE2D5002000F0E9F90A4C49
:4042C0000A4A412106206560FAF7FAFF0849FF200870143108762146087005206070F8BD3C300020FFFF0000F0220020E14401007033002070B5074D0424A4206043285CCE
:404300000007800F012802D1E0B2FFF755FD641EF3D570BD3C30002010B5044A0021012000F022FF01F0B8FE10BD00005D4A010070B5027941781302C27800251A430A4B0D
:404340004479D21808D0012A05D1091F8AB2811D204600F023FB70BD091F8BB2821D2146284600F0DBFA70BDE9DFFFFF13B5144984B00024A422624352185288824203D0C6
:40438000641CE4B2052CF5D3052C11D00021204600F096F901280DD007216A4691720121D17205AA00926A461181694600F02AFA06B010BD6846017D2046FFF7ABFCF7E7BA
:4043C0003C300020FEB50F4604466946F9F76EFF204600F0CBF90646052821D0A42011497043441825782807800F012818D03868606002A8FEF74CFEEF2005406846007AF1
:40440000002800D010200543F32005402D1D2570A11C6846FEF702FE3146022001F096FEFEBD00003C300020F7B584B00E460699022941D3002E3FD00021C94300F0A2F909
:404440000390052838D03778012F02D00025294608E00125002100F033F9044601280ED10121039800F02CF90446012802D0012D05D008E0012D1FD18121C9001FE00121E6
:40448000092000F01DFE384600F03AF969468872FF2813D02046FFF77DFE6846807A092800D001276946CF720698761C0096401E0881204600F0A6F907B0F0BD02490398F0
:4044C000FFF700FEF8E700000704000010B50968002000F057F9052801D0FFF76DFC10BD30B41546044A890089184039CC6B2946A44630BC1A4660471C8E01007FB5054641
:4045000040782A780002024314480024A421614309184988914203D0641CE4B2052CF5D3052C11D00021204600F0CAF80A2101280BD008226B469A730122DA73AD1C019519
:40454000998101A900F05EF97FBD0091AB1C002205212046FFF798FD7FBD00003C300020014610B50020490707D500F089FE0446F43400F064FA001980B210BD3EB50024DD
:40458000FFF76CFEFFF7ECFF002829D00020009001900290F4216846F0F7DEFC04001FD1104C0098F12200216060EEF7C7FE0E496068C86500F064FE014601A8F0F7CCFC7F
:4045C00004000DD1019800F05FFE00F038FA014602A8F0F7C1FC040002D1029800F032FA20463EBD00230020C433002001480078704700000023002010B50F228B5C845C7C
:4046000063408B54521EF9D510BD0000F8B500250746052069461D4E08702C46A4216143705C8007800F02D0022802D00BE025460DE088194068401C05D16846007805287B
:4046400001D168460470641CE4B2052CE6D3052C12D168460078052807D10021684601F02FFD6846007805280FD068460178012001F06CFD68460578284600F0A3F8A4205F
:4046800068433978801941732846F8BD3C300020F8B505469020094F4543EC19204690220021E66DEEF74AFEFF20E66578557F2160600855042040342076F8BDC43300206E
:4046C00070B5012909D001460B4C002522788A4210D12070FF2902D00AE0FF21F4E7FFF7BDFD400702D505484068E06501206060284670BD012070BDC433002000230020ED
:40470000064A10214B00D35C834203D14800801840787047491EF5D5FF207047288E010070B505281FD20A46A4210F4D41434C190E46012A09D10146012001F007FD20461F
:404740000D30F9F717FDFF2060730020A855401E608060602046083088220021EEF7EEFD002000F02DFD70BD3C30002010B500210446C94300F006F8052802D12046FFF739
:4047800045FF10BD30B505460D4C0020A4224243A35C9B070ED04B1C03D013195B688B420CD0002D06D02B78FF2B03D01219527B9A4203D0401CC0B20528E7D330BD0000B7
:4047C0003C30002010B5A421074C48430119497A235C0222C90600D5012299088900114321548807800F10BD3C3000204068902200785043024A80184068086000207047E4
:40480000C43300200EB56A461070C3B2902253430A4A9B18029390235843105C6A465070A4225043064A8018019068464860887A0A4601460120FBF751FB0EBDC4330020E9
:404840003C30002010B588B0002400940194029403940A786B461A704A785A708978997004AA6946FEF79AFF002801D101490C7008B010BDF0220020F0B515460A460446E6
:4048800010468DB00D3004A90646F9F731FD06A93046F9F7C3FC6946887D04AFC007C00F0870887F06AEC007C00F4870012D31D025462835214600A807220A310230EEF73E
:4048C00034FD214602A8072211310130EEF72DFD204680300021016041608160C16006223146EEF722FD2046062239468630EEF71CFD69462846FFF77FFE204608AA6946D5
:404900004830FEF74BFF002802D101216034E1770DB0F0BD25463835CCE7000070B51D4CFF21E07F88B0FF2815D025460026603D01281CD002282BD003280AD106206D462A
:40494000A872EE7200922B81E17730466946FFF759FF08B070BD104B1878FF28F9D00028F7D1197003211046FFF768F9F1E7294680310E461046FFF73FFE284603AA314643
:404980004830FEF70BFF0028E3D10220E077E0E70420D4E724340020F02200203EB5174D08462B7816490024012B03D14968FF290BD02C7012496031CB7F042B0FD0072B4A
:4049C0000DD01146FFF702FB3EBD01F0AFFB02202870EEF7B5FA0028F6D02C703EBDFF22CA7703216A469172D47200901020108169462046FFF706FF3EBD000021220020E9
:404A0000C433002070B51346054688B00E4604464835082219466846EEF787FC0822314602A8EEF782FC04AA69462846FEF7B6FE002802D103216034E17708B070BDFF2073
:404A400009307047044988604130C8603530086141304861704700000823002010B5002A04D0012A01D100F005F810BD00F03AF810BD0000F8B500206946087001230146C6
:404A80006A46184600F066FB69460878002824D00024124F1DE0A42026464643F5192A46083288230021012000F054FB0C4A287A1178884200D91070B85DF3218008800058
:404AC000401CB855687A084080088000641C6872E4B2684600788442DDD3F8BD3C3000207123002038B500206946184D0870A4214143695C8907890F012903D16A46117894
:404B0000491C1170401CC0B20528F0D301236A460021184600F082FB68460078002813D000242046A4214843295C8907890F012906D14219083288230021012000F06EFB7D
:404B4000641CE4B2052CECD338BD00003C30002010B50548012102780170002A02D10420F0F7AAFC002010BD3023002070B50F4D032029782870012902D10420F0F79CFC04
:404B800000246C60242221460948EEF7D7FB0848242200212430EEF7D1FB054848300470047244704472002070BD00003023002054340020F8B51F4E9C463378012B03D06D
:404BC000022B01D01C48F8BDC3001C481B18581C9F785D785C680C235D436359002B06D00121042000F06CFA1348401CF8BD615103780C256B431B1961461981002A04D00D
:404C000001780C23594309194A600178491CC9B20170B94201D1002101707068401C70603078012804D1022030700420F0F744FC0020F8BD30230020111100009C3400202A
:404C400010B51048002404704460242221460E48EEF774FB0C48242200212430EEF76EFB0948032184640465483081708172064941602431C160047004724470447200202B
:404C800010BD00003023002054340020F8B500250C4C01262F462078002810D001280ED0022802D0032808D106E000F00DF86068002802D1267000E02770002DEBD00020EC
:404CC000F8BD000030230020F8B500262048F1000C18A0786568009021780C2041436A58002A31D04B19002019890746002901D001275868904717480078032827D0012F3C
:404D00000CD120780C21484340194068F0F71CFA21780C22002051434919486020780C2250430021401901812078504329502078401CC0B22070009A904200D121700548B9
:404D40004168491E4160C7E7761C022EBED3F8BD9C34002030230020F0B5044685B01F4801214460657C01706A461D49206800F09EF9112636020746B04204D1207E14214B
:404D80000843207605E0002F03D16946204600F099F8380001D0B0421AD1002D02D0012D03D006E0217E202201E0217E40221143217600280CD1204600F008F9002807D1BE
:404DC000002D07D0012D03D1217EBF221140217605B0F0BD217EDF22F8E70000382300201090010030B5C37B0E215B00C373425C4318D4095D78520025435D704254491E36
:404E0000F5D530BD7FB527480D460178012913D14468FB21207EC206002A0EDAEF2210402076420701D5084020762946204600F049F8204600F0CAF87FBD8207FCD542070D
:404E4000FAD508402076628BA18B531E994204D12946204600F05EF87FBD914209D1FD21084020762946204600F0EEF8606980477FBD6068090140186A46294600F00AF998
:404E80002A466946206800F012F9112109028842EED1A08B0421401CA083207E084320767FBD000038230020002101604160C1604161018101744183818341740121017692
:404EC0000020704770B5044605461E340E462E3510222046EEF729FA2046FFF783FFF07B000604D522461146094800F0D3F8102221462846EEF719FA2846FFF773FFE07B55
:404F0000000604D52A461146014800F0C3F870BD2090010030B50D46418B89B00446002907D0207A0207120F39D00020012838D002E001206083227A0020009001900290FF
:404F400003901020811A68460818014680232039CB776168002905D0638B1B01103BC918EEF7E3F921466A462E31104600F092F804AA2946684600F08DF86A4604A9206857
:404F800000F095F8054611200002854215D1A08B0421401CA083207E0843207613E00120C4E7080162681038111810226846EEF7BCF921466A461E31D7E7002D03D16946AA
:404FC000204600F041F8284609B030BD30B50446008989B0010900076183000F01D0491C618300210091019102910391217E0222114314482176002517E060682901401824
:4050000004AA694600F046F86A4604A9206800F04EF8002807D0A18B0422491CA183217E1143217605E06D1CADB2618B491EA942E3DC217E490703D469462046FFF76AFF62
:4050400009B030BDFFFF000070B5002606760446027C1020801A4518607C002802D0012805D011E02946E068EEF75FF90CE02846E168EEF74BF9002806D0227C2946E068FE
:40508000EEF753F9FF2020760148067070BD00003823002030B50F23C45CCD5C6C40D4545B1EF9D530BD10B5FFF7ACFE10BD08B56A46FEF773FB002801D11120000208BD47
:4050C000012909D80C2807D20122054B82401868012902D09043186070471043FBE7000040230020014900200860704740230020704700007CB5054601AA694600F0A6F806
:40510000134C00280CD101212846F0F7A1FF002806D12846F0F7BEFF401C01D000240CE020467CBD0099A0000B58002B03D001222946FF209847641CE4B2684600798442DA
:40514000F0D301212846F0F781FF00207CBD000012A1000010B5144608461A462146F0F785FF80B210BD0000FEB5140008460DD001AA694600F06AF80100104808D169464C
:405180000B79FF2202AE0021009D0AE00B48401EFEBDFF2A03D18F00EF59002F0CD0491CC9B29942F5D38B42F2D06846007A009980000C500020FEBD3170F4E712A10000EE
:4051C0007CB5054601AA694600F040F8124C002805D100212846F0F73BFF002801D020467CBD2846F0F796FF00240AE00099A0000B58002B03D000222946FF209847641C6C
:40520000E4B2684600798442F0D300212846F0F71DFF00207CBD000012A1000010B5144608461A462146F0F763FF80B210BD10B5F0F7F0FE0020FFF75DFF10BD10B5002050
:40524000FFF7BEFFF0F7FEFE10BD0000002801D00348704704201070024808600020704711A10000AC3400200020044902468300401CC0B2CA500428F9D37047AC34002022
:40528000FF2051307047000001490860704700004423002010B50EC9F1F7D4F810BD10B50EC9F1F707F910BD38B50024E443054600290AD0052000904B68097804A0F1F73E
:4052C0007DF82860401C00D00024204638BD00007461736B0000000010B5F0F743F810BDF8B50E460546F6F7C1F8002300906C46AB20E15C002900D1E0545B1CDBB2042BDF
:40530000F7D32A463146204600F002F8F8BD0000F7B58AB03A480890001D054606900898019038480F4601680698009102910390012600241835042233A10898EDF7F5FFEB
:405340000099069880310A7902704979417006980422801C0A99EDF7E8FF8E206946087530460899303048702819049001A800F04FF8002021186A5C002A01D130226A5426
:40538000401CC0B21428F5D31434761CF6B2E4B2032EE5D9281D029000200390019568460475174E0024082F1DD908273019049001A800F02DF8002030222118735C002BA8
:4053C00000D17254401CC0B21428F6D36946097D3120685469461434087DE4B2401CC0B2087500212954BC42E0D3002004E00C99325C0A54401CC0B2B842F8D30DB0F0BDC3
:40540000BC340020482300203030303000000000F0B5BD4E07463446C56885B04034BB482060BB486060B948C043A060B848C043E060B8482061387C362801D8402104E086
:40544000762801D8802100E0C021019104280AD23968042208180021EDF770FF3A7C3968802088541CE088280DD2796804220818001F0021EDF762FF3A7C7968802089187C
:40548000203908770CE0B9680422081888380021EDF754FF3A7CB96880208918A039087600200090387C694640098870387CC000C8700198800903900020D2E000208446C9
:4054C00002988001864660467146800009183A7CC9B28A421AD3042901D23A6806E0882902D2091F7A6801E0BA68883951180A78120232504B781A43120232508B781A436B
:4055000012023250C9780A43325016E0019A083A8A4201DB00210FE06A4611780902315052781143090231506A4692781143090231506A46D278114331506046401CC0B2EE
:4055400084461028BFD32068286060686860A068A860E068E86020692861002084460007000F86466046102817D37046C01E0007800E3158704608300007800E3058414073
:405580007046801C0007800E32587046800033585A4051401F22D14131506046142809D26968AA6808461040EA688A431043E06159481EE0282807D2A96868684840E96847
:4055C0004840E061554814E03C280BD2A868EA680346696810430840194611400843E0614F4806E0A96868684840E9684840E0614C48A061E0692969A269411828681B231B
:40560000D8411018091870468000305808186061E8682861A868E86068680221C841A86028686860606928606046401CC0B28446502894D3206829684018206060686968E4
:4056400040186060A068A9684018A060E068E9684018E06020692969401820610298401CC0B203990290884200D227E7F9682078C8702088F968000A88702068F968000C0B
:4056800048702068F968000E0870F9682079C871A088F968000A88716068F968000C48716068F968000E0871F968207AC8722089F968000A8872A068F968000C4872A068EC
:4056C000F968000E0872F968207BC873A089F968000A8873E068F968000C4873E068F968000E0873F968207CC874208AF968000A88742069F968000C48742069F968000E65
:40570000087405B0F0BD0000183500200123456789ABCDEFF0E1D2C39979825AA1EBD96EDCBC1B8FD6C162CA30B500224B1E4C0805E0815CC55C8554C154521C5B1E9442E0
:40574000F7DC30BD10B5044605480069F0F7FEFE2060002801D0002010BDFF2010BD00004C23002070B50A4D0446302905D8A869F0F7ECFE2060002805D16869F0F7E6FEE8
:405780002060002801D0002070BDFF2070BD00004C23002010B5044605484068F0F7D6FE2060002801D0002010BDFF2010BD00004C23002010B504460548C068F0F7C6FE79
:4057C0002060002801D0002010BDFF2010BD00004C23002010B5044605480068F0F7B6FE2060002801D0002010BDFF2010BD00004C23002010B5044605488068F0F7A6FEB9
:405800002060002801D0002010BDFF2010BD00004C23002010B504460548C069F0F796FE2060002801D0002010BDFF2010BD00004C23002010B5F6F74FFAF6F7F3F90020B2
:4058400010BD0000014610B502480069F0F70CFF10BD00004C23002070B5084C05460146A069F0F701FF002806D029466069F0F7FBFE002800D0FF2070BD00004C2300206A
:40588000014610B502484068F0F7EEFE10BD00004C230020014610B50248C068F0F7E4FE10BD00004C230020014610B502480068F0F7DAFE10BD00004C230020014610B533
:4058C00002488068F0F7D0FE10BD00004C230020014610B50248C069F0F7C6FE10BD00004C23002070B5040068D02068344D0078287720688078E877206800796877EDF7BB
:405900000BFBC0B2022806D1687F042803D120680079401E6877287F81070BD08107890F401A0C3082B2697F2648F0F735FE002844D101E00830F5E7E87F81070CD08107E0
:40594000890F401A0C3082B21E480421001DF0F723FE002832D101E00830F4E71948202204210830F0F718FE002827D11548202203210C30F0F710FE00281FD11148502202
:4059800001211030F0F708FE002817D10D48482201211430F0F700FE00280FD10948302204211830F0F7F8FD002807D10548402202211C30F0F7F0FD002800D0FF2070BD54
:4059C000EC2800204C2300201FB501A9F6F724F904B010BD10B50D4C6069F0F7F1FEA069F0F7EEFE2069F0F7EBFE2068F0F7E8FE6068F0F7E5FEA068F0F7E2FEE068F0F704
:405A0000DFFEE069F0F7DCFE002010BD4C2300201FB501A9F6F714F904B010BDF7B5054682B000204649474A00900427681AAE188D4217D00ADC002E16D04E2E16D04F2E0F
:405A400014D0F5208000301A11D109E0012807D0072803D03C49401809D105E00A2706E00C2704E0442702E0072700E006276946381DF6F757FE002802D0072005B0F0BD7B
:405A8000009C294667702046039AF6F7D9FB0398002850D12A4A049B521C2846A91A1F0ADDB2904227D008DC002E12D0F5208000301A2BD001283ED13AE0062904D022489C
:405AC000401C081837D10CE0A11D0020F3F77CFE31E0214608311846F1F75AFB06E0607129E0214608311846F1F73EFBA571E771002820D0F3E7251DA01D08220021EDF73B
:405B00001DFCA87960210843A87114E00F480179A1710189E171090A2172417961720188A172090AE172C0882073000A607302E0A01DF6F7C1FB2146FF20F6F771F99DE7FD
:405B400002100000D3F3FFFFFDFBFFFFEC28002030B51E4B0224C21A984235D015DC1C4B0325C21A984225D008DC1A4A801826D0172826D0184A80181AD11DE02A2A1ED09C
:405B8000602A19D0782A13D11BE0144BD01A9A4210D007DC124810180CD001280AD0022806D107E0042805D001229202801A08D0002030BD002000E00820087002E00D708A
:405BC00000E00C70012030BD0420F6E77C0C0000030C0000FAFBFFFF05F8FFFF890300007BFCFFFF10B5224C131BA2423CD016DC204C131BA24228D008DC1F4BD2182DD0C6
:405C0000172A2ED01D4BD21808D121E02A2B22D0602B1DD0782B01D1F6F7B4FE10BD184C1A1BA34211D007DC164A9A180DD0012A0BD0022AF2D108E0042A06D001239B0286
:405C4000D21AEBD1F6F7AEFE10BDF6F764FE10BDF6F757FE10BDF6F7ACFE10BDF6F75CFE10BDF6F7B2FE10BDF6F730FF10BD00007C0C0000030C0000FAFBFFFF05F8FFFF9B
:405C8000890300007BFCFFFF70B50C460146304D01204B1B0646A9424DD01ADC2D4D4B1BA94237D00CDC2C4BC91838D017293CD02A4BC91803D11146204600F051F870BD24
:405CC0002A2B22D0602BFAD11146204600F070F870BD7125ED00591BAB4214D008DC012B2FD01D49803159180DD00129F0D10AE0062908D0184B1B1DC918E9D111462046BA
:405D000000F085F870BD002070BD1146204600F082F870BD1146204600F085F870BD16701146204600F058F870BD16701146204600F075F870BD16701146204600F058F8D1
:405D400070BD16701146204600F079F870BD00007B0C0000030C0000FAFBFFFF05F8FFFF10B5104B0422597A3024114059720E4A0168114001600D4A416811404160026849
:405D800050080843810A2140C00D422420400143587A120989242240104301435972002010BD0000082A00209088000200800020084AFB23517A1940517201230168DB0562
:405DC00019400160507A490D042319400843507200207047082A002070B50C460546F6F782FE002803D121462846F2F779FE70BD70B50C460021217005462146F6F719FFA6
:405E0000002803D121462846F2F720FF70BD10B5F6F71BFF10BD10B5F6F721FF10BD10B5F2F736FF10BD70B50C460546F6F727FF002803D121462846F1F7A2FA70BD70B5F8
:405E40000C460021217005462146F6F71AFF002803D121462846F2F7D1FF70BD10B5F1F76BFD10BD10B5F1F7D5FD10BD10B5F1F77FFD10BD10B5F1F703FE10BD704710B594
:405E8000F7F738FEFEF736FA10BD704710B5FEF7F1F9F7F713FE10BD704710B5FEF73CFAF7F729FE10BD000037B50C4600211546C9436846FEF766FC0849012D08D0A42234
:405EC000504341183F3110222046EDF72EFA3EBDA422504341188031F5E700003C30002073B500250C46002915D068460078FF2811D000202070411E6846FEF743FC0528E3
:405F00000ED0A421484308494018407A0007800F022802D006E005487CBD0120207001E0024D6D1C28467CBD3C300020112E000004494A6802600878002801D00020704745
:405F40000148704774230020FFFF000001490160002070478C23002010B5044B1C780470D878087018791070002010BD6C23002010B5184610220249EDF7D7F9002010BD49
:405F80008C23002001480079704700006C23002010B5114B0022A4245443E418647B844214D1A4204243985C8007800F012807D1012906D0D0184F3041220849EDF7B5F9C1
:405FC00010BDD1184F3141220448F7E7521CD2B2052AE0D310BD00003C3000208C23002010B5054982798A720146034806220B30EDF79BF910BD0000AC23002001490871EC
:40600000002070476C230020400701D5002A01D00020704700487047FFFF00007CB50C0009D06946F8F742F9002805D10B4DE879012802D007E00A487CBD29466846F7F7D0
:4060400058FF012801D007487CBD2946093110222046EDF76AF900207CBD000078350020112E0000FFFF00007CB50C46002121706946F8F71BF900280BD1064DE879012894
:4060800007D129466846F7F734FF012801D1287A20707CBD7835002010B5002406484B222146EDF74BF90548072144708170102101710830047010BD783500206C230020B2
:4060C000F8B50525074600206B46154E1D7004462246A4235A43B35C9B079B0F012B0BD1921953685B1C07D1137A834204D91846527B6B4625461A70641CE4B2052CE7D38C
:40610000052D08D0002902D06846F8F7CFF801212846FEF705FB684600783870F8BD00003C30002010B5FDF7EBFC10BD10B5002806D0014610220348EDF7F7F8002010BDAE
:40614000014810BD7C230020112E0000F8B5254D254FA4224A436C79D219012807D0022801D003283DD1107A00281BD01DE0167A002E36D00020107288420CD0A422424330
:40618000BB5C9B079B0F012B05D1D3191A7AB24201D9521E1A72401CC0B20528ECD3641E6C711BE0641C6C711472137A012B15D001201072002088420CD0A4224243BC5CCF
:4061C000A407A40F012C05D1D219147A9C4201D2641C1472401CC0B20528ECD30020FEF7EFFFF8BD6C2300203C30002010B50446407B217B00020143E07B0202A07B1043E8
:406200002268002A01D0206810BD042806D0062804D00846EEF77AFF206010BD01480068FAE70000E4210020F7B5A5498AB0164609786A461173A34A002815D00B99002924
:4062400012D0417803780C0223438C06A50FC47880781B0524021B0D89092043864203D1002901D1022D02D910460DB0F0BD05A91846F8F747FD002801D09348F5E70598CA
:4062800018214843914944180834E07A002802D0022D0BD001E0012D0BD0A07A0790E588002006900890019002906EE0204600F05DF976E0B54201D9374600E02F46E81BDB
:4062C00085B2E07A042809D3617B227B09020A430292E17BA27B09020A4301920799012902D0022949D118E021460C3140183A460B99EDF71AF8E07AC019E072002D3CD18E
:40630000607B257B000205430295E07BA17B000201430220019107902FE0A088002815D103A800903B4621460B9A059800F0D4F80028BBD10298B04202D8E07A042812D011
:406340002046FFF753FF20600028AFD0A18820683A4640180B99ECF7E8FFA088C019A080002D08D009E00B9820600298A08001200690089001E0012006900B98C0190B9067
:40638000F01B86B2069801280DD0002E92D10698012808D00798A072E58001210A20FEF78FFE002061E7019805281FD004287AD0062878D005980199C2B203A8F9F75AF841
:4063C0003F4801786846007B814209D0142358433F4BA2881B682168C018036903A8984708980128A5D1002020605FE7A08825684DE02F7868780690E878AE780002064383
:406400000C98001F8642EBDC06980028E8D0781E152841D8F80704AA1CD006990598F9F701FD002822D0012104A8002700970191029001220021069B0598F9F785FC0028F8
:406440001FD1009700231A46019704990598F9F7FDFC16E0012100206B4607C302460146069B0598F9F770FC00280AD1301D83B21849B80040184038C76B2A460499059831
:40648000B8470C98AD192D1D801B001F80B20C900028AED1A4E706E0012004A90027009702910190C5E70598182148430749A38841182268091D0198F8F752FF90E70000F8
:4064C000DD210020FFFF00002C230000342D0020F8210020548D010070B50346487B0D7B00020543C87B00240202887B049E1043621E0A812246402810D2CC80052805D024
